:020000040804EE
:10000000905700205D0204085F1C0408371B040899
:100010005D1C0408B9030408692F040800000000EF
:100020000000000000000000000000009D01040826
:10003000BB03040800000000F9010408891C04083F
:10004000770204087702040877020408770204089C
:10005000770204087702040877020408770204088C
:10006000770204087702040877020408770204087C
:10007000770204087702040877020408770204086C
:10008000770204087702040877020408770204085C
:10009000770204087702040877020408770204084C
:1000A00077020408591D040877020408770204083F
:1000B000770204087702040877020408770204082C
:1000C000770204087702040877020408770204081C
:1000D000770204085920040877020408770204080C
:1000E00077020408770204087702040877020408FC
:1000F00077020408770204087702040877020408EC
:1001000077020408770204087702040877020408DB
:1001100077020408770204087702040877020408CB
:1001200077020408770204087702040877020408BB
:1001300077020408770204087702040877020408AB
:10014000770204087702040877020408611C040897
:10015000770204087702040877020408770204088B
:10016000770204087702040877020408770204087B
:1001700077020408770204087702040800000000F0
:100180007702040877020408DFF80CD000F002F9C7
:100190000048004741310408905700202C4B196853
:1001A0000868B0E8F04F80F30988BFF36F8F4FF015
:1001B000000080F3118870470000000008480068C4
:1001C000006880F308884FF0000080F3148862B65E
:1001D00061B6BFF34F8FBFF36F8F00DF00BF00BF6B
:1001E00008ED00E0DFF80C00016841F470010160E7
:1001F000704700BF88ED00E0EFF30980BFF36F8F19
:10020000134B1A681EF0100F08BF20ED108A20E96A
:10021000F04F106009B44FF0500080F31188BFF325
:100220004F8FBFF36F8F03F01FFC4FF0000080F380
:10023000118809BC19680868B0E8F04F1EF0100F6B
:1002400008BFB0EC108A80F30988BFF36F8F704746
:1002500020000020EFF3058070470000064880472B
:1002600006480047FEE7FEE7FEE7FEE7FEE7FEE79B
:10027000FEE7FEE7FEE7FEE7491D040889010408E2
:100280002DE9F05F0546002092469B4688460646CB
:10029000814640241BE0284641464746224600F05E
:1002A00069F853465A46C01A914110D31146184670
:1002B000224600F050F82D1A67EB01084F462246FF
:1002C0000120002100F047F817EB00094E41201EE5
:1002D000A4F10104DFDC484631462A464346BDE826
:1002E000F09F40EA01039B0703D009E008C9121FF1
:1002F00008C0042AFAD203E011F8013B00F8013BE0
:10030000521EF9D27047D2B201E000F8012B491E0B
:10031000FBD270470022F6E710B513460A460446A2
:100320001946FFF7F0FF204610BD30B50B460146D9
:1003300000202022012409E021FA02F59D4205D384
:1003400003FA02F5491B04FA02F52844151EA2F12E
:100350000102F1DC30BD202A04DB203A00FA02F170
:10036000002070479140C2F1200320FA03F31943A3
:1003700090407047202A04DB203A21FA02F0002145
:10038000704721FA02F3D040C2F1200291400843A5
:1003900019467047064C074D06E0E06840F001033F
:1003A00094E8070098471034AC42F6D3FFF7F0FE0C
:1003B0000842040828420408FEE7704772B6FEE7C8
:1003C000002200F001B8000030B50E4B05460120B8
:1003D0005C7A002C14D1587A1C54587A03EB8000B4
:1003E00045605D7A03F108002A54587A421C5A721B
:1003F000303008703A2048702F208870CC70002070
:1004000030BD0000940A00202DE9F0410446876DBC
:1004100000F054F9064694F835000025022806D06D
:100420008020606584F834500120BDE8F0812068A8
:10043000016821F0160101602068416921F0800106
:100440004161206C08B9A06C20B12068016821F0DE
:10045000080101602068016821F0010101600CE0E1
:1004600000F02CF9801B052807D9202060650320A7
:1004700084F8350084F83450D7E720680068C00756
:10048000EED194F85C103F208840B860012084F8D9
:10049000350084F834500020C7E790F83510022961
:1004A00003D08021416501207047052180F8351077
:1004B0000068016821F00101016000207047000020
:1004C0002DE9F84FDFF8BCA10022012503264FF0EB
:1004D0000F090AF1040BAAF1040E00BF0B6805FA1C
:1004E00002F42340A34270D10F7907F00307012FD4
:1004F00001D0022F16D187684FEA420806FA08FC9D
:1005000027EA0C07D1F80CC00CFA08FC4CEA070CDF
:10051000C0F808C04768A7430C79C4F3001494409E
:100520003C4344600C79E443A4070AD0C4684FEA12
:10053000420C06FA0CF7BC438F6807FA0CF7274306
:10054000C7600C7904F00304022C12D1D40800EB2C
:10055000840CDCF820405707FF0E09FA07F824EA5C
:100560000804D1F8108008FA07F848EA0408CCF823
:10057000208004684FEA420C06FA0CF7BC430F795E
:1005800007F0030707FA0CF7274307604C6814F4D9
:10059000403F70D03C4C276847F480472760246870
:1005A00022F0030704F480440094384C07EB040C59
:1005B000DCF8084897074FEA177809FA08F7BC43B0
:1005C000334FB84202D1002724E054E0314FB84203
:1005D00001D101271EE0304FB84201D1022719E0B6
:1005E0002E4FB84201D1032714E02D4FB84201D15C
:1005F00004270FE02B4FB84201D105270AE02A4F0C
:10060000B84201D1062705E0284FB84201D107279B
:1006100000E0082707FA08F72743CCF80878DAF84B
:1006200000405746D1F804C09C435FEACC2C00D56B
:100630001C433C60DBF800405F46D1F804C09C439B
:100640005FEA8C2C00D51C433C60DEF80040774606
:10065000D1F804C09C435FEA8C3C00D51C433C604D
:10066000084F083F3C68D1F804C09C435FEACC3C8B
:1006700000D51C433C60521C102AFFF42FAFBDE88C
:10068000F88F0000083C014044380240003001402F
:10069000000002400004024000080240000C02403A
:1006A000001002400014024000180240001C0240EA
:1006B0000AB1816170470904FBE7000001488068C6
:1006C0007047000008000020D0F8000301F047BE8A
:1006D000D0F8000301F054BE01EB410202EBC1016E
:1006E00000EB810090F86000704701EB410202EBE3
:1006F000C10100EB8100006D7047D0F8000301F0EC
:1007000086BE2DE9F00301EB4104DDE906C9DDE910
:10071000087504EBC10400EB8404022684F83B2036
:1007200084F83F30BCF1000F0AD084F84260002505
:100730006BB1012B2FD0022B12D0032B16D10FE05F
:100740004FF0030884F8428084F83D50EFE7BCF195
:10075000010F0BD152B9DFB9012284F8552003E013
:10076000B2B194F85420B2B184F84260C4F8449015
:10077000E76484F86050256584F8391084F8615086
:10078000027C04F138010068BDE8F00302F0B4BA5D
:1007900094F85520E7E784F84250E7E72DE9F04167
:1007A00006680446304602F03DFA012875D12068FB
:1007B00002F05DFB002870D0206802F058FB800238
:1007C00003D521684FF400104861206802F04FFB08
:1007D000C00203D521684FF480104861206802F000
:1007E00046FB400103D521684FF0806048612068D6
:1007F00002F03DFB800702D5216802204861206895
:1008000002F035FB800015D521684FF0005048619B
:10081000D6F84004C0070DD11021304602F0E2F9AD
:10082000304602F0C1F90121206802F005FB2046A4
:10083000FFF74EFF206802F01AFBC00102D52046E8
:1008400001F0E9F8206802F012FB000705D5204608
:1008500000F049F8216808204861206802F007FB91
:10086000C043C0060CD42068816921F01001816169
:10087000204601F01AF92068816941F01001816178
:10088000206802F0F4FA800123D5206802F030FAE3
:10089000074600254FF0010814E01AE005F00F01AB
:1008A00008FA01F038420CD006EB4510D0F80005EC
:1008B000E9B20004204602D500F0AAFE01E000F0F3
:1008C0009CFF6D1CA068A842E8D821684FF000701A
:1008D0004861BDE8F081D0F8000301F0A3BDD0F875
:1008E000000301F0A3BDD0F8000301F081BD10B5F5
:1008F000044690F8F802012809D0012084F8F80293
:10090000206802F0D7FA002084F8F80210BD022017
:1009100010BD000002488168027811448160704770
:10092000080000200B4810B5016841F40071016017
:10093000016841F480610160016841F480710160E7
:10094000032000F099F80F2000F006F800F04AF8B4
:10095000002010BD003C024030B505461C4887B061
:100960000024016841F001010160006806A900F05F
:100970000100009001A800F02BF900F059F9154989
:100980004000B0FBF1F11548134A491E026040F2E5
:10099000E732C0E90324C0E90114846100F040FBA0
:1009A000040012D10D4800F069FB04000DD119209C
:1009B00000F034F8102D07D200222946192000F04B
:1009C0003BF80748056000E0012407B0204630BD31
:1009D0004438024040420F00000001406403002000
:1009E0000C0000200C4882B0016841F48041016095
:1009F000006800F4804000900748001F016841F043
:100A0000805101600068002200F0805000900F21AA
:100A1000901E02B000F010B844380240002809DBF4
:100A200000F01F02012191404009800000F1E02008
:100A3000C0F8001170470000F0B40E4B1B680C4664
:100A4000C3F30223C3F10705042D00D90425191DA2
:100A5000072901D2002300E0DB1E012606FA05F17A
:100A6000491E214099409E40761E16403143F0BCFD
:100A700002F08CBA0CED00E0064900F007020868AD
:100A80004FF6FF03184040EA0220034A1043086073
:100A9000704700000CED00E00000FA052DE9F0477A
:100AA0000E46050065D0DFF81481D8F80000F7B2D3
:100AB00000F00700B04207D288F80070D8F80000B4
:100AC00000F00700B04254D128683D4C810712D590
:100AD000400703D5206840F4E050206028780007E4
:100AE00003D5206840F4604020602068A96820F0A9
:100AF000F000084320602878C0072DD0304968688E
:100B00000839012812D0022813D0032811D009680F
:100B1000890700292DDA216821F0030101432160B2
:100B2000FFF7CCFD814641F2883A0EE0096889035F
:100B3000EFE709688901ECE7FFF7C0FDA0EB0901C9
:100B4000514502D90320BDE8F0872068696800F0AC
:100B50000C00B0EB810FEFD1D8F80010404601F047
:100B60000701B14207D90770006800F00700B042E2
:100B700001D00120E7E72878400705D52068E9681B
:100B800020F4E050084320602878000706D520684C
:100B9000296920F4604040EAC100206000F058F864
:100BA0002168084AC1F30311515CC8400649086036
:100BB00006480068FFF7D0FE0020C4E7003C024072
:100BC00008380240D0410408140000200C00002026
:100BD0000F2202600C4A136803F00303436013689A
:100BE00003F0F0038360136803F4E053C3601268FA
:100BF0004FF4E05303EAD20202610448006800F0B7
:100C0000070008607047000008380240003C0240BE
:100C10000448054900680968044AC1F38221515C0F
:100C2000C84070471400002008380240E041040822
:100C30000448054900680968044AC1F34231515C1F
:100C4000C84070471400002008380240E041040802
:100C5000154810B5006810F00C02144813D041106C
:100C6000042A0FD0082A0ED10F4C241F22682368B3
:100C700002F03F025B0207D52068C0F38810A0FB9A
:100C8000010106E0084610BD2168C1F38811A1FBEF
:100C900000010023FFF7F4FA2168C1F30141491C68
:100CA0004900B0FBF1F010BD083802400024F40008
:100CB0002DE9F84F04006ED02078DFF84C93C00780
:100CC000A9F104054AD009F104000168C1F38101CA
:100CD000012908D00068C0F3810002280AD1D9F8A0
:100CE0000000400206D52868800337D560680028D8
:100CF000E1D033E06068B0F5803F10D0B0F5A02FB0
:100D0000286810D020F480302860286820F48020E3
:100D100028606068A8B1FFF7D1FC06460DE028689E
:100D200040F48030F4E740F480202860F7E700BF0B
:100D3000FFF7C4FC801B642873D828688003F7D5AC
:100D40000CE0FFF7BBFC064605E000BFFFF7B6FC72
:100D5000801B6428F0D828688003F7D42078DFF857
:100D6000AC8280074FF0000A3ED5A748001D0168FD
:100D700011F00C0F08D00068C0F3810002280BD1DD
:100D8000D9F80000400207D42868800716D5E0682B
:100D9000012800D112E033E1E068B8B10120C8F8C1
:100DA0000000FFF78BFC064605E000BFFFF786FC5E
:100DB000801B0228C0D828688007F7D528682169D9
:100DC00020F0F80040EAC10028600DE0C8F800A05B
:100DD000FFF774FC064604E0FFF770FC801B022856
:100DE0001FD828688007F7D42078000722D5864FBF
:100DF00087486169703771B101210160FFF75EFCBE
:100E0000064604E0FFF75AFC801B022809D8386820
:100E10008007F7D50EE0C0F800A0FFF74FFC0646AC
:100E200005E082E0FFF74AFC801B02287DD8386885
:100E30008007F7D42078400768D5DFF8CCB10027C9
:100E40000BF13C0BDBF80000C0000BD4DBF800100A
:100E500041F08051CBF80010DBF80000012700F0D2
:100E6000805000906B4E3068C00510D4306840F45C
:100E700080703060FFF722FC009005E0FFF71EFC59
:100E80000099401A022850D83068C005F6D55E4E49
:100E9000A0686C3601280FD00528306810D020F0EB
:100EA00001003060306820F004003060A068B8B104
:100EB000FFF704FC00900FE0306840F00100F4E719
:100EC00040F004003060F7E7FFF7F8FB0099411AA3
:100ED00041F28830814266D830688007F4D50EE050
:100EE000FFF7ECFB009007E0FFF7E8FB0099411AE1
:100EF00041F28830814256D830688007F4D42FB14F
:100F0000DBF8001021F08051CBF80010A069C8B3C5
:100F10003D49091D0968C1F3810102294AD002280F
:100F2000504607D0C8F8600000E03CE0FFF7C6FB81
:100F300004463BE04746C8F86000FFF7BFFB0646A3
:100F400005E000BFFFF7BAFB801B02282BD82868FA
:100F50008001F7D4D4E907010843A16A2E4A490861
:100F600002EB0141626A41EA8211084394F82C10B5
:100F700040EA0161C9F8001001203866FFF79EFBC6
:100F8000044606E03EE000BFFFF798FB001B022886
:100F900009D828688001F7D534E000BFFFF78EFB41
:100FA000001B022802D90320BDE8F88F28688001C1
:100FB000F4D427E00128F7D0D9F80000E26900F462
:100FC000800191421CD1226A00F03F01914217D169
:100FD00047F6C071626A0140B1EB821F10D1A26A6C
:100FE0004FF0FF3300F4403103EB5202B1EB024FFC
:100FF00006D194F82C1000F07060B0EB016F01D0B6
:101000000120D1E70020CFE704380240000047422A
:10101000800E4742007000400000FFFF704770479D
:1010200010B5040003D094F83D0010B107E0012092
:1010300010BD002084F83C00204600F01EF802207D
:1010400084F83D00211D206800F08CFE012084F80A
:10105000460084F83E0084F83F0084F8400084F89D
:10106000410084F8420084F8430084F8440084F886
:10107000450084F83D00002010BD704790F83D10F9
:10108000012901D001207047022180F83D1001683C
:10109000CA6842F00102CA6000681149884214D04F
:1010A000B0F1804F11D00F4988420ED00E498842CE
:1010B0000BD00E49884208D00D49884205D00D4911
:1010C000884202D00C49884204D1816801F00701AE
:1010D000062903D0016841F001010160002070473A
:1010E000000001400004004000080040000C0040E7
:1010F000000401400040014000180040704770B5F6
:101100000446006801694FF00005C943890715D4FA
:10111000C168C943890711D4E91E01610120207704
:10112000206880698007204602D0FFF7E7FF04E0CF
:1011300000F098F8204600F096F8257720680169BD
:10114000C943490717D4C168C943490713D46FF08D
:1011500004010161022020772068806910F4407F3B
:10116000204602D0FFF7CAFF04E000F07BF82046DB
:1011700000F079F8257720680169C943090716D47A
:10118000C168C943090712D46FF008010161042046
:1011900020772068C0698007204602D0FFF7AEFFA5
:1011A00004E000F05FF8204600F05DF82577206845
:1011B0000169C943C90617D4C168C943C90613D414
:1011C0006FF010010161082020772068C06910F4D9
:1011D000407F204602D0FFF791FF04E000F042F884
:1011E000204600F040F8257720680169C943C90707
:1011F00008D1C168C943C90704D1891E01612046CD
:1012000000F032F820680169C943090609D4C168B1
:10121000C943090605D46FF0800101612046FFF73C
:10122000FDFE20680169C943490609D4C168C94364
:10123000490605D46FF040010161204600F01EF818
:1012400020680169C94389060BD4C168C94389066E
:1012500007D46FF0200101612046BDE87040FFF720
:10126000DEBE70BD7047704700680349884201D1F7
:10127000FFF750BB70470000000001407047704707
:1012800070470000F8B5016804460868CA684B69F1
:1012900010F00F0F4FF0000559D003F0010602F4D3
:1012A0009077374365D0C10705D0D10503D5216CB0
:1012B00041F001012164410705D5D90703D0216C14
:1012C00041F002012164810705D5D90703D0216CC3
:1012D00041F004012164010707D502F020013143E8
:1012E00003D0216C41F008012164216C00293AD01F
:1012F000800604D5900602D5204600F0C6FD206881
:101300004069216CC0F38010090700D460B3204607
:1013100000F094FD20684069400621D52068143013
:1013200050E8001F21F0400140E80012002AF5D1EA
:10133000A06BA8B16C490165A06BFFF7AEF800285F
:1013400011D0A06B016D01B0BDE8F04008478306E5
:101350000FD593060DD52046BDE8F84000F095BDA9
:101360002046FFF78DFFF8BD2046FFF789FF256473
:10137000F8BD266B2023012E79D1C60677D5D60677
:1013800075D50868486800904869400640D5A16B4B
:10139000086840680004000CEAD0A28D8242E7D9B8
:1013A000E085C869B0F5807F2DD020680C3050E80A
:1013B000001F21F4807140E80012002AF5D1206856
:1013C000143050E8001F21F0010140E80012002A0B
:1013D000F5D12068143050E8001F21F0400140E8AA
:1013E0000012002AF5D184F83E30256320680C30C5
:1013F00050E8001F21F0100140E80012002AF5D14A
:10140000A06BFFF701F8A08DE18D401A81B229E0B1
:10141000A08DE18D401A81B2E08D0028A8D000296E
:10142000A6D020680C3050E8002F22F4907240E8DB
:101430000026002EF5D12068143050E8002F22F04D
:10144000010240E80026002EF5D184F83E302563E5
:1014500020680C3050E8002F22F0100240E80023F2
:10146000002BF5D12046FFF70AFFF8BDFFE7050680
:101470002BD5150629D594F83D002128F5D1A06873
:10148000B0F5805F01D12069B0B1206A411C2162B2
:10149000216800784860E08C401E0004000CE08465
:1014A000E3D12068C16821F08001C1602068C16873
:1014B00041F04001C160D8E7206A0088C0F308000D
:1014C0004860206A801C2062E5E74006CDD55006C2
:1014D000CBD5CA68204622F04002CA6084F83D306D
:1014E00000F095F8C1E700002D1E040870B5040057
:1014F00004D094F83D00002510B106E0012070BD35
:1015000084F83C50204600F023F8242084F83D0065
:101510002068C16821F40051C160204600F016FD2A
:101520002068016921F4904101612068416921F03E
:101530002A0141612068C16841F40051C1602564FD
:10154000202084F83D0084F83E00002070BD00009B
:1015500070B586B0044614216846FEF7DBFE2748C6
:10156000254E256800242549143802220323B5425C
:1015700023D10D6845F010050D60096801F01001D8
:101580000591016841F0010101600068694600F0C1
:101590000100059058028DE815000720CDE90330C1
:1015A0001748FEF78DFF002205212520FFF744FA9A
:1015B0002520FFF733FA06B070BD124EB542FAD1BE
:1015C0000D6845F020050D60096801F020010591C6
:1015D000016841F0040101600068694600F0040000
:1015E0000590C0208DE815000820CDE9033006489D
:1015F000FEF766FFDFE700000010014044380240BC
:10160000000002400014014000080240704770478B
:101610002DE9F047074600680D4600EB4116D6F865
:10162000080501EB4103420703EBC5014FF006003B
:101630004FF004084FF0050A07EB810401D541463D
:101640003CE0D6F80815C90507D54FF48070C6F8F8
:101650000805072084F861001CE0D6F80815890603
:1016600003D52020C6F8080518E0D6F808150A07A3
:101670004FF0080104D5C6F8081584F861A009E008
:10168000D6F80825520514D54FF48060C6F8080531
:1016900084F861102946386801F0C8FAD6F80805C0
:1016A00080050ED52946386801F0C0FA4FF4007065
:1016B000A0E0D6F808150906F0D58021C6F808156F
:1016C000C8E7D6F808054FF00001C0074FF0100931
:1016D0004FF001023BD0386930B1A06CD6F810351C
:1016E000C3F31203C01A206584F86120E165C6F8CF
:1016F000082594F83F0030B1022804D0032809D00F
:10170000012807D012E02946386801F08FFAC6F8A0
:1017100008950BE0D6F8000540F00050C6F800052B
:1017200084F8602029463846FEF7E7FF386901282B
:1017300006D1B4F84010A06CB0FBF1F0C00704D0A3
:1017400014F8540F80F001002070BDE8F087D6F83F
:101750000805800735D594F86100022301280AD0D6
:1017600005280BD006280CD008280AD003280FD053
:10177000072818D01CE084F8602019E084F860A0E5
:1017800016E0E06D401CE065022801D9E1650DE03E
:1017900084F86030D6F8000520F0804040F000402A
:1017A000C6F8000504E0E06D401CE06584F8608048
:1017B000C6F8083594F8602029463846FEF79DFFA4
:1017C000C3E7D6F80805C006BFD594F83F00032844
:1017D00003D020B1022802D00BE0E16505E0E1650D
:1017E000386930B9032084F861002946386801F06F
:1017F0001DFA4846C6F80805A7E72DE9F047026834
:1018000002EB4114D4F8082501EB4103550703EB23
:10181000C1034FF004024FF0060A00EB830304D526
:10182000C4F8082583F861A051E0D4F808554FF0BA
:101830000007AD064FF0020C0BD52022C4F8082596
:1018400093F83D20012A33D183F83D7083F860C0BE
:101850003DE0D4F80855AD0504D54FF40072C4F846
:10186000082534E0D4F808554FF001065FEAC57842
:101870004FF040050DD0DF65D4F80825520603D59A
:1018800083F83D60C4F80855C4F8086583F86160C2
:101890001DE0D4F808855FEA48680BD583F861201D
:1018A00083F83D60DF65006801F0C0F9C4F80855B1
:1018B000BDE8F087D4F808554FF008095FEA0578CD
:1018C0004FF0050508D5C4F8089583F86150006805
:1018D000BDE8F04701F0AAB9D4F808855FEAC86806
:1018E00010D50322DF6583F8612093F83D2022B9EB
:1018F00093F83C200AB983F83D60006801F096F93E
:1019000010201AE0D4F808855FEA086818D5056940
:1019100055B1DD6D6D1CDD65022D0BD9DF6583F8DA
:101920006020FEF7EAFE07E083F861A0006801F09E
:101930007DF901E083F860C08020C4F80805B7E7AE
:10194000D4F808855FEA485807D583F861900068A5
:1019500001F06CF94FF48060EFE7D4F808855FEA96
:101960008878A5D593F86180B8F1010F0FD0B8F150
:10197000030F30D0B8F1040F2DD0B8F1050F2DD0E2
:10198000B8F1060F2DD0B8F1080F2AD03CE083F84B
:10199000606093F83F20022A01D0032A34D1026903
:1019A0002AB993F8552082F0010283F85520026984
:1019B000012A29D1DA6C3AB3B3F840502A44521EB6
:1019C000B2FBF5F2D2071FD093F8552082F0010246
:1019D00083F8552018E083F860C015E083F8605064
:1019E00012E0DD6D6D1CDD65022D03D9DF6583F826
:1019F000602009E083F860C0D4F8002522F080421E
:101A000042F00042C4F80025C4F808C593F86020ED
:101A1000FEF773FE4CE77CB504680546D4F8400435
:101A20000190D4F8400420F02E0000900198800727
:101A300009D50198C00702D02846FEF745FE009858
:101A400040F0020000900198000724D5009840F073
:101A500008000090019840071AD5A869022803D011
:101A6000E86801280CD00FE00198C0F3414002283B
:101A7000286803D0012101F0DFF905E00221FAE72F
:101A80004EF66020C4F804042846FEF728FF02E062
:101A90002846FEF720FF01988006009802D540F006
:101AA00020000090C4F840047CBD2DE9F0410246BE
:101AB00000680646016AC1F3434301F00F07C1F312
:101AC0000A15022B31D1002D2FD007EB470101EB76
:101AD000C70102EB8104616C002926D0226DE36C02
:101AE0002A449A4223D82A4601F0C5F9606C28445A
:101AF0006064206D2844206506EB4710D0F810156F
:101B0000B4F84020C1F3C941AA420ED100290CD03B
:101B1000D0F8001521F0804141F00041C0F80015D7
:101B200014F8540F80F001002070BDE8F08104200B
:101B300084F86000F9E7FEE710B504490448FEF7B1
:101B40003FFC0249491E087010BD0000190000202A
:101B5000E841040800B587B01C2206496846FEF734
:101B6000C0FB0021684601F043FB0349086007B051
:101B700000BD0000B44104080000002070B586B02C
:101B800014216846FEF7C6FB16480024016841F0A0
:101B900004010160016801F004010591016841F050
:101BA00080010160016801F080010591016841F048
:101BB0000101016000680C4E00F001004FF4007557
:101BC0000590002229463046FEF772FD012000955F
:101BD000CDE90104694630460394FEF771FC06B076
:101BE00070BD000030380240000802400C4810B5BB
:101BF0000A4901604FF4E1314160002181600C220B
:101C0000C160C0E904128161C161FFF76FFC002867
:101C100003D0BDE81040FEF7D1BB10BD001001405D
:101C2000DC0200200C4810B50A4901604FF4E13194
:101C30004160002181600C22C160C0E90412816111
:101C4000C161FFF753FC002803D0BDE81040FEF748
:101C5000B5BB10BD0014014020030020FEE7FEE7E5
:101C60000148FEF79BBD0000900700204FF47A74F6
:101C700003A001F07BF9204601F080FAF8E70000AC
:101C8000415050210D0A000010B5502080F31188FA
:101C9000BFF34F8FBFF36F8F02F03EF918B10449C5
:101CA0004FF080500860002080F3118810BD0000C4
:101CB00004ED00E030B593B030216846FEF72AFB12
:101CC00014210CA8FEF726FB1D480025016841F0F1
:101CD00080510160006800F080501190194801683F
:101CE00041F4804101600068022400F480401190BA
:101CF00001200090000401908001CDE906400420FD
:101D00000890A820CDE9090407200B906846FEF74B
:101D1000CFFF08B172B6FEE70CA90F2081E83100B1
:101D20004FF4A0500F904FF48050109005210CA854
:101D3000FEF7B4FE002801D072B6FEE713B030BD46
:101D400040380240007000400248016841F47001D0
:101D50000160704788ED00E00148FFF7D0B900004E
:101D600064030020F0B50268254C264D264E274F0F
:101D7000274B4FF0804CA04209D0604507D0A842C5
:101D800005D0B04203D0B84201D0984204D122F02D
:101D9000700E4A6842EA0E02A0421BD0604519D07C
:101DA000A84217D0B04215D0B84213D0984211D0F3
:101DB000184DA8420ED0184DA8420BD0174DA8427E
:101DC00008D0174DA84205D0164DA84202D0164D96
:101DD000A84203D122F44075CA682A434D6922F013
:101DE00080022A4302608A68C2620A688262A04254
:101DF00001D0984201D10969016301214161F0BD1F
:101E0000000001400004004000080040000C0040B9
:101E100000040140004001400044014000480140EE
:101E200000180040001C00400020004010B5806BEE
:101E30000021C185C184FFF723FA10BD01680C3170
:101E400051E8002F22F4907241E80023002BF5D1D5
:101E50000168143151E8002F22F0010241E800230B
:101E6000002BF5D1016B012909D101680C3151E832
:101E7000002F22F0100241E80023002BF5D1202191
:101E800080F83E1000210163704708B590F83E10BD
:101E9000222901D0022008BD82684FF480539A4263
:101EA00001D1016921B1816A9A421BD04AB10AE08D
:101EB0000268816A5268C2F308020A80816A891C3A
:101EC00008E0026972B10268526802F07F020A708B
:101ED000816A491C8162C18D491E0904090CC185B2
:101EE00003D019E002685268F1E70168CA6822F07D
:101EF0002002CA600168CA6822F48072CA60016860
:101F00004A6922F001024A61202180F83E10016BEB
:101F1000012903D0FFF77AFB002008BD00210163EF
:101F200001680C3151E8002F22F0100241E8002333
:101F3000002BF5D101680A68D20602D50A68496803
:101F40000091818DFFF79BF9E6E7000070B504462C
:101F500000680169E26821F440511143016121697F
:101F6000A068E26908436169114308432168CA68AF
:101F700049F20C639A430243CA6020684169A2692E
:101F800021F440711143416131492068884202D0F7
:101F90003049884202D1FEF74BFE01E0FEF738FEE1
:101FA000E2690023192164253226B2F5004F6268E8
:101FB00028D0A0FB0101930F9200FEF761F90146C2
:101FC000B0FBF5F06FF01802504301EB800006EB18
:101FD0000010B0FBF5F000F0F002B1FBF5F002EB01
:101FE0000012B1FBF5F06FF01803584301EB8000CD
:101FF00006EB0010B0FBF5F000F00F002168104474
:10200000886070BDA0FB010192185B41FEF738F9B2
:102010000146B0FBF5F00201B1FBF5F06FF01803DB
:10202000584301EB800006EBC000B0FBF5F000F078
:10203000F80002EB4002B1FBF5F0584301EB8000E1
:1020400006EBC000B0FBF5F000F00700D6E700009B
:1020500000100140001401400148FFF713B90000CF
:10206000DC0200207FB51C46012501AE002300954F
:1020700086E80E0002232A46214600F0FCF904B04F
:10208000002070BD7FB51D4690F81D33089C03B13C
:1020900000240123CDE90031CDE9022402230022EE
:1020A000294600F0E8F904B0002070BD8278012ACA
:1020B00007D10222027401224274002242828182EC
:1020C000C2820022114600F00FB87FB51C460125E0
:1020D00001AE0023009586E80E002A46214600F056
:1020E000CAF904B0002070BD2DE9F0410446012575
:1020F000807803262F46012802D002281DD105E052
:10210000A160A28127760220A0700EE0204600F098
:1021100053F8050004D0032D02D0022D04D004E0B2
:10212000A7700020207600E0A770C4F8E063314675
:102130000022D4F8D80301F02DF82846BDE8F0813C
:102140007FB51D4690F81D33089C03B10024012380
:10215000CDE90031CDE9022400231A46294600F0DA
:102160008AF904B0002070BD1FB500231446CDE9E4
:1021700000310822CDE902231A46214600F07BF9FE
:1021800004B0002010BD102907D200EB8100B0F888
:102190008413C1F30E01C0F88413002070470100BE
:1021A0004FF0000004D0012901D0022901D0022003
:1021B00070470120704700002DE9F84F0126017E8D
:1021C00004460B27032530464FF009084FF0070956
:1021D0004FF0050B4FF00D0A0C2919D2DFE801F082
:1021E000BC060E303C465265707F8BA2627904F1CA
:1021F00010012046FFF7B8FF02202BE0617920464E
:1022000000F0F2F8012804D0042817D0022815D0D5
:10221000A2E0207CE18A00F0800031B1802801D169
:10222000257676E084F818B073E0802803D100BFEB
:1022300084F818806DE084F818906AE0277668E0EA
:10224000D4F8C403E0812379A2892046A168FFF76E
:102250003CFF042020767FE02179204600F0C4F87E
:102260000128E5D005284ED1032652E0009063797D
:10227000A2892046A168FFF763FFD4F8C403E08178
:102280000620E7E76179204600F0AEF80128D2D0B9
:10229000052804D00228C5D0042803D05CE00C2017
:1022A0002076E1E72776022633E0002223791146E3
:1022B0002046FFF70AFFD4F8C403E0810820C9E7ED
:1022C0002179204600F090F8012804D00428B5D0E8
:1022D0000528C9D040E084F818A0002619E0009035
:1022E0000022637911462046FFF72AFFD4F8C40381
:1022F000E0810A20AEE76179204600F075F80128F8
:1023000004D0022894D0042898D025E0002684F830
:1023100018A0C4F8E05329460022D4F8D80300F0EE
:1023200039FF19E0617E491CC9B26176022902D8E1
:102330002076A07010E0D4F8D423062120469047E0
:102340000025657661792046FFF71DFF217920463B
:10235000FFF719FF257002263046BDE8F88F10B54B
:10236000012180F82013002280F8212380F8222305
:10237000C0F8E013D0F8D80300F00CFF002010BD27
:1023800070B50125044680F82153002084F820030D
:1023900084F82303204600F065F821792046FFF7F2
:1023A000F2FE61792046FFF7EEFEC4F8E05300220A
:1023B0002946D4F8D80300F0EDFE002070BDD0F817
:1023C000D003FEF792B9D0F8D00301EB410202EB43
:1023D000C10100EB810090F83B1011B190F854005E
:1023E000704790F855007047D0F8D003FEF774B9E5
:1023F000D0F8C413491CC0F8C41301780B2905D1C7
:10240000D0F87C13002901D089690847704710B5BE
:102410000121C0F8E013D0F8D803002200F0BAFE82
:10242000002010BD002180F823137047012180F89F
:102430002313C0F8E013D0F8D803002200F0AABE9E
:10244000D0F8D00301EB410303EBC10100EB8100A5
:1024500090F83B1011B180F8542001E080F855202D
:102460000020704710B5D0F8D003FEF740FABDE861
:102470001040FFF794BE2DE9FF410DF1280898E8C0
:10248000F0008DE8F000D0F8D003FEF73AF904B080
:10249000BDE8F041FFF783BE03460220D3F87C136A
:1024A000C9692AB1012A05D189791846FFF7FEBD0D
:1024B000C979FAE7704700002DE9F84F0546D0F8D2
:1024C0007C0301270226C469B8464FF00B0B94F831
:1024D00050004FF0090A4FF007090C2814D2DFE82A
:1024E00000F0E60614313A5461838CB9C1DF84F8F8
:1024F000611084F85060CDF8008063791F2204F1E8
:1025000054012846FFF7BEFDD1E061792846FFF768
:102510006BFF012802D002280ED010E0E06D40B120
:1025200094F86000000645D55FF0030084F8500081
:1025300085E084F8509082E084F850807FE00528A0
:1025400050D0B4E0237962892846D4F88C10FFF784
:1025500089FD042023E021792846FFF745FF012863
:1025600051D16289E06D904239D9D4F88C10801A2B
:102570001144C4F88C10E065DBD023792846FFF7BE
:1025800071FD94E084F850A059E0CDF800806379A3
:1025900022892846D4F88C10FFF774FD062084F8B1
:1025A000500084E061792846FFF71EFF012803D020
:1025B0000228C4D10520B9E72289E06D90420ED9E6
:1025C000D4F88C10801A1144C4F88C10E065B0D097
:1025D000CDF8008063792846FFF754FD2FE00020F6
:1025E000E065A6E70A20A1E723790D2204F178012E
:1025F0002846FFF737FD0820D1E721792846FFF765
:10260000F3FE012802D00528BCD050E004F8508F1A
:10261000284684F80280D5F87C13CC692179FFF72D
:10262000CEFE0D280AD12349A06F884206D1A16DA4
:10263000E06F884202D194F8840048B10227C5F8BF
:10264000E06331460022D5F8D80300F0A3FD2EE068
:102650000027F4E700222846FFF71EFF38B984F868
:10266000509024E001222846FFF716FF10B10428FD
:1026700013D01CE061792846FFF7A5FEC0F10100E8
:10268000C2B261792846FFF7DBFE21790022284695
:10269000FFF7D6FE84F850A009E084F850B006E0B9
:1026A000284600F009F8070001D184F85080384628
:1026B000BDE8F88F5553425321210174FF21417425
:1026C000002141828182C1820A46FFF70DBD10B50B
:1026D0001446D0F87C230078D3690B2801D002205F
:1026E00010BD01EB810000EBC10003EB800134223F
:1026F00020469031FDF7F5FD002010BD2DE9F84F83
:102700000646D0F87C0301EB810202EBC102C069EE
:10271000012500EB82042F4694F890204FF0040826
:102720004FF00809052A2ED000204FF0050A062A8E
:1027300002D0072A15D117E0002300901A46304630
:1027400000F077F816E002281AD024E084F8909080
:1027500028E0C6F8E08341460022D6F8D80300F00E
:1027600019FD2846BDE8F88F002300901A46304630
:1027700000F0E8F80028E6D184F890700025E8E73A
:1027800084F890A0E5E704F19C02304600F091F84F
:1027900020B10228DDD00428DBD1D7E704F8907FF0
:1027A000022060700225D4E72DE9F8430446D0F8F2
:1027B0007C03089E0F46C56994F8200360B1207819
:1027C0000B2809D107EB870000EBC70005EB800061
:1027D00090F89010012902D00220BDE8F88306216C
:1027E000297380F89010A5F8FA70394620460096B3
:1027F00000F01FF8D4F8C48340F271204FF00109B3
:10280000464309E0D4F8C413A1EB0800B0EB061F5F
:102810000CD894F8200348B139462046FFF76EFFE4
:102820000128EFD085F80C900020D6E785F80C90B1
:10283000D2E72DE9F041154602461F46D2F87C3317
:102840000220069EDC6994F85230012B06D0022B40
:102850002DD1BDE8F0411046FFF72EBEB4F8980028
:1028600010217043E065802084F860000A2084F81D
:10287000620004F16300FDF74DFD282084F8630039
:10288000280E84F86500280C84F86600280A84F86D
:10289000670084F86850300A84F86A0084F86B6036
:1028A000012004F8500F0220A0700120E763BDE86A
:1028B000F08170B5154602460E46D2F87C13022010
:1028C000CC6994F85210012914D0022911D1314653
:1028D0001046FFF7F1FD00280BD154F88C1F8978C2
:1028E00001F00F0129702168097B69702168497B1B
:1028F000A97070BD0E258020E56584F860000A206F
:1029000084F86200102104F16300FDF703FD032049
:1029100084F86300700184F86400002084F8650086
:1029200084F8660084F8675084F86800012084F811
:102930005000022084F8520004F11000C4F88C000A
:10294000012070BD2DE9F041154602461F46D2F820
:102950007C330220069EDC6994F85230012B06D0AD
:10296000022B2DD1BDE8F0411046FFF7A5BDB4F80C
:10297000980010217043E065002084F860000A2070
:1029800084F8620004F16300FDF7C4FC2A2084F897
:102990006300280E84F86500280C84F86600280A75
:1029A00084F8670084F86850300A84F86A0084F874
:1029B0006B60012004F8500F0220A0700120E76333
:1029C000BDE8F081D0F87C230078D2690B2808D1CB
:1029D00001EB810000EBC10002EB800090F8910058
:1029E00008B100207047012070472DE9F8430446E4
:1029F000D0F87C03089E0F46C56994F8200360B1A7
:102A000020780B2809D107EB870000EBC70005EB06
:102A1000800090F89010012902D00220BDE8F883D0
:102A20000721297380F89010A5F8FA7039462046DE
:102A30000096FFF787FFD4F8C48340F271204FF06F
:102A40000109464309E0D4F8C413A1EB0800B0EB38
:102A5000061F0CD894F8200348B139462046FFF7EA
:102A60004DFE0128EFD085F80C900020D6E785F8C0
:102A70000C90D2E70020704730B58DB01546012488
:102A800049B1012909D0022910D0032918D0042402
:102A90000DB0204630BD0024FAE701466A460E48D4
:102AA000FFF715FE0028F3D1019813E001466A46AE
:102AB0000948FFF70CFE0028EAD1BDF8080009E03C
:102AC00001466A460448FFF702FE0028E0D1BDF83F
:102AD0000800400A2860DEE7AC03002030B58FB064
:102AE000054600930B46014601240C48FFF75CFEA7
:102AF00068B101AA29460948FFF7E9FD9DF81100D0
:102B0000042806D0282804D03A2803D101E0002464
:102B100000E003240FB0204630BD0000AC030020CD
:102B200010B5014601240348FFF74CFF00B1002413
:102B3000204610BDAC03002030B58FB00546009391
:102B40000B46014601240E48FFF74FFF78B101AA5A
:102B500029460B48FFF7BBFD9DF8110004280AD059
:102B6000272806D0282806D03A2805D103E00024DB
:102B700002E0022400E003240FB0204630BD000034
:102B8000AC03002000EB4110064AC0F81025D0F835
:102B9000001521F0804141F00041C0F800150020EF
:102BA000704700000000088008B500220C49009220
:102BB000009B5B1C00938B420AD80369002BF7DA59
:102BC000009210220261009A521C00928A4201D99E
:102BD000032008BD0269D206F5D4002008BD00001C
:102BE000400D030018B500230D4A0093009C641C9F
:102BF000009494420CD80469002CF7DA0093202347
:102C000043EA811101610099491C0091914201D967
:102C1000032018BD01698906F5D4002018BD000005
:102C2000400D0300406900F00100704718B5002214
:102C300000EB41110092D1F80025D1F80035C2F324
:102C400081428468DB0FA40600D51BB34FF47A736E
:102C50006AB1022A0BD0D1F8002542F08042C1F8B7
:102C60000025D0F8100410F47F0F2BD00CE0D1F821
:102C7000002542F08042C1F800258268920609D4FE
:102C8000C06A10F47F0F07D0D1F8000540F0004073
:102C9000C1F80005002018BDD1F8000520F0004063
:102CA000C1F80005D1F8000540F00040C1F800056A
:102CB0000098401C00909842ECD8D1F800050028FC
:102CC000F6DBE7E7D1F8000520F00040C1F8000589
:102CD000D1F8000540F00040C1F800050098401C04
:102CE00000909842D6D8D1F800050028F6DBD1E74D
:102CF000D0F8140480B27047F8B54C78C56B4FF427
:102D00008073ED0515D50D799DB9012A01D06AB101
:102D10000FE0CD790DB1022D0BD100EB4415D5F8A4
:102D20000C6526F07006C5F80C6502E04D79012DA2
:102D30000DD04E697EB10D8977197F1EB7FBF5F76F
:102D4000BFB29F4208D91F462B020B6104E0214607
:102D5000FFF718FF6EE00127CB781BB10B897B438F
:102D60000B6101E033460E61C3F312056FF060435F
:102D700003EAC7431D438B7A4FF0C04606EA43730C
:102D80001D4300EB4413C3F8105512B1CC68C3F8CF
:102D90001445D0F80844D3F8005544F3000425F056
:102DA0000055C3F80055D3F80055641C45EA447437
:102DB000C3F80045D3F8004524F080440094CC7853
:102DC000002C009C02D044F4004401E024F40044B0
:102DD00044F000440094C3F800455ABBCA784ABB8B
:102DE0004A693AB3CB7933B1012B0FD0022B02D011
:102DF000032B17D10AE0D21CC36AC2F38F029BB225
:102E000093420FD2826942F020020AE0D21CD0F82D
:102E10001034C2F38F029BB2934203D2826942F014
:102E200080628261002200928A8A93B24A78C968DD
:102E300000F086F80020F8BDD0F8002422F003024C
:102E4000C0F80024D0F8002401F003031A43C0F8AE
:102E50000024012902D0022903D006E04BF680317C
:102E600001E041F27071C0F804140020704741691C
:102E700080690840704730B503460846940802F060
:102E80000301002203F5805303E01D6840F8045B52
:102E9000521CA242F9D300290BD01C680022D50095
:102EA00024FA05F3491E521C090400F8013B090CE1
:102EB000F5D130BD38B5002504460095806820F076
:102EC0000100A06010212046FFF78CFE00B1012513
:102ED0002046FFF769FE00B10125002004EB4011F8
:102EE000D1F8002522F0802242F08042C1F800256E
:102EF000401C0F28F2D900204FF47A7304EB4011E4
:102F0000D1F8002522F4004242F04042C1F80025E9
:102F1000009A521C00929A4203D8D1F80025002A48
:102F2000F6DB401C0F28E9D94FF0FF30C4F8140439
:102F30006061A06840F00100A060284638BD000034
:102F400010B5029C74B9DB1C9C0800EB0230002316
:102F500000F5805004E000BF51F8042B02605B1CB8
:102F6000A342F9D3002010BDFEE700000FB4054BCB
:102F700010B503A9044A029800F028F810BC5DF8C7
:102F800014FB000021310408040000200907090E89
:102F9000002804DB00F1E02080F80014704700F006
:102FA0000F0000F1E02080F8141D704702E008C80F
:102FB000121F08C1002AFAD170477047002001E0B3
:102FC00001C1121F002AFBD1704700002DE9FF4FFD
:102FD00089B09B460446002506E025280BD05A46BA
:102FE0000B999047641C6D1C20780028F5D10DB01A
:102FF0002846BDE8F08F0027B8460122474900E087
:10300000074314F8013F203B02FA03F00842F7D1CE
:1030100020782E2819D114F8010F47F004072A2828
:103020000ED06FF02F022078A0F1300109290CD8C2
:1030300008EB880102EB410100EB0108641CF2E798
:103040000A98641C50F8048B0A9020780028CED08F
:10305000642808D0692806D075281ED05A460B99D6
:1030600090476D1C58E00A994FF00A0901C90A916E
:10307000002802DA40422D2102E0390504D52B2137
:103080008DF82010012103E0F90704D02021F7E793
:103090008A4608AE0DE00021FAE70A994FF00A09C6
:1030A00001C90A91F7E74946FDF73FF9303106F8C3
:1030B000011D0028F7D1ADEB060000F120097807CB
:1030C00001D44FF00108C84502DDA8EB090000E07B
:1030D00000208046002706E008A85A46C05D0B99EC
:1030E00090476D1C7F1C5745F6DB04E030205A46A4
:1030F0000B9990476D1CB8F10001A8F10108F5DCAF
:1031000005E016F8010B5A460B9990476D1CB9F172
:103110000001A9F10109F4DC641C65E7092801003C
:1031200003490A685206FCD5C2B24A6070470000E3
:1031300000100140EFF30580002800D00120704707
:103140000A4909480860FDF7EDFBFEF7B3FDFEF7FD
:1031500015FDFEF74BFDFEF765FDFEF7EDFCFEF7F6
:10316000F9FC00F012F8FEE70000040808ED00E0AA
:1031700001460020842900D0C81C704710B500B952
:10318000012000F0E7FB002010BD10B500F02EFC80
:10319000002010BD37B5054682B000200090140015
:1031A00000D10124FFF7C6FF4FF0000388B16A4643
:1031B00003A9284600F0B0FD012811D1009890B174
:1031C0000A494FF080500860BFF34F8FBFF36F8FF5
:1031D00009E0224603A9284600F0EEFC012802D0AF
:1031E000FF2005B030BD0020FBE7000004ED00E04B
:1031F0007FB50D4604464169B0F9080081B1A16967
:1032000071B1FFF7B5FFD4E905128DE80700D4E9E5
:1032100000102B46226900F046FE039004B070BDFA
:10322000FFF7A6FF03A9CDE90001208A2B4682B251
:10323000D4E9001000F00AFE012801D00020EDE7DB
:103240000398EBE72DE9F041184C0F460546E66878
:103250002068001D00F08CFA38B9206890F82C1016
:1032600001208840216981432161681C07D137B161
:103270002168BDE8F0410E48091D00F0BDBA206884
:103280003544B5424560216805D2A06BBDE8F041E8
:10329000091D00F099BA606B091D00F095FAA06A4B
:1032A000854200D2A562BDE8F08100002000002028
:1032B0007C0B00202DE9F041054600F0A9FA2E4CC8
:1032C000A068401CA06020682C4F10B1606940B31A
:1032D0002DE02560A068012829D1002606EB860094
:1032E00007EB800000F062FA761C072EF6D3234825
:1032F0008C3000F05BFA2148A03000F057FA1F48EC
:10330000B43000F053FA1D48C83000F04FFA1B48A3
:10331000DC3000F04BFA19488C3060631430A06345
:1033200005E02068E96AC06A884200D82560606AC2
:10333000401C6062E96A01202269884010432061D4
:1033400001EB810007EB8000291D00F055FA00F029
:103350007FFA606900280CD02068E96AC06A884258
:1033600007D207494FF080500860BFF34F8FBFF37B
:103370006F8FBDE8F081000020000020A00A00202F
:1033800004ED00E02DE9F041856B17460446002668
:10339000026C82B1C7B1E068FCF7A3FFE168206C62
:1033A000091AE1602268914202D2A168081AE0601D
:1033B000022F16D017E02068A8B9A06800F012FE0E
:1033C00006460020A0600EE06068FCF78AFF216CD2
:1033D000606808446060A168884204D32068606027
:1033E00001E005B16D1E6D1CA5633046BDE8F0819E
:1033F00010B5044690F8510058B101280CD00228AD
:103400000FD0502080F31188BFF34F8FBFF36F8F21
:10341000FEE7206B00F030FA2046BDE8104000F0D7
:103420002BBA10BD10484FF47051420706D0C01D92
:103430000D4920F00700411AC1F570510B4A0023D5
:103440000144C2E900030839183A21F0070111606C
:103450004B600B600B1AC0E9001393604FF0004003
:103460005360506170470000900B002074000020F2
:10347000144E154CA6F1C8074FF08058DFF84C9059
:1034800012E000BF00F0C4F9F068C568281D00F024
:103490006FF9A068401EA0606068401E606000F088
:1034A000D7F92846FFF7A4FF60680028EAD13868FA
:1034B0000128F9D9C9F80080BFF34F8FBFF36F8F90
:1034C000F2E70000680B00202000002004ED00E07F
:1034D0002DE9F0479A46DDE9098481466FF0030340
:1034E000206B03EB82021044089E20F00707780748
:1034F00007D0502080F31188BFF34F8FBFF36F8F39
:10350000FEE7002561B1002023180A5C83F834200F
:103510000A5C12B1401C1028F6D384F8435001E035
:1035200084F83450072E00D30626E662C4E91165FC
:10353000201D00F046F904F1180000F042F9246162
:10354000C6F107006462A061E56484F850505246F9
:103550004946384600F0F6F82060B8F1000F01D077
:10356000C8F80040BDE8F08730B5114900E01146C9
:103570000A688242FBD34B685C18844203D14068DE
:1035800018444860084643681C18944209D1084C06
:10359000183C2468A24209D052681A4442600A6862
:1035A00012680260814200D0086030BD0460F9E713
:1035B000740000200648416B096829B1416BC96855
:1035C000C9684968816270474FF0FF31FAE700002F
:1035D0002000002008484068401C4FF0500080F355
:1035E000118804D0BFF34F8FBFF36F8FFEE7BFF397
:1035F0004F8FBFF36F8FFEE77C0000202DE9F04175
:10360000044600F005F994F9455004F1240609E058
:10361000606A48B1304600F031FD08B100F0C8F9E9
:103620006D1E6DB2002DF3DC4FF0FF3684F845605F
:1036300000F00EF900F0ECF894F9445004F1100792
:1036400009E0206948B1384600F018FD08B100F0E3
:10365000AFF96D1E6DB2002DF3DC84F84460BDE857
:10366000F04100F0F5B800002DE9F04105460027D3
:1036700000F0F2F9324E306808B9FFF7D3FE7069F6
:1036800005424ED1C5B3083568070ED005F00700D6
:10369000C0F108000544680707D0502080F3118866
:1036A000BFF34F8FBFF36F8FFEE72DB37068854276
:1036B00037D82348183001460C6801E020460C46F4
:1036C0006168A94202D221680029F7D131688C4291
:1036D00027D007682168016060680837411B1029FE
:1036E0000FD96019420708D0502080F31188BFF32A
:1036F0004F8FBFF36F8FFEE713E041606560FFF708
:1037000033FF61687068401A7060B268904200D2FE
:10371000B060706901430020C4E90001F068401CFA
:10372000F06000F0E5FC780707D0502080F31188A6
:10373000BFF34F8FBFF36F8FFEE73846BDE8F081D0
:103740005C00002010B5031F4FF080741C601B1F2D
:1037500021F001011960191F044B0B6014390A6034
:10376000091F6FF0020244380A6010BDD535040805
:10377000D0E9013201699A60D0E901235A604A68B0
:10378000824201D182684A60002202610868401EBC
:103790000860086870470000034B036003F15400A1
:1037A00008608020106070478800002000F1080148
:1037B0004FF0FF32C0E90112C160016100210160D8
:1037C000704700210161704730B50B685A1C02D068
:1037D00000F1080202E0026904E02246546825680C
:1037E0009D42FAD953684B6099608A6051600861C4
:1037F0000168491C016030BD42684A6093688B6073
:1038000093685960916008610168491C01607047C4
:10381000502080F31188BFF34F8FBFF36F8F0A4999
:103820004868401C486001280CD10848006810F026
:10383000FF0F07D0502080F31188BFF34F8FBFF3E5
:103840006F8FFEE7704700007C00002004ED00E071
:103850000849486828B1401E486001D180F31188AA
:103860007047502080F31188BFF34F8FBFF36F8FE5
:10387000FEE700007C00002070B500282AD0164D1D
:10388000A0F1080460686969084207D1502080F3FC
:103890001188BFF34F8FBFF36F8FFEE722683AB1F5
:1038A000502080F31188BFF34F8FBFF36F8FFEE777
:1038B0008843606000F0D0F8606869680844686018
:1038C0002046FFF751FE2869401C2861BDE8704082
:1038D00000F00EBC70BD00005C0000204FF0E02046
:1038E00000210161816105494FF47A720968B1FBD9
:1038F000F2F1491E41610721016170471400002067
:1039000010B5FCF7A7FC114910280ED300F1E020F8
:1039100090F8F0030A78904207D2502080F3118883
:10392000BFF34F8FBFF36F8FFEE7094800688968C8
:1039300000F4E060884207D9502080F31188BFF37B
:103940004F8FBFF36F8FFEE710BD00007C0000209B
:103950000CED00E010B5020014D00F48006B38B138
:10396000502080F31188BFF34F8FBFF36F8FFEE7B6
:1039700000F072F800211046FFF764FC00F0B8FB7D
:10398000002807D105494FF080500860BFF34F8FE2
:10399000BFF36F8F10BD00002000002004ED00E099
:1039A00002490A6A0260C96841607047200000202D
:1039B00001490120C86170472000002010B50C4665
:1039C00050B1094909681831FFF7FEFE2046BDE8ED
:1039D00010400121FFF736BC502080F31188BFF35F
:1039E0004F8FBFF36F8FFEE72000002010B586B029
:1039F0000024039405AA04A903A80494FFF7CCFEAD
:103A0000DDE903010094CDE9011000230EA1104867
:103A1000059A00F048FA0F490028C86211D05020DA
:103A200080F31188BFF34F8FBFF36F8F4FF0FF30DC
:103A3000886201204861CC6006B0BDE8104000F00B
:103A400041B806B010BD000049444C4500000000DC
:103A500071340408200000200248016B491C0163F6
:103A600070470000200000201448016B11B10121B3
:103A7000C16170470021C1610169B1FA81F1C1F1F1
:103A80001F0101EB81020E4951F822306BB101EBAD
:103A9000820101F108034A6852684A609A4201D1E2
:103AA00052684A60D16801607047502080F31188E5
:103AB000BFF34F8FBFF36F8FFEE7000020000020A1
:103AC000A00A00201CB537480168374A914207D147
:103AD000502080F31188BFF34F8FBFF36F8FFEE745
:103AE00000683149491E884207D1502080F311886F
:103AF000BFF34F8FBFF36F8FFEE72C49087801901B
:103B0000FF20087008788DF800009DF800009DF8EF
:103B1000002000F0F000904207D0502080F3118880
:103B2000BFF34F8FBFF36F8FFEE79DF80000204C6F
:103B300000F0500020700720A06005E09DF80020F4
:103B400052008DF80020401E9DF800201206F5D48A
:103B5000A060032807D0502080F31188BFF34F8F57
:103B6000BFF36F8FFEE74FF44070A06001980870BC
:103B70000C482030016841F470010160016841F097
:103B800070410160FFF7AAFE00206060FCF72AFB8D
:103B90000848016841F040410160FCF70FFB00203C
:103BA0001CBD000000ED00E071C20F4100E400E028
:103BB0007C00002034EF00E02DE9FF4782B01D4675
:103BC0008A464FF00008040003D0BAF1000F08D075
:103BD00011E0502080F31188BFF34F8FBFF36F8F38
:103BE000FEE7206C38B1502080F31188BFF34F8F6F
:103BF000BFF36F8FFEE7022D0AD1E06B012807D0DB
:103C0000502080F31188BFF34F8FBFF36F8FFEE713
:103C100000F074F93F4F4FF000094FF0805648B95B
:103C2000049838B1502080F31188BFF34F8FBFF351
:103C30006F8FFEE7FFF7ECFDA06BE16B884207D3C7
:103C4000022D05D00498D0B1B8F1000F1AD01EE0B3
:103C50002A4651462046FFF795FB616A19B104F1E7
:103C6000240000F00BFA20B13E60BFF34F8FBFF38A
:103C70006F8FFFF7EDFD012006B0BDE8F087FFF77D
:103C8000E7FD22E06846FFF78BFE4FF00108FFF7E3
:103C9000DFFDFFF7E1FEFFF7BBFD94F94400401C98
:103CA00001D184F8449094F94500401C01D184F876
:103CB0004590FFF7CDFD04A9684600F08DF830B1BE
:103CC0002046FFF79BFC00F013FA0020D4E7FFF733
:103CD0009FFDA06BE16B884213D1FFF7B9FD04F1A2
:103CE00010000499FFF76AFE2046FFF787FC00F0FA
:103CF000FFF900289ED13E60BFF34F8FBFF36F8F57
:103D000098E7FFF7A5FD2046FFF778FC00F0F0F9F3
:103D100090E7000004ED00E02DE9F0471F469046D3
:103D20008946040003D0B9F1000F08D011E05020FB
:103D300080F31188BFF34F8FBFF36F8FFEE7206CC6
:103D400038B1502080F31188BFF34F8FBFF36F8FCE
:103D5000FEE7022F0AD1E06B012807D0502080F344
:103D60001188BFF34F8FBFF36F8FFEE7FFF7C8FDDA
:103D70005020EFF3118680F31188BFF34F8FBFF30C
:103D80006F8FA06BE16B884206D3022F04D0002016
:103D900086F31188BDE8F08794F94550A06B3A4648
:103DA00049462046FFF7EEFA681C04D06D1C84F8E3
:103DB00045500120ECE7606A0028FAD004F12400A5
:103DC00000F05CF90028F4D0B8F1000FF1D0012127
:103DD000C8F80010EDE700002DE9F0410C460500A1
:103DE00011D0C4B1FFF714FD174BDA686E68206874
:103DF000911B471C17D02F681B6A9F4219D096420F
:103E000017D8012410E0502080F31188BFF34F8FA2
:103E1000BFF36F8FFEE7502080F31188BFF34F8F01
:103E2000BFF36F8FFEE70024FFF712FD2046BDE8C9
:103E3000F081884205D9401A20602846FFF7B0FD7E
:103E4000F1E700202060DCE7200000202DE9FF5F83
:103E50008346DDE90E87994616468A469000FFF7AD
:103E600003FC05001CD05420FFF7FEFB040014D017
:103E70000020256384F85100CDE90240CDE9008798
:103E80004B46324651465846FFF722FB2046FFF785
:103E900011FA012004B0BDE8F09F2846FFF7ECFCC2
:103EA0004FF0FF30F6E7F0B585B0DDE90B640A9D11
:103EB000A6B1DCB1542700972663022684F851602E
:103EC000002604AFCDE90246CDE90057FFF700FB1D
:103ED0002046FFF7EFF9049805B0F0BD502080F3BD
:103EE0001188BFF34F8FBFF36F8FFEE7502080F331
:103EF0001188BFF34F8FBFF36F8FFEE7054841690D
:103F000019B1006B18B100207047012070470220E2
:103F100070470000200000202DE9F0412F4C0026C2
:103F2000206B28B1A069401CA0613046BDE8F0813B
:103F3000E5686D1CE56013D1606B006838B15020F6
:103F400080F31188BFF34F8FBFF36F8FFEE7606B75
:103F5000A16B6163A063206A401C2062FFF72AFB0B
:103F6000A06ADFF87C80854209D3606B0068A0B14D
:103F7000606BC068C7687868854211D2A06220680B
:103F8000C06A00EB800158F82100012800D9012601
:103F9000E0690028C9D00126C7E74FF0FF30EDE700
:103FA000381DFFF7E5FBB86A18B107F11800FFF7F5
:103FB000DFFBF96A0120226988401043206101EB90
:103FC000810108EB8100391DFFF716FCF86A2168B2
:103FD000C96A8842C9D30126C7E700002000002033
:103FE000A00A002070B504004FF0000140D0214D20
:103FF0002868844207D0502080F31188BFF34F8F88
:10400000BFF36F8FFEE7A06C38B1401EA064636CF5
:10401000E26A9A422CD040B12AE0502080F3118805
:10402000BFF34F8FBFF36F8FFEE7201DFFF7A0FB9D
:10403000114A012150B9E06A00EB800352F82330A5
:1040400023B92B6901FA00F083432B61606CE062B5
:10405000C0F10700A061E06A2B6981401943296122
:1040600000EB800002EB8000211DFFF7C5FB012162
:10407000084670BD20000020A00A00202DE9F04174
:10408000C068C468ACB104F118000746FFF770FBC4
:10409000154D286B0126A0B139461448FFF7ACFB3B
:1040A000E06A2968C96A88421CD90120EE61BDE82E
:1040B000F081502080F31188BFF34F8FBFF36F8FD3
:1040C000FEE7201DFFF754FBE16A2A6906FA01F0BA
:1040D0001043286101EB81000449B43901EB8000F1
:1040E000211DDBE70020E2E720000020540B002028
:1040F0002DE9F0472C4D00242746286B38B1FFF7F7
:1041000087FB286B401E2863286B40B146E0502097
:1041100080F31188BFF34F8FBFF36F8FFEE7A9685D
:10412000224E0120D1B3A6F1B40980463068E8B12F
:10413000F068C46804F11800FFF71AFB201DFFF7B0
:1041400017FBE06A2A6908FA00F11143296100EBC4
:10415000800109EB8100211DFFF74EFBE06A296811
:10416000C96A8842E2D3C5F81C80DFE70CB1FFF7CB
:1041700021FAAC6944B14646FFF7CEFE00B1EE61CC
:10418000641EF9D10020A861E86938B10849012707
:1041900038070860BFF34F8FBFF36F8FFFF758FBEF
:1041A0003846BDE8F087000020000020540B0020B6
:1041B00004ED00E0FC4104086D1C04080000000050
:1041C000000000008000000000000000000000006F
:1041D00000000000000000000102030406070809B7
:1041E0000000000001020304752A0408212B0408C2
:1041F000DD2A0408392B0408792A040864656661FD
:10420000756C745461736B00284204080000002030
:1042100088000000AC2F0408B04204088800002089
:1042200008570000BC2F0408000000000000000038
:104230000100000010000000000000000024F40055
:10424000000000000000000000000000000000006E
:10425000000000000000000000000000000000005E
:10426000000000000000000000000000000000004E
:10427000000000000000000000000000000000003E
:10428000000000000000000000000000000000002E
:10429000000000000000000000000000000000001E
:1042A0000000000000000000AAAAAAAA0000000066
:040000050804018961
:00000001FF
