:020000040804EE
:10000000B82700209D0104082F1B0408D7190408F5
:100010002D1B0408F90204087538040800000000CC
:100020000000000000000000000000003F1B04086A
:100030004D030408000000003D1B0408411B040898
:10004000B7010408B7010408B7010408B7010408A0
:10005000B7010408B7010408B7010408B701040890
:10006000B7010408B7010408B7010408B701040880
:10007000B7010408B7010408B7010408B701040870
:10008000B7010408B7010408B7010408B701040860
:10009000B7010408B7010408B7010408B701040850
:1000A000B7010408B7010408B7010408B701040840
:1000B000B7010408B7010408B7010408B701040830
:1000C000B7010408B7010408B7010408B701040820
:1000D000B7010408151E0408B7010408B701040895
:1000E000B7010408B7010408B7010408B701040800
:1000F000B7010408B7010408B7010408B7010408F0
:10010000B7010408B7010408B7010408B7010408DF
:10011000B7010408B7010408B7010408B7010408CF
:10012000B7010408B7010408B7010408B7010408BF
:10013000B7010408B7010408B7010408B7010408AF
:10014000B7010408B7010408B7010408311B04080B
:10015000B7010408B7010408B7010408B70104088F
:10016000B7010408B7010408B7010408B70104087F
:10017000B7010408B7010408B70104080000000033
:10018000B7010408B7010408DFF80CD000F0A2F8AA
:1001900000480047913A0408B827002006488047E5
:1001A00006480047FEE7FEE7FEE7FEE7FEE7FEE75C
:1001B000FEE7FEE7FEE7FEE7D91B04088901040815
:1001C0002DE9F05F0546002092469B46884606468C
:1001D000814640241BE0284641464746224600F01F
:1001E00069F853465A46C01A914110D31146184631
:1001F000224600F050F82D1A67EB01084F462246C0
:100200000120002100F047F817EB00094E41201EA5
:10021000A4F10104DFDC484631462A464346BDE8E6
:10022000F09F40EA01039B0703D009E008C9121FB1
:1002300008C0042AFAD203E011F8013B00F8013BA0
:10024000521EF9D27047D2B201E000F8012B491ECC
:10025000FBD270470022F6E710B513460A46044663
:100260001946FFF7F0FF204610BD30B50B4601469A
:1002700000202022012409E021FA02F59D4205D345
:1002800003FA02F5491B04FA02F52844151EA2F1EF
:100290000102F1DC30BD202A04DB203A00FA02F131
:1002A000002070479140C2F1200320FA03F3194364
:1002B00090407047202A04DB203A21FA02F0002106
:1002C000704721FA02F3D040C2F120029140084366
:1002D00019467047064C074D06E0E06840F0010300
:1002E00094E8070098471034AC42F6D3FFF750FF6C
:1002F000783B0408983B0408FEE7000010B5002294
:100300004FEA020100EB8203521CC3F88413102A47
:10031000F8D300224FF400738418521C84F81C1187
:100320009A42F9D30170417001228270C0F8C4135F
:10033000027640238371417680F81C1380F81D23D8
:1003400080F81F1380F81E13002010BD704772B68E
:10035000FEE70022AFF3008030B50E4B05460120CA
:100360005C7A002C14D1587A1C54587A03EB800024
:1003700045605D7A03F108002A54587A421C5A728B
:10038000303008703A2048702F208870CC700020E0
:1003900030BD0000AC0700202DE9F0410446876D18
:1003A00000F066F9064694F835000025022806D0CC
:1003B0008020606584F834500120BDE8F081206819
:1003C000016821F0160101602068416921F0800177
:1003D0004161206C08B9A06C20B12068016821F04F
:1003E000080101602068016821F0010101600CE052
:1003F00000F03EF9801B052807D920206065032006
:1004000084F8350084F83450D7E720680068C007C6
:10041000EED194F85C103F208840B860012084F849
:10042000350084F834500020C7E790F835100229D1
:1004300003D08021416501207047052180F83510E7
:100440000068016821F00101016000207047000090
:1004500070B5044600F00CF90546601C02D0044853
:100460000078044400F004F9401BA042FAD370BDA8
:10047000080000202DE9F84FDFF8BCA1002201257B
:1004800003264FF00F090AF1040BAAF1040E00BF76
:100490000B6805FA02F42340A34270D10F7907F0EC
:1004A0000307012F01D0022F16D187684FEA4208B7
:1004B00006FA08FC27EA0C07D1F80CC00CFA08FC75
:1004C0004CEA070CC0F808C04768A7430C79C4F38E
:1004D000001494403C4344600C79E443A4070AD0E0
:1004E000C4684FEA420C06FA0CF7BC438F6807FA5F
:1004F0000CF72743C7600C7904F00304022C12D1D7
:10050000D40800EB840CDCF820405707FF0E09FAF2
:1005100007F824EA0804D1F8108008FA07F848EA36
:100520000408CCF8208004684FEA420C06FA0CF765
:10053000BC430F7907F0030707FA0CF7274307605E
:100540004C6814F4403F70D03C4C276847F4804717
:100550002760246822F0030704F480440094384C98
:1005600007EB040CDCF8084897074FEA177809FAFC
:1005700008F7BC43334FB84202D1002724E054E0CF
:10058000314FB84201D101271EE0304FB84201D1AE
:10059000022719E02E4FB84201D1032714E02D4F56
:1005A000B84201D104270FE02B4FB84201D10527F3
:1005B0000AE02A4FB84201D1062705E0284FB84289
:1005C00001D1072700E0082707FA08F72743CCF8EE
:1005D0000878DAF800405746D1F804C09C435FEA37
:1005E000CC2C00D51C433C60DBF800405F46D1F8C2
:1005F00004C09C435FEA8C2C00D51C433C60DEF8B1
:1006000000407746D1F804C09C435FEA8C3C00D59B
:100610001C433C60084F083F3C68D1F804C09C4331
:100620005FEACC3C00D51C433C60521C102AFFF40E
:100630002FAFBDE8F88F0000083C0140443802406D
:100640000030014000000240000402400008024067
:10065000000C02400010024000140240001802404A
:10066000001C02400AB1816170470904FBE70000E9
:10067000014880687047000008000020D0F800039F
:1006800001F09DBDD0F8000301F0A3BD006802F0A9
:1006900027BE01EB410202EBC10100EB810090F8A3
:1006A0006000704701EB410202EBC10100EB8100E9
:1006B000006D704710B5044690F8F802012809D083
:1006C000012084F8F802206802F019FE002084F866
:1006D000F80210BD022010BD2DE9FE430546DDE9FC
:1006E0000B7095F8F842DDF828C0012C1ED001EB04
:1006F000410404EBC1044FF0010905EB840485F8C3
:10070000F892002684F83D6084F83830A4F8400060
:1007100084F8391084F83F7002F07F0884F83A803A
:100720005FEA026805D584F83B9004E00220BDE84A
:10073000FE8384F83B6084F83CC0CDF800C0CDE96E
:100740000170286802F03EFE85F8F862EFE7704716
:100750002DE9F00301EB4104DDE906C9DDE9087587
:1007600004EBC10400EB8404022684F83B2084F8E7
:100770003F30BCF1000F0AD084F8426000256BB115
:10078000012B2FD0022B12D0032B16D10FE04FF0EC
:10079000030884F8428084F83D50EFE7BCF1010F74
:1007A0000BD152B9DFB9012284F8552003E0B2B170
:1007B00094F85420B2B184F84260C4F84490E764DD
:1007C00084F86050256584F8391084F86150027C03
:1007D00004F138010068BDE8F00302F07CBE94F833
:1007E0005520E7E784F84250E7E72DE9F041066835
:1007F0000446304602F07FFD012875D1206802F0E2
:100800008EFF002870D0206802F089FF800203D597
:1008100021684FF400104861206802F080FFC00298
:1008200003D521684FF480104861206802F077FFFB
:10083000400103D521684FF080604861206802F0D4
:100840006EFF800702D5216802204861206802F00F
:1008500066FF800015D521684FF000504861D6F83A
:100860004004C0070DD11021304602F019FD30467A
:1008700002F0F8FC0121206802F036FF2046FFF765
:1008800001FF206802F04BFFC00102D5204601F0B5
:1008900012F8206802F043FF000705D5204600F05B
:1008A000C5F8216808204861206802F038FFC0437D
:1008B000C0060CD42068816921F0100181612046B6
:1008C00001F043F82068816941F0100181612068DE
:1008D00002F025FF800123D5206802F0F8FD0746CD
:1008E00000254FF0010814E01AE005F00F0108FAA6
:1008F00001F038420CD006EB4510D0F80005E9B203
:100900000004204602D500F0D3FD01E000F0C5FE52
:100910006D1CA068A842E8D821684FF000704861BB
:10092000BDE8F08170B58AB0040005D094F8F902F2
:100930002568002618B107E001200AB070BD84F8D0
:10094000F862204600F028F8032084F8F902E86BEA
:10095000C00500D42661206802F050FC04F11001AB
:1009600028220D466846FFF75CFC94E80F0002F071
:10097000EBFB0121206802F0F5FE2822294668469B
:10098000FFF74FFC94E80F0002F046FE012084F8C8
:10099000F9020020D1E7000010B586B0044614210A
:1009A0006846FFF757FC2068B0F1A04F2FD11948D7
:1009B0000021026842F001020260006800F00100BC
:1009C00005904FF4C05000900220CDE901010320B2
:1009D00003900A20049069460F48FFF74BFD0D482D
:1009E000001D016841F0800101600A48143001686F
:1009F00041F4804101600068002200F480400590CD
:100A00000121432000F0A6F8432000F095F806B03D
:100A100010BD00003038024000000240D0F8000352
:100A200001F05ABCD0F8000301F05ABCD0F8000322
:100A300001F00CBC10B5044690F8F80201280DD066
:100A4000012084F8F8020121206802F0EFFB206801
:100A500002F002FC002084F8F80210BD022010BD54
:100A600010B5044690F8F802012809D0012084F856
:100A7000F802206802F0A4FE002084F8F80210BDFD
:100A8000022010BD024881680278114481607047DD
:100A9000080000200B4810B5016841F400710160A6
:100AA000016841F480610160016841F48071016076
:100AB000032000F06FF80F2000F006F800F024F893
:100AC000002010BD003C024070B50D4D04464FF4AF
:100AD0007A712878B1FBF0F00A490968B1FBF0F0AF
:100AE00000F00AFB48B9102C07D200222146501E04
:100AF00000F030F800206C6070BD012070BD000077
:100B000008000020140000200A4808B5016841F4DC
:100B100080410160006800F4804000900548001F9B
:100B2000016841F080510160006800F08050009041
:100B300008BD000044380240002809DB00F01F0215
:100B4000012191404009800000F1E020C0F800112F
:100B500070470000F0B40E4B1B680C46C3F3022331
:100B6000C3F10705042D00D90425191D072901D259
:100B7000002300E0DB1E012606FA05F1491E214094
:100B800099409E40761E16403143F0BC02F084BE70
:100B90000CED00E0064900F0070208684FF6FF037D
:100BA000184040EA0220034A1043086070470000E2
:100BB0000CED00E00000FA052DE9F0470E460500B7
:100BC00065D0DFF81481D8F80000F7B200F0070014
:100BD000B04207D288F80070D8F8000000F0070093
:100BE000B04254D128683D4C810712D5400703D547
:100BF000206840F4E05020602878000703D5206882
:100C000040F4604020602068A96820F0F0000843AC
:100C100020602878C0072DD030496868083901283D
:100C200012D0022813D0032811D00968890700299F
:100C30002DDA216821F0030101432160FFF718FD3F
:100C4000814641F2883A0EE009688903EFE70968B6
:100C50008901ECE7FFF70CFDA0EB0901514502D932
:100C60000320BDE8F0872068696800F00C00B0EB55
:100C7000810FEFD1D8F80010404601F00701B142D2
:100C800007D90770006800F00700B04201D00120CA
:100C9000E7E72878400705D52068E96820F4E050A8
:100CA000084320602878000706D52068296920F4C9
:100CB000604040EAC100206000F038F82168084A2E
:100CC000C1F30311515CC84006490860064800683A
:100CD000FFF7FAFE0020C4E7003C0240083802405B
:100CE000483B0408140000200C000020044805497B
:100CF00000680968044AC1F38221515CC84070470A
:100D00001400002008380240583B040804480549F4
:100D100000680968044AC1F34231515CC840704719
:100D20001400002008380240583B0408154810B54C
:100D3000006810F00C02144813D04110042A0FD0A0
:100D4000082A0ED10F4C241F2268236802F03F02AC
:100D50005B0207D52068C0F38810A0FB010106E004
:100D6000084610BD2168C1F38811A1FB00010023D2
:100D7000FFF726FA2168C1F30141491C4900B0FB85
:100D8000F1F010BD083802400024F4002DE9F84FBE
:100D900004006ED02078DFF84C93C007A9F1040559
:100DA0004AD009F104000168C1F38101012908D08A
:100DB0000068C0F3810002280AD1D9F8000040027F
:100DC00006D52868800337D560680028E1D033E075
:100DD0006068B0F5803F10D0B0F5A02F286810D023
:100DE00020F480302860286820F480202860606823
:100DF000A8B1FFF73DFC06460DE0286840F48030BE
:100E0000F4E740F480202860F7E700BFFFF730FCEC
:100E1000801B642873D828688003F7D50CE0FFF79F
:100E200027FC064605E000BFFFF722FC801B642874
:100E3000F0D828688003F7D42078DFF8AC828007E8
:100E40004FF0000A3ED5A748001D016811F00C0FB5
:100E500008D00068C0F3810002280BD1D9F8000047
:100E6000400207D42868800716D5E068012800D121
:100E700012E033E1E068B8B10120C8F80000FFF7E4
:100E8000F7FB064605E000BFFFF7F2FB801B0228D8
:100E9000C0D828688007F7D52868216920F0F800B5
:100EA00040EAC10028600DE0C8F800A0FFF7E0FBB1
:100EB000064604E0FFF7DCFB801B02281FD82868E9
:100EC0008007F7D42078000722D5864F87486169CC
:100ED000703771B101210160FFF7CAFB064604E0DB
:100EE000FFF7C6FB801B022809D838688007F7D5B2
:100EF0000EE0C0F800A0FFF7BBFB064605E082E06D
:100F0000FFF7B6FB801B02287DD838688007F7D42E
:100F10002078400768D5DFF8CCB100270BF13C0BF7
:100F2000DBF80000C0000BD4DBF8001041F080516A
:100F3000CBF80010DBF80000012700F08050009093
:100F40006B4E3068C00510D4306840F4807030605B
:100F5000FFF78EFB009005E0FFF78AFB0099401A2F
:100F6000022850D83068C005F6D55E4EA0686C36B1
:100F700001280FD00528306810D020F00100306023
:100F8000306820F004003060A068B8B1FFF770FB53
:100F900000900FE0306840F00100F4E740F00400FA
:100FA0003060F7E7FFF764FB0099411A41F288309F
:100FB000814266D830688007F4D50EE0FFF758FB11
:100FC000009007E0FFF754FB0099411A41F2883086
:100FD000814256D830688007F4D42FB1DBF8001076
:100FE00021F08051CBF80010A069C8B33D49091D1C
:100FF0000968C1F3810102294AD00228504607D06E
:10100000C8F8600000E03CE0FFF732FB04463BE03C
:101010004746C8F86000FFF72BFB064605E000BF17
:10102000FFF726FB801B02282BD828688001F7D405
:10103000D4E907010843A16A2E4A490802EB01419D
:10104000626A41EA8211084394F82C1040EA016177
:10105000C9F8001001203866FFF70AFB044606E0D5
:101060003EE000BFFFF704FB001B022809D82868F8
:101070008001F7D534E000BFFFF7FAFA001B022821
:1010800002D90320BDE8F88F28688001F4D427E056
:101090000128F7D0D9F80000E26900F480019142FC
:1010A0001CD1226A00F03F01914217D147F6C0716E
:1010B000626A0140B1EB821F10D1A26A4FF0FF3388
:1010C00000F4403103EB5202B1EB024F06D194F829
:1010D0002C1000F07060B0EB016F01D00120D1E75F
:1010E0000020CFE70438024000004742800E47420C
:1010F000007000400000FFFF10B5401EB0F1807F7F
:1011000001D3012010BD4FF0E02460610F21601772
:1011100002F0C2FB0020A06107202061002010BD6A
:1011200070477047F8B5016804460868CA684B699B
:1011300010F00F0F4FF0000559D003F0010602F434
:101140009077374365D0C10705D0D10503D5216C11
:1011500041F001012164410705D5D90703D0216C75
:1011600041F002012164810705D5D90703D0216C24
:1011700041F004012164010707D502F02001314349
:1011800003D0216C41F008012164216C00293AD080
:10119000800604D5900602D5204600F054FD206854
:1011A0004069216CC0F38010090700D460B3204669
:1011B00000F022FD20684069400621D520681430E7
:1011C00050E8001F21F0400140E80012002AF5D14C
:1011D000A06BA8B16C490165A06BFFF726F9002848
:1011E00011D0A06B016D01B0BDE8F0400847830647
:1011F0000FD593060DD52046BDE8F84000F023BD7D
:101200002046FFF78EFFF8BD2046FFF78AFF2564D2
:10121000F8BD266B2023012E79D1C60677D5D606D8
:1012200075D50868486800904869400640D5A16BAC
:10123000086840680004000CEAD0A28D8242E7D919
:10124000E085C869B0F5807F2DD020680C3050E86B
:10125000001F21F4807140E80012002AF5D12068B7
:10126000143050E8001F21F0010140E80012002A6C
:10127000F5D12068143050E8001F21F0400140E80B
:101280000012002AF5D184F83E30256320680C3026
:1012900050E8001F21F0100140E80012002AF5D1AB
:1012A000A06BFFF779F8A08DE18D401A81B229E09B
:1012B000A08DE18D401A81B2E08D0028A8D00029D0
:1012C000A6D020680C3050E8002F22F4907240E83D
:1012D0000026002EF5D12068143050E8002F22F0AF
:1012E000010240E80026002EF5D184F83E30256347
:1012F00020680C3050E8002F22F0100240E8002354
:10130000002BF5D12046FFF70BFFF8BDFFE70506E0
:101310002BD5150629D594F83D002128F5D1A068D4
:10132000B0F5805F01D12069B0B1206A411C216213
:10133000216800784860E08C401E0004000CE084C6
:10134000E3D12068C16821F08001C1602068C168D4
:1013500041F04001C160D8E7206A0088C0F308006E
:101360004860206A801C2062E5E74006CDD5500623
:10137000CBD5CA68204622F04002CA6084F83D30CE
:1013800000F095F8C1E70000E91B040870B50400FF
:1013900004D094F83D00002510B106E0012070BD96
:1013A00084F83C50204600F023F8242084F83D00C7
:1013B0002068C16821F40051C160204600F0A4FCFF
:1013C0002068016921F4904101612068416921F0A0
:1013D0002A0141612068C16841F40051C16025645F
:1013E000202084F83D0084F83E00002070BD0000FD
:1013F00070B586B0044614216846FEF72BFF2748D7
:10140000254E256800242549143802220323B542BD
:1014100023D10D6845F010050D60096801F0100139
:101420000591016841F0010101600068694600F022
:101430000100059058028DE815000720CDE9033022
:101440001748FFF717F8002211462520FFF782FB07
:101450002520FFF771FB06B070BD124EB542FAD1E0
:101460000D6845F020050D60096801F02001059127
:10147000016841F0040101600068694600F0040061
:101480000590C0208DE815000820CDE903300648FE
:10149000FEF7F0FFDFE70000001001404438024093
:1014A00000000240001401400008024070477047ED
:1014B0002DE9F047074600680D4600EB4116D6F8C7
:1014C000080501EB4103420703EBC5014FF006009D
:1014D0004FF004084FF0050A07EB810401D541469F
:1014E0003CE0D6F80815C90507D54FF48070C6F85A
:1014F0000805072084F861001CE0D6F80815890665
:1015000003D52020C6F8080518E0D6F808150A0704
:101510004FF0080104D5C6F8081584F861A009E069
:10152000D6F80825520514D54FF48060C6F8080592
:1015300084F861102946386801F0E1FED6F8080504
:1015400080050ED52946386801F0D9FE4FF40070A9
:10155000A0E0D6F808150906F0D58021C6F80815D0
:10156000C8E7D6F808054FF00001C0074FF0100992
:101570004FF001023BD0386930B1A06CD6F810357D
:10158000C3F31203C01A206584F86120E165C6F830
:10159000082594F83F0030B1022804D0032809D070
:1015A000012807D012E02946386801F0A8FEC6F8E5
:1015B00008950BE0D6F8000540F00050C6F800058D
:1015C00084F8602029463846FFF7C1F838690128B9
:1015D00006D1B4F84010A06CB0FBF1F0C00704D005
:1015E00014F8540F80F001002070BDE8F087D6F8A1
:1015F0000805800735D594F86100022301280AD038
:1016000005280BD006280CD008280AD003280FD0B4
:10161000072818D01CE084F8602019E084F860A046
:1016200016E0E06D401CE065022801D9E1650DE09F
:1016300084F86030D6F8000520F0804040F000408B
:10164000C6F8000504E0E06D401CE06584F86080A9
:10165000C6F8083594F8602029463846FFF777F831
:10166000C3E7D6F80805C006BFD594F83F000328A5
:1016700003D020B1022802D00BE0E16505E0E1656E
:10168000386930B9032084F861002946386801F0D0
:1016900036FE4846C6F80805A7E72DE9F047026878
:1016A00002EB4114D4F8082501EB4103550703EB85
:1016B000C1034FF004024FF0060A00EB830304D588
:1016C000C4F8082583F861A051E0D4F808554FF01C
:1016D0000007AD064FF0020C0BD52022C4F80825F8
:1016E00093F83D20012A33D183F83D7083F860C020
:1016F0003DE0D4F80855AD0504D54FF40072C4F8A8
:10170000082534E0D4F808554FF001065FEAC578A3
:101710004FF040050DD0DF65D4F80825520603D5FB
:1017200083F83D60C4F80855C4F8086583F8616023
:101730001DE0D4F808855FEA48680BD583F861207E
:1017400083F83D60DF65006801F0D9FDC4F80855F5
:10175000BDE8F087D4F808554FF008095FEA05782E
:101760004FF0050508D5C4F8089583F86150006866
:10177000BDE8F04701F0C3BDD4F808855FEAC8684A
:1017800010D50322DF6583F8612093F83D2022B94C
:1017900093F83C200AB983F83D60006801F0AFFD82
:1017A00010201AE0D4F808855FEA086818D50569A2
:1017B00055B1DD6D6D1CDD65022D0BD9DF6583F83C
:1017C0006020FEF7C4FF07E083F861A0006801F025
:1017D00096FD01E083F860C08020C4F80805B7E7F3
:1017E000D4F808855FEA485807D583F86190006807
:1017F00001F085FD4FF48060EFE7D4F808855FEADB
:101800008878A5D593F86180B8F1010F0FD0B8F1B1
:10181000030F30D0B8F1040F2DD0B8F1050F2DD043
:10182000B8F1060F2DD0B8F1080F2AD03CE083F8AC
:10183000606093F83F20022A01D0032A34D1026964
:101840002AB993F8552082F0010283F855200269E5
:10185000012A29D1DA6C3AB3B3F840502A44521E17
:10186000B2FBF5F2D2071FD093F8552082F00102A7
:1018700083F8552018E083F860C015E083F86050C5
:1018800012E0DD6D6D1CDD65022D03D9DF6583F887
:10189000602009E083F860C0D4F8002522F080427F
:1018A00042F00042C4F80025C4F808C593F860204F
:1018B000FEF74DFF4CE77CB504680546D4F84004BC
:1018C0000190D4F8400420F02E0000900198800789
:1018D00009D50198C00702D02846FEF7CFFE009830
:1018E00040F0020000900198000724D5009840F0D5
:1018F00008000090019840071AD5A869022803D073
:10190000E86801280CD00FE00198C0F3414002289C
:10191000286803D0012101F0E7FE05E00221FAE783
:101920004EF66020C4F804042846FFF77BF802E076
:101930002846FFF773F801988006009802D540F01A
:1019400020000090C4F840047CBD2DE9F04102461F
:1019500000680646016AC1F3434301F00F07C1F373
:101960000A15022B31D1002D2FD007EB470101EBD7
:10197000C70102EB8104616C002926D0226DE36C63
:101980002A449A4223D82A4601F0CDFE606C2844AE
:101990006064206D2844206506EB4710D0F81015D0
:1019A000B4F84020C1F3C941AA420ED100290CD09D
:1019B000D0F8001521F0804141F00041C0F8001539
:1019C00014F8540F80F001002070BDE8F08104206D
:1019D00084F86000F9E7FEE728B101224FF40071B6
:1019E0000248FEF73FBE0022F8E700000008024070
:1019F00010B504490448FEF7ACFC0249491E0870C2
:101A000010BD000039000020603B040870B586B0AE
:101A100014216846FEF71EFC16480024016841F0B8
:101A200004010160016801F004010591016841F0C1
:101A300080010160016801F080010591016841F0B9
:101A40000101016000680C4E00F001004FF40075C8
:101A50000590002229463046FEF704FE012000953D
:101A6000CDE90104694630460394FEF703FD06B054
:101A700070BD000030380240000802400C4810B52C
:101A80000A4901604FF4E1314160002181600C227C
:101A9000C160C0E904128161C161FFF777FC0028D1
:101AA00003D0BDE81040FEF752BC10BD001001404D
:101AB000480000200C4810B50A4901604FF4E1319C
:101AC0004160002181600C22C160C0E90412816183
:101AD000C161FFF75BFC002803D0BDE81040FEF7B2
:101AE00036BC10BD001401408C00002010B501224E
:101AF0000B490C4800F03BFB08B1FEF728FC0A49F3
:101B0000084801F00FFA08B1FEF721FC054801F082
:101B100022FA002803D0BDE81040FEF718BC10BD23
:101B20006D2F0408D000002018000020FEE7FEE71B
:101B30000148FEF75ABE0000A80400207047704715
:101B4000FEF7A0BF30B593B030216846FEF782FBA8
:101B500014210CA8FEF77EFB1D480025016841F00A
:101B600080510160006800F08050119019480168B0
:101B700041F4804101600068022400F4804011902B
:101B800001200090000401908001CDE9064004206E
:101B90000890A820CDE9090407200B906846FFF7BC
:101BA000F5F808B172B6FEE70CA90F2081E8310004
:101BB0004FF4A0500F904FF48050109005210CA8C6
:101BC000FEF7FAFF002801D072B6FEE713B030BD71
:101BD00040380240007000400248016841F4700142
:101BE0000160704788ED00E010B5806B0021C18571
:101BF000C184FFF796FA10BD01680C3151E8002F3F
:101C000022F4907241E80023002BF5D101681431D1
:101C100051E8002F22F0010241E80023002BF5D10A
:101C2000016B012909D101680C3151E8002F22F024
:101C3000100241E80023002BF5D1202180F83E104E
:101C400000210163704708B590F83E10222901D0A9
:101C5000022008BD82684FF480539A4201D1016985
:101C600021B1816A9A421BD04AB10AE00268816AB6
:101C70005268C2F308020A80816A891C08E002697E
:101C800072B10268526802F07F020A70816A491CD0
:101C90008162C18D491E0904090CC18503D019E078
:101CA00002685268F1E70168CA6822F02002CA603F
:101CB0000168CA6822F48072CA6001684A6922F029
:101CC00001024A61202180F83E10016B012903D0F6
:101CD000FFF7ECFB002008BD0021016301680C3117
:101CE00051E8002F22F0100241E80023002BF5D12B
:101CF00001680A68D20602D50A6849680091818D98
:101D0000FFF70EFAE6E7000070B5044600680169C7
:101D1000E26821F44051114301612169A068E26940
:101D200008436169114308432168CA6849F20C639A
:101D30009A430243CA6020684169A26921F4407154
:101D40001143416131492068884202D030498842BC
:101D500002D1FEF7DBFF01E0FEF7C8FFE2690023D6
:101D6000192164253226B2F5004F626828D0A0FB05
:101D70000101930F9200FEF723FA0146B0FBF5F044
:101D80006FF01802504301EB800006EB0010B0FB2F
:101D9000F5F000F0F002B1FBF5F002EB0012B1FB40
:101DA000F5F06FF01803584301EB800006EB0010CC
:101DB000B0FBF5F000F00F0021681044886070BDA2
:101DC000A0FB010192185B41FEF7FAF90146B0FB56
:101DD000F5F00201B1FBF5F06FF01803584301EB89
:101DE000800006EBC000B0FBF5F000F0F80002EB5D
:101DF0004002B1FBF5F0584301EB800006EBC00058
:101E0000B0FBF5F000F00700D6E70000001001403D
:101E1000001401400148FFF785B900004800002088
:101E200010B500224FF6FF7300EB8204B4F8844330
:101E300024040BD49A4207D002F00F0300EB830076
:101E400041F40041C0F88413D0B210BD521CD2B28C
:101E5000102AE9D31A46F7E77FB51C46012501AEE3
:101E60000023009586E80E0002232A46214600F052
:101E700062FA04B0002070BD7FB51D4690F81D3396
:101E8000089C03B100240123CDE90031CDE90224EF
:101E900002230022294600F04EFA04B0002070BD53
:101EA00010B500F083F9002010BD8278012A07D117
:101EB0000222027401224274002242828182C28282
:101EC0000022114600F00FB87FB51C46012501AE77
:101ED0000023009586E80E002A46214600F02BFAE2
:101EE00004B0002070BD70B504460120A3780546FB
:101EF000012B0BD0022B08D1204600F06FF858B10F
:101F0000032809D0022800D1A57070BDA160A2816C
:101F100025760221A17070BDA5700021217670BDCB
:101F20007FB51D4690F81D33089C03B100240123A2
:101F3000CDE90031CDE9022400231A46294600F0FC
:101F4000FAF904B0002070BD1FB500231446CDE996
:101F500000310822CDE902231A46214600F0EBF9B0
:101F600004B0002010BD000070B50546002005F546
:101F70004E7500BF00EB800404EBC00405EB440485
:101F8000E67B0A348E4201D0FF2909D1A679964218
:101F900001D0FF2A04D1E4799C4206D0FF2B04D063
:101FA000401CC0B20228E5D3FF2070BD102907D223
:101FB00000EB8100B0F88413C1F30E01C0F8841364
:101FC0000020704701004FF0000004D0012901D02B
:101FD000022901D002207047012070472DE9F84FF7
:101FE0000125017E04460B26092728464FF00708E5
:101FF0004FF0050A4FF00D090C2919D2DFE801F066
:10200000B4060E26313C48606B7C899A627904F1F3
:1020100010012046FFF798FF022012E06179204668
:1020200000F010F9012804D0042871D002287FD0D4
:102030009AE0207CE18A00F0800021B180283AD12A
:102040000320207690E0802814D02EE0D4F8C4033A
:10205000E0812379A2892046A168FFF735FF04209B
:10206000EFE72179204600F0EDF8012802D005289D
:1020700040D056E0277677E000906379A289204629
:10208000A168FFF74DFFD4F8C403E0810620D8E72C
:102090006179204600F0D6F8012806D0052807D03F
:1020A000022808D0042809D05EE084F818805BE09C
:1020B0000C2020761EE084F818A055E0267652E029
:1020C0000022237911462046FFF7FEFED4F8C40310
:1020D000E0810820B5E72179204600F0B3F8012817
:1020E00004D0042824D0052804D03DE084F81890BA
:1020F000002539E0032537E000900022637911467E
:102100002046FFF70DFFD4F8C403E0810A2098E7CA
:102110000EE06179204600F095F8012804D00228ED
:10212000A8D0042804D01FE0002584F818901BE0F4
:10213000267619E0617E491CC9B26176022902D86F
:102140002076A07010E0D4F8D423062120469047D2
:102150000025657661792046FFF728FF2179204622
:10216000FFF724FF257002252846BDE8F88F70B5DB
:102170000E46040018D084F8CC230025C4F87C5304
:10218000C4F8805304F54874FEF7B8F8E57025707C
:102190006570A570A4F548740EB1C4F8D4632046E8
:1021A00000F064F8002070BD022070BD10B5D0F8BA
:1021B000D003FEF77FFABDE81040FFF703BF01210F
:1021C00080F82013002180F8211380F8221308469C
:1021D000704710B50446012084F82103002084F8DC
:1021E000200384F82303204600F09CF82179204640
:1021F000FFF7DCFE61792046FFF7D8FE002010BD16
:1022000010B590F8CC03012802D10846FFF7E4FB93
:10221000C820FEF71DF9002010BDD0F8D003FEF74E
:1022200041BAD0F8D00301EB410202EBC10100EB4F
:10223000810090F83B1011B190F85400704790F86D
:1022400055007047D0F8D003FEF723BAD0F8C41376
:10225000491CC0F8C41301780B2905D1D0F87C13B0
:10226000002901D0896908477047000010B504466D
:1022700090F8CC0301281CD10F484FF0A041002258
:10228000C0F80043C4F8D003016008218160012137
:10229000C0E903120221C0E90612FEF743FB08B1B0
:1022A000FEF755F80448FEF7F1F90146204600F024
:1022B0001BF8002010BD0000A8040020FEB508AFE8
:1022C00097E870008DE87000D0F8D003FEF704FAAC
:1022D000BDE8FE40FFF776BE002180F8231370476B
:1022E000012180F823137047C0F8C4137047D0F859
:1022F000D00301EB410303EBC10100EB810090F837
:102300003B1011B180F8542001E080F855200020E6
:10231000704710B5D0F8D003FEF78CFBBDE8104035
:10232000FFF750BE10B5D0F8D003FEF799FBBDE81B
:102330001040FFF747BE2DE9FF410DF1280898E84E
:10234000F0008DE8F000D0F8D003FEF701FA04B0F9
:10235000BDE8F041FFF736BE03460220D3F87C13F8
:10236000C9692AB1012A05D189791846FFF79DBDAF
:10237000C979FAE770470000D0F87C030549C069C5
:10238000416505498165012100F8501F81700020D9
:102390007047000055534243504030202DE9F84F1C
:1023A0000746D0F87C0301263546C4694FF00B0A76
:1023B0004FF00A0B94F850004FF009094FF007084E
:1023C0000C2845D2DFE800F0D20611252E485275C0
:1023D0007EA7AFCB84F86110022084F850000095EE
:1023E00063791F2204F1540159E061793846FFF7FF
:1023F00029FF012802D002287ED03FE0E06D0028AE
:1024000029D094F86000000601D503204BE0052098
:1024100049E0237962893846D4F88C10FFF71CFD17
:10242000042040E021793846FFF70CFF01284FD106
:102430006289E06D90420CD9D4F88C10801A114456
:10244000C4F88C10E0656BD023793846FFF704FDA3
:102450008CE00020E06563E00095637922893846CE
:10246000D4F88C10FFF708FD06201CE0617938468F
:10247000FFF7E8FE012804D00228C8D0052815D0AF
:1024800074E02289E06D9042E3D9D4F88C10801A70
:102490001144C4F88C10E06542D000956379384649
:1024A000FFF7EAFC62E084F850005FE084F850B087
:1024B0005CE023790D2204F178013846FFF7CCFC6B
:1024C0000820F0E721793846FFF7BCFE012802D04A
:1024D00005281DD04AE004F8505F3846A570D7F8AB
:1024E0007C13CC692179FFF798FE0D280CD1214986
:1024F000A06F884208D100E036E0A16DE06F88420D
:1025000002D194F8840008B102262FE000262DE0C5
:1025100084F850902AE000223846FFF71DFF38B9B2
:1025200084F8508022E001223846FFF715FF10B1F1
:10253000042811D01AE061793846FFF772FEC0F125
:102540000100C2B261793846FFF7D1FE217900223D
:102550003846FFF7CCFEDBE784F850A006E03846AB
:1025600000F015F8060001D184F850503046BDE85F
:10257000F88F000055534253A1220274FE22427488
:102580000022428282820122C282FFF7ACBC21215A
:102590000174FF214174002141828182C1820A4677
:1025A000FFF7A1BC70B5D0F87C130125CC69A17BE5
:1025B00021B1022902D003292ED127E02146FFF7BD
:1025C000DBFF00210546032801D01DB124E0217066
:1025D000002504E02078022801D9022001E02078BB
:1025E000401C2070002002230CE000BF00EB8002A2
:1025F00002EBC00204EB8202401C82F8923082F8A7
:10260000C110C0B222788242F0D805E00021FFF765
:102610004CFC08B9E07BA073284670BD10B5144689
:10262000D0F87C230078D3690B2801D0022010BD9C
:1026300001EB810000EBC10003EB80013422204656
:102640009031FDF7EEFD002010BD70B50546D0F8C5
:102650007C030026C469617939B12846FFF720FC64
:1026600061792846FFF7A2FC6671217939B12846C5
:10267000FFF716FC21792846FFF798FC2671D5F85C
:102680007C03C06920B101F0DBF9D5F87C03C66199
:10269000002070BDFEB50546D0F87C03502306220D
:1026A00001792846FFF760FC0646FF2823D0022E5A
:1026B00021D20146284600F043FCE0B94FF4807770
:1026C000384601F00BFAD5F87C130446C8612000A7
:1026D00011D03946FDF7BEFD06EB860000EBC600C3
:1026E00005EB400090F84E130A0606D5E171B0F8EC
:1026F0005013618105E00220FEBDA171B0F85013B6
:10270000218190F856130A0604D5E171B0F85803F8
:10271000608103E0A171B0F858032081002020738C
:102720006073A073A1792846FFF77AFB6071E179A5
:102730002846FFF775FB20712846FFF71DFEA2799A
:1027400042B3208930B395F81D1302260091CDE9DC
:10275000016095F81C336179284600F0D9FBE279D5
:10276000C2B16089B0B195F81D130091CDE9016047
:1027700095F81C332179284600F0CAFB2179002204
:102780002846FFF7B4FD617900222846FFF7AFFD28
:102790000020FEBD0320FEBD2DE9F0470746D0F81E
:1027A0007C034FF0010AC469207B10B101282DD1B0
:1027B0002CE1B4F8F800217801254FF00008884298
:1027C0006FD200EB800101EBC00004EB8000022619
:1027D00080F89150B4F8F8004FF0050900EB800143
:1027E00001EBC00104EB810292F8901009290DD28F
:1027F000DFE801F0050C1F880DB10C0CFF00042070
:1028000082F89000D7F8C403C4F8FC0000E1C1B21C
:1028100038469F3200F08CF940B9B4F8F80000EB6C
:10282000800101EBC00004EB8000B6E002287DD0FF
:1028300099E0C1B2384600F0ABFA10B1022831D0AD
:1028400091E0B4F8F80000EB800101EBC00004EB6C
:10285000800090F8921011B180F8C15001E080F82A
:10286000C180B4F8F820032002EB820101EBC20121
:1028700004EB810181F89000B4F8F81001EB8102BB
:1028800002EBC10104EB810181F89180B4F8F810EA
:1028900001EB810202EBC10104EB810181F892801E
:1028A000B6E0AAE0B4F8F80000EB800101EBC0004C
:1028B00004EB800090F89210022902D080F8C150F9
:1028C00001E080F8C180B4F8F81001EB810202EB5E
:1028D000C10104EB810181F89090B4F8F80000EB9D
:1028E000800101EBC00004EB800080F89150B4F847
:1028F000F80000EB800101EBC00004EB800080F8E1
:10290000926085E0C1B23846943200F0BBF90028ED
:102910008CD1B4F8F80000EB800101EBC00004EBAF
:10292000800080F89050B4F8F81000E008E001EB67
:10293000810202EBC10104EB810181F8918031E059
:10294000B4F8F81001EB810202EBC10104EB810144
:1029500081F890905CE0C1B238469C3200F0CFF92B
:1029600020B1022823D004282DD051E0B4F8F8007B
:1029700000EB800101EBC00004EB800090F89C109C
:10298000062901D002290BD1D7F8C413D4F8FC20B2
:10299000891A42F21072914202D280F8906037E0B8
:1029A00080F8905034F8F80F401C208030E0B4F8E4
:1029B000F810082001EB810202EBC10104EB810158
:1029C00081F8900024E0B4F8F80000EB800101EBFE
:1029D000C00004EB800080F89050B4F8F80000EBE1
:1029E000800101EBC00004EB800080F891600FE0F3
:1029F000FFE7401CA4F8F8000AE0A4F8F88025736B
:102A0000D7F8D42302213846904701E04FF0000A5E
:102A10005046BDE8F08700002DE9F843D0F87C234C
:102A200001EB810303EBC103D269012502EB8304AF
:102A3000082794F890302E46052B22D000224FF024
:102A40000508062B02D0072B2AD10CE000230092A8
:102A50001A4600F0D7F80BE002280FD018E000BFAC
:102A600084F890701BE0002300921A4600F0B6F93B
:102A70000028F1D184F89060002511E084F890805E
:102A80000EE004F19C0200F03AF920B1022807D0D0
:102A90000428E5D004E004F8906F0220607002255D
:102AA0002846BDE8F8832DE9F8430446D0F87C03B6
:102AB000089E0F46C56994F8200360B120780B2862
:102AC00009D107EB870000EBC70005EB800090F809
:102AD0009010012902D00220BDE8F8830621297355
:102AE00080F89010A5F8FA7039462046009600F05C
:102AF00089F8D4F8C48340F271204FF001094643AD
:102B000009E0D4F8C413A1EB0800B0EB061F0CD801
:102B100094F8200348B139462046FFF77DFF01288D
:102B2000EFD085F80C900020D6E785F80C90D2E71E
:102B30002DE9F0411546D0F87C2302270026D46900
:102B40004FF0010894F85220012A02D0022A56D1EF
:102B500026E024208022E06584F860200A2284F8A0
:102B60006220C4F86360C4F86760A4F86B60122246
:102B700084F86320490184F8641084F8656084F85F
:102B8000666084F8670084F86860022084F85080EA
:102B900084F8520004F110000127C4F88C002EE0E4
:102BA000FFF7FCFB07002AD122212846FDF752FB44
:102BB000D4F88C00007800F01F006870D4F88C0006
:102BC000007840092870D4F88C004078000602D5BF
:102BD00085F8028000E0AE7054F88C0F10228168F6
:102BE000C5F80310C068C5F80700216805F10C009E
:102BF0001031FDF716FB2068006AC5F81D00384645
:102C0000BDE8F0812DE9F041154602461F46D2F895
:102C10007C330220069EDC6994F85230012B06D0EA
:102C2000022B2DD1BDE8F0411046FFF7B7BBB4F839
:102C3000980010217043E065802084F860000A202D
:102C400084F8620004F16300FDF704FB282084F897
:102C50006300280E84F86500280C84F86600280AB2
:102C600084F8670084F86850300A84F86A0084F8B1
:102C70006B60012004F8500F0220A0700120E76370
:102C8000BDE8F08170B51646D0F87C230125D469E3
:102C900094F85220012A02D0022A2ED11AE00820EC
:102CA000E065802084F860000A2084F8620010212A
:102CB00004F16300FDF7CEFA252084F863000120BB
:102CC00084F85000022084F8520004F11000C4F887
:102CD0008C0012E0FFF762FB05000ED154F88C0F58
:102CE0004188427849BA007862F31F4141EA0060A6
:102CF00030602068C08840BAB080284670BD70B58A
:102D0000154602460E46D2F87C130220CC6994F890
:102D10005210012914D0022911D131461046FFF773
:102D20003DFB00280BD154F88C1F897801F00F016E
:102D300029702168097B69702168497BA97070BD81
:102D40000E258020E56584F860000A2084F8620082
:102D5000102104F16300FDF77DFA032084F863007D
:102D6000700184F86400002084F8650084F866002F
:102D700084F8675084F86800012084F8500002202D
:102D800084F8520004F11000C4F88C00012070BDDA
:102D900070B502460220D2F87C33DC6994F85230D8
:102DA000012B06D0022B18D1BDE870401046FFF76A
:102DB000F5BA0025E56584F860500A2084F86200C1
:102DC000102104F16300FDF745FA84F863500120F7
:102DD00004F8500F0220A070012070BD2DE9F041D1
:102DE000154602461F46D2F87C330220069EDC6957
:102DF00094F85230012B06D0022B2DD1BDE8F041C2
:102E00001046FFF7CBBAB4F8980010217043E06584
:102E1000002084F860000A2084F8620004F1630056
:102E2000FDF718FA2A2084F86300280E84F865005C
:102E3000280C84F86600280A84F8670084F8685033
:102E4000300A84F86A0084F86B60012004F8500F9F
:102E50000220A0700120E763BDE8F08100207047E8
:102E6000D0F87C230078D2690B2808D101EB8100CF
:102E700000EBC10002EB800090F8910008B1002047
:102E80007047012070472DE9F8430446D0F87C03D1
:102E9000089E0F46C56994F8200360B120780B287E
:102EA00009D107EB870000EBC70005EB800090F825
:102EB0009010012902D00220BDE8F8830721297370
:102EC00080F89010A5F8FA70394620460096FFF772
:102ED00085FFD4F8C48340F271204FF001094643C6
:102EE00009E0D4F8C413A1EB0800B0EB061F0CD81E
:102EF00094F8200348B139462046FFF78DFD01289C
:102F0000EFD085F80C900020D6E785F80C90D2E73A
:102F1000FEB508AF97E870008DE87000FFF7CEF9B6
:102F20000020FEBD002211B1D0F8803313B102227F
:102F3000104670470123C0F88033C0F87813F7E7D4
:102F40000246002092F83C338B4202D982F82413C7
:102F500070470220704710B50446FFF7DAF90121E7
:102F60002046FFF74DF9002010BD000001290AD0CE
:102F70000B48022909D004290BD005290ED10321C1
:102F8000017008A008E011A006E00221017018A05D
:102F900002E0012101701FA000F06EBC704700002C
:102FA000040000204170706C695F73746174652067
:102FB0003D204150504C49434154494F4E5F444994
:102FC00053434F4E4E4543540D0A0000484F53544F
:102FD0005F555345525F53454C4543545F434F4EF5
:102FE00046494755524154494F4E0D0A00000000D2
:102FF0004170706C695F7374617465203D2041504D
:10300000504C49434154494F4E5F52454144590D3C
:103010000A0000004170706C695F73746174652010
:103020003D204150504C49434154494F4E5F535409
:103030004152540D0A0000000020704730B58DB099
:103040001546012449B1012909D0022910D00329CC
:1030500018D004240DB0204630BD0024FAE7014604
:103060006A460E48FFF7DAFA0028F3D1019813E018
:1030700001466A460948FFF7D1FA0028EAD1BDF8AF
:10308000080009E001466A460448FFF7C7FA00282D
:10309000E0D1BDF80800400A2860DEE7D00000203B
:1030A00030B58FB0054600930B46014601240C480D
:1030B000FFF7F9FC68B101AA29460948FFF7AEFA03
:1030C0009DF81100042806D0282804D03A2803D1FE
:1030D00001E0002400E003240FB0204630BD0000D2
:1030E000D000002010B5014601240348FFF7B8FEC8
:1030F00000B10024204610BDD000002030B58FB0B4
:10310000054600930B46014601240E48FFF7BBFE1F
:1031100078B101AA29460B48FFF780FA9DF8110003
:1031200004280AD0272806D0282806D03A2805D116
:1031300003E0002402E0022400E003240FB0204654
:1031400030BD0000D000002070B5044606990A9EEC
:10315000049D0D98012916D0E06840F04000E06021
:10316000204600F02BF8A16B1EB321F48031A1633F
:10317000012D07D1A16841F00601A160A16841F0CD
:103180002001A16070BDA16B21F48031A163E168D1
:10319000094A1140E160E16821F44011E160012831
:1031A00003D1E06840F48010E060204600F006F8AB
:1031B000DEE741F48031DAE7BFFFBDFF08B500224A
:1031C0000D490092009B5B1C00938B420CD8036955
:1031D000002BF7DA0092026942F001020261009AC4
:1031E000521C00928A4201D9032008BD0269D2070D
:1031F000F5D1002008BD0000400D0300816821F0DA
:10320000010181600020704700EB4110064AC0F8C0
:103210001025D0F8001521F0804141F00041C0F8A0
:1032200000150020704700000000088008B5D0F8A5
:10323000402422F02E020092D20405D4012909D1A3
:10324000009941F4805103E021B9009921F48051A3
:10325000C0F84014002008BD816841F00101816080
:103260000020704708B500220C490092009B5B1CAF
:1032700000938B420AD80369002BF7DA00921022E0
:103280000261009A521C00928A4201D9032008BDB3
:103290000269D206F5D4002008BD0000400D0300ED
:1032A00018B500230D4A0093009C641C00949442BE
:1032B0000CD80469002CF7DA0093202343EA81112B
:1032C00001610099491C0091914201D9032018BD68
:1032D00001698906F5D4002018BD0000400D0300E7
:1032E000D0F8080480B2704708B5D0F840040090C8
:1032F000C0F3414008BD406900F00100704718B5B7
:10330000002200EB41110092D1F80025D1F80035E0
:10331000C2F381428468DB0FA40600D51BB34FF4CF
:103320007A736AB1022A0BD0D1F8002542F08042AC
:10333000C1F80025D0F8100410F47F0F2BD00CE05A
:10334000D1F8002542F08042C1F80025826892063B
:1033500009D4C06A10F47F0F07D0D1F8000540F0FF
:103360000040C1F80005002018BDD1F8000520F08C
:103370000040C1F80005D1F8000540F00040C1F858
:1033800000050098401C00909842ECD8D1F8000548
:103390000028F6DBE7E7D1F8000520F00040C1F88F
:1033A0000005D1F8000540F00040C1F80005009884
:1033B000401C00909842D6D8D1F800050028F6DBD2
:1033C000D1E700002DE9F0431E46DDE9078500271F
:1033D00000EB41147B1EDDF82490C4F8083505B3DA
:1033E000012D39D0022D1CD0032D2ED05FF0010706
:1033F000D4F80C3543F00203C4F80C35D0F8183477
:1034000001F00F0C012101FA0CF10B43C0F8183444
:10341000816941F00071816111062AD54FF40041A4
:1034200028E040F29D43C4F80C35130605D500BFD3
:10343000D4F80C3543F4807318E0C36BDB05D7D5A3
:10344000D4F80C3543F0600310E040F29D63C4F8FB
:103450000C351306ECD4CBE740F22523C4F80C3529
:103460001306C5D5D4F80C3543F4C073C4F80C3535
:10347000BEE70021FFF738FFB8F1020F04D10228A0
:1034800002D04FF4003000E000204FF0FE5303EA7A
:1034900086534FF4F04606EAC22213434FF440220B
:1034A00002EA85421343C9F30A0213430B43034361
:1034B000C4F80035032D01D0012D05D1D4F8000545
:1034C00040F00050C4F800053846BDE8F083D0F85D
:1034D000140480B27047F8B54C78C56B4FF4807314
:1034E000ED0515D50D799DB9012A01D06AB10FE01E
:1034F000CD790DB1022D0BD100EB4415D5F80C653B
:1035000026F07006C5F80C6502E04D79012D0DD04E
:103510004E697EB10D8977197F1EB7FBF5F7BFB2F3
:103520009F4208D91F462B020B6104E02146FFF79A
:103530006BFE6EE00127CB781BB10B897B430B61DF
:1035400001E033460E61C3F312056FF0604303EAF6
:10355000C7431D438B7A4FF0C04606EA43731D43B1
:1035600000EB4413C3F8105512B1CC68C3F81445EE
:10357000D0F80844D3F8005544F3000425F0005572
:10358000C3F80055D3F80055641C45EA4474C3F8E9
:103590000045D3F8004524F080440094CC78002CFA
:1035A000009C02D044F4004401E024F4004444F0C0
:1035B00000440094C3F800455ABBCA784ABB4A6924
:1035C0003AB3CB7933B1012B0FD0022B02D0032BAE
:1035D00017D10AE0D21CC36AC2F38F029BB2934296
:1035E0000FD2826942F020020AE0D21CD0F81034D7
:1035F000C2F38F029BB2934203D2826942F080628F
:103600008261002200928A8A93B24A78C96800F0E7
:103610001DF90020F8BD00002DE9F0410025DDF87E
:103620001880174604462E46C0F8005E806B40F4B2
:103630000010A063A06B20F40020A063A06B20F416
:103640008020A063E06BC00501D5012B04D0D4F825
:10365000000420F0040103E0D4F8000440F0040169
:103660002046C4F800141021FFF71AFE00B101250E
:103670002046FFF7F7FD00B101250020411E06E0BE
:1036800004EB4012C2F80815C2F80C65401C8742D2
:10369000F6D8A6616161E06BC00506D54FF40070F5
:1036A00060620C48A0620C4804E0802060620B4815
:1036B000A0620B48C4F80001B8F1000F03D1A06963
:1036C00040F01000A061A06906490843A0612846A7
:1036D000BDE8F081000200010003E000800060000E
:1036E000E0004000080020A3D0F8002422F00302EC
:1036F000C0F80024D0F8002401F003031A43C0F8F6
:103700000024012902D0022903D006E04BF68031C3
:1037100001E041F27071C0F8041400207047416963
:1037200080690840704730B503460846940802F0A7
:103730000301002203F5805303E01D6840F8045B99
:10374000521CA242F9D300290BD01C680022D500DC
:1037500024FA05F3491E521C090400F8013B090C28
:10376000F5D130BD70B50446C068002520F0C040DA
:10377000E060012901D079B120E0E06840F000501C
:10378000E0600120FCF764FE60696D1C10F0010F21
:1037900010D1322DF5D30DE0E06840F08040E060BC
:1037A0000120FCF755FE60696D1C10F0010F01D07F
:1037B000322DF5D3322D01D0002070BD012070BD17
:1037C00038B5002504460095806820F00100A0600F
:1037D00010212046FFF764FD00B101252046FFF7C8
:1037E00041FD00B10125002004EB4011D1F8002576
:1037F00022F0802242F08042C1F80025401C0F28B0
:10380000F2D900204FF47A7304EB4011D1F800256F
:1038100022F4004242F04042C1F80025009A521CB6
:1038200000929A4203D8D1F80025002AF6DB401C0A
:103830000F28E9D94FF0FF30C4F814046061A06884
:1038400040F00100A060284638BD000010B5029C81
:1038500074B9DB1C9C0800EB0230002300F580509B
:1038600004E000BF51F8042B02605B1CA342F9D3B3
:10387000002010BDFEE700000FB4054B10B503A9F2
:10388000044A029800F028F810BC5DF814FB000010
:103890002D3A0408000000200907090E002804DB67
:1038A00000F1E02080F80014704700F00F0000F1F4
:1038B000E02080F8141D704702E008C8121F08C1FC
:1038C000002AFAD170477047002001E001C1121FA1
:1038D000002AFBD1704700002DE9FF4F89B09B46BD
:1038E0000446002506E025280BD05A460B99904740
:1038F000641C6D1C20780028F5D10DB02846BDE869
:10390000F08F0027B8460122474900E0074314F82A
:10391000013F203B02FA03F00842F7D120782E281D
:1039200019D114F8010F47F004072A280ED06FF0C0
:103930002F022078A0F1300109290CD808EB88016A
:1039400002EB410100EB0108641CF2E70A98641CD9
:1039500050F8048B0A9020780028CED0642808D034
:10396000692806D075281ED05A460B9990476D1CC1
:1039700058E00A994FF00A0901C90A91002802DAB1
:1039800040422D2102E0390504D52B218DF820106D
:10399000012103E0F90704D02021F7E78A4608AEA9
:1039A0000DE00021FAE70A994FF00A0901C90A91CE
:1039B000F7E74946FCF759FC303106F8011D0028AD
:1039C000F7D1ADEB060000F12009780701D44FF0E4
:1039D0000108C84502DDA8EB090000E00020804690
:1039E000002706E008A85A46C05D0B9990476D1C59
:1039F0007F1C5745F6DB04E030205A460B99904770
:103A00006D1CB8F10001A8F10108F5DC05E016F81D
:103A1000010B5A460B9990476D1CB9F10001A9F1B1
:103A20000109F4DC641C65E70928010003490A6800
:103A30005206FCD5C2B24A60704700000010014037
:103A400010B5002821D0114B0022001F196803E097
:103A5000814203D80A4649680029F9D152B1136856
:103A6000841A9C4204D1006818441060104602E099
:103A7000506000E0186039B102680B1A934203D11C
:103A80000B681A4402604968416010BD4000002084
:103A90000F490E480860FCF7FDFFFEF753F8FDF7ED
:103AA000B5FFFDF7EBFFFEF721F8FEF703F8FDF792
:103AB0009FFF08A0FFF7E0FE4FF47A7405A0FFF720
:103AC000DBFE2046FCF7C4FCF8E700000000040819
:103AD00008ED00E0415050210D0A0000F0B50B3018
:103AE000154D20F007010024144A0FE003688B42B3
:103AF0000BD38B4205D95E1A43184768C3E90067A8
:103B000000E04368136002C004E0021D1068002852
:103B1000ECD12046002802D1286808B10020F0BD71
:103B2000064A07481060074A121A22F00702C0E945
:103B3000002401202860D7E7440000204000002036
:103B4000BC070020B81700200000000000000000A3
:103B50000102030406070809000000000102030433
:103B600039300408E5300408A1300408FD300408A9
:103B70003D3004084D534300983B040800000020EA
:103B800048000000B8380408E03B04084800002062
:103B900070270000C8380408000000000000000082
:103BA0000100000010000000000000000024F400EC
:103BB000743B040808000000952604084B260408FE
:103BC000A5250408992704085D2E040800000000BC
:103BD00000000000000000000000000000000000E5
:040000050804018961
:00000001FF
