:020000040804EE
:10000000683D01205D0204084D6B0408E7600408A8
:10001000216B0408D5180408759C04080000000032
:100020000000000000000000000000009D01040826
:10003000A128040800000000F90104084980040810
:100040007702040877020408770204088D6C04081C
:10005000770204087702040877020408770204088C
:100060007702040877020408F929040877020408D3
:10007000770204087702040877020408770204086C
:10008000791A0408891A0408770204087702040818
:10009000770204087702040877020408770204084C
:1000A000770204087702040877020408770204083C
:1000B0007702040877020408FD8504087702040823
:1000C000770204087702040877020408770204081C
:1000D00077020408E59B0408F99B04080D9C0408BA
:1000E00077020408616B04087702040877020408A9
:1000F00077020408770204087702040877020408EC
:1001000077020408770204081186040877020408BD
:100110007702040879940408770204087702040837
:10012000991A0408A91A0408B91A040877020408DD
:1001300077020408770204087702040877020408AB
:10014000770204087702040877020408770204089B
:1001500077020408C91A0408D91A0408619C040823
:10016000770204087702040877020408770204087B
:1001700077020408770204087702040800000000F0
:100180007702040877020408DFF80CD000F0B0FF13
:100190000048004709BF0408683D01202C4B19683E
:1001A0000868B0E8F04F80F30988BFF36F8F4FF015
:1001B000000080F3118870470000000008480068C4
:1001C000006880F308884FF0000080F3148862B65E
:1001D00061B6BFF34F8FBFF36F8F00DF00BF00BF6B
:1001E00008ED00E0DFF80C00016841F470010160E7
:1001F000704700BF88ED00E0EFF30980BFF36F8F19
:10020000134B1A681EF0100F08BF20ED108A20E96A
:10021000F04F106009B44FF0500080F31188BFF325
:100220004F8FBFF36F8F0CF0CDFF4FF0000080F3C6
:10023000118809BC19680868B0E8F04F1EF0100F6B
:1002400008BFB0EC108A80F30988BFF36F8F704746
:10025000E8000020EFF30580704700000648804763
:1002600006480047FEE7FEE7FEE7FEE7FEE7FEE79B
:10027000FEE7FEE7FEE7FEE71581040889010408B2
:100280002DE9F05F0546002092469B4688460646CB
:10029000814640241BE0284641464746224600F05E
:1002A00084FD53465A46C01A914110D31146184650
:1002B000224600F06BFD2D1A67EB01084F462246DF
:1002C0000120002100F062FD17EB00094E41201EC5
:1002D000A4F10104DFDC484631462A464346BDE826
:1002E000F09F40EA01039B0703D009E008C9121FF1
:1002F00008C0042AFAD203E011F8013B00F8013BE0
:10030000521EF9D27047D2B201E000F8012B491E0B
:10031000FBD270470022F6E710B513460A460446A2
:100320001946FFF7F0FF204610BD421E12F8013FAC
:10033000002BFBD111F8013B02F8013B002BF9D156
:10034000704730B505462A460B4612F8010B13F8E4
:10035000014B08B1A042F8D01CB1002802D06D1C9E
:10036000F1E7284630BD10B5044604E00B7800F8EC
:10037000013B03B1491C521EF8D2204610BD421C5D
:1003800010F8011B0029FBD1801A7047034611F8B1
:10039000012B00F8012B002AF9D118467047000004
:1003A00070B50F4D00B92868002412E00A4602E03B
:1003B0009E4203D0521C1378002BF9D1DAB22243AB
:1003C00005D02BB124B1002100F8011B04E0044644
:1003D000401C0678002EE9D12860204670BD000040
:1003E000540100200FB400B58DB010A909900B90F6
:1003F00000914FF0FF300A9000200C9005480690C5
:10040000054807906A4609A80F9900F005FD0DB050
:100410005DF814FB350E0408530E04082DE9FF5F48
:100420001D464FF0FF3BD5E9014691465F464FF030
:100430000008A9697F1C01988847296A8246884775
:100440000028F6D1BAF1FF3F0CD024F4C064002E8E
:1004500019DD600614D5BAF12B0F09D0BAF12D0FB2
:100460000ED103E0584604B0BDE8F09F44F4806428
:10047000A9697F1C01988847761E8246002E02DDFE
:10048000BAF1300F03D0B9F1000F26D032E0A969DC
:10049000761E44F400747F1C019888478246002E23
:1004A00005DDBAF1780F06D0BAF1580F03D0B9F1D3
:1004B000000F10D01EE0B9F1000F02D0B9F1100FFB
:1004C00018D1A969761E24F400747F1C019888470E
:1004D0008246102002E0082000E00A20814609E060
:1004E00008FB0908A969761E44F400747F1C019872
:1004F00088478246002E05DD4946504600F077FCCD
:100500000028EDDAE96901988847A00502D46FF068
:100510000100A8E7E00725D1600613D5600502D5E4
:10052000C8F1000000E0404629680A1D2A600968F9
:10053000220501D5087015E0220701D5088011E0D9
:1005400008600FE02868011D29600068210502D5B8
:1005500080F8008006E0210702D5A0F8008001E0C5
:10056000C0F8008038467EE72DE9FF5FD2E901A799
:100570004FF00008916999461446DDF838B04646B8
:1005800001988847054659EA0B0005D009E0A169A2
:10059000761C019888470546216A28468847002826
:1005A000F5D1681C03D05FEACA7005D015E04FF0A2
:1005B000FF3004B0BDE8F09F2068011D2160D0F835
:1005C00000800AE05FEACA7001D108F8015BA16906
:1005D000761C7F1E019888470546002F1ADD681C8F
:1005E00018D0B9F1000F0DD0E81705EBD06042111B
:1005F00020F01F0059F822102A1A012090400142D1
:10060000E0D107E0BBF1000FDCD1216A2846884722
:100610000028D7D0E16901988847BBF1000F07D1C6
:10062000002E05DD5FEACA7002D1002188F80010B3
:10063000A068B84203DDBBF1000F03D017B16FF023
:100640000100B6E73046B4E72DE9FF4F087883B0E4
:100650009946FF2805D0491C2D2804D000240020ED
:1006600008E000200BE00124F9E700EB800003EB39
:100670004000491C0B78FF2BF7D104B14042002306
:100680000293147819461D462D2C01D02B2C04D131
:10069000521C2D2C13D000240294AA461478FF2C4F
:1006A0000FD00A25A3FB057801FB05814FF0000C54
:1006B00003FB0C11521CE3194AEB0101EEE7012484
:1006C000EAE7814453EA010002D019F5C87F06DA4F
:1006D00003980021C0E9001107B0BDE8F08F0025A4
:1006E000AE4E2F46DFF8B882184600F0DDFCCDE9AB
:1006F0000001B9F1000002DAC9F1000400E004468B
:100700000023A74A1AEB030B42EB045A12E0E0075E
:1007100007D02A4633463846414600F0F9F90746E5
:1007200088462A4633461046194600F0F1F9054638
:100730000E466410002CEAD1DDE90001B9F1000F8A
:100740005A46534606DA00F055FA3A46434600F058
:1007500051FA05E000F0DCF93A46434600F0D8F9DA
:10076000029A0AB181F00041039AC2E90001B3E79D
:100770002DE9FF4F1F468DB0D7E901464FF0FF38F6
:100780002E2045464FF000090B90B9696D1C0E985C
:100790008847396A824688470028F6D1BAF1FF3F78
:1007A0000AD024F4D064002E11DDBAF12B0F08D04A
:1007B000BAF12D0F0BD102E0404611B08DE744F4A1
:1007C0008064B9696D1C0E9888478246761E69461A
:1007D000600501D52D2000E02B208DF8000001F1EF
:1007E000010B0DF1200809E0B9696D1C0E988847CE
:1007F00082460F9844F40074761E0560002E02DDD8
:10080000BAF1300FF0D00B998A453ED144F0800404
:1008100006E00F99681CA9F1010944F4007408600E
:10082000B9696D1C761E0E98884782463028F0D034
:100830002BE00B998A4505D1200603D444F08004AF
:10084000761E18E050460AF041FF08B30DF113017F
:10085000761E44F400748B4508D2AAF130000BF8E0
:10086000010B200607D5A9F1010003E0200602D400
:1008700009F101008146A00502D50F99681C0860A6
:10088000B9696D1C0E9888478246002ED1DC53E072
:10089000002E51DDBAF1650F02D0BAF1450F4BD1F0
:1008A000A00549D5B9696D1C24F44074761E0E98D4
:1008B00088478246002E0CDD2B2804D0BAF12D0F7C
:1008C00007D144F48074B9696D1C0E98884782463C
:1008D000761EE00501D52D2100E02B2108F8011B33
:1008E000CDF82C8021E00DF12901761E44F400742E
:1008F00088450CD2AAF1300010F0FF0088F8000003
:1009000002D10B99884509D908F1010806E0E005F4
:1009100001D5244801E042F20F708146B9696D1C8F
:100920000E98884782460F980560002E04DD5046D9
:100930000AF0CCFE0028D6D1F9690E988847FF202E
:100940008BF8000088F800000020069007904B46C6
:100950006A4608A906A8FFF777FEA00502D46FF043
:1009600001002AE714F0240F0AD0E00714D1DDE9D2
:1009700006123868031D3B600068C0E900120BE0F6
:10098000DDE9060100F0D0F90146E00704D138683E
:10099000021D3A600068016028460EE7000014401E
:1009A0000000F03FF1D8FFFF70B506460AF038FDB1
:1009B000046805460A220021304600F0A9FA2C609E
:1009C00070BD2DE9FE4F804681EA0300C00F0C4642
:1009D000009021F0004123F00045B8EB0200A9414E
:1009E00005D24046214690461C460B46024623F05F
:1009F0000040104347D0270DC7F30A00C3F30A5144
:100A00000290401A019040286BDAC3F3130040F4BF
:100A1000801B0098924620B10023D2EB030A63EBBF
:100A20000B0B01985946C0F14002504600F0AEF958
:100A300006460D4650465946019A00F0C6F910EB9D
:100A400008006141002487EA115284EAE7731A43DF
:100A500040D0009A62B3019A012A4FEA075215DC8E
:100A6000001B61EB02014FF0004202EA0752CDE9A0
:100A70000042001C41F5801132462B4600F0C6FAB8
:100A800003B0BDE8F08F40462146F9E7001B61EB5B
:100A90000201001C41F5801300185B412018A2F5EB
:100AA000001747EB030140EAD570B6196D4111E01C
:100AB0006D084FEA360645EAC0754FEA0752001B3B
:100AC00061EB0201001C41F5801149084FEA30003A
:100AD0000019514132462B4603B0BDE8F04F00F0FB
:100AE00086BA0098012240000023D0EB020263EB9B
:100AF000E073009821464FEAE074B8EB000061EB28
:100B00000401E9E783F000435BE781F0004158E727
:100B10002DE9FE4F81EA030404F0004421F0004176
:100B200000944FF0000B23F0004350EA01045ED024
:100B300052EA03045BD0C3F30A54C1F30A552C44B0
:100B4000A4F2F3340194A0FB0254C1F3130141F465
:100B50008011C3F3130343F4801301FB024400FB31
:100B6000034E840A970A44EA815447EA8357A4FB58
:100B7000076802958D0A05FB07854FEA932C04FB55
:100B80000C542705029D4FEA065847EA1637B5EB85
:100B900008056EEB070C870E920E47EA811742EAB2
:100BA0008312A7FB0201B6EB0B0164EB00042B0DD3
:100BB00043EA0C335E1844EB1C50DA465146E7FB1F
:100BC0000201C5F313044FEA0B3343EA14534FEA0F
:100BD0000432019C43EA0603A4F10C040294009C35
:100BE000CDE900B400F012FA03B0BDE8F08F0020A8
:100BF0000146F9E72DE9F04D81EA030404F0004BCA
:100C000021F0004514464FF0000A23F0004150EA5D
:100C1000050220D054EA01021DD0C5F30A5702464E
:100C2000C5F31303C1F31300C1F30A5640F4801552
:100C300043F48013A7EB0608101BD64608F2FD38D4
:100C400073EB050002D308F1010801E092185B4143
:100C5000B8F1000F03DA00200146BDE8F08D002056
:100C60004FF48011064684460EE0171B73EB050710
:100C700005D3121B63EB050306434CEA010C49083C
:100C80004FEA300092185B4150EA0107EDD152EA79
:100C9000030012D082EA040083EA0501084305D06C
:100CA000101BAB4106D20122002306E000224FF0C8
:100CB000004302E06FF0010253101AEB06004CEB08
:100CC000085110EB0A0041EB0B01BDE8F04D00F0BC
:100CD0008EB900F0004230F000400AD0C10D01F59D
:100CE0006071C0F3160042EA0151C2084007114387
:100CF000704700200146704730B5041E71F10004B2
:100D000004DB4FF00044404264EB0101141E73F118
:100D1000000405DB1C464FF00043524263EB040322
:100D2000994208BF904230BD01F0004330B421F039
:100D3000004150EA010206D00A0DA2F56072C1F32B
:100D40001301002A02DC30BC00207047440F44EA43
:100D5000C104C100E01830BC00EBC25000F010B973
:100D600030B50B46014600202022012409E021FA7B
:100D700002F59D4205D303FA02F5491B04FA02F578
:100D80002844151EA2F10102F1DC30BD202A04DB4B
:100D9000203A00FA02F1002070479140C2F120038E
:100DA00020FA03F3194390407047202A04DB203ACD
:100DB00021FA02F00021704721FA02F3D040C2F17B
:100DC00020029140084319467047202A06DBCB17C2
:100DD000203A41FA02F043EAE07306E041FA02F3F6
:100DE000D040C2F1200291400843194670473A288A
:100DF00000D2303820F02002412A01D3A2F137007E
:100E0000884201D34FF0FF30704700000268114460
:100E10001378016018467047D16004495161044954
:100E2000116200211161114600F082B90D0E040813
:100E30001D110408426842B1016811F8013B23B159
:100E4000521EC0E90012184670470121C160881E79
:100E5000704742685AB1C368016843B983688B42DE
:100E600005D0491E521CC0E90012002070474FF007
:100E7000FF3070470FB4002300B589B00CA9009172
:100E80000B996FF00042CB601E4B06931E4B0793ED
:100E90000423CDE901321D4A089202466B46002028
:100EA000FFF766FC09B05DF814FB70B586B0064626
:100EB0004FF0FF300091CDE90101002015460C46AE
:100EC00004903246694604A8FFF7D4FF024604980E
:100ED000211825B108B1084600E020462860049892
:100EE00000280DD0002A02DD0098884208D0081B97
:100EF0000094CDE901043246694604A8FFF7BAFF21
:100F000006B070BD350E0408530E04081D11040808
:100F10002DE9F04791460F4680460446002614F816
:100F2000015B2DB100F0F6F80068405DC007F6D116
:100F30002B2D02D02D2D18D0641E4A46394620464E
:100F400000F08CFA27B13968A14201D1C7F80080BE
:100F500071054FF002040BD54042002803DD0AF072
:100F60005FFA0460A007BDE8F08746F48066E4E716
:100F70000028F8DA0AF054FA04606FF00040F2E753
:100F80000029A8BF7047401C490008BF20F001009D
:100F9000704710B4B0FA80FC00FA0CF050EA01047B
:100FA00004BF10BC704749B1CCF1200421FA04F40D
:100FB00011FA0CF118BF012121430843A3EB0C01E6
:100FC000CB1D4FEA00614FEA102042BF002010BC49
:100FD000704700EBC35010440029A4BF10BC7047F9
:100FE000401C490008BF20F0010010BC704710B53C
:100FF000141E73F1000408DA401C41F1000192183C
:101000005B411A4301D120F0010010BD2DE9F04DE4
:1010100092469B4611B1B1FA81F202E0B0FA80F239
:1010200020329046FFF7B2FE04460F4640EA0A001F
:1010300041EA0B0153465A46084313D0114653EA7E
:10104000010019D0C8F140025046FFF7AEFE054638
:101050000E46504659464246FFF798FE084305D0D3
:10106000012004E020463946BDE8F08D002005430C
:1010700046EAE0762C4337430A986305E40AA0EB7E
:1010800008000022FD0A44EA47540A3002D5002035
:101090000146E9E7010510196941DDE90845001934
:1010A0006941BDE8F04DA2E70EB540F2334202922D
:1010B0000022CDE900221346FFF7A8FF03B000BDD0
:1010C000C1F30A52C1F3130140F2FF3341F480111E
:1010D0009A4202DA00200146704740F233439A42B6
:1010E000A2F2334202DC5242FFF75FBEFFF74EBE70
:1010F000064C074D06E0E06840F0010394E8070065
:1011000098471034AC42F6D3FFF742F858DE040893
:1011100078DE0408004870478CDA040810B50446ED
:10112000FFF7F8FF0068005D00F0010010BD00004F
:101130002DE9F34F8BB04FF0000801F10C000C4685
:101140004FF0010B46460DF1080A0190626901213A
:1011500001989047051E2DD0252D2CD0216A884757
:10116000C0B16269012101989047216A884700282F
:10117000F7D1411E62690198904700E0761CA16991
:101180000B988847216A88470028F7D1E1690B98B6
:101190008847DBE7A1690B9888470746A84201D139
:1011A000761CD3E7E1690B9888477F1C02D1B8F120
:1011B000000F6FD046E1002762693D46394601982D
:1011C00090472A2804D1626901210198904701259E
:1011D000DFF884926269012101989047A0F1300103
:1011E0000A290AD24F45E5DC07EB870100EB4107EE
:1011F000303FDFD445F01005ECE7E90601D46FF08D
:1012000000476C280AD04C2814D0682815D06A28CA
:101210000DD074281CD07A281AD01DE062690121F3
:10122000019890476C2802D045F0040514E045F081
:1012300002050DE045F020050AE0626901210198F0
:101240009047682802D045F0080505E045F40065A0
:101250006269012101989047C4E9015765283DD092
:1012600019DC58287AD00CDC452837D004DC252836
:1012700026D0412831D131E046282FD047282CD123
:101280002CE05B2877D0612828D063287CD06428A4
:1012900023D15AE0D0E06F2848D008DC66281DD062
:1012A00067281BD0692821D06E2816D127E0702826
:1012B00045D0732868D0752847D078280DD14DE0E7
:1012C000A1690B988847054625283FF469AFE16975
:1012D0000B9888476D1C3FF46AAFB3E023466A461B
:1012E0006FF001000B99FFF743FA9EE045F04000D4
:1012F0006060A80723464FF0000236D43EE0E807BE
:101300007FF447AF2068011D21600068290501D5E1
:1013100006701BE7290701D5068017E7A90703D543
:10132000F117C0E9006111E706600FE745F04000E2
:101330006060A80723464FF0080216D41EE040F66E
:101340000E0125EA0100606016E045F04000606093
:10135000A80723464FF00A0207D40FE045F04000EB
:101360006060A80708D5234610226FF001000B9992
:10137000AFF3008059E007E0234610226FF0010030
:101380000B99FFF74BF850E04FF000094F464B46E2
:10139000632802D05B2806D040E0E80601D4012093
:1013A000A06001273AE062690121019890475E2818
:1013B00005D14FF0010962694946019890472169BA
:1013C00039B900210A46534643F82120491C08290F
:1013D000FADBB0B3216969B9C11700EBD1625311CF
:1013E0000AEB830122F01F02821A01200B68904051
:1013F00003430B6062690121019890475D28E8D1A1
:10140000B9F1000F09D00020514651F82020D243F5
:1014100041F82020401C0828F7DB02AB2246009749
:101420006FF001000B99FFF79FF800280CDA401CC1
:1014300008D1BBF1000F05D04FF0FF300DB0BDE873
:10144000F08FFFE74046F9E7E90701D108F101080D
:1014500006444FF0000B79E6CCCCCC0C2DE9F05FC4
:1014600082460078002715468B460AF10104B946EA
:10147000302801D09DB113E014F8010B0127782822
:1014800003D0582801D045B10AE00DB1102D07D185
:101490000027102514F8010B02E0082500E00A25BA
:1014A0000026B0460EE005FB080005FB06F101270B
:1014B00001EB10461FFA80F8B6F5803F00D3B9461D
:1014C00014F8010B2946FFF792FC0028EBDABBF178
:1014D000000F05D00FB1641E00E05446CBF8004069
:1014E000B9F1000F06D009F09BFF02210160C81E70
:1014F000BDE8F09F48EA0640FAE770B58C1810F88E
:10150000015B15F0070301D110F8013B2A1106D148
:1015100010F8012B03E010F8016B01F8016B5B1E62
:10152000F9D12B0705D40023521E0DD401F8013B3D
:10153000FAE710F8013BCB1A921C03E013F8015BA9
:1015400001F8015B521EF9D5A142D8D3002070BD2D
:1015500070B50546AC6B206C00F0500050BB206CA1
:1015600040F4007020642068806800F04050E8B9C2
:10157000207ED8B92068C06A00F4700020B12068CD
:10158000806800F4806088B92068406820F02000FE
:1015900021684860206C20F480702064206C00F486
:1015A000805018B9206C40F001002064204601F002
:1015B00091FB0BE0206C00F0100018B1204601F008
:1015C0008BFB03E0A06BC16C2846884770BD70B5EB
:1015D0000546AC6B40202064606C40F00400606401
:1015E000204601F079FB70BD70B50446A56B284616
:1015F00001F071FB70BD000055494A6822F4403289
:101600004A604A6843681A434A600268526822F492
:10161000807203685A6002685368026943EA0222D2
:1016200003685A600268526822F0407203685A6088
:101630000268526883681A4303685A6002689268B5
:1016400022F4006203689A6002689268C3681A43D1
:1016500003689A603F4B826A9A4218D00268926887
:1016600022F0706203689A6002689268836A1A4383
:1016700003689A600268926822F0405203689A6098
:1016800002689268C36A1A4303689A600BE00268B2
:10169000926822F0706203689A600268926822F091
:1016A000405203689A600268926822F0020203685E
:1016B0009A6002689368027E43EA420203689A6075
:1016C0002022125CA2B10268526842F400620368F0
:1016D0005A600268526822F4604203685A600268E5
:1016E0005368426A521E43EA423203685A6005E078
:1016F0000268526822F4006203685A600268D26A83
:1017000022F470020368DA620268D36A828B521E86
:1017100043EA02520368DA620268926822F40072B5
:1017200003689A600268936890F8302043EA422286
:1017300003689A600268926822F4806203689A6083
:1017400002689368426943EA822203689A6070479C
:10175000002301400100000F70B504460025054834
:101760000078012804D121460348FEF7EAFD05462A
:10177000284670BDC3000020003100202DE9F04153
:1017800005460E4614460027FF2D0AD800BF1C4808
:10179000006800F040000028F9D01948001D0560DD
:1017A00002E028460BF042FA002E26D0002C24D06E
:1017B0001CE064200AF00DFC12480078012815D1C5
:1017C0003046FFF7C9FF40B10F4910A009F0E8FD0E
:1017D0000D480AF01FFB00270CE00B4917A009F089
:1017E000DFFD09480AF016FB012703E0601E80B206
:1017F000041EDED100BF04B901273846BDE8F081E0
:1018000000440040C300002000310020E4B8B2E5ED
:101810008FA332E68EA5E694B628E69C9FE5BE85AA
:10182000E79A84E5BA94E7AD94E7BB93E69E9C29DA
:10183000EFBC9A0D0A25730D0A000000E4B8B2E56A
:101840008FA332E68EA5E694B628E4B88DE698AF6D
:10185000E69C9FE5BE85E79A84E5BA94E7AD94E7F8
:10186000BB93E69E9C29EFBC9A0D0A25730D0A00D6
:101870002DE9F04705460E4617461C46DDE9088966
:101880000DE0641E4FF47A700AF0A3FB002C06DC16
:10189000494607A009F084FD4046BDE8F0873A4676
:1018A00031462846FFF76AFF0028EAD100BFF4E777
:1018B00025730D0A0000000010B50246002006E066
:1018C000135C441C145D1454441C1355801C884242
:1018D000F6D310BD00BFFEE770B502460B464FF6CB
:1018E000FF7000210FE0565C86EA1020002407E01C
:1018F00000F00105400815B14AF201067040641C71
:10190000082CF5D3491C9942EDD370BD1CB509F0E4
:101910008FFB05F0A9F805F02FF8012001900022B7
:101920000221344801F0A6FE00224FF480513248D3
:1019300001F0A0FE002240212F4801F09BFE012271
:1019400051032E4801F096FE012204212C4801F09B
:1019500091FE0122D1022B4801F08CFE00224FF4AF
:101960000051284801F086FE01221146244801F06A
:1019700081FE0422244901A809F0A8FB019820B1A6
:1019800022A009F00DFD04F0DBFE019800282FD104
:1019900024A009F005FD0120019004221A4901A8A4
:1019A00009F01CFC25A009F0FBFC01F06DF800BF5C
:1019B000002000902748006840F0805025490860CA
:1019C0000846006800F08050009000BF00BF8815F6
:1019D00002F022F92048006840F004001E49086027
:1019E000881502F02FF902F035F91CA009F0D8FC97
:1019F0001CBD00000008024000000240000402403C
:101A000000100240000C024058FDFF00415050E51C
:101A1000BC80E590AFE79C8BE997A8E78B970D0A10
:101A200000000000415050E585B3E997ADE5BC806A
:101A3000E997A8E78B970D0A0000000045786563D9
:101A40007574696E67207374616E646279200D0A23
:101A5000000000004038024000700040E8BF9BE5F5
:101A600085A5E5BE85E69CBAE6A8A1E5BC8FE5A400
:101A7000B1E8B4A50D0A000010B5024801F008FB5A
:101A800010BD0000A437002010B5024801F000FB93
:101A900010BD00000438002010B5024801F0F8FA2B
:101AA00010BD0000E42D002010B5024801F0F0FA4E
:101AB00010BD00006438002010B5024801F0E8FABB
:101AC00010BD0000E436002010B5024801F0E0FA35
:101AD00010BD0000C438002010B5024801F0D8FA4B
:101AE00010BD000044370020014608781038182344
:101AF000B0FBF3F20848805CC865032A05D9086882
:101B00006FF30900001D886503E008686FF30900A2
:101B10008865886D70470000E8D9040801460020F8
:101B20008A6A8B69CBB932B1012A0DD0022A03D05F
:101B3000032A10D10EE000BFCB6A03F08073B3F12B
:101B4000807F00D1012007E0CB6AB3F1C07F00D1D4
:101B5000012001E000E000BF34E08B69B3F5005FD5
:101B60001AD132B1012A07D0022A03D0032A11D197
:101B70000AE000BF01200EE0CB6A03F08073B3F1EE
:101B8000807F00D1012006E0CB6AB3F1C07F00D195
:101B9000012000E000BF15E032B1012A05D0022A81
:101BA00004D0032A0CD103E000BF00BF012008E0ED
:101BB000CB6A03F08073B3F1807F00D1012000E095
:101BC00000BF00BF704730B50468246824F4802447
:101BD00005682C60046863608468402C04D1046844
:101BE000A2600468E16003E00468A1600468E26048
:101BF00030BD0000F0B52DED088B9FB000201E9089
:101C0000FC4809F093F910EE105AFA480A3009F02E
:101C10008DF910EE106A2846FFF75BF841EC180BBF
:101C200053EC182BF4A009F0BBFB3046FFF751F83A
:101C300041EC180B53EC182BF4A009F0B1FB142263
:101C4000EC49823915A809F041FA0422E9498C3996
:101C500014A809F03BFA0422142113A809F036FA5B
:101C600004220A21EE4809F031FA04220021ED484D
:101C700009F02CFAECA0139909F092FB6422EF49C9
:101C8000EF4801F0C1F8ED4800F0E0FE10EE104A18
:101C90002046FFF71EF841EC1B0B9FEDEA0B53ECBF
:101CA000102BFEF735FF41EC1A0B9FEDE80B53ECC0
:101CB000102BFEF786FE41EC190B9FEDE60B53EC63
:101CC000102BFEF725FF41EC180B9FEDE40B53ECB6
:101CD000102BFEF776FEE34A02F5847203C2E14858
:101CE00090ED421BB0EE410AF0EE610A53EC102B6E
:101CF000DDA009F055FB0022E049E14802F04EFD6D
:101D00000022E049DE4802F023FD3046FEF7E1FF05
:101D100041EC180B2846FEF7DCFF41EC190B8DED6A
:101D2000108B8DED0E9BCF4890ED420B8DED0C0B83
:101D3000D2488078D1494978D04A1278D14B9B78E3
:101D4000CDE90732CDE90910CE484078CD49C978B0
:101D500001F5F46115ABC94A9278CDE90323CDE9C9
:101D60000510C6484078C5490978C64A9278CDE939
:101D700000210290C3484378C07800F5F462C2495C
:101D8000C24809F01DFBC2480068012803D1BF49C1
:101D9000C04805F0AFF8BE480068022803D1BB492F
:101DA000BD4805F025FCBA480068032807D1B749AB
:101DB000B84805F09FF8B549B74805F019FCB34895
:101DC0000AF062F8A749C1F8F0000846B3A1D0F8BC
:101DD000F0201CA809F0F4FAAC480AF055F80446C3
:101DE0002146AA48FFF778FDAE490880A7491CA8FC
:101DF0000AF0A6FA0746AB480288ABA11AA809F078
:101E0000DFFA1AA93846FEF790FA3946A8A009F079
:101E1000C7FA1398401CAB490968884203DAA948FD
:101E2000006801287DD1149801280AD1384607F0AE
:101E30002DF830B9384609F0F7FA1FB0BDEC088B21
:101E4000F0BD1498022807D1384606F093FC18B963
:101E5000384609F0E9FAF0E7714801689AA009F0FC
:101E60009FFA704801689DA009F09AFA6D480068D1
:101E70006B49096890FBF1F09249086008460168D7
:101E80009BA009F08DFA8F48006801287DD1149835
:101E900001287BD1384606F055FA002877D0042275
:101EA0005449B4391EA809F011F995A01E9909F0FA
:101EB00077FA73E01E98401E4FF4FA72504300F513
:101EC0000001964809F002F9944806F03BFA80B107
:101ED0001E98401E1E9092A009F062FA96A01E99CC
:101EE00009F05EFA04224349B4391EA809F076F9D4
:101EF00024E096A009F054FA9AA0012105234FF49A
:101F00007A72CDE90010A3A1A3A0FFF7B1FCA64807
:101F10000168A6A009F044FAA3480068022803D18A
:101F200000E0FCE304F094FF384609F07DFA00225B
:101F30004FF40061A24801F09DFB7EE71E98002847
:101F40002CD1A0A009F02CFA86A0012105234FF482
:101F50007A72CDE900108FA18FA0FFF789FC0422CF
:101F60002449B4391EA809F039F98F4801688FA0B7
:101F700009F016FA8C480068022801D104F068FFC5
:101F8000384609F051FA002202E022E249E127E155
:101F90004FF400618A4801F06DFB4EE71E9800285F
:101FA00088D170A0012105234FF47A72CDE9001089
:101FB00078A179A0FFF75CFC384609F065FF04467C
:101FC00021468648FEF7A6F9384609F02DFA7648EC
:101FD000016876A009F0E4F973480068022801D18D
:101FE00004F036FF00224FF40061754801F042FB17
:101FF00023E70000F8FDFF00E8AEBEE5A487E7BBDD
:102000008FE5BAA6EFBC9A25660D0A00E8AEBEE5DC
:10201000A487E7BAACE5BAA6EFBC9A25660D0A001C
:10202000580000205C000020777269746570616759
:1020300065EFBC9A25640D0A00000000802800208E
:102040009C2D002033333333333315405C8FC2F57E
:10205000285CE73F1317E571CF05F13F0E1359E0F8
:10206000352C933F58030020E794B5E6B1A0E794E0
:10207000B5E58E8B3A252E33660D0A00681E0020CA
:10208000F82E00205400002098DC04087016002070
:102090008C000020802300200026002023232530F0
:1020A0003464000068000020253034580D0A000018
:1020B000E58AA0E585A5E68AA5E5B0BEE5908E2572
:1020C000730D0A00900000204DE98787E6A0B7E66F
:1020D00097B6E997B43D25640D0A00004DE4B88A2F
:1020E000E68AA5E697B6E997B43D25640D0A000097
:1020F0006D61785F706167653D25640D0A000000C1
:10210000E5BE85E8A1A5E58F91E695B0E68DAEE93F
:10211000A1B5E695B03A25640D0A0000581A0020D2
:10212000E695B0E68DAEE8A1A5E58F91E4B8AD2EB9
:102130002E2E2E2E2E0D0A00E589A9E4BD99E9A1C7
:10214000B5E695B0EFBC9A25640D0A00E695B0E6B9
:102150008DAEE8A1A5E58F91E5A4B1E8B4A50D0A7F
:102160000000000042433236303A544350E7BD91FC
:10217000E7BB9CE7ABAFE58FA3E696ADE5BC80E59A
:10218000A4B1E8B4A52CE58DB3E5B086E9878DE56B
:1021900090AF00004F4B000041542B5149434C4F2E
:1021A00053453D300D0A00006400002072776F72C5
:1021B0006B5F73746174653A25640D0A000000005A
:1021C00000000240E695B0E68DAEE8A1A5E58F914E
:1021D000E5AE8CE688900D0A00000000641800202F
:1021E000FCA009F0DDF8AFF28400012105234FF4D3
:1021F0007A72CDE90010AFF26401AFF26400FFF72C
:1022000037FBFE480068022801D104F021FE384661
:1022100009F00AF900224FF40061F94801F02AFAA6
:102220000BE6149802287DD1384605F07DFF002882
:1022300079D00422F3491EA808F048FFAFF24010FD
:102240001E9909F0ADF874E01E98401E4FF4FA7222
:10225000504300F50001EC4808F038FFEA4805F06B
:1022600063FF88B1AFF2481009F09AF81E98401E3B
:102270001E90AFF23C101E9909F092F80422E14939
:102280001EA808F0ABFF24E0AFF2401009F088F878
:10229000DEA0012105234FF47A72CDE90010AFF2E0
:1022A0000C11AFF20C1000F083FB4FF4967009F0A4
:1022B00090FED2480068022801D104F0C9FD3846DA
:1022C00009F0B2F800224FF48051DC4801F0D2F955
:1022D000B3E51E9840BBAFF2141009F061F8CBA033
:1022E000012105234FF47A72CDE90010AFF25C11A1
:1022F000AFF25C1000F05CFB4FF4967009F069FEE1
:102300000422C0491EA808F069FFBC4800680228E2
:1023100001D104F09DFD384609F086F800224FF403
:10232000805102E0D7E030E003E0C44801F0A2F9B8
:1023300083E51E98002887D1384609F0A5FD04469C
:102340002146BF48FDF7E6FF384609F06DF8AFA01B
:10235000012105234FF47A72CDE90010AFF2CC11C0
:10236000AFF2CC1000F024FB4FF4967009F031FE70
:10237000A2480068022801D104F06AFD00224FF44F
:102380008051AE4801F076F957E592A009F008F8BF
:102390009EA0012105234FF47A72CDE90010AFF21F
:1023A0000C21AFF20C2000F003FB4FF4967009F003
:1023B00010FE92480068022801D104F049FD384619
:1023C00009F032F800224FF480519C4801F052F994
:1023D00033E59C48006801287DDD149801287BD1F5
:1023E000002427E0601C9749096888420FDA2146DB
:1023F00095A008F0D5FF4FF4FA7204FB02F000F14B
:102400006401974808F062FE954805F09BFF601C48
:102410008C49096888420CD1384605F093FF0020AA
:1024200013900422142113A808F0D8FE384608F0AF
:10243000FBFF641C601C834909688842D2DD0422CA
:1024400070491EA808F042FEAFF24C301E9908F009
:10245000A7FF6AE01E98401E4FF4FA72504300F541
:102460000001694808F032FE674805F06BFF88B14B
:102470001E98401E1E90AFF2583008F091FFAFF248
:1024800048301E9908F08CFF04225E491EA808F00F
:10249000A5FE22E0AFF24C3008F082FF5BA00121E4
:1024A00005234FF47A72CDE90010AFF21831AFF284
:1024B0001830FFF7DDF951480068022801D104F017
:1024C000C7FC00224FF400614D4801F0D3F83846B4
:1024D00008F0AAFFB1E4CDE04FE01E9828BBAFF2B0
:1024E0001C3008F05DFF49A0012105234FF47A72EA
:1024F000CDE90010AFF26431AFF26430FFF7B8F904
:10250000042240491EA808F069FE3C4800680228E1
:1025100001D104F09DFC00224FF40061384801F025
:10252000A9F8384608F080FF87E41E98002891D16A
:1025300036A0012105234FF47A72CDE90010AFF2E5
:10254000AC31AFF2AC30FFF793F9384609F09CFCA0
:10255000044621463A48FDF7DDFE384608F064FFA0
:1025600026480068022801D104F072FC00224FF4D2
:102570000061234801F07EF85FE41498022879D1C5
:10258000002424E0601C2F49096888420FDA2146A4
:1025900034A008F005FF4FF4FA7204FB02F000F1DA
:1025A00064012F4808F092FD2D4805F0BDFD601C28
:1025B00024490968884209D1384605F0B5FD002054
:1025C00013900422142113A808F008FE641C601C58
:1025D0001C4950E0E696B0E695B0E68DAEE4B88AC8
:1025E000E4BCA0E5A4B1E8B4A5EFBC8CE5A487E405
:1025F000BBBDE695B0E68DAE0D0A0000640000207C
:102600000000024044FDFF00581A002045433230CC
:102610003A544350E7BD91E7BB9CE7ABAFE58FA3CE
:10262000E696ADE5BC80E5A4B1E8B4A52CE58DB394
:10263000E5B086E9878DE590AF0000000004024018
:102640006418002090000020E591A8E69C9F777216
:10265000697465706167653A25640D0A00000000C1
:102660004C1C00207772697465706167653A256457
:102670000D0A0000E5E00968884283DD0422724902
:102680001EA808F023FDAFF288501E9908F088FEBE
:1026900073E01E98401E4FF4FA72504300F500019B
:1026A0006A4808F013FD694805F03EFD88B11E98A0
:1026B000401E1E90AFF2985008F072FEAFF28850A4
:1026C0001E9908F06DFE04225F491EA808F086FDE1
:1026D00026E0AFF2885008F063FEAFF2D00001218F
:1026E00005234FF47A72CDE90010AFF25851AFF2E2
:1026F000585000F05DF94FF4967009F06AFC5448A8
:102700000068022801D104F0A3FB384608F08CFED3
:1027100000224FF480514F4800F0ACFF0DE459E027
:102720001E9850BBAFF2645008F03AFEAFF224108E
:10273000012105234FF47A72CDE90010AFF2AC51BC
:10274000AFF2AC5000F034F94FF4967009F041FC50
:1027500004223D491EA808F041FD3D4800680228BA
:1027600001D104F075FB384608F05EFE00224FF4FC
:102770008051384800F07EFF0FE41E98002888D171
:10278000AFF27810012105234FF47A72CDE90010E1
:10279000AFF20061AFF2006000F00AF94FF49670FA
:1027A00009F017FC384609F06FFB044621462A4819
:1027B000FDF7B0FD384608F037FE254800680228CE
:1027C00001D104F045FB00224FF48051214800F074
:1027D00051FF0DE421A0139908F0E2FD26A008F0B6
:1027E000DFFD0422142113A808F070FC139800EBFD
:1027F0004002C2EBC010642202EB80014FF4FA7277
:10280000384608F0EBFC1398401C13900422142166
:1028100013A808F0E3FC0E480068022801D104F078
:1028200017FB384608F000FE00224FF400611B48F9
:1028300000F020FF00224FF48051064800F01AFFFC
:10284000EEE400BFECE4000044FDFF00581A002055
:10285000640000200004024064180020E695B0E601
:102860008DAEE4BF9DE5AD98E9A1B5E695B0EFBCAE
:102870009A25640D0A000000E69CAAE588B0E4B839
:102880008AE68AA5E697B6E997B42CE4BF9DE5AD44
:1028900098E695B0E68DAE0D0A00000000000240FB
:1028A0007047000070B504460025054800780128EF
:1028B00004D121460348FDF744FD0546284670BD76
:1028C000C4000020903400202DE9F04105460E465A
:1028D00014460027FF2D0AD800BF1B48006800F0EF
:1028E00040000028F9D01848001D056002E0284685
:1028F0000AF0BEF9002E25D0002C23D01CE01420B5
:1029000009F067FB11480078012815D13046FFF720
:10291000C9FF40B10EA008F043FD174809F07AFA4C
:102920000020BDE8F081144914A008F039FD1248D8
:1029300009F070FA0120F4E7601E80B2041EDED1B7
:1029400004B901273846ECE700140140C400002018
:10295000E4B8B2E58FA336E68EA5E694B628E69CE9
:102960009FE5BE85E79A84E5BA94E7AD94E7BB930B
:10297000E69E9C290000000090340020E4B8B2E5F7
:102980008FA336E68EA5E694B628E4B88DE698AF18
:10299000E69C9FE5BE85E79A84E5BA94E7AD94E7A7
:1029A000BB93E69E9C29EFBC9A0D0A25730D0A0085
:1029B0002DE9F04705460E4617461C46DDE9088915
:1029C0000DE0641E4FF4FA7009F003FB002C06DCE6
:1029D000494607A008F0E4FC4046BDE8F0873A46C7
:1029E00031462846FFF770FF0028EAD100BFF4E720
:1029F00025730D0A0000000010B5102000F028FD1E
:102A00000421044800F02CFE4FF40051024800F06D
:102A100027FE10BD00100240000C024030B50346F6
:102A20001A46002008E0145C4D1E2D1A555D155401
:102A30004D1E2D1A5455401C01EBD175B0EB650F9E
:102A4000F1D330BD72B600BFFEE7000002460020A1
:102A500000BF002103E032F811301844491C6429FA
:102A6000F9DB6421B0FBF1F040F67A514143090BE8
:102A700000EE901AF8EE600A9FED021A80EE810ACD
:102A80007047000000007A4400B587B000BF002006
:102A900001902948006840F0010027490860084675
:102AA000006800F00100019000BF00BF00BF0020DF
:102AB00001900846006840F002000860084600687F
:102AC00000F00200019000BF00BF00BF0020019095
:102AD0000846006840F0040008600846006800F0FE
:102AE0000400019000BF00BF032003900220059066
:102AF000002004904FF6FF70029002A90F4800F0EA
:102B0000B5FC02A90E4800F0B1FC02A90D4800F086
:102B1000ADFC0948006820F001000749086008463C
:102B2000006820F0020008600846006820F00400F9
:102B3000086007B000BD00003038024000000240CD
:102B4000000402400008024038B502460020009010
:102B500000BF92F83C00012801D1022038BD0120BD
:102B600082F83C0000BF0868092816D91068C068C0
:102B70000C780A3C04EB44050724AC40A0431468DD
:102B8000E0600C780A3C04EB44048868A0401468B8
:102B9000E46820431468E06013E0106800690C7872
:102BA00004EB44050724AC40A043146820610C7872
:102BB00004EB44048868A040146824692043146826
:102BC00020614868072817D21068406B0C79641E92
:102BD00004EB84051F24AC40A0431468606308889C
:102BE00080B20C79641E04EB8404A0401468646B0A
:102BF00020431468606331E048680D2817D21068DC
:102C0000006B0C79E41F04EB84051F24AC40A04347
:102C100014682063088880B20C79E41F04EB8404F4
:102C2000A0401468246B20431468206316E01068E9
:102C3000C06A0C790D3C04EB84051F24AC40A04312
:102C40001468E062088880B20C790D3C04EB8404BF
:102C5000A0401468E46A20431468E062194B1A4CDF
:102C60001068A04206D10868122803D1586840F4C1
:102C700080005860144C1068A0421CD108681028CD
:102C800002D00868112816D1586840F40000586036
:102C9000086810280FD10D4800680D4CB0FBF4F007
:102CA00000EB80004000009002E00098401E009081
:102CB00000980028F9D100BF002082F83C0000BF36
:102CC00000BF4BE70023014000200140E40000204A
:102CD00040420F00704770477047000070B50446CF
:102CE00000250CB9012070BD1549A06A884200D0AA
:102CF00000BF206C30B9204600F024F8002060644A
:102D000084F83C00206C00F0100088B9206C20F49E
:102D1000885040F0020020642046FEF76DFC002041
:102D20006064206C20F0020040F00100206400E0AC
:102D3000012500BF002084F83C0000BF2846D2E7F0
:102D40000100000F10B586B00446142101A8FDF75C
:102D5000E1FA2849206888424AD100BF002000904B
:102D60002548006840F480702349086008460068E0
:102D700000F48070009000BF00BF00BF00200090F2
:102D80001D481438006840F004001B4914390860DD
:102D90000846006800F00400009000BF00BF20203B
:102DA0000190032002900020039001A9134800F035
:102DB0005DFB13481349086000204860002111485A
:102DC0008160C1604FF48061016149004161890007
:102DD00081614911C16100210162416200F078FA0C
:102DE00008B1FFF72FFE00BF0648A063846300BF51
:102DF00006B010BD002001404438024000080240E7
:102E000010640240E42D0020F8B504460D46164635
:102E10000020009000BF94F83C00012801D102205E
:102E2000F8BD012084F83C0000BF2068806800F0F5
:102E30000100A0B92068806840F001002168886026
:102E4000554800685549B0FBF1F000EB4000009098
:102E500002E00098401E009000980028F9D12068F8
:102E6000806800F48070B0F5807F05D120688068AC
:102E700020F48070216888602068806800F001007C
:102E800000287ED0206C40F20161884340F48070BD
:102E900020642068406800F4806028B1206C20F431
:102EA000005040F480502064206C00F48050B0F555
:102EB000805F04D1606C20F00600606401E00020B7
:102EC000606400BF002084F83C0000BF344F3548E8
:102ED000A16BC8633448A16B08643448A16BC86413
:102EE0006FF02200216808602068406840F0806030
:102EF000216848602068806840F48070216888609C
:102F0000226802F14C0133462A46A06B00F056FAC3
:102F1000786800F01F0018BB25492068884213D04C
:102F200024492068884204D1381D006800F01F0041
:102F300050B12149206888422BD11948001D0068F2
:102F400000F01F00102824D22068806800F0405054
:102F5000F8B92068806840F080402168886018E0F7
:102F600013492068884214D12068806800F04050DE
:102F700078B92068806840F080402168886008E067
:102F8000FFE7206C40F010002064606C40F001000E
:102F90006064002044E70000E400002040420F008D
:102FA0000023014051150408E9150408CF15040851
:102FB00000200140002101400022014070B504467C
:102FC000A56D00F05DFB064694F83500022808D098
:102FD0008020606500BF002084F8340000BF01201D
:102FE00070BD2068006820F0160021680860206825
:102FF000406920F0800021684861206C08B9A06C0D
:1030000028B12068006820F0080021680860206866
:10301000006820F001002168086010E000F030FB3B
:10302000801B05280BD920206065032084F835001B
:1030300000BF002084F8340000BF0320D0E72068E0
:10304000006800F001000028E8D194F85C103F20EF
:103050008840A860012084F8350000BF002084F873
:10306000340000BF00BFBBE7014691F835000228DD
:1030700003D08020486501207047052081F8350085
:103080000868006820F001000A6810600020F3E77B
:10309000F8B50446002000908C4800684FF41651A3
:1030A000B0FBF1F7A56D2E6894F85C1008208840FD
:1030B000304098B12068006800F0040070B12068CA
:1030C000006820F004002168086094F85C10082073
:1030D0008840A860606D40F00100606594F85C1065
:1030E00001208840304068B12068406900F08000CD
:1030F00040B194F85C1001208840A860606D40F0F9
:103100000200606594F85C1004208840304068B18B
:103110002068006800F0020040B194F85C100420C0
:103120008840A860606D40F00400606594F85C1011
:1031300010208840304078B32068006800F0080014
:1031400050B394F85C1010208840A8602068006894
:1031500000F4802080B12068006800F4002028B9C5
:10316000206CC8B12046216C884715E0A06C98B14E
:103170002046A16C88470FE02068006800F480704A
:1031800028B92068006820F0080021680860206CD9
:1031900010B12046216C884794F85C1020208840AC
:1031A0003040002865D02068006800F0100000283A
:1031B0005FD094F85C1020208840A86094F8350017
:1031C000052828D12068006820F0160021680860D2
:1031D0002068406920F0800021684861206C08B9AF
:1031E000A06C28B12068006820F008002168086001
:1031F00094F85C103F208840A860012084F83500D6
:1032000000BF002084F8340000BF206D10B12046BC
:10321000216D8847F8BD2068006800F4802080B1E7
:103220002068006800F4002028B9606C10B12046C6
:10323000616C88471DE0E06BD8B12046E16B8847A0
:1032400017E02068006800F4807068B920680068A2
:1032500020F0100021680860012084F8350000BFCC
:10326000002084F8340000BFE06B10B12046E16B11
:103270008847606D38B3606D00F00100F0B1052043
:1032800084F835002068006820F00100216808609B
:1032900000BF0098401C0090B84200D905E02068AB
:1032A000006800F001000028F3D100BF012084F87D
:1032B000350000BF002084F8340000BFE06C10B17E
:1032C0002046E16C884700BFA4E70000E40000202E
:1032D0002DE9F0410446002500F0D2F9074614B963
:1032E0000120BDE8F081606A00B100BF022084F8CF
:1032F000350000BF002084F8340000BF206800685B
:1033000020F00100216808600AE000F0B9F9C01B54
:10331000052805D920206065032084F83500E0E702
:103320002068006800F001000028EED120680568E0
:1033300021480540D4E901010843E16808432169B7
:10334000084361690843A1690843E1690843216AA8
:1033500008430543606A042803D1D4E90B010843FC
:103360000543206805602068456925F00705606A07
:103370000543606A04280DD1A06A0543E06A48B19C
:103380002046FEF7CBFB28B140206065012084F881
:103390003500A6E7206845612046FEF7A5FB0646F6
:1033A00094F85C103F208840B060002060650120E8
:1033B00084F83500002094E73F8010F02DE9F047B5
:1033C00004460D4616461F464FF00008D4F85890A4
:1033D00000BF94F83400012802D10220BDE8F08734
:1033E000012084F8340000BF94F83500012825D16D
:1033F000022084F83500002060653B4632462946AD
:103400002046FEF7E0FB94F85C103F208840C9F8A6
:1034100008002068006840F0160021680860206CF1
:1034200028B12068006840F0080021680860206822
:10343000006840F001002168086006E000BF00203D
:1034400084F8340000BF4FF002084046C6E77047DA
:1034500010B5044604480068204020B102480460CA
:103460002046FFF7F4FF10BD143C0140F8B50246BA
:103470000B460025002400200021D6E0012606FA94
:1034800001F51E6806EA0504AC4274D11E7906F007
:103490000306012E04D01E7906F00306022E13D176
:1034A00090684F000326BE40B0434F00DE68BE4028
:1034B00030439060506801268E40B0431E79C6F3B9
:1034C00000168E40304350601E7906F00306032E2E
:1034D00009D0D0684F000326BE40B0434F009E681D
:1034E000BE403043D0601E7906F00306022E13D191
:1034F000CF0802F1200656F827004E07F70E0F26D8
:10350000BE40B0434F07FF0E1E69BE403043CF0898
:1035100002F1200646F8270010684F000326BE403F
:10352000B0431E7906F003064F00BE4030431060E2
:103530005E6806F44036002E76D000BF0026009666
:103540003C4E366846F480463A4F3E603E4636680A
:1035500006F48046009600BF00BF374E8F0856F82D
:1035600027008E07370F0F26BE40B043334EB242BE
:1035700002D1002624E057E0314EB24201D10126AB
:103580001EE0304EB24201D1022619E02E4EB24268
:1035900001D1032614E02D4EB24201D104260FE0E2
:1035A0002B4EB24201D105260AE02A4EB24201D189
:1035B000062605E0284EB24201D1072600E0082683
:1035C0008F073F0FBE4030431B4E8F0846F8270041
:1035D000224E3068A0435E6806F4801606B1204390
:1035E0001E4E3060361D3068A0435E6806F400163B
:1035F00006B12043194E361D3060184E361F306814
:10360000A0435E6806F4003606B12043134E361F11
:103610003060361F3068A0435E6806F4803606B11D
:1036200020430E4E083E3060491C1029FFF426AF9F
:10363000F8BD000044380240083801400000024054
:103640000004024000080240000C0240001002404A
:103650000014024000180240001C0240083C0140D7
:1036600010B5426921EA020302EA010443EA044375
:10367000836110BD0AB1816101E00B048361704771
:103680000148006870470000D800002070B504466B
:103690000CB9012070BD94F83D0028B9002084F8D1
:1036A0003C00204600F0DAF8242084F83D00206831
:1036B000006820F00100216808602068006840F47C
:1036C0000040216808602068006820F400402168FC
:1036D000086000F06BFC05465C496068884206D8CB
:1036E0005B48854201D2012007E0002005E05948EF
:1036F000854201D2012000E00020012800D1C9E765
:103700005548B5FBF0F62068406820F03F00304394
:10371000216848604D496068884201D8701C07E004
:103720004FF4967070434FF47A71B0FBF1F0401C87
:103730002168096A21F03F01084321680862434972
:103740006068884214D8681E61684900B0FBF1F0D7
:10375000401CC0F30B00042801D204203DE0681E89
:1037600061684900B0FBF1F0401CC0F30B0034E08D
:10377000A06838B9681E616801EB4101B0FBF1F047
:10378000401C0AE0681E616801EBC10202EB0111F6
:10379000B0FBF1F0401C40F48040C0F30B0008B9CE
:1037A00001201AE0A06848B9681E616801EB410178
:1037B000B0FBF1F0401CC0F30B000CE0681E616828
:1037C00001EBC10202EB0111B0FBF1F0401CC0F3B0
:1037D0000B0040F4804040F400402168C9694CF679
:1037E000FF72914308432168C861D4E90701084387
:1037F0002168096821F0C001084321680860D4E904
:10380000031008432168896848F2FF329143084356
:1038100021688860D4E9050108432168C96821F05E
:10382000FF0108432168C8602068006840F001007B
:103830002168086000202064202084F83D000020DA
:10384000206384F83E0000BF24E70000A08601004A
:1038500080841E0000093D0040420F0010B586B074
:103860000446142101A8FCF755FD4449206888420C
:1038700030D100BF002000904148006840F00200B5
:103880003F4908600846006800F00200009000BF51
:1038900000BF4FF44070019012200290012003906D
:1038A000022004900420059001A93648FFF7DEFDB0
:1038B00000BF0020009032481030006840F4001033
:1038C0002F49103108600846006800F4001000908D
:1038D00000BF51E02C49206888424DD100BF002034
:1038E00000902748006840F0040025490860084619
:1038F000006800F00400009000BF00BF00BF00207F
:1039000000900846006840F0010008600846006822
:1039100000F00100009000BF00BF48150190122088
:10392000029000200390032004900420059001A938
:103930001648FFF79BFD4FF4807001901220029013
:1039400000200390032004900420059001A9104852
:10395000FFF78CFD00BF0020009009481030006880
:1039600040F400000649103108600846006800F481
:103970000000009000BF00BF06B010BD0054004022
:103980003038024000040240005C00400008024061
:103990000000024070B504460CB9012070BD4CF621
:1039A000CC402168086045F2555021680860D4E990
:1039B000001048602168A0688860FFF761FE054636
:1039C0000BE0FFF75DFE401B312806D92068C06878
:1039D00000F0030008B10320E0E72068C06800F0B1
:1039E00003000028EDD14AF6AA20216808600020D3
:1039F000D4E701464AF6AA200A6810600020704702
:103A00000348006803490978084401490860704781
:103A1000D8000020E000002010B50D48006840F4F8
:103A200000700B4908600846006840F48060086038
:103A30000846006840F480700860032000F0A8F891
:103A40000F2000F007F800F02BF8002010BD000058
:103A5000003C024070B504460E4800784FF47A717D
:103A6000B1FBF0F00C490968B1FBF0F5284601F014
:103A700002FB08B1012070BD102C07D200222146A4
:103A8000501E00F047F80548046001E00120F2E70D
:103A90000020F0E7E0000020E4000020DC0000202F
:103AA00008B500BF002000901148006840F4804035
:103AB0000F4908600846006800F48040009000BF8D
:103AC00000BF00BF00200090081F006840F0805039
:103AD000091F08600846006800F08050009000BF91
:103AE00000BF00220F21901E00F014F808BD000056
:103AF0004438024001460846002809DB00F01F0355
:103B000001229A4043099B0003F1E023C3F80021FE
:103B100000BF70472DE9F05F80460D46164600272E
:103B200007F062FC074639462A46334601F0070093
:103B3000C0F1070ABAF1040F02D94FF0040A01E0FC
:103B4000C0F1070AD14600F1040ABAF1070F02D208
:103B50004FF0000A01E0A0F1030AD4464FF0010A39
:103B60000AFA09FAAAF1010A0AEA020A0AFA0CFA9E
:103B70004FF0010B0BFA0CFBABF1010B0BEA030B43
:103B80004AEA0B042146404607F036FCBDE8F09FA8
:103B900000BF00F00702064B19684FF6FF031940FB
:103BA000044B0B4343EA0221014B196000BF7047ED
:103BB0000CED00E00000FA0500BF00BF00BF00BF31
:103BC00000BFBFF34F8F00BF00BF00BF09480068B0
:103BD00000F4E06008490843001D0649086000BF82
:103BE00000BF00BFBFF34F8F00BF00BF00BF00BFCB
:103BF00000BFFDE70CED00E00000FA0508B500206D
:103C00000349086203480068009000BF08BD000037
:103C100000000E4200700040024949688143014A99
:103C2000516070470070004008B5012003490862E8
:103C300003480068009000BF08BD000000000E426D
:103C400000700040024949680143014A51607047D1
:103C5000007000400748006840F002000549086015
:103C60000548006840F004000349086000BF00BF39
:103C700030BF70470070004010ED00E0F8B504461A
:103C800000250026207800F0010020B9207800F0FF
:103C9000040004282FD100205B498866FFF7F0FC60
:103CA000054606E0FFF7ECFC401B022801D9032083
:103CB000F8BD56480068C0F3C0600028F2D16068C3
:103CC0008101207A41EA0070504984310860012066
:103CD0004D498866FFF7D4FC054606E0FFF7D0FCA7
:103CE000401B022801D90320E2E748480068C0F3DE
:103CF000C0600028F2D0207800F0020002287DD1B8
:103D000000BF0020009041484030006840F08050E3
:103D10003E49403108600846006800F0805000903D
:103D200000BF00BF3A48006840F48070384908601E
:103D3000FFF7A6FC054606E0FFF7A2FC401B0228A1
:103D400001D90320B4E73248006800F480700028ED
:103D5000F2D02E487030006800F440764EB3A0894F
:103D600000F44070B04224D028487030006820F43D
:103D70004076012027490860002008602348703001
:103D80000660006800F0010098B1FFF779FC054675
:103D900008E0FFF775FC401B41F28831884201D9E9
:103DA000032085E7194870300068C0F34000002800
:103DB000EFD000BFA08900F44070B0F5407F0CD177
:103DC00012480830006820F4F810134AE1681140E6
:103DD00008430E490831086007E00C4808300068C5
:103DE00020F4F8100949083108600848703000686C
:103DF000A189C1F30B010843044900E002E07031DE
:103E0000086000BF002053E700004742003802402E
:103E100000700040400E4742FFFCFF0F70B50446A3
:103E20000D460CB9012070BD5848006800F007002D
:103E3000A84209D255490D700846006800F00700F5
:103E4000A84201D00120EEE7207800F0020002280D
:103E50001DD1207800F00400042805D14C480068EA
:103E600040F4E0504A490860207800F00800082833
:103E700005D14748006840F460404549086044481F
:103E8000006820F0F000A1680843414908602078EC
:103E900000F00100A8B36068012807D13C48083849
:103EA0000068C0F34040B8B90120BCE76068022850
:103EB00002D06068032807D1354808380068C0F38D
:103EC000406048B90120AEE7314808380068C0F3C7
:103ED000400008B90120A6E72D48006820F0030043
:103EE000616808432A490860FFF7CAFB064609E0F3
:103EF000FFF7C6FB801B41F28831884202D90320BC
:103F000091E707E02248006800F00C006168B0EB20
:103F1000810FEDD11D48006800F00700A84209D9C3
:103F20001A490D700846006800F00700A84201D049
:103F3000012078E7207800F00400042807D1144815
:103F4000006820F4E050E1680843114908602078D7
:103F500000F00800082808D10D48006820F46040EF
:103F6000216940EAC1000A49086000F03FF80849A9
:103F70000968C1F30311074A515CC840064908604B
:103F800006480068FFF766FD00204CE7003C024051
:103F900008380240F0D90408E4000020DC000020CA
:103FA0000148006870470000E400002000B5FFF7FA
:103FB000F7FF04490968C1F38221034A515CC840F4
:103FC00000BD00000838024000DA040800B5FFF721
:103FD000E7FF04490968C1F34231034A515CC84014
:103FE00000BD00000838024000DA04082DE9F0475F
:103FF000002400250026A1462548006800F00C009A
:1040000020B1042805D008283AD105E0DFF88490D3
:1040100039E0DFF8849036E01D48001F006800F0AA
:104020003F041B48001F006800F4800078B11A4864
:104030001749091F0968C1F38811A0FB01700146E7
:10404000224600233846FCF71BF905460EE01148CE
:104050000F49091F0968C1F38811A0FB01700146CF
:10406000224600233846FCF70BF905460848001F96
:104070000068C0F30140401C4600B5FBF6F902E0C1
:10408000DFF8109000BF00BF4846BDE8F087000091
:10409000083802400024F40000127A00F8B5044603
:1040A0000CB90120F8BD207800F00100002874D080
:1040B000F948006800F00C0004280DD0F6480068AC
:1040C00000F00C00082813D1F348001F006800F42A
:1040D0008000B0F5800F0BD1EF4808380068C0F3BE
:1040E0004040002859D06068002856D10120D9E707
:1040F00000BF6068B0F5803F08D1E7480838006825
:1041000040F48030E449083908601EE06068B0F58A
:10411000A02F0DD1E0480838006840F48020DE4927
:10412000083908600846006840F4803008600CE0F8
:10413000D9480838006820F48030D7490839086029
:104140000846006820F48020086000BF606890B1D5
:10415000FFF796FA054606E0FFF792FA401B64283F
:1041600001D903209EE7CC4808380068C0F34040DE
:104170000028F1D011E0FFF783FA054606E0FFF7CB
:104180007FFA401B642801D903208BE7C248083816
:104190000068C0F340400028F1D1207800F0020010
:1041A00002285FD1BC48006800F00C0058B1BA4842
:1041B000006800F00C0008281CD1B748001F0068F8
:1041C00000F48000B0B9B44808380068C0F340007B
:1041D00020B1E068012801D0012063E7AE4808382B
:1041E000006820F0F800216940EAC100AA490839B6
:1041F000086037E0E06800B30120A8490860FFF7D5
:104200003FFA054606E0FFF73BFA401B022801D9BA
:10421000032047E7A04808380068C0F340000028A2
:10422000F1D09D480838006820F0F800216940EA84
:10423000C10099490839086014E0002097490860D6
:10424000FFF71EFA054606E0FFF71AFA401B0228A0
:1042500001D9032026E7904808380068C0F34000E1
:104260000028F1D1207800F0080008282CD16069DE
:10427000A8B101208A490860FFF702FA054606E066
:10428000FFF7FEF9401B022801D903200AE7824804
:104290006C300068C0F340000028F1D014E000202A
:1042A0007F490860FFF7ECF9054606E0FFF7E8F9FB
:1042B000401B022801D90320F4E677486C300068DF
:1042C000C0F340000028F1D1207800F00400042859
:1042D00070D1002770483830006800F0805090B9E5
:1042E00000BF002000906C483830006840F08050DB
:1042F0006949383108600846006800F08050009035
:1043000000BF00BF01276748006800F48070B0B9A3
:104310006448006840F4807062490860FFF7B0F9B3
:10432000054606E0FFF7ACF9401B022801D903203F
:10433000B8E65C48006800F480700028F2D000BF46
:10434000A068012808D154486830006840F0010096
:104350005149683108601DE0A06805280DD14E481C
:104360006830006840F004004B4968310860084636
:10437000006840F0010008600CE0474868300068C1
:1043800020F001004449683108600846006820F0C8
:104390000400086000BFA068A8B1FFF771F90546E6
:1043A00009E0FFF76DF9401B41F28831884202D9DC
:1043B000032077E626E0384868300068C0F3400004
:1043C0000028EED013E0FFF75BF9054608E0FFF7A1
:1043D00057F9401B41F28831884201D9032061E638
:1043E0002D4868300068C0F340000028EFD1012F4D
:1043F00007D129483830006820F0805026493831EC
:10440000086000BFA069002845D02348006800F07C
:104410000C0008285DD0A069022845D100201F4962
:104420000866FFF72DF9054606E0FFF729F9401B5E
:10443000022801D9032035E6174808380068C0F380
:1044400040600028F1D1D4E907010843616A40EADD
:1044500081110122A06AC2EB500041EA00412C20E8
:10446000005D41EA00600C49091F086001200B490A
:104470000866FFF705F9054606E0FFF701F9401B5E
:10448000022801D903200DE6034808380068C0F36C
:1044900040600028F1D049E008380240000047425F
:1044A000800E474200700040002021490866FFF757
:1044B000E7F8054606E0FFF7E3F8401B022801D9BC
:1044C0000320EFE51B480068C0F340600028F2D1EC
:1044D0002CE0A069012800D1E4E51648001D06681B
:1044E000A069012820D006F48001E06981421BD137
:1044F00006F03F01206A814216D147F6C070304075
:10450000616AB0EB811F0FD106F440310122A06A2D
:10451000C2EB5000B1EB004F06D106F070612C20C9
:10452000005DB1EB006F01D00120BBE50020B9E5D3
:1045300000004742003802407047024600231068DE
:1045400000F1500303EB81031868704710B5002396
:10455000046804F1500303EB81031A6010BD0000EE
:1045600018B503464D48006840094FF47A74B0FB13
:10457000F4F06043009000BF187F012801D10220B1
:1045800018BD0120187700BF0220587700BFCA204D
:104590001C68606253201C68606200BF18688068F5
:1045A00000F48060B8B100BF0098441E009460B968
:1045B00000BFFF201C68606200BF0320587700BF67
:1045C0000020187700BF0320DAE71868C068C0F33E
:1045D00080000028E8D11868806820F480601C689A
:1045E000A0601868C06800F0800060F490601C68EB
:1045F000E0602A48006840094FF47A74B0FBF4F098
:104600006043009000BF0098441E009460B900BF52
:10461000FF201C68606200BF0320587700BF0020A5
:10462000187700BF0320ABE71868C068C0F38000AC
:104630000028E8D01868806820F007001C68A06097
:104640001868806810431C68A060186841611448AD
:10465000006840F48000124C206011480830006867
:1046600040F480000E4C083420601868806840F4E4
:1046700080401C68A0601868806840F480601C68F6
:10468000A06000BFFF201C68606200BF0120587757
:1046900000BF0020187700BF00BF71E7E4000020D2
:1046A000003C01407047000010B504462068C06817
:1046B000C0F3802050B12046FFF7F4FF2068C068A7
:1046C00000F0800060F490602168C8604FF48000C2
:1046D000024908600120607710BD0000143C0140D1
:1046E0007047000010B5044620688068C0F30030B1
:1046F00078B12068C068C0F3002050B12046FFF7B1
:10470000EFFF2068C06800F0800060F4C07021688E
:10471000C86020688068C0F3403078B12068C06805
:10472000C0F3402050B12046FFF706FF2068C06864
:1047300000F0800060F420702168C8604FF4003001
:10474000024908600120607710BD0000143C014060
:1047500070B505460B4616460024286840680E4989
:1047600000EA0104200CD870C4F30420587004F04F
:104770003F009870C4F3423018705EB9D87802F0E8
:10478000F7F9D870587802F0F3F95870987802F079
:10479000EFF99870002070BD3FFFFF0070B5044630
:1047A0000B46164600252068806A5860206800691C
:1047B000C0F30E009860206800680E4900EA010509
:1047C000C5F305401870C5F30620587005F07F004A
:1047D0009870A80DD8705EB9187802F0C9F91870F1
:1047E000587802F0C5F95870987802F0C1F99870BD
:1047F000002070BD7F7F7F0070B5044601250CB995
:10480000012070BD607F20B900202077204600F095
:1048100045F80220607700BFCA2021684862532013
:104820002168486200BF204602F0BBF90546EDB999
:10483000206880681849084021688860216960689C
:1048400008436169084321688968084321688860D2
:104850002168E068086120680169208941EA004018
:1048600021680861204602F0C1F905466DB920684B
:10487000006C20F48020216808642068006CA16925
:104880000843216808640120607700BFFF20216889
:10489000486200BF2846B4E7BFFF8FFF1FB504463C
:1048A00000200090019002900390114920688842F6
:1048B0001CD102200090C00103906846FFF7DEF98A
:1048C00008B1FEF7BFF801200A490860002205215F
:1048D0000320FFF71FF90320FFF70CF90022052141
:1048E0002920FFF717F92920FFF704F91FBD000061
:1048F000002800403C0E47422DE9F84103460C4693
:1049000015468248006840094FF47A71B0FBF1F017
:10491000484300900026002700BF187F012802D1DD
:104920000220BDE8F8810120187700BF02205877E7
:1049300055BB1868806800F0400000B102E000201C
:10494000E07000BFE06900B900E000BF207802F02D
:104950001AF94FEA0048607802F015F948EA002891
:10496000A07802F010F948EA0008E07848EA805898
:1049700094F8200002F007F948EA0060E169084372
:10498000616940EA01061FE01868806800F0400095
:1049900000B102E00020E07000BFE06900B900E073
:1049A00000BF20780004617840EA0120A178084324
:1049B000E17840EA815094F8201040EA0160E16912
:1049C0000843616940EA0106A169606840EA01079D
:1049D00000BFCA201968486253201968486200BFA6
:1049E000606AB0F5807F36D11868806820F48070E6
:1049F000196888601868C06800F0800060F4C070B2
:104A00001968C86000BF0098411E009160B900BFDE
:104A1000FF201968486200BF0320587700BF0020BC
:104A2000187700BF03207CE71868C06800F0010019
:104A30000028E8D01868C66118684764186880685C
:104A400040F48070196888601868806840F480506D
:104A5000196888603EE01868806820F40070196862
:104A600088601868C06800F0800060F420701968E1
:104A7000C8602648006840094FF47A71B0FBF1F035
:104A80004843009000BF0098411E009160B900BFEC
:104A9000FF201968486200BF0320587700BF00203C
:104AA000187700BF03203CE71868C068C0F34000D7
:104AB0000028E8D01868066218688764186880685B
:104AC00040F40070196888601868806840F40050ED
:104AD000196888600E48006840F400300C4908608E
:104AE0000B480830006840F400300949083108607C
:104AF00000BFFF201968486200BF0120587700BF3F
:104B00000020187700BF00BF0BE70000E400002082
:104B1000003C01402DE9F04105460C4617464FF098
:104B2000000800BF287F012802D10220BDE8F081E3
:104B30000120287700BF022068774FB9607800F025
:104B40001000102804D1607800F0EF000A30607087
:104B500087B9E07802F017F80304607802F013F8E0
:104B600043EA0023A07802F00EF80343207843EADA
:104B7000403809E0E0780004617840EA0120A1783B
:104B80000843217840EA413800BFCA2029684862BA
:104B900053202968486200BF284602F002F8064602
:104BA00046B90B4808EA000029684860284602F028
:104BB0001DF806460EB90120687700BFFF2029685E
:104BC000486200BF00BF0020287700BF3046ADE735
:104BD0003FFFFF002DE9F04104460D4617464FF018
:104BE000000800BF207F012802D10220BDE8F0812B
:104BF0000120207700BF02206077CFB9206880684D
:104C000000F0400000B102E00020E87000BF28780A
:104C100001F0B9FF0304687801F0B5FF43EA00230F
:104C2000A87801F0B0FF0343E87843EA805812E027
:104C30002068806800F0400000B102E00020E870C9
:104C400000BF28780004697840EA0120A978084369
:104C5000E97840EA815800BFCA20216848625320A1
:104C60002168486200BF204601F09BFF0646B6B9A6
:104C7000124808EA0000216808602068806820F473
:104C8000802021688860D5E903010843216889688C
:104C9000084321688860204601F0A8FF06460EB947
:104CA0000120607700BFFF202168486200BF00BF7D
:104CB0000020207700BF304698E700007F7F7F000C
:104CC00070B5044600252068C06820F0A000216867
:104CD000C860FEF7D5FC054607E0FEF7D1FC401B97
:104CE000B0F57A7F01D9032070BD2068C06800F05C
:104CF00020000028F1D00020F6E710B504460CB9DA
:104D0000012010BD606A38B96068B0F5827F00D1BB
:104D100005E00021E16102E00021216161610021E3
:104D2000A16294F8510028B9002084F85000204670
:104D300000F048F8022084F851002068006820F054
:104D4000400021680860A08800F48270218901F485
:104D500004410843A18901F400610843217C01F06A
:104D600002010843217D01F001010843218B01F478
:104D700000710843217F01F0380108432021095DBB
:104D800001F080010843218D01F40051084321689E
:104D900008600421A06901EA104094F8241001F091
:104DA00010010843216848602068C06920F4006051
:104DB0002168C86100206065012084F8510000204E
:104DC0009FE7000010B586B00446142101A8FBF748
:104DD000A1FA1B49206888422FD100BF0020009013
:104DE0001848006840F4805016490860084600687A
:104DF00000F48050009000BF00BF00BF0020009072
:104E000010481438006840F002000E491439086058
:104E10000846006800F00200009000BF00BF382084
:104E200001900220029000200390032004900520AE
:104E3000059001A90448FEF719FB06B010BD00005B
:104E40000030014044380240000402402DE9FF5F79
:104E50000446884691461D460E9E01200290002081
:104E6000019000BF94F85000012803D1022004B043
:104E7000BDE8F09F012084F8500000BFFEF700FC61
:104E8000074694F851B060680390AA46BBF1010F41
:104E90000BD00398B0F5827F04D1A06810B9BBF1A4
:104EA000040F02D002200190DBE0B8F1000F03D024
:104EB000B9F1000F00D015B901200190D1E094F8AC
:104EC0005100042802D0052084F8510000206065BC
:104ED000C4F83890E587A587C4F83080E586A586B4
:104EE000206460642068006800F04000402805D01D
:104EF0002068006840F0400021680860E068B0F574
:104F0000006F4AD1606810B1BAF1010F09D1206B6E
:104F100000882168C860206B801C2063E08E401EE2
:104F2000E08633E02068806800F00200022810D19B
:104F3000E08E70B1029801280BD1206B00882168A7
:104F4000C860206B801C2063E08E401EE08600203D
:104F500002902068806800F0010068B1E08F58B1CD
:104F60002068C068A16B0880A06B801CA063E08FE4
:104F7000401EE08701200290FEF782FBC01BB0427A
:104F800004D3701C10B1032001906AE0E08E002869
:104F9000C8D1E08F0028C5D14AE0606810B1BAF1ED
:104FA000010F09D1206B007821680873206B401C29
:104FB0002063E08E401EE08634E02068806800F0C8
:104FC0000200022810D1E08E70B1029801280BD1A6
:104FD000206B007821680873206B401C2063E08EF2
:104FE000401EE086002002902068806800F00100EA
:104FF00068B1E08F58B12068C068A16B0870A06BE1
:10500000401CA063E08F401EE08701200290FEF765
:1050100037FBC01BB04201D3701C00B916B9032086
:1050200001901EE0E08E0028C7D1E08F0028C4D197
:105030003A463146204601F069FE20B10120019038
:10504000202060650DE0A06850B900BF00200090EE
:105050002068C068009020688068009000BF00BF92
:1050600000BF012084F8510000BF002084F85000E8
:1050700000BF0198FBE670B504462546681EB0F1F6
:10508000807F01D301200FE0681E4FF0E0214861CE
:105090000F214FF0FF3006F0AFF900204FF0E02174
:1050A000886107200861002070BD704770470000CC
:1050B00030B502460B4600BF92F83C00012801D1F2
:1050C000022030BD012082F83C0000BF022082F89F
:1050D0003D00106844681068816824F07004186806
:1050E000044310684460184D1068A8421BD0106833
:1050F000B0F1804F17D0154D1068A84213D0144D51
:105100001068A8420FD0134D1068A8420BD0124D62
:105110001068A84207D0114D1068A84203D0104D66
:105120001068A84205D121F0800158680143106839
:105130008160012082F83D0000BF002082F83C0021
:1051400000BF00BFBDE700000000014000040040B8
:1051500000080040000C00400004014000400140F5
:105160000018004010B504460CB9012010BD94F899
:105170003D0028B9002084F83C00204600F026F8C5
:10518000022084F83D00211D206803F04BFA012025
:1051900084F8460000BF84F83E0001213F200155FD
:1051A000402001554120015500BF00BF012084F877
:1051B000420043200155442001554520015500BFC0
:1051C000012084F83D000020D0E7000038B50446F7
:1051D0001C492068884218D100BF002000901A485E
:1051E000006840F00400184908600846006800F0B4
:1051F0000400009000BF00BF002205211E20FEF722
:1052000089FC1E20FEF776FC1BE0104920688842CE
:1052100017D100BF002000900B48006840F0080044
:10522000094908600846006800F00800009000BFC7
:1052300000BF002205213220FEF76CFC3220FEF771
:1052400059FC38BD0008004040380240000C0040C6
:10525000014691F83D00012801D00120704702204D
:1052600081F83D000868C06840F001000B68D86014
:105270001A4B086898421BD00868B0F1804F17D0CD
:10528000174B0868984213D0164B086898420FD005
:10529000154B086898420BD0144B0868984207D009
:1052A000134B0868984203D0124B086898420CD1FF
:1052B0000868806800F00702062A0CD008680068B9
:1052C00040F001000B68186005E00868006840F0D5
:1052D00001000B6818600020C0E7000000000140DA
:1052E0000004004000080040000C004000040140A1
:1052F000004001400018004001460868C06820F0E6
:1053000001000A68D06000BF0868006A41F211120B
:10531000104050B90868006A9210104028B9086817
:10532000006820F001000A68106000BF012081F8C9
:105330003D00002070472DE9F04104460D4600274E
:1053400000BF94F83C00012802D10220BDE8F081A2
:10535000012084F83C0000BF022084F83D00206852
:10536000866826F0770626F47F46206886602868DF
:10537000502833D00CDC202850D004DC00284BD03F
:10538000102851D149E0302849D040284CD139E08B
:1053900060282DD0702807D0B0F5805F03D0B0F51D
:1053A000005F41D10DE041E0D5E902136A68206851
:1053B00003F0A4F92068866846F0770620688660C6
:1053C00034E0D5E902136A68206803F097F9206891
:1053D000806840F480402168886027E0EA68696856
:1053E000206803F09FF95021206803F092F91DE036
:1053F000EA686968206803F0A8F96021206803F072
:1054000088F913E0EA686968206803F08BF94021A5
:10541000206803F07EF909E000BF00BF00BF2968E3
:10542000206803F076F901E0012700BF00BF0120EA
:1054300084F83D0000BF002084F83C0000BF3846DF
:1054400084E7704710B5044620680069C0F3400047
:10545000D8B12068C068C0F34000B0B16FF002005E
:1054600021680861012020772068806900F003002E
:1054700018B12046FFF7E5FF05E0204600F0ADF843
:10548000204600F0ABF80020207720680069C0F3C8
:105490008000D8B12068C068C0F38000B0B16FF060
:1054A000040021680861022020772068806900F4E8
:1054B000407018B12046FFF7C4FF05E0204600F019
:1054C0008CF8204600F08AF80020207720680069D8
:1054D000C0F3C000D8B12068C068C0F3C000B0B14C
:1054E0006FF0080021680861042020772068C069F7
:1054F00000F0030018B12046FFF7A3FF05E02046A7
:1055000000F06BF8204600F069F800202077206852
:105510000069C0F30010D8B12068C068C0F3001063
:10552000B0B16FF010002168086108202077206872
:10553000C06900F4407018B12046FFF782FF05E013
:10554000204600F04AF8204600F048F80020207776
:105550002068006900F0010058B12068C06800F0C0
:10556000010030B16FF0010021680861204600F0B1
:1055700037F820680069C0F3C01058B12068C068CF
:10558000C0F3C01030B16FF0800021680861204680
:10559000FFF78BFD20680069C0F3801058B12068C8
:1055A000C068C0F3801030B16FF04000216808611E
:1055B000204600F03DF820680069C0F3401058B163
:1055C0002068C068C0F3401030B16FF0200021683F
:1055D00008612046FFF76AFD10BD70477047000064
:1055E00010B504460D492068884201D1FEF708FA3B
:1055F0000B492068884205D10A48008840F40040E1
:105600000849088008492068884205D10748008871
:1056100040F400400549088010BD00000000014032
:10562000000C0040CA00002000080040CE0000200E
:105630007047704770B50446002520684069C0F384
:10564000C01594F83D00212817D1B5B100BF00BFA7
:105650002168143151E8001F21F0800021681431C5
:1056600041E80002002AF3D100BF606B10B1606B0B
:10567000FDF7A4FC204604F009F820684069C0F357
:10568000801594F83E00222817D1B5B100BF00BFA5
:105690002168143151E8001F21F0400021681431C5
:1056A00041E80002002AF3D100BFA06B10B1A06B4B
:1056B000FDF784FC204603F0A3FF002070BD704777
:1056C00001460022002391F83D2091F83E3042EA45
:1056D000030070472DE9F84F0446206805682068EC
:1056E000C668206847694FF00009CA4605F00F09EF
:1056F000B9F1000F0AD105F0200038B106F0200002
:1057000020B1204603F0D5FFBDE8F88FB9F1000FB6
:105710007CD007F0010018B906F49070002875D00D
:1057200005F0010030B106F4807018B1206C40F033
:105730000100206405F0040030B107F0010018B149
:10574000206C40F00200206405F0020030B107F048
:10575000010018B1206C40F00400206405F008003E
:1057600048B106F0200010B907F0010018B1206C14
:1057700040F008002064206C002846D005F020008E
:1057800028B106F0200010B1204603F092FF2068F7
:105790004069C0F3801A206C00F0080010B9BAF11B
:1057A000000F2DD0204603F02BFF2068406900F049
:1057B0004000402820D100BF00BF2168143151E8CB
:1057C000001F21F040002168143141E80002002A46
:1057D000F3D100BFA06B50B17548A16B0865A06BF9
:1057E000FDF742FC88B1A06B016D88470DE02046B3
:1057F000FFF765FF09E009E02046FFF760FF04E0DE
:105800002046FFF75CFF002020647DE7206B012825
:1058100076D105F01000002872D006F010000028A4
:10582000FAD000BF00200090206800680090206837
:105830004068009000BF00BF2068406900F0400051
:1058400040285ED1A06B006840681FFA80F8B8F16C
:10585000000F54D0A08D404551DDA4F82E80A06BE0
:10586000C069B0F5807F43D000BF00BF21680C3114
:1058700051E8001F21F4807021680C3141E80002DA
:10588000002AF3D100BF00BF00BF2168143151E8E6
:10589000001F21F001002168143141E80002002AB4
:1058A000F3D100BF00BF00BF2168143151E8001FD1
:1058B00021F040002168143141E80002002AF3D1B0
:1058C00000BF202084F83E000020206300BF00BFFE
:1058D00021680C3151E8001F21F0100021680C31C3
:1058E00041E80002002AF3D100BFA06BFDF766FB80
:1058F000A08DE28D801A81B22046FFF79AFE03E761
:1059000040E0A08DE18D401A1FFA80F8E08DC0B311
:10591000B8F1000F35D000BF00BF21680C3151E84D
:10592000001F21F4907021680C3141E80002002A28
:10593000F3D100BF00BF00BF2168143151E8001F40
:1059400021F001002168143141E80002002AF3D15E
:1059500000BF202084F83E000020206300BF00BF6D
:1059600021680C3151E8001F21F0100021680C3132
:1059700041E80002002AF3D100BF41462046FFF76C
:1059800058FEC1E605F0800030B106F0800018B185
:10599000204604F0AEF8B7E605F0400030B106F05E
:1059A000400018B1204603F061FEADE600BFABE653
:1059B000CD94040810B504460CB9012010BDA069AF
:1059C00000B100E000BF94F83D0028B9002084F841
:1059D0003C00204600F028F8242084F83D00206890
:1059E000C06820F400502168C860204603F0DEFE45
:1059F0002068006920F490402168086120684069AF
:105A000020F02A00216848612068C06840F40050F6
:105A10002168C86000202064202084F83D0084F8BC
:105A20003E000020CAE7000010B586B004461421ED
:105A300001A8FAF76FFCFE492068884255D100BFE3
:105A400000200090FB48006840F48010F94908608D
:105A50000846006800F48010009000BF00BF00BF3F
:105A600000200090F3481038006840F00400F1492D
:105A7000103908600846006800F00400009000BF7C
:105A800000BF00BF002000900846006840F00800FA
:105A900008600846006800F00800009000BF00BFE2
:105AA00088140190022002900020039003200490AB
:105AB0000820059001A9E048FDF7D8FC04200190DA
:105AC00002200290002003900320049008200590FB
:105AD00001A9DA48FDF7CAFC002205213520FEF7AE
