:020000040800F2
:100000004854002045020008132C000895270008DA
:10001000112C0008310700083935000800000000E5
:10002000000000000000000000000000F52E0008A5
:100030002908000800000000152C0008F72E000811
:100040005F0200085F0200085F0200085F0200080C
:100050005F0200085F0200085F0200085F020008FC
:100060005F0200085F0200085F0200085F020008EC
:100070005F0200085F0200085F0200085F020008DC
:1000800035070008410700085F0200085F0200080A
:100090005F0200085F0200085F0200085F020008BC
:1000A0005F0200085F0200085F0200085F020008AC
:1000B0005F0200085F020008A12F00085F0200082D
:1000C0005F0200085F0200085F0200085F0200088C
:1000D0005F02000805350008193500085F020008B6
:1000E0005F0200085F0200085F0200085F0200086C
:1000F0005F0200085F0200085F0200085F0200085C
:100100005F0200085F020008AD2F00085F020008D0
:100110005F020008ED3000085F0200085F0200087F
:100120005F0200085F0200084D0700085F02000838
:100130005F0200085F0200085F0200085F0200081B
:100140005F0200085F0200085F0200085F0200080B
:100150005F0200085F020008590700082D350008FB
:100160005F0200085F0200085F0200085F020008EB
:100170005F0200085F0200085F0200080000000044
:100180005F0200085F02000800F002F800F04AF881
:100190000AA090E8000C82448344AAF10107DA45E2
:1001A00001D100F03FF8AFF2090EBAE80F0013F0EA
:1001B000010F18BFFB1A43F0010318473038000045
:1001C00050380000103A24BF78C878C1FAD85207D6
:1001D00024BF30C830C144BF04680C6070470000C1
:1001E0000023002400250026103A28BF78C1FBD840
:1001F000520728BF30C148BF0B607047642900F028
:100200002381782900F05C81632900F03D82732905
:1002100000F04282002070471FB503F0BDFB1FBDF8
:1002200010B510BD00F056FA1146FFF7F5FF03F0C8
:10023000B9FA00F074FA03B4FFF7F2FF03BC03F05D
:10024000A5FA00000948804709480047FEE7FEE795
:10025000FEE7FEE7FEE7FEE7FEE7FEE7FEE7FEE776
:1002600004480549054A064B70470000912F0008D5
:100270008901000848140020485400204834002018
:100280004834002053EA020C00F069802DE9F04B5D
:100290004FF00006002B1FBFB3FA83F503FA05F4F5
:1002A00024FA05F65E4012BF1643B2FA82F502FA4E
:1002B00005F4C5F120051EBF22FA05FC44EA0C0432
:1002C000203556EA044C4FEA144418BF641C4FF022
:1002D00000084FF00009904271EB030C39D300295C
:1002E00019BFB1FA81F701FA07F6B0FA80F700FA00
:1002F00007F6C7F120071EBF20FA07FC46EA0C06E6
:100300002037B6FBF4FCA7EB0507103F07F01F0BE7
:10031000CBF120060CFA0BFB2CFA06F644BFB346D1
:100320000026202FA4BF5E464FF0000B5BEA060CB0
:1003300008BF4FF0010B19EB0B09ABFB027C48EB3C
:100340000608C01B06FB02CC0BFB03CC71EB0C01B7
:10035000C1E70B46024641464846BDE8F08B13B55F
:100360004FF000004FF00001AFF30080BDE81C40EB
:10037000704700000FB4044910B503AA029800F0BA
:100380008FF910BC5DF814FB080000202DE9F04146
:100390000E460446002020622046E168884730B3BC
:1003A000252805D0D4E901219047206A401CF2E7B6
:1003B000E168204600278847050018D0A5F14100D4
:1003C000192802D820354FF40067324629462046C6
:1003D0002760FFF713FF40B1012804D0F61D26F077
:1003E00007060836D8E7361DD6E72846DAE7206A3A
:1003F000BDE8F08170B50C460546012A05D0287885
:10040000800600D5EA69002302E0012305E05B1CB9
:10041000934202D2E05C0028F9D1A869E618C01A1C
:10042000A861286A184428622846AFF3008004E0D7
:10043000D5E9012114F8010B9047B442F8D32846BE
:10044000AFF3008070BD00002DE9F04106460024A6
:1004500010687529314616A510D0AFF3008000282A
:1004600002DA404213A507E031688A0701D512A5D8
:1004700002E0490704D511A5012401E0AFF3008093
:1004800000210A2206F1240709E0B0FBF2FCB0FBD0
:10049000F2F302FB1C00303078541846491C002847
:1004A000F3D123462A463046BDE8F04100F070B84B
:1004B000000000002D0000002B00000020000000C4
:1004C00070B504460D4621461068AFF300802188C0
:1004D000090502D50F4A7A4402E00E4A7A440E32E8
:1004E000002104F1240305E000F00F060009965DE9
:1004F0005E54491C0028F7D120780023000704D55A
:10050000702D02D009B1022311322046BDE870409F
:1005100000F03EB8E834000030B505460B462A46E8
:1005200013F8014B12F8010B08B1A042F8D01CB12E
:10053000002802D06D1CF1E7284630BD4FF00002C4
:1005400000B5134694469646203922BFA0E80C50C9
:10055000A0E80C50B1F12001BFF4F7AF090728BFA4
:10056000A0E80C5048BF0CC05DF804EB890028BF20
:1005700040F8042B08BF704748BF20F8022B11F049
:10058000804F18BF00F8012B7047704770477047C5
:100590002DE9F0470D4699469246044600F124089D
:1005A0000168880604D5E06921F01001216000E0AF
:1005B0000120A84201DD471B00E00027A1697A194C
:1005C00002EB0900081AA0612078C00602D4204678
:1005D000AFF30080002608E0D4E901211AF80600F4
:1005E0009047206A401C761C20624E45F4DB207840
:1005F000C0060AD52046AFF3008006E0D4E9012109
:1006000030209047206A401C2062381EA7F1010765
:10061000F4DC07E0D4E9012118F805009047206ACE
:10062000401C2062281EA5F10105F3DC2046AFF333
:1006300000802078000602D50220BDE8F087012066
:10064000FBE7000001694A1C02610878704700B5A9
:100650008FB0CDE901310021059105497944CDE9FB
:10066000031011466846FFF791FE0FB000BD000071
:10067000E5FFFFFF10B5436913B1AFF3008001E060
:10068000FFF7B8FE012010BD127800F124010A70B6
:1006900000224A700122EDE711684FF0FF32E9E7CE
:1006A000074B70B50D467B44FFF7D1FF0446284643
:1006B00000F008F810B14FF0FF3070BD204670BD5B
:1006C000E7300000007B00F0800070470048704772
:1006D000E81300207546FFF7F9FFAE4605006946AE
:1006E000534620F00700854618B020B5FFF7B8FD47
:1006F000BDE820404FF000064FF000074FF0000823
:100700004FF0000B21F00701AC46ACE8C009ACE8A3
:10071000C009ACE8C009ACE8C0098D46704710B507
:100720000446AFF300802046BDE81040FFF783BDCC
:10073000FEE70000014800F0E3B90000080B0020CC
:10074000014800F0DDB90000680B0020014800F00E
:10075000D7B90000480A0020014800F0D1B90000D4
:10076000A80A002001681823CAB2103AB2FBF3F2BB
:10077000054B6FF30901032A9B5CC36500D9091D72
:100780008165084670470000A239000810B501468F
:1007900000208B698A6A4FF0C07453B1B3F5005FD3
:1007A00015D072B1012A0CD0022A0AD0032A09D12D
:1007B00004E01AB1012A06D0022A03D1C96AC9018C
:1007C00000D5012010BDC96AA142FAD010BD002A8F
:1007D000F7D0012AF2D0022AF3D0032AF3D010BDB9
:1007E00030B50468256825F48025256004686360B9
:1007F0008368402B036803D099600068C26030BDF5
:100800009A600068C16030BD0A4610B501460548CF
:1008100001F078FF002803D0BDE8104000F005B8D3
:1008200010BD0000C0090020704772B6FEE700004E
:10083000002229B101291AD002291BD04FF440729D
:100840000E490B6823F440730B600B6813430B6075
:100850000A6822F0F8020A600A68022303EBC0006B
:1008600002430A60086840F48030086070474FF423
:100870008072E5E74FF40072E2E70000103C0240AE
:100880001348016889050FD5016821F400710160E2
:10089000016841F400610160016821F400610160B8
:1008A000016841F400710160016849050FD50168D4
:1008B00021F480610160016841F4805101600168A8
:1008C00021F480510160016841F48061016070474A
:1008D000003C024008490A6822F440720A600A6833
:1008E00042F004020A600A684FF4803343EA0020B1
:1008F00002430A6070470000103C0240064A136839
:1009000023F44073136013681360136843F001030A
:100910001360017070470000103C0240094910B597
:100920000C6824F440740C600C6844F440740C604F
:100930000C6844F001040C600260BFF36F8F4360E9
:1009400010BD0000103C0240074A136823F44073B6
:100950001360136843F480731360136843F001035A
:100960001360018070470000103C0240074A136882
:1009700023F440731360136843F400731360136827
:1009800043F001031360016070470000103C024017
:1009900017490868C206174805D5C26942F0100217
:1009A000C26110220A600A68920605D5C26942F047
:1009B0000802C26120220A600A68520605D5C2698F
:1009C00042F00402C26140220A600A68120605D59C
:1009D000C26942F00202C26180220A600A6892077C
:1009E00005D5C26942F02002C2610220086070474A
:1009F0000C3C0240C813002070B511490446002089
:100A0000C86100F097FB06460E4D09E0601C07D058
:100A100024B100F08FFB801BA04201D9032070BDE0
:100A20002868C003F2D42868C00701D001202860DC
:100A3000286810F0F200F2D0FFF7AAFF012070BD85
:100A4000C81300200C3C02402DE9F0410446876D9C
:100A500000F070FB064694F835000025022806D009
:100A60008020606584F834500120BDE8F081206862
:100A7000016821F0160101602068416921F08001C0
:100A80004161206C08B9A06C20B12068016821F098
:100A9000080101602068016821F0010101600CE09B
:100AA00000F048FB801B052807D920206065032043
:100AB00084F8350084F83450D7E720680068C00710
:100AC000EED194F85C103F208840B860012084F893
:100AD000350084F834500020C7E790F8351002291B
:100AE00003D08021416501207047052180F8351031
:100AF0000068016821F001010160002070470000DA
:100B00002DE9F84304464FF00009CDF80090634802
:100B10004FF41651A56D0068B0FBF1F72E6894F8FC
:100B20005C10082000FA01F131420FD021680A68F8
:100B300052070BD50A6822F004020A6094F85C1090
:100B40008840A860606D40F00100606594F85C101A
:100B50004FF0010808FA01F0304208D021684969D5
:100B6000090604D5A860606D40F00200606594F845
:100B70005C1004208840304208D021680968890749
:100B800004D5A860606D40F00400606594F85C10C6
:100B900010208840304218D021680968090714D510
:100BA000A86020680168490304D50068000308D5DF
:100BB000A16C07E00168C90503D4016821F00801B0
:100BC0000160216C09B12046884794F85C10202010
:100BD0008840304231D021680968C9062DD5A86007
:100BE00094F8350005282068016806D0490347D5E8
:100BF000006800031DD4616C1CE021F01601016047
:100C00002068416921F080014161206C08B9A06C25
:100C100020B12068016821F00801016094F85C109F
:100C20003F208840A86084F8358084F83490216D96
:100C30001FE0E16B09B120468847606D00282BD08A
:100C4000606DC00714D0052084F835002068016865
:100C500021F0010101600098401C0090B84203D8C7
:100C600020680068C007F6D184F8358084F8349095
:100C7000E16C002910D001B02046BDE8F0430847E0
:100C80000168C905D5D4016821F01001016084F81C
:100C9000358084F83490CCE7BDE8F883200000204C
:100CA0002DE9F041044600F045FA06465CB1022009
:100CB00084F83500002584F834502068016821F05C
:100CC000010101600DE00120BDE8F08100F032FA81
:100CD000801B052805D920206065032084F8350095
:100CE000F2E720680068C007F0D122681168204848
:100CF0000140D4E901031843D4E9033633431843D0
:100D000063691843A3691843E3691843236A1843C6
:100D10000843616A042903D1D4E90B13194308433A
:100D2000106020684069666A20F0070130460E4373
:100D3000012704280CD1A06A0643E06A40B120468E
:100D4000FFF724FD20B14020606584F83570BAE7D4
:100D5000206846612046FFF705FD94F85C203F219E
:100D600091408160656584F835700020ACE7000033
:100D70003F8010F02DE9F0410446866D90F8340074
:100D8000002501280DD0012084F8340094F8357036
:100D90000020012F07D084F8340002252846BDE842
:100DA000F0810220FBE7022784F835706065204659
:100DB000FFF716FD94F85C103F208840B060206873
:100DC000016841F016010160206C20B120680168C3
:100DD00041F0080101602068016841F001010160F3
:100DE000DCE700002DE9F047044622480F46017E6B
:100DF00001290AD00121804601764CF2503948463B
:100E0000FFF7FAFD020003D02FE00220BDE8F087D3
:100E10004FF0FF3038602068174D012801D0A668D8
:100E20001CE0207C6168FFF755FD4846FFF7E4FDB4
:100E30000246286820F00400286014E0217C304637
:100E4000FFF7F6FC4846FFF7D7FD0200286820F0C0
:100E5000FA00286001D03E6005E0761CD4E902105B
:100E60000844B042EAD8FFF70BFD002188F81810BB
:100E70001046CBE7C8130020103C0240034801682D
:100E800041F000410160002070470000103C02402A
:100E90002DE9F0471B4E05461446307E1F46894615
:100EA000012808D0012030764CF250384046FFF738
:100EB000A3FD18B114E00220BDE8F0879DB1012D1B
:100EC00016D0022D19D022463B464846FFF726FD94
:100ED0004046FFF791FD0C490A6822F001020A60C2
:100EE00000213176E8E7E1B24846FFF707FDEFE77A
:100EF000A1B24846FFF728FDEAE721464846FFF73A
:100F000035FDE5E7C8130020103C024007490020EA
:100F10000A68002A09DA054A054B0C3A1360054BAA
:100F200013600968002900DA01207047103C024074
:100F300023016745AB89EFCD2DE9F84FDFF8BCA160
:100F40000022012503264FF00F090AF1040BAAF134
:100F5000040E00BF0B6805FA02F42340A34270D1CF
:100F60000F7907F00307012F01D0022F16D18768F0
:100F70004FEA420806FA08FC27EA0C07D1F80CC031
:100F80000CFA08FC4CEA070CC0F808C04768A743F5
:100F90000C79C4F3001494403C4344600C79E4435E
:100FA000A4070AD0C4684FEA420C06FA0CF7BC4307
:100FB0008F6807FA0CF72743C7600C7904F0030425
:100FC000022C12D1D40800EB840CDCF82040570727
:100FD000FF0E09FA07F824EA0804D1F8108008FA8D
:100FE00007F848EA0408CCF8208004684FEA420C6D
:100FF00006FA0CF7BC430F7907F0030707FA0CF762
:10100000274307604C6814F4403F70D03C4C27687D
:1010100047F480472760246822F0030704F48044E3
:101020000094384C07EB040CDCF8084897074FEAAB
:10103000177809FA08F7BC43334FB84202D10027AA
:1010400024E054E0314FB84201D101271EE0304F77
:10105000B84201D1022719E02E4FB84201D103272F
:1010600014E02D4FB84201D104270FE02B4FB842B6
:1010700001D105270AE02A4FB84201D1062705E031
:10108000284FB84201D1072700E0082707FA08F7E0
:101090002743CCF80878DAF800405746D1F804C066
:1010A0009C435FEACC2C00D51C433C60DBF800403D
:1010B0005F46D1F804C09C435FEA8C2C00D51C43EA
:1010C0003C60DEF800407746D1F804C09C435FEAFC
:1010D0008C3C00D51C433C60084F083F3C68D1F86D
:1010E00004C09C435FEACC3C00D51C433C60521CCE
:1010F000102AFFF42FAFBDE8F88F0000083C014034
:101100004438024000300140000002400004024028
:1011100000080240000C024000100240001402408F
:1011200000180240001C02400AB1816170470904A6
:10113000FBE70000014880687047000014000020B1
:1011400070B5040011D021684CF6CC4008602168CD
:1011500045F255500860D4E9000141602168A0685B
:101160008860FFF7E7FF05460DE0012070BD00BF76
:10117000FFF7E0FF401B312805D92068C0688007D1
:1011800001D0032070BD2068C0688007F0D12168BD
:101190004AF6AA200860002070BD00684AF6AA211D
:1011A0000160002070470000024881680278114405
:1011B00081607047140000200B4810B5016841F4AD
:1011C00000710160016841F480610160016841F4CF
:1011D00080710160032000F06FF80F2000F006F826
:1011E00000F024F8002010BD003C024070B50D4D09
:1011F00004464FF47A712878B1FBF0F00A49096887
:10120000B1FBF0F000F0A9FD48B9102C07D2002284
:101210002146501E00F030F800206C6070BD0120A7
:1012200070BD000014000020200000200A4808B50E
:10123000016841F480410160006800F48040009042
:101240000548001F016841F080510160006800F00E
:101250008050009008BD000044380240002809DB9F
:1012600000F01F02012191404009800000F1E020C0
:10127000C0F8001170470000F0B40E4B1B680C461C
:10128000C3F30223C3F10705042D00D90425191D5A
:10129000072901D2002300E0DB1E012606FA05F132
:1012A000491E214099409E40761E16403143F0BCB5
:1012B00002F05CBA0CED00E0064900F00702086895
:1012C0004FF6FF03184040EA0220034A104308602B
:1012D000704700000CED00E00000FA052DE9F8432E
:1012E000054600684FF00109C1074FF0000601D123
:1012F000400727D5DFF80C81C8F86860FFF71AFFB0
:101300000746414C05E000BFFFF714FFC01B022851
:1013100057D820680001F7D468688101287A41EA2B
:101320000070394984310860C8F86890FFF702FFFF
:10133000074604E0FFF7FEFEC01B022841D82068E4
:101340000001F7D52878800752D52F484030016832
:1013500041F08051016000682C4C00F080500090FA
:10136000206840F480702060FFF7E4FE074604E048
:10137000FFF7E0FEC01B022823D82068C005F7D580
:10138000214C7034206810F4407020D0A98901F4F9
:10139000407181421BD020681D4920F44070C1F883
:1013A00000900E6020602068C00710D0FFF7C2FEDA
:1013B000064641F2883707E0FFF7BCFE801BB842C3
:1013C00002D90320BDE8F88320688007F4D5E968D6
:1013D0000D48C1F301220830032A0BD0016821F423
:1013E000F81101602068A989C1F30B01084320604E
:1013F0000020E7E70268074B22F4F81219400A437D
:101400000260EFE7000047420038024000700040F1
:10141000400E4742FFFCFF0F2DE9F0470E46050046
:1014200065D0DFF81481D8F80000F7B200F00700AB
:10143000B04207D288F80070D8F8000000F007002A
:10144000B04254D128683D4C810712D5400703D5DE
:10145000206840F4E05020602878000703D5206819
:1014600040F4604020602068A96820F0F000084344
:1014700020602878C0072DD03049686808390128D5
:1014800012D0022813D0032811D009688907002937
:101490002DDA216821F0030101432160FFF74AFEA4
:1014A000814641F2883A0EE009688903EFE709684E
:1014B0008901ECE7FFF73EFEA0EB0901514502D997
:1014C0000320BDE8F0872068696800F00C00B0EBED
:1014D000810FEFD1D8F80010404601F00701B1426A
:1014E00007D90770006800F00700B04201D0012062
:1014F000E7E72878400705D52068E96820F4E05040
:10150000084320602878000706D52068296920F460
:10151000604040EAC100206000F038F82168084AC5
:10152000C1F30311515CC8400649086006480068D1
:10153000FFF75CFE0020C4E7003C02400838024090
:10154000AA3900082000002018000020044805499E
:1015500000680968044AC1F38221515CC8407047A1
:101560002000002008380240BA3900080448054924
:1015700000680968044AC1F34231515CC8407047B1
:101580002000002008380240BA390008154810B57C
:10159000006810F00C02144813D04110042A0FD038
:1015A000082A0ED10F4C241F2268236802F03F0244
:1015B0005B0207D52068C0F38810A0FB010106E09C
:1015C000084610BD2168C1F38811A1FB000100236A
:1015D000FEF758FE2168C1F30141491C4900B0FBE8
:1015E000F1F010BD083802400024F4002DE9F84F56
:1015F00004006ED02078DFF84C93C007A9F10405F1
:101600004AD009F104000168C1F38101012908D021
:101610000068C0F3810002280AD1D9F80000400216
:1016200006D52868800337D560680028E1D033E00C
:101630006068B0F5803F10D0B0F5A02F286810D0BA
:1016400020F480302860286820F4802028606068BA
:10165000A8B1FFF76FFD06460DE0286840F4803022
:10166000F4E740F480202860F7E700BFFFF762FD51
:10167000801B642873D828688003F7D50CE0FFF737
:1016800059FD064605E000BFFFF754FD801B6428A6
:10169000F0D828688003F7D42078DFF8AC82800780
:1016A0004FF0000A3ED5A748001D016811F00C0F4D
:1016B00008D00068C0F3810002280BD1D9F80000DF
:1016C000400207D42868800716D5E068012800D1B9
:1016D00012E033E1E068B8B10120C8F80000FFF77C
:1016E00029FD064605E000BFFFF724FD801B022808
:1016F000C0D828688007F7D52868216920F0F8004D
:1017000040EAC10028600DE0C8F800A0FFF712FD14
:10171000064604E0FFF70EFD801B02281FD828684C
:101720008007F7D42078000722D5864F8748616963
:10173000703771B101210160FFF7FCFC064604E03F
:10174000FFF7F8FC801B022809D838688007F7D516
:101750000EE0C0F800A0FFF7EDFC064605E082E0D1
:10176000FFF7E8FC801B02287DD838688007F7D493
:101770002078400768D5DFF8CCB100270BF13C0B8F
:10178000DBF80000C0000BD4DBF8001041F0805102
:10179000CBF80010DBF80000012700F0805000902B
:1017A0006B4E3068C00510D4306840F480703060F3
:1017B000FFF7C0FC009005E0FFF7BCFC0099401A61
:1017C000022850D83068C005F6D55E4EA0686C3649
:1017D00001280FD00528306810D020F001003060BB
:1017E000306820F004003060A068B8B1FFF7A2FCB8
:1017F00000900FE0306840F00100F4E740F0040092
:101800003060F7E7FFF796FC0099411A41F2883003
:10181000814266D830688007F4D50EE0FFF78AFC75
:10182000009007E0FFF786FC0099411A41F28830EA
:10183000814256D830688007F4D42FB1DBF800100D
:1018400021F08051CBF80010A069C8B33D49091DB3
:101850000968C1F3810102294AD00228504607D005
:10186000C8F8600000E03CE0FFF764FC04463BE0A1
:101870004746C8F86000FFF75DFC064605E000BF7C
:10188000FFF758FC801B02282BD828688001F7D46A
:10189000D4E907010843A16A2E4A490802EB014135
:1018A000626A41EA8211084394F82C1040EA01610F
:1018B000C9F8001001203866FFF73CFC044606E03A
:1018C0003EE000BFFFF736FC001B022809D828685D
:1018D0008001F7D534E000BFFFF72CFC001B022885
:1018E00002D90320BDE8F88F28688001F4D427E0EE
:1018F0000128F7D0D9F80000E26900F48001914294
:101900001CD1226A00F03F01914217D147F6C07105
:10191000626A0140B1EB821F10D1A26A4FF0FF331F
:1019200000F4403103EB5202B1EB024F06D194F8C0
:101930002C1000F07060B0EB016F01D00120D1E7F6
:101940000020CFE70438024000004742800E4742A3
:10195000007000400000FFFF10B5040002D0607F5F
:1019600010B106E0012010BD00202077204600F0D5
:1019700039F8022060772168CA2048622168532024
:101980004862204601F048F930BB20688168144A5B
:10199000114081602168886862681043D4E904239B
:1019A0001A43104388602168E06808612068016973
:1019B000228941EA02410161204601F051F958B9FA
:1019C00021680A6C22F480220A6421680A6CA369E7
:1019D0001A430A64012161772268FF21516210BD18
:1019E000BFFF8FFF1FB5002100910191029103916C
:1019F0000068084988420CD102200090C001039081
:101A00006846FFF76BFC08B1FEF70FFF02490120A3
:101A100008601FBD002800403C0E474270B50446D8
:101A20000068C16821F0A001C160FFF783FB054693
:101A30004FF47A7607E000BFFFF77CFB401BB04213
:101A400001D9032070BD2068C0688006F4D500204D
:101A500070BD70B5040009D0606A002540B12561F1
:101A60006561A56294F8510040B10CE0012070BDA1
:101A70006068B0F5827FF4D0E561F2E784F85050F9
:101A8000204600F045F8022084F8510020680168E3
:101A900021F040010160A088218900F4827001F4E6
:101AA00004410843A18901F400610843217C01F04D
:101AB00002010843217D01F001010843218B01F45B
:101AC00000710843217F01F03801084394F8201089
:101AD00001F080010843218D01F400510843216881
:101AE0000860A069042101EA104094F8241001F074
:101AF00010010843216848602068C16921F4006131
:101B0000C1616565012084F85100002070BD0000AE
:101B100010B586B0044614216846FEF70FFD134940
:101B20002068884220D112480021026842F4805285
:101B30000260006800F4805005900D481438026877
:101B400042F002020260006800F0020005903820B6
:101B500000900220CDE901010320039005200490AC
:101B600069460448FFF7E8F906B010BD00300140AF
:101B700044380240000402402DE9F84F044690F832
:101B8000500000270A9E1D4692468B464FF00109E1
:101B900001280ED0012084F85000FFF7CBFA8046D0
:101BA00094F85100616801280CD0B1F5827F07D10B
:101BB00002E00220BDE8F88FA16809B9042801D02D
:101BC0000227C2E0BBF1000F27D0BAF1000F24D0EA
:101BD0001DB394F85100042802D0052084F8510068
:101BE00000206065C4F838A0E587A587C4F830B048
:101BF000E586A5862064606420680168490603D4F0
:101C0000016841F040010160E068B0F5006F606874
:101C100005D0E8B3012D46D07FE0012795E008B15B
:101C2000012D39D1206B21680088C860206B801C91
:101C30002063E08E401EE0862EE0206881688907E0
:101C40000FD5E18E69B1B9F1010F0AD1216B098875
:101C5000C160206B801C2063E08E401EE0864FF048
:101C6000000920688168C9070CD0E18F51B1C068B4
:101C7000A16B0880A06B801CA063E08F401EE087F2
:101C80004FF00109FFF756FAA0EB0800B04200E060
:101C900009E001D3701C50D1E08E0028CDD1E08F37
:101CA0000028CAD13FE0206B216800780873206BC0
:101CB000401C2063E08E401EE0862EE02068816894
:101CC00089070FD5E18E69B1B9F1010F0AD1216BF6
:101CD00009780173206B401C2063E08E401EE08673
:101CE0004FF0000920688168C9070CD0E18F51B11D
:101CF000C068A16B0870A06B401CA063E08F401E01
:101D0000E0874FF00109FFF715FAA0EB0800B04299
:101D100002D3701C01D010E07EB1E08E0028CDD13E
:101D2000E08F0028CAD142463146204600F0BEFF6F
:101D300028B101272020606507E0032705E0A0689F
:101D400018B92068C16880680090012084F85100AB
:101D5000002084F8500038462CE710B5401EB0F142
:101D6000807F01D3012010BD4FF0E02460610F217E
:101D7000601701F0FBFC0020A0610720206100201B
:101D800010BD70477047000070B590F83C20012AE4
:101D900032D0012480F83C40022280F83D200368C4
:101DA0005A689D6822F070060A6832435A60134BE5
:101DB00002689A4214D0B2F1804F11D0104B9A426F
:101DC0000ED0104B9A420BD00F4B9A4208D00F4BBB
:101DD0009A4205D00E4B9A4202D00E4B9A4204D141
:101DE000496825F080031943916080F83D40002147
:101DF00080F83C10084670BD022070BD0000014014
:101E00000004004000080040000C004000040140B5
:101E1000004001400018004010B5040003D094F8C1
:101E20003D0010B107E0012010BD002084F83C0007
:101E3000204600F01FF8022084F83D00211D206894
:101E400001F0BAF8012084F8460084F83E0084F8D6
:101E50003F0084F8400084F8410084F8420084F890
:101E6000430084F8440084F8450084F83D000020D5
:101E700010BD000008B5154A0168154891420ED101
:101E8000016841F0040101600068002200F00400D4
:101E9000009011461E20FFF7EFF91E2010E00D4ABA
:101EA000914211D1016841F00801016000680022EF
:101EB00000F00800009011463220FFF7DDF93220D3
:101EC000BDE80840FFF7CAB908BD0000000800409F
:101ED00040380240000C004070B5044690F83C00C9
:101EE0000025012817D0012684F83C60022084F8E0
:101EF0003D002068826822F0770222F47F428260EF
:101F00000868502838D00DDC20284FD005DC90B36D
:101F1000102811D14AE0022070BD302846D0402858
:101F20000AD13BE060282FD070280DD0B0F5805F3B
:101F300003D0B0F5005F12D0012584F83D60002089
:101F400084F83C00284670BDCB68D1E901212068A7
:101F500001F096F82068816841F0770109E0CB68CC
:101F6000D1E90121206801F08BF82068816841F4F3
:101F700080418160E1E719E0CA684968206801F0A2
:101F800091F85021206806E0CA684968206801F08D
:101F90009AF86021206801F07DF8CEE7CA684968A8
:101FA000206801F07FF840212068F4E722680146AC
:101FB0001046F0E7704770B50446006801694FF0BD
:101FC0000005C943890715D4C168C943890711D4DD
:101FD000E91E016101202077206880698007204682
:101FE00002D0FFF7E7FF04E000F098F8204600F089
:101FF00096F8257720680169C943490717D4C16855
:10200000C943490713D46FF004010161022020770E
:102010002068806910F4407F204602D0FFF7CAFF95
:1020200004E000F07BF8204600F079F8257720687E
:102030000169C943090716D4C168C943090712D405
:102040006FF008010161042020772068C0698007D3
:10205000204602D0FFF7AEFF04E000F05FF8204614
:1020600000F05DF8257720680169C943C90617D4D7
:10207000C168C943C90613D46FF01001016108207B
:1020800020772068C06910F4407F204602D0FFF717
:1020900091FF04E000F042F8204600F040F8257778
:1020A00020680169C943C90708D1C168C943C90784
:1020B00004D1891E0161204600F032F820680169D0
:1020C000C943090609D4C168C943090605D46FF09C
:1020D000800101612046FFF754FE20680169C94371
:1020E000490609D4C168C943490605D46FF04001C7
:1020F0000161204600F015F820680169C94389068E
:102100000BD4C168C943890607D46FF0200101616F
:102110002046BDE87040FFF735BE70BD7047704780
:1021200070477047704710B504460068406994F8DE
:102130003D10C0F3C010212911D180B120681430A6
:1021400050E8001F21F0800140E80012002AF5D17C
:10215000606B08B1FEF778FC204601F095F8206826
:10216000406994F83E10C0F38010222911D180B14B
:102170002068143050E8001F21F0400140E80012B0
:10218000002AF5D1A06B08B1FEF75EFC204601F0F5
:1021900054F8002010BD7047F8B50168044608687F
:1021A000CA684B6910F00F0F4FF0000559D003F0CB
:1021B000010602F49077374365D0C10705D0D105F9
:1021C00003D5216C41F001012164410705D5D907F0
:1021D00003D0216C41F002012164810705D5D907A4
:1021E00003D0216C41F004012164010707D502F0FE
:1021F0002001314303D0216C41F008012164216C9E
:1022000000293AD0800604D5900602D5204601F078
:1022100049F820684069216CC0F38010090700D498
:1022200060B3204601F009F820684069400621D5D6
:102230002068143050E8001F21F0400140E80012EF
:10224000002AF5D1A06BA8B16C490165A06BFEF71F
:1022500044FC002811D0A06B016D01B0BDE8F04036
:10226000084783060FD593060DD52046BDE8F840F4
:1022700001F018B82046FFF78EFFF8BD2046FFF7A3
:102280008AFF2564F8BD266B2023012E79D1C6066E
:1022900077D5D60675D50868486800904869400625
:1022A00040D5A16B086840680004000CEAD0A28DFC
:1022B0008242E7D9E085C869B0F5807F2DD02068DB
:1022C0000C3050E8001F21F4807140E80012002A11
:1022D000F5D12068143050E8001F21F0010140E8DA
:1022E0000012002AF5D12068143050E8001F21F0B8
:1022F000400140E80012002AF5D184F83E30256301
:1023000020680C3050E8001F21F0100140E8001256
:10231000002AF5D1A06BFEF797FBA08DE18D401A46
:1023200081B229E0A08DE18D401A81B2E08D0028B4
:10233000A8D00029A6D020680C3050E8002F22F445
:10234000907240E80026002EF5D12068143050E845
:10235000002F22F0010240E80026002EF5D184F87B
:102360003E30256320680C3050E8002F22F0100228
:1023700040E80023002BF5D12046FFF7D3FEF8BD3F
:10238000FFE705062BD5150629D594F83D00212831
:10239000F5D1A068B0F5805F01D12069B0B1206AA5
:1023A000411C2162216800784860E08C401E0004D6
:1023B000000CE084E3D12068C16821F08001C16095
:1023C0002068C16841F04001C160D8E7206A0088F8
:1023D000C0F308004860206A801C2062E5E74006E0
:1023E000CDD55006CBD5CA68204622F04002CA603F
:1023F00084F83D3000F0CCF9C1E70000F930000866
:1024000070B5040004D094F83D00002510B106E03A
:10241000012070BD84F83C50204600F023F82420B1
:1024200084F83D002068C16821F40051C160204655
:1024300000F098FF2068016921F490410161206853
:10244000416921F02A0141612068C16841F40051CD
:10245000C1602564202084F83D0084F83E000020FF
:1024600070BD00002DE9F04F87B004461421684686
:10247000FEF764F88C488B49D4F800C08A4A1038BB
:1024800002260327DFF824E200254FF008098C45D7
:1024900033D1116841F480111160116801F4801189
:1024A0000591016841F004010160016801F0040137
:1024B0000591016841F0080101600068029500F093
:1024C000080005909014CDE90006CDE903794C464B
:1024D00069467046FEF730FD0420CDE900060295FE
:1024E000CDE9037469467248FEF726FD00221146C5
:1024F0003520FEF7C1FE352059E06B4BDFF8B48183
:102500001B1D07214FF0006A4FF4806BC44553D167
:102510001A6842F010021A601A6802F0100205925E
:10252000026842F0010202600068029500F00100BA
:102530000590CDE903714FF4C060CDE9000669460E
:102540005D48FEF7F9FC5E4E5C4857463060C6E9D0
:1025500001A5C6E9035B7561B561F5613562D846D1
:1025600030467562FEF79CFB08B1FEF75EF9A66384
:10257000B463534E514860367830E6E80207402095
:10258000A6E821014E4846F814596030B561F5615E
:1025900035627562FEF784FB08B1FEF746F96663A3
:1025A000002211462520B463FEF766FE2520FEF7C3
:1025B00055FE07B0BDE8F08FDFF80881C4454CD167
:1025C000136843F400331360126802F4003205927A
:1025D000026842F0010202600068029500F001000A
:1025E0000590CDE903710C20CDE90006694632481B
:1025F000FEF7A2FC324E3448C036D0463060C6E901
:1026000001A5C6E9035B7561B561F56135625F4699
:1026100030467562FEF744FB08B1FEF706F9A66383
:10262000B4632948294E1830E6E802084020A1C6C4
:10263000264846F81459B561F56135627562FEF7B2
:102640002FFB08B1FEF7F1F8666300221146262041
:10265000B463FEF711FE2620A9E71D498C45A8D1D9
:10266000196841F020011960196801F020010591F5
:10267000016841F004010160006802AA00F0040052
:102680000590C020CDE9000682E8A00269467046A8
:10269000FEF752FC002211464720FEF7EDFD4720D1
:1026A00085E700000050004040380240000802402A
:1026B000000C024000100140000002404064024053
:1026C000480A00200044004088600240680B002057
:1026D0000014014090F83E30202B0ED159B152B178
:1026E00090F83C30012B08D0012380F83C300023C7
:1026F000036300F0BDBE01207047022070477047A1
:102700007047000070B5044690F83D00202836D18F
:1027100091B38AB394F83C00012830D0012084F8AA
:102720003C002162A284E28400252564212084F8F3
:102730003D00636B1348D863636B13481864636B85
:102740001248D864606B134605652668606B321DBD
:10275000FEF710FB21686FF04000086084F83C50E1
:102760002068143050E8001F41F0800140E800125A
:10277000002AF5D1002070BDFFE70120FBE7022011
:10278000F9E70000EF310008313200080931000894
:1027900070477047FEE70000194808B5016841F42A
:1027A00000110160016801F400110091016841F419
:1027B000800101600068002200F480000090114652
:1027C0001020FEF759FD1020FEF748FD00221146AB
:1027D0001120FEF751FD1120FEF740FD00221146A9
:1027E0003A20FEF749FD3A20FEF738FD0022114657
:1027F0004620FEF741FDBDE808404620FEF72EBD0D
:10280000303802402DE9F04786B014216846FDF7C4
:1028100095FE5F480024016841F0100101600168E5
:1028200001F010010591016841F0040101600168A7
:1028300001F004010591016841F020010160016887
:1028400001F020010591016841F0800101600168FB
:1028500001F080010591016841F00101016001680A
:1028600001F001010591016841F002010160016878
:1028700001F002010591016841F040010160016829
:1028800001F040010591016841F008010160006814
:10289000DFF800A100F008004FF400670590002267
:1028A00039465046FEF740FC00224FF40461504682
:1028B000FEF73AFCDFF8E090002201214846FEF7DF
:1028C00033FC4FF6FE700325CDE9000569460294FE
:1028D0004846FEF731FB42F63F70CDE900056946F8
:1028E00002942E48FEF728FB4FF6FF78CDF80080C3
:1028F000CDE9015469462A48FEF71EFB49F2B210A1
:10290000CDE90005694602945046FEF715FB012605
:102910004020CDE90006CDE9026469465046FEF745
:102920000BFB4FF6C770CDE90005694602941D48C0
:10293000FEF702FBCDF80080CDE9015469461A4844
:10294000FEF7FAFA4FF6FB70CDE9000569460294EE
:102950001648FEF7F1FA0225CDE90254CDE90076DA
:1029600069465046FEF7E8FACDE9026400966946EA
:1029700048460196FEF7E0FACDE90254CDE900762B
:1029800069465046FEF7D8FA06B0BDE8F087000069
:1029900030380240000002400010024000080240AF
:1029A000001402400004024000180240000C0240E3
:1029B000094810B5074901600321416040F6FF71E5
:1029C0008160FEF7BDFB002803D0BDE81040FDF795
:1029D0002CBF10BD003000402400002000B585B0A1
:1029E00014216846FDF7AAFD0A480021084AC0E9FB
:1029F00000217F228260FF22C0E9032141618161C1
:102A0000FEF7AAFF002801D0FDF70FFF05B000BDBB
:102A10000028004030000020104810B50E49016029
:102A20004FF48271416000218160C1604FF40072F7
:102A30000161C0E905120822C0E9072141628162F3
:102A40000A21C162FFF705F8002803D0BDE8104055
:102A5000FDF7EBBE10BD000000300140500000202B
:102A600010B586B000241748009401940294039492
:102A7000049413490594016042F22831C0E901141D
:102A80006421C0E903148461FFF7C6F908B1FDF7BA
:102A9000CCFE4FF48050009069460A48FFF71CFABC
:102AA00008B1FDF7C2FE049404A906480594FFF797
:102AB0006BF9002801D0FDF7B8FE06B010BD00008C
:102AC00000080040A800002010B586B00024174878
:102AD00000940194029403940494134905940160B2
:102AE00042F22831C0E901146421C0E90314846171
:102AF000FFF792F908B1FDF798FE4FF4805000906F
:102B000069460A48FFF7E8F908B1FDF78EFE04941C
:102B100004A906480594FFF737F9002801D0FDF70E
:102B200084FE06B010BD0000000C0040F000002044
:102B30000C4810B50A4901604FF4E13141600021B1
:102B400081600C22C160C0E904128161C161FFF79C
:102B500057FC002803D0BDE81040FDF766BE10BD4D
:102B600000500040380900200C4810B50A490160A7
:102B70004FF4E1314160002181600C22C160C0E965
:102B800004128161C161FFF73BFC002803D0BDE85E
:102B90001040FDF74ABE10BD001001407C09002026
:102BA0000C4810B50A4901604FF4165141600021EC
:102BB00081600C22C160C0E904128161C161FFF72C
:102BC0001FFC002803D0BDE81040FDF72EBE10BD4D
:102BD00000440040C00900200C4810B50A490160BB
:102BE0004FF4E1314160002181600C22C160C0E9F5
:102BF00004128161C161FFF703FC002803D0BDE826
:102C00001040FDF712BE10BD00140140040A002060
:102C1000FEE7FEE7704700002DE9F041044600683A
:102C20000025C168490618D4C16841F08001C1601F
:102C3000FEF780FA06464FF47A78042707E000BFD3
:102C4000FEF778FA801B404501D967770125206897
:102C5000C068400601D4002DF2D02846BDE8F081BE
:102C600070B5044600680025C16821F08001C1608C
:102C700020688068800606D42046FEF7CFFE10B19B
:102C8000042060770125284670BD000001B582B0A0
:102C90004FF47A700090012301AA02A90248FEF7BE
:102CA0006BFF9DF804000EBD5000002038B50446AF
:102CB0001248134B0068B0FBF3F04FF47A7358439B
:102CC00000906068B0F5827F0DD10B460092002223
:102CD0008021204600F016F870B1606D40F02000B1
:102CE0006065032038BD009830B1401E0090206818
:102CF0008068C0430006F6D5002038BD20000020C3
:102D000000366E012DE9F8431E469146884604467A
:102D1000089DFEF70FFA401B351AFEF70BFA07461F
:102D200025480068C0F3CB30684338E0701C37D0CA
:102D3000FEF700FAC01BA84203D215B1009860B399
:102D40002CE02068416821F0E00141606068B0F546
:102D5000827F0BD1A068B0F5004F02D0B0F5806F34
:102D600004D12068016821F040010160A06AB0F53B
:102D7000005F09D12068016821F4005101602068DA
:102D8000016841F400510160012084F851000020E5
:102D900084F850000320BDE8F8830025401E009011
:102DA0002068816838EA010004D000214945BDD17E
:102DB0000020F0E70121F9E7200000201C498842AB
:102DC00001D2002070471B49884201D20120704780
:102DD0001949884201D2022070471849884201D21D
:102DE000032070471649884201D2042070471549D4
:102DF000884201D2052070471349884201D206203B
:102E000070471249884201D2072070471049884212
:102E100001D2082070470F49884201D2092070472B
:102E20000D49884201D20A2070470B2070470000EC
:102E3000004000080080000800C0000800000108F1
:102E4000000002080000040800000608000008084E
:102E500000000A0800000C0800000E082DE9F04FE1
:102E600087B04FF0000817460E460446CDF8148090
:102E7000B0F1006F38D3A00736D1FEF747F81C48F1
:102E8000254604EB87074CF25039844215D24FF0A7
:102E9000010A4FF0020BBD420FD22868401C11D02E
:102EA0002846CDF80080FFF789FF02AA05A982E82D
:102EB000010C6846FDF796FF28B14846FDF79CFDDA
:102EC00070B10FE02D1D4846FDF796FDE3E70023A6
:102ED000214602203268FDF7DBFF18B9241D361D9C
:102EE000BC42F4D3FDF7CAFF07B0BDE8F08F000085
:102EF0000000FF1F7047FEF757B9000030B593B0D0
:102F000030216846FDF71AFB14210CA8FDF716FBCB
:102F10001D480025016841F080510160006800F003
:102F2000805011901948016841F4804101600068A7
:102F3000022400F4804011900D2000904FF4803066
:102F4000019001200290CDE905048005079008AAB0
:102F50000420482182E813000B906846FEF746FBE8
:102F600008B172B6FEE70F20CDE90C048020CDE950
:102F70000E0501210CA81095FEF74EFA002801D08D
:102F800072B6FEE713B030BD40380240007000401A
:102F90000248016841F470010160704788ED00E06B
:102FA0000148FFF708B80000A80000200148FFF71B
:102FB00002B80000F0000020F0B50268254C264D54
:102FC000264E274F274B4FF0804CA04209D060453A
:102FD00007D0A84205D0B04203D0B84201D09842F1
:102FE00004D122F0700E4A6842EA0E02A0421BD0C1
:102FF000604519D0A84217D0B04215D0B84213D0BE
:10300000984211D0184DA8420ED0184DA8420BD0AE
:10301000174DA84208D0174DA84205D0164DA8421A
:1030200002D0164DA84203D122F44075CA682A4343
:103030004D6922F080022A4302608A68C2620A68EF
:103040008262A04201D0984201D109690163012145
:103050004161F0BD00000140000400400008004054
:10306000000C0040000401400040014000440140C9
:103070000048014000180040001C004000200040B3
:1030800010B5846842EA032224F47F440A432243B1
:10309000826010BD826822F070020A4342F007018C
:1030A0008160704710B5036A046A24F00104046269
:1030B000846924F0F00444EA021423F00A020A436B
:1030C0008461026210BD10B5036A23F0100303622D
:1030D0008369046A23F4704343EA023224F0A003B4
:1030E00043EA01118261016210BD00000148FFF74F
:1030F00053B800003809002010B5806B0021C1854D
:10310000C184FFF748F810BD70B5846B2068406932
:1031100094F83D10C0F3C0100025212904D118B146
:10312000E584204600F0B0F82068406994F83E102D
:10313000C0F38010222904D118B1E585204600F0A3
:103140007CF8206C40F0100020642046FFF723F844
:1031500070BD10B50146806B09680968C9052FD498
:103160000021C18501680C3151E8002F22F48072E2
:1031700041E80023002BF5D10168143151E8002FFC
:1031800022F0010241E80023002BF5D1016814313F
:1031900051E8002F22F0400241E80023002BF5D136
:1031A000202180F83E10016B012909D101680C3102
:1031B00051E8002F22F0100241E80023002BF5D146
:1031C000016B012902D0FFF79AFA10BD818DFEF73D
:1031D000A9FF10BD10B5806B016B012902D0FFF76C
:1031E0008FFA10BD818D4908FEF79CFF10BD10B508
:1031F0000146806B09680968C90516D40021C1849D
:103200000168143151E8002F22F0800241E80023C8
:10321000002BF5D101680C3151E8002F42F040023B
:1032200041E80023002BF5D110BDFFF7B1FA10BD26
:1032300010B5806BFFF7ADFA10BD01680C3151E895
:10324000002F22F4907241E80023002BF5D1016891
:10325000143151E8002F22F0010241E80023002B35
:10326000F5D1016B012909D101680C3151E8002F1A
:1032700022F0100241E80023002BF5D1202180F834
:103280003E1000210163704701680C3151E8002FA6
:1032900022F0C00241E80023002BF5D1202180F864
:1032A0003D10704708B590F83E10222901D0022049
:1032B00008BD82684FF480539A4201D1016921B15F
:1032C000816A9A421BD04AB10AE00268816A526858
:1032D000C2F308020A80816A891C08E0026972B19F
:1032E0000268526802F07F020A70816A491C81629A
:1032F000C18D491E0904090CC18503D019E002687B
:103300005268F1E70168CA6822F02002CA600168C9
:10331000CA6822F48072CA6001684A6922F0010218
:103320004A61202180F83E10016B012903D0FFF78C
:10333000E6F9002008BD0021016301680C3151E865
:10334000002F22F0100241E80023002BF5D1016884
:103350000A68D20602D50A6849680091818DFEF795
:10336000E1FEE6E770B5044600680169E26821F411
:103370004051114301612169A068E2690843616914
:10338000114308432168CA6849F20C639A43024317
:10339000CA6020684169A26921F44071114341610A
:1033A00031492068884202D03049884202D1FEF774
:1033B000DDF801E0FEF7CAF8E2690023192164256F
:1033C0003226B2F5004F626828D0A0FB0101930FAE
:1033D0009200FCF757FF0146B0FBF5F06FF01802C2
:1033E000504301EB800006EB0010B0FBF5F000F05D
:1033F000F002B1FBF5F002EB0012B1FBF5F06FF05B
:103400001803584301EB800006EB0010B0FBF5F009
:1034100000F00F0021681044886070BDA0FB01011E
:1034200092185B41FCF72EFF0146B0FBF5F002015C
:10343000B1FBF5F06FF01803584301EB800006EB89
:10344000C000B0FBF5F000F0F80002EB4002B1FB69
:10345000F5F0584301EB800006EBC000B0FBF5F03F
:1034600000F00700D6E70000001001400014014002
:1034700038B5816282850025134604460564222002
:1034800084F83E00A26B1C48D063A26B1B481064FA
:10349000A26B1B48D064A06B0A4605652168A06B2F
:1034A000091DFDF767FC206801684068009084F8FA
:1034B0003C50206948B120680C3050E8001F41F4AE
:1034C000807140E80012002AF5D12068143050E8DD
:1034D000001F41F0010140E80012002AF5D12068E8
:1034E000143050E8001F41F0400140E80012002A6B
:1034F000F5D1002038BD000053310008D531000857
:103500000931000810B500F033F8BDE8104001485B
:10351000FEF742BE7C09002010B500F05BF8BDE864
:1035200010400148FEF738BEC00900200148FEF7F0
:1035300033BE0000040A0020FEE7000010B504229C
:103540000849094800F0B0F908480021417081702D
:103550000449BDE810404FF4806201F64400FFF7D3
:10356000B9B8000038010020000004080000002065
:103570000B4808B500680168C1F3001100290ED09E
:103580000168406800900648FEF7CDFD0448CC3045
:10359000006840684142034841700121817008BDC4
:1035A0007C0900200000002010B5084CE178084894
:1035B000FDF72AF90020E07020710549BDE81040B0
:1035C0004FF4806201F59160FFF784B8000000209D
:1035D000380500200B4808B500680168C1F30011E8
:1035E00000290DD00168406800900648FEF79BFD59
:1035F00005480068406841420448C17001210171DA
:1036000008BD0000C0090020080B002000000020B9
:1036100070B5194886B00026016841F002010160CA
:103620000068012500F0020005904FF48040CDE9CC
:1036300000050320CDE9025069461048FDF77CFCE7
:103640000F4CC4F8B852FFF7E7F900F051F80D49F4
:103650000880A0F56F4118390BD1032000F06AF8FB
:10366000C00706D1C4F8B862B720FFF70FFBC4F853
:10367000B85206B070BD000030380240000402406D
:10368000008040420C0000202DE9F041164E074614
:10369000002015460C46C6F8B8020320FFF7F6FADC
:1036A00012480088A0F56F41183902D1200EFFF7AB
:1036B000EDFAC4F30740FFF7E9FAC4F30720FFF778
:1036C000E5FAE0B2FFF7E2FA002405E0FF20FFF799
:1036D000DDFA3855641CA4B2AC42F7D30120C6F819
:1036E000B802BDE8F0810000008040420C000020DC
:1036F00070B50F4C0025C4F8B852902004F52E7414
:10370000FFF7C4FA0020FFF7C1FA0020FFF7BEFA66
:103710000020FFF7BBFAFF20FFF7B8FA45EA0025C3
:10372000FF20FFF7B3FA28430121216070BD00009C
:103730000080404210B5012803D0022803D003289E
:1037400003D0052002E0352000E01520064C0021C2
:10375000C4F8B81204F52E74FFF798FAFF20FFF7AB
:1037600095FA0121216010BD008040420907090E31
:10377000002804DB00F1E02080F80014704700F01E
:103780000F0000F1E02080F8141D70477047000022
:1037900003490A685206FCD5C2B24A60704700006D
:1037A0000010014008B5FDF707FDFFF7A7FBFFF785
:1037B00029F8FEF7F1FFFFF711F9FFF7D5F9FFF749
:1037C000EFF9FFF729F9FFF723FFFFF749F9FFF7B3
:1037D0007BF9FFF7ADF9FFF7FFF901200090042214
:1037E0001A496846FFF750FF009828B118A0FCF767
:1037F000C1FDFFF7DDF802E01CA0FCF7BBFD23488C
:103800000068C16841F01001C1604FF48064224635
:103810001F491E48FEF75EFF1E480068C16841F060
:103820001001C16022461C491A48FEF753FF1B4C89
:103830001B4D207808B1FFF781FE287808B1FFF70B
:10384000B3FE1848FDF7A9FCF3E7000058FDFF00A0
:10385000626F6F746C6F61646572E5BC80E590AFF8
:10386000E79C8BE997A8E78B970D0A00626F6F744E
:103870006C6F61646572E585B3E997ADE79C8BE990
:1038800097A8E78B975C720A000000007C09002073
:1038900038010020C0090020380500200200002067
:1038A00004000020240000202DE9F04117460A46BC
:1038B000804626A11046FCF72FFE09300446451C21
:1038C0000026214624A0FCF755FD0020234B0FE0E5
:1038D000E178A278090641EA0241627841EA0222CF
:1038E00014F8041B114343F82610761CB6B2001DD1
:1038F000B842EDD3B6EB970F20D1394618A0FCF7AC
:1039000039FD012404E0295D1EA0FCF733FD641C91
:10391000BC42F8D91DA0FCF72DFD012404E0295D6F
:103920001BA0FCF727FD641CBC42F8D917A0FCF7CC
:1039300021FD324609494046FFF790FABDE8F041C3
:103940004FF400610548FCF7F9BD0000737563632F
:10395000657373227D00000025730000C80B0020F2
:10396000E58699E585A52564E4B8AAE5AD97E88ADA
:1039700082E588B0E58685E983A8666C6173682076
:103980000D0A000030782558200000000D0A2000A4
:1039900025632020000000004FF04070E1EE100A87
:1039A0007047000610160006101600000000000008
:1039B00000000102030406070809000000000102DC
:1039C00003043031323334353637383941424344D9
:1039D0004546403058003031323334353637383987
:1039E0006162636465664030780000000C3A00084C
:1039F0000000002024000000C4010008303A000844
:103A00002400002024540000E00100080000000011
:103A1000000000000000000018EF0000000000009F
:103A20000100000010000000000000000024F4006D
:040000050800018965
:00000001FF
