:020000040800F2
:10000000805400207902000829500008A148000807
:10001000914D0008B9280008995B00080000000015
:10002000000000000000000000000000A1530008D4
:1000300091290008000000002B500008A35300087D
:10004000930200089302000893020008930200083C
:10005000930200089302000893020008930200082C
:10006000930200089302000893020008930200081C
:10007000930200089302000893020008930200080C
:10008000BD280008C9280008930200089302000850
:1000900093020008930200089302000893020008EC
:1000A00093020008930200089302000893020008DC
:1000B00093020008930200084D54000893020008C0
:1000C00093020008930200089302000893020008BC
:1000D00093020008655B0008795B00089302000842
:1000E000930200089302000893020008930200089C
:1000F000930200089302000893020008930200088C
:100100009302000893020008595400089302000863
:10011000930200081D57000893020008930200088C
:100120009302000893020008D528000893020008F3
:10013000930200089302000893020008930200084B
:10014000930200089302000893020008930200083B
:100150009302000893020008E12800088D5B000864
:10016000930200089302000893020008930200081B
:1001700093020008930200089302000800000000A8
:10018000930200089302000800F002F800F05CF807
:100190000AA090E8000C82448344AAF10107DA45E2
:1001A00001D100F051F8AFF2090EBAE80F0013F0D8
:1001B000010F18BFFB1A43F001031847EC7700004A
:1001C0000C780000103A24BF78C878C1FAD85207DA
:1001D00024BF30C830C144BF04680C6070470000C1
:1001E0000023002400250026103A28BF78C1FBD840
:1001F000520728BF30C148BF0B607047662907F01F
:100200008C82642900F0DA81632900F0E886732982
:1002100000F0ED86002070471FB507F071FA9DE8E9
:10022000030000F00BFC01F00DFA04000020002197
:1002300007F018F8401C60600020002107F028F843
:10024000E0601FBD10B510BD01F02AFB1146FFF79D
:10025000E3FF06F0F3FA01F073FD03B4FFF7F2FFDA
:1002600003BC05F023FF000030BF72B6704762B6D2
:10027000704780F30888704709488047094800475D
:10028000FEE7FEE7FEE7FEE7FEE7FEE7FEE7FEE746
:10029000FEE7FEE704480549054A064B70470000A3
:1002A0003D5400088901000880140020805400207B
:1002B000803400208034002070B5064600F0A2FB98
:1002C000056806F10B0020F00704B4429CBF002033
:1002D00070BD2B466A68BAB11068A04210D304F111
:1002E000080188423CBF5068586007D35168101914
:1002F00041601168091B016058601460101D70BDD9
:1003000013465268002AE7D12146284600F082FBB6
:100310000028DED170BD70B50446051F00F072FBE9
:100320000068002C14BF446870BD002C18BFAC429C
:100330003CBF20466468F8D301680A18AA4218BF77
:10034000456003D12A6805461144016028684119B7
:10035000A1421CBF6C6070BD61686960216808447F
:10036000286070BD70B50D460646041F00F04AFBBC
:10037000D0F800C0C5B1E6B105F10B0020F00703CD
:10038000AB423CBF002070BD2068984238BFDCF80B
:10039000042013D3C11A08292FD3E01840F8041BF6
:1003A0002360FFF7B8FF28E03046FFF7B4FF0020D6
:1003B00070BD2846BDE87040FFF77EBF002A18BF19
:1003C000A2423CBF94465268F8D30119914216D11B
:1003D00011680844984212D3C11A08293CBF206012
:1003E000506808D35168E0184160216812681144D0
:1003F000C91A01602360CCF80400201D70BD181FCD
:10040000FFF75AFF050007D021680A1F211D00F0E1
:1004100029FA201DFFF77FFF284670BD53EA020C22
:1004200000F069802DE9F04B4FF00006002B1FBF54
:10043000B3FA83F503FA05F424FA05F65E4012BF19
:100440001643B2FA82F502FA05F4C5F120051EBF83
:1004500022FA05FC44EA0C04203556EA044C4FEA23
:10046000144418BF641C4FF000084FF0000990427C
:1004700071EB030C39D3002919BFB1FA81F701FAE6
:1004800007F6B0FA80F700FA07F6C7F120071EBF9B
:1004900020FA07FC46EA0C062037B6FBF4FCA7EB73
:1004A0000507103F07F01F0BCBF120060CFA0BFBE2
:1004B0002CFA06F644BFB3460026202FA4BF5E46A2
:1004C0004FF0000B5BEA060C08BF4FF0010B19EB75
:1004D0000B09ABFB027C48EB0608C01B06FB02CCF9
:1004E0000BFB03CC71EB0C01C1E70B460246414606
:1004F0004846BDE8F08B13B54FF000004FF0000107
:10050000AFF30080BDE81C40704710B5044600F012
:1005100071FA0068005DC00602D504F1200010BD2C
:10052000204610BD0FB4044910B503AA029800F08C
:1005300063FD10BC5DF814FB0C0000200FB41CB56B
:10054000084B06AA7B4469460090059800F025FDFB
:1005500004460020694600F033FD20461CBC5DF8CF
:1005600014FB0000790A000070B50C460546012A0C
:1005700005D02878800600D5EA69002302E001232F
:1005800005E05B1C934202D2E05C0028F9D1A86927
:10059000E618C01AA861286A184428622846AFF3F2
:1005A000008004E0D5E9012114F8010B9047B44222
:1005B000F8D32846AFF3008070BD00002DE9F0416C
:1005C0000646002410687529314616A510D0AFF3F1
:1005D0000080002802DA404213A507E031688A074C
:1005E00001D512A502E0490704D511A5012401E0B7
:1005F000AFF3008000210A2206F1240709E0B0FBD6
:10060000F2FCB0FBF2F302FB1C00303078541846C9
:10061000491C0028F3D123462A463046BDE8F04164
:1006200000F04DBA000000002D0000002B0000007B
:10063000200000002DE9F05F894604464FF0000AD3
:10064000DFF824B1FB44C0F820A02046E1688847C9
:1006500000287DD0252806D0D4E901219047206AC2
:10066000401C2062F1E700255F462046E16888478C
:100670002028064607DB312E05D2B81910F8200CC9
:1006800008B10543F1E7A80701D525F00405C4F832
:100690001CA00027C4F818A02A2E09D0304605F067
:1006A000FEFC38B304EB8708303EC8F8186019E048
:1006B00059F8041B204604EB87029161E1688847E2
:1006C000012F064618D1E069002820DA25F0200520
:1006D0001DE0D8F8180000EB800006EB4000303831
:1006E000C8F818002046E1688847064605F0D7FCA0
:1006F0000028EED1012F0AD02E2E08D12046E16825
:1007000088477F1C0646022F45F02005C4DBA06900
:10071000002803DA404245F00105A061E80701D056
:1007200025F01005A6B1A6F14100192802D82036FF
:1007300045F400654A463146204625604D46FFF7A0
:100740005DFD60B1012807D0ED1D25F0070000E038
:1007500007E000F1080978E705F1040975E730467C
:100760007AE7206ABDE8F09FF271000030B50546D7
:100770000B462A4613F8014B12F8010B08B1A042B0
:10078000F8D01CB1002802D06D1CF1E7284630BD1E
:1007900010B5431C02E010F8011B71B18107FAD1BA
:1007A0004FF0013202C88C1A8C4314EAC211F9D0FE
:1007B000C01A0A0603D0C01E10BDC01A10BD0A041C
:1007C00001D0801E10BD0902FCD0401E10BD40EAC1
:1007D000010370B59B072ED14FF00136042A2AD3AE
:1007E00008C810C99D1B9D43121F15EAC61517D0D6
:1007F000D8B2E1B2401A50EA056110D198B2A1B264
:10080000401A50EA05410AD123F07F4024F07F418D
:10081000401A50EA052102D1180EA0EB146070BDF9
:10082000A342DBD018BA21BA884201D9012070BD99
:100830004FF0FF3070BD0AB9002070BD10F8013BC9
:1008400011F8014B63B1A3420AD1521E08D010F82F
:10085000013B11F8014B1BB1A34201D1521EEDD156
:10086000181B70BD10B5203AC0F00B80B1E81850CD
:10087000203AA0E81850B1E81850A0E81850BFF48A
:10088000F5AF5FEA027C24BFB1E81850A0E8185029
:1008900044BF18C918C0BDE810405FEA827C24BF7D
:1008A00051F8043B40F8043B08BF7047D20728BF0B
:1008B00031F8023B48BF11F8012B28BF20F8023B5A
:1008C00048BF00F8012B70474FF0000200B51346F7
:1008D00094469646203922BFA0E80C50A0E80C5060
:1008E000B1F12001BFF4F7AF090728BFA0E80C5011
:1008F00048BF0CC05DF804EB890028BF40F8042B0A
:1009000008BF704748BF20F8022B11F0804F18BF76
:1009100000F8012B704710B5044610F0030F08BF14
:1009200011F0030F40F015804FF0013E121FC0F28E
:100930000E8051F8043BA3EB0E0C2CEA030C1CEACE
:10094000CE1C08BF40F8043BF0D0A1F1040102F135
:100950000402521E08DB11F8013B002B00F8013B9A
:10096000F7D1114600F048FE204610BD4FF0013C83
:1009700050F8042B51F8043B9A4221D1A2EB0C030E
:10098000934313EACC1317D150F8042B51F8043BCE
:100990009A4215D1A2EB0C03934313EACC130BD16B
:1009A00050F8042B51F8043B9A4209D1A2EB0C03F6
:1009B000934313EACC13DBD04FF00000704700BF25
:1009C000D01A01BAB1FA81F101F0180122FA01F04E
:1009D000CB40C1F12001DBB2C0B2C01A2CFA01F346
:1009E000D11A914311EAC311E6D17047704770479D
:1009F0007047000010B500F025FE001D10BD00BFBF
:100A00006568000000487047281400207047704750
:100A10007047704738B504460A4600206946AFF370
:100A20000080002808BF38BD02460099204600F02B
:100A300011FE012038BD012000F02ABFF8B5AFF348
:100A40000080054600200C46102000BF0646A8196D
:100A5000A0420DD9324669460020AFF3008007005E
:100A600008BF00F015FF0098A04218BF0546C41942
:100A7000FFF7C8FF05600746F01D20F00700461984
:100A8000284600F00AF8B44208BFF8BDA21B314660
:100A90003868BDE8F84000F0DDBD00210160C0E924
:100AA000011070471020704710B500F0CFFD0068AE
:100AB00010BD10B5044600F0C9FD046010BD2DE95D
:100AC000F0470D4699469246044600F12408016815
:100AD000880604D5E06921F01001216000E00120C2
:100AE000A84201DD471B00E00027A1697A1902EB4B
:100AF0000900081AA0612078C00602D42046AFF38E
:100B00000080002608E0D4E901211AF80600904789
:100B1000206A401C761C20624E45F4DB2078C0061B
:100B20000AD52046AFF3008006E0D4E90121302049
:100B30009047206A401C2062381EA7F10107F4DCB0
:100B400007E0D4E9012118F805009047206A401C0D
:100B50002062281EA5F10105F3DC2046AFF30080DA
:100B60002078000602D50220BDE8F0870120FBE7CF
:100B700070472DE9FF4F0C461E464FF0FF378BB0F4
:100B8000D2E90001DDF860800A908A46C1F30A5577
:100B900005B93D46002108464FF00000BAF1000FAC
:100BA00000F4400005DA00EB80004FF4400101EA58
:100BB00050004FEA9059B9F1010F00DDB9460A988B
:100BC00050EA4A000ED044F61050A5F2FF354543D6
:100BD0002F14B8F1000F1ED07542291E1EDDC9F179
:100BE00000021CE0B8F1010F4FF0000001D03021ED
:100BF00003E0F24305E02154401CB042FBDB3046E9
:100C00000022002121540B99C1F80880C1E900207D
:100C10000FB0BDE8F08FBD1B6D1CDEE74A4600DA61
:100C2000694206A800F0BEFD06AB93E8070003ABDF
:100C300083E8070050460A9901F0F9F88DE80700AB
:100C4000A0F500501F3800900398002D0ADD42F2F5
:100C50001F014A460844002303A90390684601F097
:100C6000A5FB09E0A0F500504A461F38002303A960
:100C70000390684601F0C4FB8DE807000004000CF7
:100C800003D04FF0FF30410800E01046B8F1000FEC
:100C900003D00022009215461EE0751E05D400F018
:100CA000F3FC303262556D1EF9D5B346012208437C
:100CB00002D000227F1C04E02078302801D10022DD
:100CC0007F1E002A099784D01DE0112D07DA00F05D
:100CD000DBFC303262556D1C50EA0102F5D108434D
:100CE00002D00098C8B10EE00021681E05E0235C28
:100CF000625C63542254401E491C8142F7DBAB46C0
:100D0000A81B401E0990002004F80B000B98099ABC
:100D1000C0F80880C0E9002B7AE711264FF00008E0
:100D200057E72DE9F04F88460446D21D22F007010F
:100D300091B0D1E90001CDE90A0105F041F8024680
:100D40000B98C00F01D02D2007E02068810701D546
:100D50002B2002E0202101EAC000032A099001D0E3
:100D6000072A05DB03464146204600F0DBFC0BE189
:100D70002078800601D5E06900E00620B8F1650F13
:100D8000814606D0B8F1660F18D0B8F1670F70D160
:100D900031E00020B9F1110F009001DB112301E0D7
:100DA00009F101030AAA01A90CA8FFF7E2FEDDE997
:100DB0000C70002609F10105834647E001204B46EF
:100DC00000904FF000470AAA01A90CA8FFF7D1FE36
:100DD000DDE90DB00C995D46002610B909F101005E
:100DE0000D18B9EB050003D4C0F1FF3609F1010578
:100DF000A5EB09002BE0B9F1010F01DA4FF0010971
:100E00000020B9F1110F0090484601DD112300E0E8
:100E100003460AAA01A90CA8FFF7ABFEDDE90C7096
:100E20004D4600268346207800070AD4AB4500DAF9
:100E30005D4601A8012D04DD411911F8011C30297E
:100E400007D04F4502DA17F1040F04DA0120824679
:100E50000FE06D1EEEE7002F02DCED1B3E4403E0C9
:100E6000781CA84200DD7D1CB81B00F1010A4FF080
:100E700000472078000703D4AA4501DB4FF0FF3A72
:100E80000021B7F1004F0DF143088DF8431024D035
:100E900002202B23002F01DA7F422D230A21021E7C
:100EA000A0F1010000DC5FB197FBF1FC97FBF1F2D0
:100EB00001FB1C7C17460CF1300C08F801CDEEE765
:100EC000A8F1010003702188090501D5452100E042
:100ED0006521A0F1010800F8011C09980FA9A1EBF8
:100EE0000807FF1D00B10120411901EBEA70A1695B
:100EF0003844081A401EA0612078C00602D420465B
:100F0000AFF30080099828B1D4E901219047206A05
:100F1000401C20622078C00622D52046AFF3008016
:100F20001EE0002E04DBB34502DD01A8805D00E079
:100F30003020D4E901219047206A401C2062761CB1
:100F4000AAF101005FEA000A0AD100F07BFBC06849
:100F50000168405CD4E901219047206A401C20626E
:100F6000281EA5F10105DCDC07E0D4E9012118F811
:100F7000010B9047206A401C2062381EA7F1010730
:100F8000F3DC2046AFF30080032011B041E60000FF
:100F900001694A1C02610878704700B58FB0CDE93D
:100FA00001310021059105497944CDE9031011462D
:100FB0006846FFF73FFB0FB000BD0000E5FFFFFFF5
:100FC0000A6802F8010B0A60704710B5436913B153
:100FD000AFF3008001E0FFF7C7FA012010BD1278DF
:100FE00000F124010A7000224A700122EDE7116825
:100FF0004FF0FF32E9E70000074B70B50D467B4428
:10100000FFF7CBFF0446284600F03EFC10B14FF03E
:10101000FF3070BD204670BD8B5500002DE9FF4F9D
:1010200006468BB00878FF2806D0491C2D2805D02D
:1010300000244FF0000908E000200CE00124F8E74C
:1010400009EB8903491C00EB43090878FF28F7D115
:1010500014B1C9F100008146107800252C46AA463B
:1010600029462D2801D02B2804D1521C2D2813D01D
:10107000002082468B461078FF280FD04FF0000CDE
:101080000A21521CA5FB017804FB018105FB0C1110
:10109000C5194BEB0104EEE70120EAE70021084601
:1010A0004FF00000BAF1000F02D000EB80004008C2
:1010B000C0F38157012F01DD4FF0FF370E9955EA3C
:1010C000040009EB01080BD04FF0020918F5FA7F74
:1010D00016DA4FEACA70002F706008DD012007E0C1
:1010E0004FEACA70C6E900B00FB0BDE8F08F00202B
:1010F000306000F0ABFAC0F800901821084616E006
:10110000B8F5FA7F18DD002F02DAF748784401E0DD
:10111000F6487844D0E90010C6E9001040EACA70E9
:10112000706000F093FAC0F80090142108460FB0E8
:10113000BDE8F04F06F0EEBA002108464FF000007F
:10114000B8F10001099002DAC7F1000200E03A4666
:1011500001DAC8F1000106A800F024FB06AB93E811
:10116000070003AB83E8070044F23E005BEA04019A
:101170000090584604D144F21E012C465D46009171
:10118000210C0904014306D10099240444EA1544C2
:101190002D041039009104F07F41014306D10099DC
:1011A000240244EA15642D020839009104F07041CC
:1011B000014306D10099240144EA15742D01091F49
:1011C000009104F04041014306D10099A40044EA93
:1011D0009574AD00891E009104F00041084304D1CC
:1011E00000986D196441401E00904FF001033A468B
:1011F0006846B8F1000FCDE9014503A902DD01F011
:1012000014F901E001F0E7F8BAF1000F04460D46C9
:1012100001D084F00044002108464FF000000999F5
:1012200040F2FF77484010F00C0F07D124F0004047
:10123000284303D0C4F30A50B84212D100F006FA92
:10124000C0F80090C4F30A50B8420AD1A8487844C4
:10125000D0E90010C6E9001004F0004108437060B6
:1012600042E7C6E900543FE72DE9FF4F1F464FF024
:10127000000A4FF0FF38454691B0D7E90146CDF856
:101280003CA000F0DFF9C0680168405C1090B969CB
:1012900012986D1C8847396A814688470028F6D124
:1012A000B9F1FF3F0AD0002E24F4D06411DDB9F16A
:1012B0002B0F08D0B9F12D0F0BD102E0404615B02D
:1012C00013E744F48064B96912986D1C8847761E50
:1012D0008146600504A901D52D2000E02B20002EB9
:1012E00001F1010B0DF130088DF810003FDDB9F16F
:1012F000690F08D0B9F1490F05D0B9F16E0F02D0CE
:10130000B9F14E0F1CD13B4601A8009580E8500270
:10131000DDE912126FF0020006F065FAC11CCED1B1
:101320000EE0B96912986D1C884781461398761EA5
:1013300044F4007405600F98401C002E0F9016DDD9
:10134000B9F1300FEDD0B9F1780F02D0B9F1580FE3
:101350000DD10F9801280AD13B46CDE90054DDE9B3
:101360001212001F029606F03CFAC11CA7D1109978
:1013700089453ED144F0800406E01399681CAAF127
:10138000010A44F400740860B9696D1C1298761E55
:10139000884730288146F0D02BE01099894505D147
:1013A000200603D4761E44F0800418E0484604F07A
:1013B00076FE08B3761E0DF123018B4544F40074CC
:1013C00008D2A9F130000BF8010B200607D5AAF1CD
:1013D000010003E0200602D40AF101008246A005C4
:1013E00002D51399681C0860B96912986D1C88476A
:1013F0008146002ED1DC53E0002E51DDB9F1650F9E
:1014000002D0B9F1450F4BD1A00549D5B9696D1C82
:101410001298761E24F440748847002E81460CDD15
:101420002B2804D0B9F12D0F07D144F48074B96989
:1014300012986D1C8847761E8146E00501D52D2146
:1014400000E02B2108F8011BCDF8008021E0761E7A
:101450000DF13901884544F400740CD2A9F1300033
:1014600010F0FF0088F8000002D10099884509D9E2
:1014700008F1010806E0E00501D51E4801E042F24E
:101480000F708246B96912986D1C8847814613987F
:101490000560002E04DD484604F001FE0028D6D188
:1014A000F96912988847FF2053468BF8000088F8A6
:1014B000000000200A900B9004AA0CA90AA8FFF7CC
:1014C000ADFDA00502D46FF00100F8E614F0240F82
:1014D00012D0E0071CD13868DDE90A12031D3B6019
:1014E0000068C0E9001213E0C0680000B2680000A4
:1014F00076670000F1D8FFFF0AA9684604F0BCFD3A
:10150000E00705D13868009A011D39600068026063
:101510002846D4E6426842B1016811F8013B23B184
:10152000521EC0E90012184670470121C160881E92
:10153000704742685AB1C368016843B983688B42F7
:1015400005D0491E521CC0E90012002070474FF020
:10155000FF3070470FB4002300B589B00CA900918B
:101560000B99CB60214B7B440693214B7B44079323
:1015700004236FF00042CDE901321E4A7A446B46E3
:1015800008920246002006F02AF909B05DF814FB23
:1015900070B506464FF0FF3015460C46324686B011
:1015A0000091CDE9010169460020049004A8FFF7ED
:1015B000D1FF02460498211825B108B1084600E081
:1015C00020462860049800280DD0002A02DD0098EB
:1015D000884208D03246081B69460094CDE90104D0
:1015E00004A8FFF7B7FF06B070BD0000ABFFFFFF18
:1015F000C3FFFFFF930100004FF000020429C0F079
:10160000128010F0030C3FF461A9CCF1040CBCF182
:10161000020F18BF00F8012BA8BF20F8022BA1EB86
:101620000C01FFF753B95FEAC17C24BF00F8012B1E
:1016300000F8012B48BF00F8012B704700487047A5
:1016400020140020004870474014002000487047D4
:1016500020140020034640688C46002818BF8842AA
:101660003CBF03464068F8D318681844884207D046
:101670000CF1030020F00700001D411A521A014628
:10168000081D0A60FEF747BE30B5B0F10A024FEA06
:10169000900E71F100034EEA817EB0EB0E0061EB1B
:1016A00091014FEA101E4EEA017E10EB0E0041EB55
:1016B00011114FEA102E4EEA016E10EB0E0041EBB5
:1016C00011214FEA104E4EEA014E10EB0E0041EB95
:1016D0001141401841F100014FEAD00040EA417049
:1016E0004FEAD10110EB80054FEA810444EA90747F
:1016F00044EB01046D1944EB0404521BA3414FF069
:10170000000348BF0A3200D530BD401C41F1000142
:1017100030BD10B50446FFF76DF90068005D00F0BC
:10172000010010BD2DE9F0411F4604460326016863
:10173000072A01F4006004DB08B116A505E016A530
:1017400003E008B115A500E015A521F01000206008
:10175000A069C01EA0610FB1401EA0612046AFF37A
:1017600000804FB1D4E9012138469047206A401CDF
:101770002062C01C206206E0206AFAE7D4E9012159
:1017800015F8010B9047761EF8D22046AFF3008083
:10179000BDE8F0814E414E006E616E00494E46003C
:1017A000696E66002DE9F047814616468AB03548D5
:1017B00078440DC88DE80D0032487844801C03AC95
:1017C0000DC884E80D0041F69B300844372190FB9A
:1017D000F1F290FBF1F5A5F1800501FB12041B3C31
:1017E00002D56442012000E00020DFF898A0804686
:1017F0000027FA44AAF1BE0A0EE0E0070AD03246FA
:10180000684607EB470101230AEB810100F0F8FD70
:101810008DE8070064107F1C002CEED1194F7F4427
:10182000AE3F19E0E80715D007EB04100DF1180AD8
:1018300090E80E008AE80E00C068F04201D19819C5
:1018400008903246012306A903A800F0D9FD03AB96
:1018500083E807006D10641C002DE3D14FF00103F5
:1018600032466946B8F1000F03A802D000F09EFD91
:1018700001E000F0C5FDC9E90001C9F808200AB07F
:10188000BDE8F08714610000007B00F08000704725
:1018900010B500F063FABDE8104000F05ABA704786
:1018A0007546FFF7CBFEAE4605006946534620F06D
:1018B0000700854618B020B5FEF7ECFCBDE82040D7
:1018C0004FF000064FF000074FF000084FF0000BFC
:1018D00021F00701AC46ACE8C009ACE8C009ACE8AF
:1018E000C009ACE8C0098D46704700002DE9FF4FE4
:1018F0001F464FF03C0987B04FF00042DDE914105D
:1019000001F10108DDF858A002EA405003900020E0
:1019100005908346054604460490B969461E08981A
:101920008847AAF1010A0290BAF1000F3BDD029844
:101930002E2815D0102100F04CFA00282EDB4FF095
:10194000010B0599014317D0B9F1000F0BDB4A4693
:10195000C11700F02BFA05430C43A9F1040905E077
:10196000012004900BE008B145F00105012005902D
:10197000049820B9361D02E0049800B1361FB969F9
:10198000089808F101088847BBF1000FAAF1010A85
:101990000290C9D00999C1F80080C5E70298702863
:1019A00008D0502806D0F96908988847BBF1000F85
:1019B00014D04FE0002002900120BBF1000F0490F2
:1019C00009D0B969089808F101088847AAF1010906
:1019D000B9F1000F07DCF969089888476FF001003A
:1019E0000BB0BDE8F08F2B2804D02D280CD14FF080
:1019F000FF300490B969089808F101088847A9F1F7
:101A00000109B9F1000FE6DD411CE4D00A2100F024
:101A1000E0F90028DFDB029908F1010801EB810100
:101A200000EB41000290B969089888470A2100F04C
:101A3000D0F9099AA9F10109B9F1000FC2F80080A3
:101A400001DD0028E7DAF9690898884704990298C7
:101A500000FB016655EA040004D004F0404109008F
:101A600002D006E0039898E0A40044EA9574AD0023
:101A7000B61E04F00041080002D16D196441761EC3
:101A8000159810F0240F03D04FF00B095C4803E0C9
:101A90004FF028096FF07D008246564507DAAAEB21
:101AA00006018944B9F1410F01DD4FF041090120E0
:101AB0000021A9F1010200F079F9024628400B4605
:101AC0002140084301D0012100E00021501E029175
:101AD00043F1FF3128402140084301D0012000E0BC
:101AE00000200299834651EA0B014FD0002108469D
:101AF0004FF00000039900F4400039B100EB800082
:101B00004FF4400100EBD07001EA6000801501281D
:101B100002DD4FF0FF3000E013D0401C36D00298B9
:101B200060B3BBF1000F0CD14A460120002100F048
:101B30003DF928402140084301D0012000E0002069
:101B4000E0B101204A46002100F030F90346401977
:101B50000A4661412D1A8C4111D3B9F1400F09DDBC
:101B6000159810F0240F02D0AAF1340603E0AAF170
:101B7000170600E0761C00254FF0004406E05B1ECF
:101B800042F1FF3220EA030521EA0204CAF1010012
:101B9000B04206DA1B4903980843019000200090E8
:101BA0000EE0039AC4F3D321E80A0A43164940EA37
:101BB00044500A433146CDE90002684604F065FA14
:101BC000159810F0240F0BD01598C00715D1386860
:101BD000DDE90012031D3B600068C0E900120CE063
:101BE00002A8694604F048FA1598C00705D138687C
:101BF000029A011D3960006802604046F0E600006C
:101C000002FCFFFF0000F07F0000F03F2DE9FF4FD6
:101C100092461D4685B04FF00041DDE9124BDDE9EB
:101C200014727F1E01EA4B50414940F0FF4940EADF
:101C30000108002122F020004928049102D04E28FA
:101C400028D04CE03BA0012607C88DE80700A96911
:101C50000698641C88477F1E014606D41DF80600BE
:101C600018B121F0200181420BD0E969069888471C
:101C7000032E34D0082E32D06FF0010009B0BDE839
:101C8000F08F761C032E01D0082EE0D1601CCAF81C
:101C90000000DCE7A9690698641C88477F1E2AD4E7
:101CA00020F02000412826D1A9690698641C8847A5
:101CB0007F1E20D420F020004E281CD1A969069850
:101CC000641C88477F1E48F4002849F48009CAF83C
:101CD000004001D4282806D0E969069888475FEAC1
:101CE000CB7012D022E0A9690698641C88477F1E39
:101CF00001D4002803DAE96906988847BCE7292857
:101D0000F1D1641CCAF80040E9E71BF0240F07D0AA
:101D100028680499031D2B600068C0E9001805E0DD
:101D20002868021D2A600068C0F800902046A5E7D8
:101D30000000F07F494E46494E49545900000000CA
:101D400010B50446AFF300802046BDE81040FEF712
:101D500084BA002801D004F0A9B9704710B5012851
:101D600005D0002103A000F042F8012010BD09A118
:101D7000F8E7000053494752544D454D3A204F75FE
:101D800074206F662068656170206D656D6F727973
:101D9000000000003A2048656170206D656D6F722B
:101DA0007920636F7272757074656400B2F12003FC
:101DB0000AD5C2F1200301FA02F120FA03F300FA76
:101DC00002F041EA0301704700FA03F14FF000000E
:101DD00070473A2800D2303820F02002412A01D33F
:101DE000A2F13700884201D34FF0FF30704770B541
:101DF00005460C460A2000E06D1C00F011F835B1D4
:101E000028780028F8D102E0641C00F009F814B129
:101E100020780028F8D1BDE870400A20AFF3008098
:101E200008B569468DF800000320ABBE08BD5FEA27
:101E3000400C08BF91F0000F4FEA8C234FEAC122FB
:101E400043EA51514FEA1C5018BF00F5F0404FEAE9
:101E5000300018BF41F000415FEA6C5C00F029805F
:101E6000BCF1FF3F08BF40F080407047130C06BF35
:101E700012044FF0100C4FF0000C130E04BF1202AE
:101E80000CF1080C130F04BF12010CF1040C930F9A
:101E900004BF92000CF1020CD30F04BF52000CF1EE
:101EA000010C11464FF00002A0F11F00A0EB0C0046
:101EB000704711F0004F08BF704731F000413FF408
:101EC000D5AF0B0C06BF09044FF0100C4FF0000CFF
:101ED0000B0E04BF09020CF1080C0B0F04BF090123
:101EE0000CF1040C8B0F04BF89000CF1020CCB0F1A
:101EF00004BF49000CF1010CCCF12003A0EB0C0055
:101F000022FA03F302FA0CF241EA030100F10100A4
:101F1000704720F07F4C80EA030023F07F47ACEB52
:101F2000070303F57C5300F0004003F1FF032DE9A4
:101F300080494FEA154B09B44FEA144325EA0B4E8A
:101F400024EA03480FF2042606EB132749083E78DB
:101F50005FEA320203FB0667C7F5000707FB06F6D8
:101F60004FEA54374FEAD64606F1020607FB066CE5
:101F7000CCF1005C4FEA1C472CEA074C07FB06F447
:101F80000CFB06F504EB15464FEA961634BF00200D
:101F90004FF000404FEAD13706FB07FC4FEA1C4CDC
:101FA0000CFB0BF7D21B03FB0CF761EB07010CFBDF
:101FB0000EF7B0EB074072EB17420CFB08F734BF8B
:101FC000A2EB0742B2EB074261EB17414FEA0C4428
:101FD0004FEA910706FB07FC4FEA1C4C0CFB0BF782
:101FE000B0EBC74072EB573203FB0CF734BFA2EBE8
:101FF000C742B2EBC74261EB57310CFB0EF7B0EBB7
:10200000C70072EB57720CFB08F734BFA2EBC70294
:10201000B2EBC70261EB5771039F4FEA816141EA5E
:10202000921104EBCC044FEAD1374FEA826206FBEF
:1020300007FC42EA90124FEA80604FEA1C4C0CFB0E
:102040000BF7D21B03FB0CF761EB07010CFB0EF740
:10205000B0EB074072EB17420CFB08F734BFA2EB62
:102060000742B2EB074261EB17414FEA8C554FEA4A
:10207000910704EB9C2406FB07FC4FEA1C4C0CFB6D
:102080000BF7B0EBC74072EB573203FB0CF734BFD2
:10209000A2EBC742B2EBC74261EB57310CFB0EF724
:1020A000B0EBC70072EB57720CFB08F734BFA2EB22
:1020B000C702B2EBC70261EB577115EB4C254FEA33
:1020C000816141EA92114FEA82624FEAD13742EAD6
:1020D000901206FB07FC44F100044FEA80604FEACF
:1020E0001C4C0CFB0BF7D21B03FB0CF761EB07013D
:1020F0000CFB0EF7B0EB074072EB17420CFB08F736
:1021000034BFA2EB0742B2EB074261EB174115EB7C
:102110001C154FEA813141EA92414FEA823242EA8C
:1021200090424FEA80304FEA0C7644F1000448EACE
:1021300003434EEA0B484FF0000EB2EB080C71EB74
:10214000030724BF624639464EEB0E0E4FF0000BDC
:102150000018524149414BEB0B0BB2EB080C71EBF1
:1021600003077BF1000B24BF624639464EEB0E0E8F
:102170004FF0000B0018524149414BEB0B0BB2EBF7
:10218000080C71EB03077BF1000B24BF6246394654
:102190004EEB0E0E51EA020718BF46F0010616EB91
:1021A0000E7655F1000254F1000103D5BDE8890116
:1021B000BDE80088BDE88901BDE80048B619524174
:1021C00041EB0101A3F10103704780807F7E7D7C9C
:1021D0007B7A7978777676757473727171706F6EB9
:1021E0006E6D6C6C6B6A6A69686867666665646464
:1021F000636362616160605F5F5E5E5D5D5C5C5BEE
:102200005B5A5A595958585757565655555554545C
:10221000535352525251515050504F4F4F4E4E4DBA
:102220004D4D4C4C4C4B4B4B4A4A4A494949484806
:102230004847474747464646454545444444444346
:1022400043434342424242414141000046EA06467E
:10225000A3F570534FEA164646EA42564FEAD22299
:1022600042EA415210B54FEAD121A3F1010300F037
:102270002FF820F0004000F1020C00F0004701EBC5
:1022800000501146BCF5006F40EA070000D210BDB7
:10229000BAF1000F0AD01CB503B44FF004004FF0A0
:1022A00004014FF000000FBCBDE810404FF00001EA
:1022B000BBF1010FB9BF04484FF0FF3103480021C3
:1022C00040EA070010BD00BFFFFFEF7F0000F07F76
:1022D000002B9C4630D477002BD01CB54FEA370733
:1022E00003B44FF010004FF01001BAF1000F06D008
:1022F000BCF1000FDCBF40F0080040F008014FF0D7
:1023000000000FBCBDE810400BF1010BBBF1010F49
:1023100008BF5FEA170722BF12F1010211F10101A4
:102320004FF0004143F1000300F0004043EA000099
:102330007047F9D35708D0E746EA064613F1400F35
:102340004FEA16461FDD13F1200FDFBF16430A4682
:10235000002120335B42BED0C3F1200746EA064687
:1023600002FA07F74FEA164646EA0706C3F12007C6
:1023700022FA03F201FA07F721FA03F14FF0000302
:1023800042EA0702A7E746EA020646EA06464FEA9D
:10239000164646EA0106BCBF46EA0646360C4FF032
:1023A00000034FF000024FF0000194E72DE9804C4C
:1023B0009A46934670B491E8380007C831EA400C59
:1023C00048BF34EA430C03D5FFF7A3FDFFF780FFB6
:1023D000F0BCBDE8008C2DE9804C9A46934670B461
:1023E00091E8380007C831EA400C48BF34EA430C92
:1023F00003D5FFF78EFDFFF729FFF0BCBDE8008C89
:102400002DE9804C9A46934670B491E8380007C88D
:1024100010F0804F08BF13F0804F03D100F01AF87E
:10242000FFF756FFF0BCBDE8008C2DE9804C9A46C2
:10243000934670B491E8380007C810F0804F08BF89
:1024400013F0804F03D100F005F8FFF7FFFEF0BC5A
:10245000BDE8008C20F07F4780EA030023F07F4C2A
:1024600007EB0C03A3F57C5300F00040A3F1FE033F
:1024700092F0000F00F0B38095F0000F00F077802D
:102480002DE901494FEA11404FEA144621EA00487C
:1024900000FB06FC24EA064708FB06F607FB08F8E3
:1024A00000FB07F718EB06484CEB164C4FEA124BB3
:1024B00018EB07484FEA15464CEB174022EA0B4E43
:1024C0000BFB06FC25EA06470EFB06F607FB0EFE95
:1024D0000BFB07F71EEB064E4CEB164C4FF00006BD
:1024E0001EEB074E4CEB174B18EB0B0840F10000AE
:1024F00018EB0E0B58EB000840F100008F1A4FF05C
:1025000000013CBFC943661B14BFB5EB040C00219E
:102510003CBFC943F61B4FEA17444EEA8E0E27EA2A
:1025200004454FEA1C4704FB07622CEA074C05FBF5
:1025300007F70CFB05F604FB0CFC16EB074642EB19
:10254000174216EB0C4642EB1C421BEB060658EBFF
:102550000202414146EA9E0601D5BDE80189B6194D
:10256000524141EB0101A3F10103BDE801894FEAAA
:1025700014454FEA114724EA054621EA074C05FBBA
:1025800007F406FB07F70CFB06F105FB0CFC11EB4F
:10259000074144EB17444FEA124711EB0C4144EB5F
:1025A0001C4422EA074C05FB07F206FB07F70CFB6D
:1025B00006F605FB0CFC16EB074642EB174216EB42
:1025C0000C4642EB1C456A1854F1000148BF7047A5
:1025D000B619524141EB0101A3F10103704795F097
:1025E000000F37D04FEA11424FEA144721EA024662
:1025F00024EA074C02FB07F106FB07F70CFB06F485
:1026000002FB0CFC14EB074441EB17414FEA154762
:1026100014EB0C4441EB1C4125EA074C02FB07F587
:1026200006FB07F70CFB06F602FB0CFC16EB074655
:1026300045EB174516EB0C4645EB1C42121951F1C0
:10264000000148BF7047B619524141EB0101A3F1A7
:10265000010370474FEA14454FEA114724EA054643
:1026600021EA074C05FB07F106FB07F70CFB06F216
:102670004FF0000605FB0CFC12EB074241EB174143
:1026800012EB0C4251EB1C4148BF7047921841EBD2
:102690000101A3F101037047044A014600201278AA
:1026A000012A02D10248FEF761B8704700000020FD
:1026B0007005002070B5144600250E460246FF281E
:1026C00007D8194801684906FCD51748001D026063
:1026D00001E004F03FFD002E23D0002C21D0134D4B
:1026E000641E2404240C1BD0322003F0C9FD28787A
:1026F0000128F5D103F086FA3046FFF7CDFF0C49EB
:1027000038B10CA0FDF70EFF094803F09FFD002033
:1027100070BD14A0FDF706FF054803F097FDDFE745
:102720000125284670BD0000004400400000002044
:1027300070050020E4B8B2E58FA332E68EA5E694DA
:10274000B628E69C9FE5BE85E79A84E5BA94E7AD96
:1027500094E7BB93E69E9C29EFBC9A5C720A2573B2
:1027600000000000E4B8B2E58FA332E68EA5E6943F
:10277000B628E4B88DE698AFE69C9FE5BE85E79A5B
:1027800084E5BA94E7AD94E7BB93E69E9C29EFBC41
:102790009A5C720A2573000070B50D46064602F079
:1027A000FBFE08B117A003E002F0F4FA20B11AA072
:1027B000FDF7B8FEFF2070BD2B461FA223A13046B7
:1027C00003F034FF0028F6D00020286222A0FDF795
:1027D000A9FE012405E02A463146204603F070FD9B
:1027E000641CA869A042F6DAA969286A8842E2D185
:1027F00025A0FDF797FE03F0D5FF2E4804F010F852
:1028000070BD00004243323630E7A1ACE4BBB6E510
:10281000BC82E5B8B80D0A004D515454E8BF9EE69D
:102820008EA5E5A4B1E8B4A5E7A1ACE4BBB6E5BCD0
:1028300082E5B8B80D0A00004D4E383038303830D7
:1028400038303830303030330000000061315356BA
:102850007553616956424B00E6A380E6B58BE58867
:10286000B0E696B0E59BBAE4BBB6EFBC8CE5BC80A5
:10287000E5A78BE4B88BE8BDBDE696B0E59BBAE46E
:10288000BBB60D0A00000000E696B0E59BBAE4BBBB
:10289000B6E69BB4E696B0E5AE8CE6AF95EFBC8CA1
:1028A000E590AFE58AA8415050E7A88BE5BA8F0DB7
:1028B0000A00000000000408FEE70000014800F0E4
:1028C000D3B90000400B0020014800F0CDB9000052
:1028D000A00B0020014800F0C7B90000800A0020CA
:1028E000014800F0C1B90000E00A00200168182387
:1028F000CAB2103AB2FBF3F2054B6FF30901032A97
:102900009B5CC36500D9091D8165084670470000BE
:102910001A78000810B5014600208B698A6A4FF0CA
:10292000C07453B1B3F5005F15D072B1012A0CD059
:10293000022A0AD0032A09D104E01AB1012A06D0DA
:10294000022A03D1C96AC90100D5012010BDC96A94
:10295000A142FAD010BD002AF7D0012AF2D0022AF3
:10296000F3D0032AF3D010BD30B50468256825F4F0
:1029700080252560046863608368402B036803D06A
:1029800099600068C26030BD9A600068C16030BD67
:10299000704772B6FEE70000002229B101291AD063
:1029A00002291BD04FF440720E490B6823F4407388
:1029B0000B600B6813430B600A6822F0F8020A6090
:1029C0000A68022303EBC00002430A60086840F46F
:1029D0008030086070474FF48072E5E74FF4007272
:1029E000E2E70000103C02401348016889050FD55A
:1029F000016821F400710160016841F40061016027
:102A0000016821F400610160016841F40071016016
:102A1000016849050FD5016821F4806101600168F2
:102A200041F480510160016821F480510160016826
:102A300041F4806101607047003C024008490A6827
:102A400022F440720A600A6842F004020A600A68CE
:102A50004FF4803343EA002002430A6070470000CD
:102A6000103C0240064A136823F440731360136855
:102A70001360136843F00103136001707047000096
:102A8000103C0240094910B50C6824F440740C60F5
:102A90000C6844F440740C600C6844F001040C6051
:102AA0000260BFF36F8F436010BD0000103C024016
:102AB000074A136823F440731360136843F4807368
:102AC0001360136843F00103136001807047000036
:102AD000103C0240074A136823F4407313601368E4
:102AE00043F400731360136843F001031360016043
:102AF00070470000103C024017490868C20617489A
:102B000005D5C26942F01002C26110220A600A684B
:102B1000920605D5C26942F00802C26120220A600D
:102B20000A68520605D5C26942F00402C261402219
:102B30000A600A68120605D5C26942F00202C26143
:102B400080220A600A68920705D5C26942F0200215
:102B5000C2610220086070470C3C02400014002053
:102B600070B5114904460020C86100F087FB054696
:102B70000E4E09E0601C07D024B100F07FFB401B23
:102B8000A04201D9032070BD3068C003F2D4306880
:102B9000C00701D001203060306810F0F200F2D0A0
:102BA000FFF7AAFF012070BD001400200C3C02407A
:102BB0002DE9F0410446876D00F060FB054694F86E
:102BC00035000026022806D08020606584F8346035
:102BD0000120BDE8F0812068016821F01601016044
:102BE0002068416921F080014161206C08B9A06C26
:102BF00020B12068016821F00801016020680168A7
:102C000021F0010101600CE000F038FB401B0528B9
:102C100007D920206065032084F8350084F83460EB
:102C2000D7E720680068C007EED194F85C103F2019
:102C30008840B860012084F8350084F834600020B2
:102C4000C7E790F83510022903D0802141650120A3
:102C50007047052180F835100068016821F00101F6
:102C600001600020704700002DE9F84304464FF052
:102C70000009CDF8009063484FF41651A56D006827
:102C8000B0FBF1F72E6894F85C20082101FA02F0FD
:102C900030420FD02068026852070BD5026822F03C
:102CA0000402026094F85C008140A960606D40F00D
:102CB0000100606594F85C104FF0010808FA01F01B
:102CC000304208D021684969090604D5A860606DC2
:102CD00040F00200606594F85C10042088403042A7
:102CE00008D021680968890704D5A860606D40F0A4
:102CF0000400606594F85C1010208840304218D0C1
:102D000021680968090714D5A8602068016849038B
:102D100004D50068000308D5A16C07E00168C90567
:102D200003D4016821F008010160216C09B120463B
:102D3000884794F85C1020208840304231D02168C8
:102D40000968C9062DD5A86094F8350005282068C3
:102D5000016806D0490347D5006800031DD4616CA3
:102D60001CE021F0160101602068416921F080011A
:102D70004161206C08B9A06C20B12068016821F085
:102D80000801016094F85C103F208840A86084F836
:102D9000358084F83490216D1FE0E16B09B1204645
:102DA0008847606D00282BD0606DC00714D00520C7
:102DB00084F835002068016821F001010160009865
:102DC000401C0090B84203D820680068C007F6D1C4
:102DD00084F8358084F83490E16C002910D001B07B
:102DE0002046BDE8F04308470168C905D5D401680D
:102DF00021F01001016084F8358084F83490CCE72C
:102E0000BDE8F8833C0000202DE9F041044600F0C5
:102E100035FA05465CB1022084F83500002684F8B6
:102E200034602068016821F0010101600DE001209B
:102E3000BDE8F08100F022FA401B052805D92020CA
:102E40006065032084F83500F2E720680068C00759
:102E5000F0D121680A6820480240D4E901031843F0
:102E6000D4E903352B43184363691843A369184316
:102E7000E3691843236A18431043626A042A03D1A2
:102E8000D4E90B231A431043086020684069656A3F
:102E900020F0070128460D43012704280CD1A06A21
:102EA0000543E06A40B12046FFF734FD20B14020E1
:102EB000606584F83570BAE7206845612046FFF701
:102EC00015FD94F85C203F2191408160666584F88F
:102ED00035700020ACE700003F8010F02DE9F04194
:102EE0000446866D90F83400002501280DD001209D
:102EF00084F8340094F835700020012F07D084F84E
:102F0000340002252846BDE8F0810220FBE70227B5
:102F100084F8357060652046FFF726FD94F85C1054
:102F20003F208840B0602068016841F016010160D0
:102F3000206C20B12068016841F008010160206820
:102F4000016841F001010160DCE700002DE9F04774
:102F5000044622480E46017E01290AD001218046FE
:102F600001764CF250394846FFF7FAFD020003D0D3
:102F70002FE00220BDE8F0874FF0FF30306020687E
:102F8000174F012801D0A5681CE0207C6168FFF77D
:102F900055FD4846FFF7E4FD0246386820F004007E
:102FA000386014E0217C2846FFF7F6FC4846FFF71E
:102FB000D7FD0200386820F0FA00386001D0356093
:102FC00005E06D1CD4E902100844A842EAD8FFF7D6
:102FD0000BFD002188F818101046CBE700140020E4
:102FE000103C02400348016841F0004101600020AC
:102FF00070470000103C02402DE9F0471B4E05468B
:103000001446307E1F468946012808D001203076BC
:103010004CF250384046FFF7A3FD18B114E00220EF
:10302000BDE8F0879DB1012D16D0022D19D02246A2
:103030003B464846FFF726FD4046FFF791FD0C4909
:103040000A6822F001020A6000213176E8E7E1B265
:103050004846FFF707FDEFE7A1B24846FFF728FD16
:10306000EAE721464846FFF735FDE5E70014002072
:10307000103C0240074900200A68002A09DA054A84
:10308000054B0C3A1360054B13600968002900DA00
:1030900001207047103C024023016745AB89EFCD0A
:1030A0002DE9F84FDFF89C910022A9F1040B0327CA
:1030B0004FF00F0C09F1040AABF1040E01250B6867
:1030C00095402B40AB426ED10C7904F00304012CE7
:1030D00001D0022C15D18668540007FA04F826EABC
:1030E0000806D1F80C8008FA04F848EA0608C0F887
:1030F00008804468AC430D79C5F30015954025431D
:1031000045600C79E443A40708D0C568540007FA69
:1031100004F6B5438E68A6402E43C6600C7904F0D1
:103120000304022C11D1D40800EB8406356A54073D
:10313000E40E0CFA04F825EA0805D1F8108008FA24
:1031400004F848EA0508C6F820800568540007FA24
:1031500004F6B5430E7906F00306A6402E4306603A
:103160004C6814F4403F66D0374C256845F48045E0
:103170002560246822F0030504F480440094334C55
:1031800005EB0408D8F808589407260F0CFA06F443
:10319000A5432F4CA04201D1002424E02D4CA04295
:1031A00002D101241FE046E02B4CA04201D10224B1
:1031B00019E02A4CA04201D1032414E0284CA0427B
:1031C00001D104240FE0274CA04201D105240AE0DC
:1031D000254CA04201D1062405E0244CA04201D197
:1031E000072400E00824B4402C43C8F80848D9F864
:1031F00000404D464E689C43F60200D51C432C60AF
:10320000DAF8004055464E689C43B60200D51C4390
:103210002C60DBF800405D464E689C43B60300D549
:103220001C432C60DEF8004075464E689C43F60354
:1032300000D51C432C60521C102AFFF43FAFBDE8A0
:10324000F88F0000083C0140443802400030014043
:10325000000002400004024000080240000C02404E
:10326000001002400014024000180240001C0240FE
:103270000AB1816170470904FBE7000001488068DA
:103280007047000030000020024881680278114435
:1032900081607047300000200B4810B5016841F490
:1032A00000710160016841F480610160016841F4CE
:1032B00080710160032000F07FF80F2000F006F815
:1032C00000F024F8002010BD003C024070B50D4D08
:1032D00004464FF47A712878B1FBF0F00A49096886
:1032E000B1FBF0F000F0A9FD48B9102C07D2002284
:1032F0002146501E00F040F800206C6070BD012097
:1033000070BD0000300000203C0000200A4808B5D5
:10331000016841F480410160006800F48040009041
:103320000548001F016841F080510160006800F00D
:103330008050009008BD00004438024000280DDB9A
:1033400000F01F02012191404009800000F1E020BF
:10335000C0F88011BFF34F8FBFF36F8F7047002805
:1033600009DB00F01F02012191404009800000F1BB
:10337000E020C0F800117047F0B40E4B1B68C3F397
:103380000223C3F10704042C00D904241D1D072DBA
:1033900001D2002300E0DB1E012606FA04F56D1EB3
:1033A0000D409D409E40761E164045EA0601F0BC49
:1033B00002F01EBD0CED00E0064A00F007011068A7
:1033C0004FF6FF03184040EA01200349084310600C
:1033D000704700000CED00E00000FA052DE9F8430D
:1033E000044600684FF00109C1074FF0000501D104
:1033F000400726D5DFF80C81C8F86850FFF73EFF7C
:103400000646414F04E0FFF739FF801B022857D8DA
:1034100038680001F7D46068217A800140EA0170C1
:10342000394984310860C8F86890FFF727FF0646DD
:1034300004E0FFF723FF801B022841D83868000111
:10344000F7D52078800752D52F484030016841F0E9
:103450008051016000682D4F00F080500090386866
:1034600040F480703860FFF709FF064604E0FFF77C
:1034700005FF801B022823D83868C005F7D5224EE7
:103480007036306810F4407020D0A18901F440718A
:1034900081421BD030681E4920F44070C1F8009072
:1034A0000D6030603068C00710D0FFF7E7FE0546BA
:1034B00041F2883707E0FFF7E1FE401BB84202D92E
:1034C0000320BDE8F88330688007F4D5E0680E4932
:1034D000C0F301220831032A0BD0086820F4F81049
:1034E00008603068A189C1F30B01084330600020F7
:1034F000E7E70A68074B22F4F812184002430A6013
:10350000EFE7000000004742003802400070004032
:10351000400E4742FFFCFF0F2DE9F0470D46040027
:1035200065D0DFF81491D9F80000EFB200F0070081
:10353000A84207D289F80070D9F8000000F007000F
:10354000A84254D120683D4E810712D5400703D5CB
:10355000306840F4E05030602078000703D53068D0
:1035600040F4604030603068A16820F0F00008430B
:1035700030602078C0072DD03049606808390128B4
:1035800012D0022813D0032811D009688907002916
:103590002DDA316821F0030101433160FFF76EFE3F
:1035A000804641F2883A0EE009688903EFE709682E
:1035B0008901ECE7FFF762FEA0EB0801514502D953
:1035C0000320BDE8F0873068616800F00C00B0EBC4
:1035D000810FEFD1D9F80010484601F00701A94248
:1035E00007D90770006800F00700A84201D0012049
:1035F000E7E72078400705D53068E16820F4E0501F
:10360000084330602078000706D53068216920F42F
:10361000604040EAC100306000F038F83168084A84
:10362000C1F30311515CC8400649086006480068B0
:10363000FFF74CFE0020C4E7003C0240083802407F
:10364000227800083C00002034000020044805498E
:1036500000680968044AC1F38221515CC840704780
:103660003C00002008380240327800080448054930
:1036700000680968044AC1F34231515CC840704790
:103680003C0000200838024032780008154810B588
:10369000006810F00C01144813D0431004290FD017
:1036A00008290ED10F4C241F216801F03F02216828
:1036B000490207D52068C0F38810A0FB030106E08B
:1036C000184610BD2168C1F38811A1FB0001002339
:1036D000FCF7A4FE2168C1F30141491C4900B0FB7D
:1036E000F1F010BD083802400024F4002DE9F84F35
:1036F000040075D02078DFF838A3C007AAF10405CC
:1037000048D00AF104000168C1F38101012908D001
:103710000068C0F3810002280AD1DAF800004002F4
:1037200006D52868800335D560680028E1D031E0EF
:103730006068B0F5803F10D0B0F5A02F286810D099
:1037400020F480302860286820F480202860606899
:10375000A0B1FFF793FD06460CE0286840F48030E6
:10376000F4E740F480202860F7E7FFF787FD801B2F
:10377000642871D828688003F7D50BE0FFF77EFD39
:10378000064604E0FFF77AFD801B6428F1D828681C
:103790008003F7D42078DFF89C9280074FF0000B6D
:1037A0003DD5A348001D016811F00C0F08D000683A
:1037B000C0F3810002280AD1DAF80000400206D4E2
:1037C0002868800715D5E068012809D111E0E06874
:1037D000B8B10120C9F80000FFF750FD064605E02A
:1037E00022E1FFF74BFD801B0228C2D82868800722
:1037F000F7D52868216920F0F80040EAC100286068
:103800000DE0C9F800B0FFF739FD064604E0FFF708
:1038100035FD801B02281FD828688007F7D4207840
:10382000000722D5824F84486169703771B1012148
:103830000160FFF723FD064604E0FFF71FFD801B34
:10384000022809D838688007F7D50EE0C0F800B024
:10385000FFF714FD064605E082E0FFF70FFD801B31
:1038600002287DD838688007F7D42078400765D5CE
:103870006F484FF000083C300068C0000BD46C4823
:103880003C30016841F08051016000684FF0010850
:1038900000F080500090694F3868C0050FD4386838
:1038A00040F480703860FFF7E9FC064604E0FFF75B
:1038B000E5FC801B022853D83868C005F7D55C4F5B
:1038C000A0686C3701280FD00528386810D020F088
:1038D00001003860386820F004003860A068B0B19A
:1038E000FFF7CCFC06460EE0386840F00100F4E734
:1038F00040F004003860F7E7FFF7C0FC811B41F29D
:103900008830814263D838688007F5D50DE0FFF72D
:10391000B5FC064606E0FFF7B1FC811B41F288309A
:10392000814254D838688007F5D4B8F1000F05D02B
:103930003F483C30016821F080510160A069B8B374
:103940003B49091D0968C1F38101022946D00228BB
:10395000584606D0C9F86000FFF790FC044639E0ED
:1039600035E04F46C9F86000FFF788FC064604E0E2
:10397000FFF784FC801B022829D828688001F7D42F
:10398000D4E907010843A16A2D4A490802EB014125
:10399000626A41EA8211084394F82C1040EA0161FE
:1039A000CAF8001001203866FFF768FC044605E0FD
:1039B0003CE0FFF763FC001B022808D82868800160
:1039C000F7D533E0FFF75AFC001B022802D9032089
:1039D000BDE8F88F28688001F4D427E00128F7D0EB
:1039E000DAF80000E26900F4800191421CD1226AF9
:1039F00000F03F01914217D147F6C071626A014061
:103A0000B1EB821F10D1A26A4FF0FF3300F44031B6
:103A100003EB5202B1EB024F06D194F82C1000F0E8
:103A20007060B0EB016F01D00120D1E70020CFE73B
:103A30000438024000004742800E474200700040B8
:103A40000000FFFF10B5040002D0607F10B106E057
:103A5000012010BD00202077204600F039F8022018
:103A600060772168CA204862216853204862204656
:103A700001F02AFB30BB20688168144A1140816044
:103A80002068816862681143D4E904231A43114312
:103A900081602168E068086120680169228941EA43
:103AA00002410161204601F032FB58B921680A6CDD
:103AB00022F480220A6421680A6CA3691A430A640A
:103AC000012161772268FF21516210BDBFFF8FFF86
:103AD0001FB50021009101910291039100680849EE
:103AE00088420CD102200090C00103906846FFF785
:103AF00075FC08B1FEF74DFF0249012008601FBDAB
:103B0000002800403C0E474270B505460068C16879
:103B100021F0A001C160FFF7B1FB04464FF47A76B3
:103B200006E0FFF7ABFB001BB04201D9032070BDDC
:103B30002868C0688006F4D5002070BD70B5040008
:103B400009D0606A002540B125616561A56294F8DD
:103B5000510040B10CE0012070BD6068B0F5827F7B
:103B6000F4D0E561F2E784F85050204600F044F8C4
:103B7000022084F851002068016821F040010160B2
:103B8000A088218900F4827001F404410843A189CE
:103B900001F400610843217C01F002010843217D0A
:103BA00001F001010843218B01F400710843217FDA
:103BB00001F03801084394F8201001F08001084317
:103BC000218D01F40051084321680860A069042197
:103BD00001EA104094F8241001F010010843216814
:103BE00048602068C16921F40061C16165650120F8
:103BF00084F85100002070BD10B586B00446142131
:103C00006846FCF761FE13492068884220D11248BB
:103C10000021026842F480520260006800F4805083
:103C200005900D481438026842F0020202600068F4
:103C300000F002000590382000900220CDE901013B
:103C4000032003900520049069460448FFF728FAF2
:103C500006B010BD0030014044380240000402406C
:103C60002DE9F84F044690F8500001250A9E1F46A2
:103C700092468B464FF0000801280ED0012084F8B0
:103C80005000FFF7FBFA814694F851006168012863
:103C90000CD0B1F5827F07D102E00220BDE8F88F99
:103CA000A16809B9042801D00220B6E0BBF1000FD9
:103CB00027D0BAF1000F24D01FB394F85100042884
:103CC00002D0052084F8510000206065C4F838A0B7
:103CD000E787A787C4F830B0E786A78620646064CA
:103CE00020680168490603D4016841F04001016081
:103CF000E068B0F5006F606805D0E8B3012F43D0ED
:103D000079E0012089E008B1012F34D1206B2168CE
:103D10000088C860206B801C2063E08E401EE08617
:103D200029E02068816889070DD5E18E59B1012D00
:103D300009D1216B0988C160206B801C2063E08E53
:103D4000401EE086002520688168C9070BD0E18FFE
:103D500049B1C068A16B0880A06B801CA063E08F94
:103D6000401EE0870125FFF789FAA0EB0900B04269
:103D700001D3701C50D100E006E0E08E0028D0D1C5
:103D8000E08F0028CDD13CE0206B216800780873DB
:103D9000206B401C2063E08E401EE0862BE02068F4
:103DA000816889070DD5E18E59B1012D09D1216BAB
:103DB00009780173206B401C2063E08E401EE08672
:103DC000002520688168C9070BD0E18F49B1C06820
:103DD000A16B0870A06B401CA063E08F401EE087C1
:103DE0000125FFF74BFAA0EB0900B04202D3701C8B
:103DF00001D011E086B1E08E0028D0D1E08F0028FC
:103E0000CDD14A463146204601F0A6F938B12020EE
:103E10004FF00108606508E00320804605E0A068D7
:103E200018B92068C16880680090012084F85100AA
:103E3000002084F85000404630E710B5401EB0F135
:103E4000807F01D3012010BD4FF0E02460610F217D
:103E5000601701F0CDFF0020A06107202061002045
:103E600010BD70477047000070B590F83C20012AE3
:103E700032D0012580F83C50022280F83D200268B3
:103E80005368946823F070060B6833435360134BF8
:103E900002689A4214D0B2F1804F11D0104B9A426E
:103EA0000ED0104B9A420BD00F4B9A4208D00F4BBA
:103EB0009A4205D00E4B9A4202D00E4B9A4204D140
:103EC000496824F080031943916080F83D50002137
:103ED00080F83C10084670BD022070BD0000014013
:103EE0000004004000080040000C004000040140B5
:103EF000004001400018004010B5040003D094F8C1
:103F00003D0010B107E0012010BD002084F83C0006
:103F1000204600F01FF8022084F83D00211D206893
:103F200001F0A0FA012084F8460084F83E0084F8ED
:103F30003F0084F8400084F8410084F8420084F88F
:103F4000430084F8440084F8450084F83D000020D4
:103F500010BD000008B50068144A154990420ED102
:103F6000086840F0040008600868002200F00400BF
:103F7000009011461E20FFF7FFF91E2010E00D4AA9
:103F8000904211D1086840F00800086008680022DB
:103F900000F00800009011463220FFF7EDF93220C2
:103FA000BDE80840FFF7DBB908BD0000000800408D
:103FB00040380240000C004070B5044690F83C00C8
:103FC0000025012817D0012684F83C60022084F8DF
:103FD0003D002068826822F0770222F47F428260EE
:103FE0000868502838D00DDC20284FD005DC90B36D
:103FF000102811D14AE0022070BD302846D0402858
:104000000AD13BE060282FD070280DD0B0F5805F3A
:1040100003D0B0F5005F12D0012584F83D60002088
:1040200084F83C00284670BDCB68D1E901212068A6
:1040300001F07CFA2068816841F0770109E0CB68E3
:10404000D1E90121206801F071FA2068816841F40A
:1040500080418160E1E719E0CA684968206801F0A1
:1040600077FA5021206806E0CA684968206801F0A4
:1040700080FA6021206801F063FACEE7CA684968D7
:10408000206801F065FA40212068F4E722680146C3
:104090001046F0E7704770B50446006801694FF0BC
:1040A0000005C943890715D4C168C943890711D4DC
:1040B000E91E016101202077206880698007204681
:1040C00002D0FFF7E7FF04E000F098F8204600F088
:1040D00096F8257720680169C943490717D4C16854
:1040E000C943490713D46FF004010161022020770E
:1040F0002068806910F4407F204602D0FFF7CAFF95
:1041000004E000F07BF8204600F079F8257720687D
:104110000169C943090716D4C168C943090712D404
:104120006FF008010161042020772068C0698007D2
:10413000204602D0FFF7AEFF04E000F05FF8204613
:1041400000F05DF8257720680169C943C90617D4D6
:10415000C168C943C90613D46FF01001016108207A
:1041600020772068C06910F4407F204602D0FFF716
:1041700091FF04E000F042F8204600F040F8257777
:1041800020680169C943C90708D1C168C943C90783
:1041900004D1891E0161204600F032F820680169CF
:1041A000C943090609D4C168C943090605D46FF09B
:1041B000800101612046FFF754FE20680169C94370
:1041C000490609D4C168C943490605D46FF04001C6
:1041D0000161204600F015F820680169C94389068D
:1041E0000BD4C168C943890607D46FF0200101616F
:1041F0002046BDE87040FFF735BE70BD7047704780
:1042000070477047704710B504460068406994F8DD
:104210003D10C0F3C010212911D180B120681430A5
:1042200050E8001F21F0800140E80012002AF5D17B
:10423000606B08B1FEF7BCFC204601F017FB20685C
:10424000406994F83E10C0F38010222911D180B14A
:104250002068143050E8001F21F0400140E80012AF
:10426000002AF5D1A06B08B1FEF7A2FC204601F0B0
:10427000D6FA002010BD7047F8B5016804460868FA
:10428000CA684B6910F00F0F4FF0000559D003F0CA
:10429000010602F49077374365D0C10705D0D105F8
:1042A00003D5216C41F001012164410705D5D907EF
:1042B00003D0216C41F002012164810705D5D907A3
:1042C00003D0216C41F004012164010707D502F0FD
:1042D0002001314303D0216C41F008012164216C9D
:1042E00000293AD0800604D5900602D5204601F078
:1042F000CBFA20684069216CC0F38010090700D414
:1043000060B3204601F08BFA20684069400621D551
:104310002068143050E8001F21F0400140E80012EE
:10432000002AF5D1A06BA8B16C490165A06BFEF71E
:1043300088FC002811D0A06B016D01B0BDE8F040F1
:10434000084783060FD593060DD52046BDE8F840F3
:1043500001F09ABA2046FFF78EFFF8BD2046FFF71E
:104360008AFF2564F8BD266B2023012E79D1C6066D
:1043700077D5D60675D50868486800904869400624
:1043800040D5A16B086840680004000CEAD0A28DFB
:104390008242E7D9E085C869B0F5807F2DD02068DA
:1043A0000C3050E8001F21F4807140E80012002A10
:1043B000F5D12068143050E8001F21F0010140E8D9
:1043C0000012002AF5D12068143050E8001F21F0B7
:1043D000400140E80012002AF5D184F83E30256300
:1043E00020680C3050E8001F21F0100140E8001256
:1043F000002AF5D1A06BFEF7DBFBA08DE18D401A02
:1044000081B229E0A08DE18D401A81B2E08D0028B3
:10441000A8D00029A6D020680C3050E8002F22F444
:10442000907240E80026002EF5D12068143050E844
:10443000002F22F0010240E80026002EF5D184F87A
:104440003E30256320680C3050E8002F22F0100227
:1044500040E80023002BF5D12046FFF7D3FEF8BD3E
:10446000FFE705062BD5150629D594F83D00212830
:10447000F5D1A068B0F5805F01D12069B0B1206AA4
:10448000411C2162216800784860E08C401E0004D5
:10449000000CE084E3D12068C16821F08001C16094
:1044A0002068C16841F04001C160D8E7206A0088F7
:1044B000C0F308004860206A801C2062E5E74006DF
:1044C000CDD55006CBD5CA68204622F04002CA603E
:1044D00084F83D3000F0E3F9C1E7000029570008F7
:1044E00070B5040004D094F83D00002510B106E03A
:1044F000012070BD84F83C50204600F023F82420B1
:1045000084F83D002068C16821F40051C160204654
:1045100001F01AFA2068016921F4904101612068D4
:10452000416921F02A0141612068C16841F40051CC
:10453000C1602564202084F83D0084F83E000020FE
:1045400070BD00002DE9F04F87B004461421684685
:10455000FCF7BAF98F488E4923688E4A1038022634
:104560000327DFF834E200254FF008098B4233D1EE
:10457000116841F480111160116801F480110591F6
:10458000016841F004010160016801F00401059136
:10459000016841F0080101600068029500F0080020
:1045A00005909014CDE90006CDE903794C466946A3
:1045B0007046FEF775FD0420CDE900060295CDE9B1
:1045C000037469467548FEF76BFD002211463520DD
:1045D000FEF7D2FE35205EE0DFF8C481DFF8B4C11B
:1045E00007210CF1040C4FF0006A4FF4806B434537
:1045F00056D1DCF8002042F01002CCF80020DCF8A4
:10460000002002F010020592026842F001020260EE
:104610000068029500F001000590CDE903714FF4A8
:10462000C060CDE9000669465E48FEF739FD5F4E81
:104630005D4857463060C6E901A5C6E9035B756170
:10464000B561F5613562D84630467562FEF7DCFB30
:1046500008B1FEF79EF9A663B463544E5248603623
:104660007830E6E802074020A6E821014F4846F8E6
:1046700014596030B561F56135627562FEF7C4FBAF
:1046800008B1FEF786F96663002211462520B4635F
:10469000FEF772FE2520FEF762FE07B0BDE8F08F40
:1046A000DFF80C8143454CD1136843F400331360A9
:1046B000126802F400320592026842F001020260C0
:1046C0000068029500F001000590CDE903710C200F
:1046D000CDE9000669463348FEF7E2FC334E354823
:1046E000C036D0463060C6E901A5C6E9035B7561F6
:1046F000B561F56135625F4630467562FEF784FB51
:1047000008B1FEF746F9A663B4632A482A4E18306A
:10471000E6E802084020A1C6274846F81459B561CA
:10472000F56135627562FEF76FFB08B1FEF731F98E
:104730006663002211462620B463FEF71DFE262084
:10474000A9E71E498B42A8D1DCF8001041F02001F6
:10475000CCF80010DCF8001001F020010591016890
:1047600041F004010160006802AA00F00400059015
:10477000C020CDE9000682E8A00269467046FEF737
:104780008FFC002211464720FEF7F6FD472082E706
:10479000005000404038024000080240000C024037
:1047A000001001400000024040640240800A0020E6
:1047B0000044004088600240A00B0020001401402B
:1047C00090F83E30202B0ED159B152B190F83C30C8
:1047D000012B08D0012380F83C300023036301F053
:1047E00039B90120704702207047704770472DE9A2
:1047F000F843044690F83D001F4615460E46202813
:104800004BD1C6B1BDB194F83C00012845D0012080
:1048100084F83C004FF00008C4F84080212084F860
:104820003D00FEF72BFDA5848146E584A068B0F528
:10483000805F03D004E00120BDE8F883206920B147
:104840003546002684F83C800EE00025FAE78021FA
:10485000204601F04BF9A0B9ADB115F8010B216864
:104860004860E08C401EE084E08C4B464FF0000234
:1048700000970028EBD14FF04001204601F036F9B7
:1048800030B10320D8E736F8020BC0F30800E6E7A2
:10489000202084F83D000020CEE70220CCE77047BE
:1048A000FEE7000000B595B0024607A16846FBF799
:1048B00045FE64220AA16846FDF7FCFE002800D0F0
:1048C000FF2015B000BD000041542B514D545355ED
:1048D000423D302C312C222573222C300D0A000051
:1048E0002B514D545355420000B595B0024607A1D7
:1048F0006846FBF723FE64220AA16846FDF7DAFE4C
:10490000002800D0FF2015B000BD000041542B51FD
:104910004D54554E533D302C312C222573220D0A17
:10492000000000002B514D54554E5300194808B556
:10493000016841F400110160016801F40011009167
:10494000016841F4800101600068002200F48000E9
:10495000009011461020FEF70FFD1020FEF7FFFC1F
:10496000002211461120FEF707FD1120FEF7F7FC8B
:10497000002211463A20FEF7FFFC3A20FEF7EFFC3A
:10498000002211464620FEF7F7FCBDE8084046200D
:10499000FEF7E5BC303802402DE9F04786B014211F
:1049A0006846FBF791FF5F480024016841F0100161
:1049B0000160016801F010010591016841F00401F6
:1049C0000160016801F004010591016841F02001D6
:1049D0000160016801F020010591016841F080014A
:1049E0000160016801F080010591016841F0010159
:1049F0000160016801F001010591016841F00201C7
:104A00000160016801F002010591016841F0400177
:104A10000160016801F040010591016841F0080161
:104A200001600068DFF800A100F008004FF40067A3
:104A30000590002239465046FEF71AFC00224FF43A
:104A400004615046FEF714FCDFF8E09000220121DB
:104A50004846FEF70DFC4FF6FE700325CDE9000534
:104A6000694602944846FEF71BFB42F63F70CDE9CB
:104A70000005694602942E48FEF712FB4FF6FF78B8
:104A8000CDF80080CDE9015469462A48FEF708FBBD
:104A900049F2B210CDE90005694602945046FEF78E
:104AA000FFFA01264020CDE90006CDE902646946FF
:104AB0005046FEF7F5FA4FF6C770CDE90005694696
:104AC00002941D48FEF7ECFACDF80080CDE90154C0
:104AD00069461A48FEF7E4FA4FF6FB70CDE9000587
:104AE000694602941648FEF7DBFA0225CDE9025426
:104AF000CDE9007669465046FEF7D2FACDE9026468
:104B00000096694648460196FEF7CAFACDE9025476
:104B1000CDE9007669465046FEF7C2FA06B0BDE818
:104B2000F0870000303802400000024000100240D0
:104B30000008024000140240000402400018024035
:104B4000000C024000B585B014216846FBF7BCFE9E
:104B50000A480021084AC0E900217F228260FF2222
:104B6000C0E9032141618161FEF76CFF002801D09B
:104B7000FDF70FFF05B000BD0028004068000020D1
:104B8000104810B50E4901604FF482714160002158
:104B90008160C1604FF400720161C0E90512082212
:104BA000C0E90721416281620A21C162FEF7C6FFA6
:104BB000002803D0BDE81040FDF7EBBE10BD00009B
:104BC000003001408800002010B586B0002417484E
:104BD0000094019402940394049413490594016091
:104BE00042F22831C0E901146421C0E90314846150
:104BF000FFF782F908B1FDF7CCFE4FF4805000902A
:104C000069460A48FFF7D8F908B1FDF7C2FE0494D7
:104C100004A906480594FFF727F9002801D0FDF7FD
:104C2000B8FE06B010BD000000080040E000002003
:104C300010B586B0002417480094019402940394A0
:104C4000049413490594016042F22831C0E901142B
:104C50006421C0E903148461FFF74EF908B1FDF740
:104C600098FE4FF48050009069460A48FFF7A4F977
:104C700008B1FDF78EFE049404A906480594FFF7D9
:104C8000F3F8002801D0FDF784FE06B010BD000047
:104C9000000C0040280100200C4810B50A490160B2
:104CA0004FF4E1314160002181600C22C160C0E914
:104CB00004128161C161FFF713FC002803D0BDE835
:104CC0001040FDF766BE10BD005000407009002086
:104CD0000C4810B50A4901604FF4E13141600021F0
:104CE00081600C22C160C0E904128161C161FFF7DB
:104CF000F7FB002803D0BDE81040FDF74ABE10BD09
:104D000000100140B409002010B5114C0F480C21CF
:104D100020604FF4E13060600020A060E060C4E9F2
:104D20000401A061E0612046FFF7DAFB08B1FDF75E
:104D300030FE2068C16841F01001C160BDE810403C
:104D40004FF4806203490248FFF73ABD0044004037
:104D5000F8090020700500200C4810B50A490160D0
:104D60004FF4E1314160002181600C22C160C0E953
:104D700004128161C161FFF7B3FB002803D0BDE8D5
:104D80001040FDF706BE10BD001401403C0A002093
:104D9000FEE7000000B59BB0642229A129A0FDF721
:104DA00089FC64222EA12FA0FDF784FC64222CA193
:104DB00034A0FDF77FFC3AA33BA245A101A8FBF775
:104DC000BDFB642248A101A8FDF774FC4AA0009035
:104DD00052A357A259A101A8FBF7B0FB642220A15E
:104DE00001A8FDF767FC64225EA162A0FDF762FCEA
:104DF000642264A167A0FDF75DFC18B14FF0FF309D
:104E00001BB000BD45A34AA26BA101A8FBF796FB0E
:104E100001A8FFF747FD41A345A271A101A8FBF737
:104E20008DFB01A8FFF73EFD3CA341A276A101A89E
:104E3000FBF784FB01A8FFF757FD0020E0E7000027
:104E40002B49500041542B514D544346473D227647
:104E5000657273696F6E222C302C310D0A000000D0
:104E60004F4B000041542B514D544346473D226B5C
:104E7000656570616C697665222C302C3132300D9D
:104E80000A00000041542B514D544346473D2265D2
:104E900063686F6D6F6465222C302C300D0A000042
:104EA0003138383300000000696F742D61732D6D47
:104EB0007174742E636E2D7368616E676861692EFC
:104EC000616C6979756E63732E636F6D000000000D
:104ED00041542B514D544F50454E3D302C2225739B
:104EE000222C25730D0A00002B514D544F50454E76
:104EF0003A20302C30000000353765346338396390
:104F000065333533383566333331373237303339FB
:104F10003937643437646465000000004D4E383022
:104F2000383038303830383030303033000000001E
:104F3000613153567553616956424B0041542B51B0
:104F40004D544346473D22616C6961757468222C5B
:104F5000302C222573222C222573222C2225732209
:104F60000D0A00002B514D544F50454E3A20302C25
:104F70003100000041542B514D54434F4E4E3F0DD4
:104F80000A0000002B514D54434F4E4E3A20302C16
:104F9000302C300041542B514D54434F4E4E3D3038
:104FA0002C22636C69656E744578616D706C655F09
:104FB00031393837220D0A002F7379732F25732F5B
:104FC00025732F7468696E672F6F74612F6669721D
:104FD0006D776172652F6765745F7265706C7900BB
:104FE0002F7379732F25732F25732F7468696E675C
:104FF0002F66696C652F646F776E6C6F61645F728A
:1050000065706C79000000002F7379732F25732F62
:1050100025732F7468696E672F66696C652F646FDE
:10502000776E6C6F61640000FEE7704770B59AB0F0
:105030000D4606464FF47A742A460DA16846FBF7E2
:105040007DFA322210A16846FDF734FB304602F0AB
:1050500081F822460DA11A20FDF72CFB002805D06F
:105060000BA0FBF75FFA00F0CDFDE5E71AB070BDCD
:1050700041542B514D545055423D302C302C302C46
:10508000302C25730D0A00003E0000004F4B00003D
:105090004243323630204D51545420E695B0E68DCF
:1050A000AEE58F91E98081E5A4B1E8B4A5EFBC8CB1
:1050B000E9878DE696B0E58F91E98081EFBC81EFBD
:1050C000BC815C720A0000002DE9F04105460068D1
:1050D0000024C168490617D4C16841F08001C1604D
:1050E000FEF7CCF806464FF47A78042706E0FEF780
:1050F000C5F8801B404501D96F7701242868C06836
:10510000400601D4002CF2D02046BDE8F08170B5F5
:10511000044600680025C16821F08001C160206854
:105120008068800606D42046FEF7EEFC10B104200D
:1051300060770125284670BD01B582B04FF47A70C2
:105140000090012301AA02A90248FEF789FD9DF8FB
:1051500004000EBD8800002038B504461248134DE7
:105160004FF47A730068B0FBF5F058430090606824
:10517000B0F5827F0DD10B4600920022802120469F
:1051800000F016F870B1606D40F0200060650320FB
:1051900038BD009830B1401E009020688068C04340
:1051A0000006F6D5002038BD3C00002000366E0118
:1051B0002DE9F8431E46914688460446089DFEF7B1
:1051C0005DF8401B351AFEF759F807462548006878
:1051D000C0F3CB30684338E0701C37D0FEF74EF890
:1051E000C01BA84203D215B1009860B32CE0206820
:1051F000416821F0E00141606068B0F5827F0BD129
:10520000A068B0F5004F02D0B0F5806F04D12068DF
:10521000016821F040010160A06AB0F5005F09D18A
:105220002068016821F4005101602068016841F4A0
:1052300000510160012084F85100002084F85000E2
:105240000320BDE8F8830025401E00902068816897
:1052500038EA010004D000204845BDD10020F0E725
:105260000120F9E73C0000201C49884201D20020BF
:1052700070471B49884201D2012070471949884272
:1052800001D2022070471849884201D2032070479A
:105290001649884201D2042070471549884201D23C
:1052A000052070471349884201D2062070471249F1
:1052B000884201D2072070471049884201D2082055
:1052C00070470F49884201D2092070470D49884232
:1052D00001D20A2070470B207047000000400008F0
:1052E0000080000800C0000800000108000002085B
:1052F00000000408000006080000080800000A0872
:1053000000000C0800000E082DE9F04F87B04FF0A8
:10531000000817460E460446CDF81480B0F1006F21
:1053200038D3A00736D1FDF7A5FE1C48254604EB6F
:1053300087074CF2503B844215D24FF001094FF0E1
:10534000020ABD420FD22868401C11D02846CDF871
:105350000080FFF789FF02AA05A982E801066846D6
:10536000FDF7F4FD28B15846FDF7FAFB70B10FE0E8
:105370002D1D5846FDF7F4FBE3E7002321460220EC
:105380003268FDF739FE18B9241D361DBC42F4D32E
:10539000FDF728FE07B0BDE8F08F00000000FF1FFA
:1053A0007047FDF771BF000030B593B030216846FB
:1053B000FBF78AFA14210CA8FBF786FA1D48002592
:1053C000016841F080510160006800F08050119048
:1053D0001948016841F4804101600068022400F42A
:1053E000804011900D2000904FF4803001900120FA
:1053F0000290CDE905048005079008AA0420482101
:1054000082E813000B906846FEF770F908B172B697
:10541000FEE70F20CDE90C048020CDE90E05012127
:105420000CA81095FEF778F8002801D072B6FEE7B8
:1054300013B030BD4038024000700040024801689F
:1054400041F470010160704788ED00E00148FEF70B
:1054500022BE0000E00000200148FEF71CBE000054
:1054600028010020F0B50268254D264E264FDFF8B2
:105470009CC0274B4FF0804EA84209D0704507D002
:10548000B04205D0B84203D0604501D0984203D164
:1054900022F070044A682243A8421BD0704519D0FC
:1054A000B04217D0B84215D0604513D0984211D001
:1054B000184CA0420ED0184CA0420BD0174CA04262
:1054C00008D0174CA04205D0164CA04202D0164C72
:1054D000A04203D122F44074CA6822434C6922F0EE
:1054E0008002224302608A68C2620A688262A8421D
:1054F00001D0984201D10969016301214161F0BDE8
:10550000000001400004004000080040000C004082
:1055100000040140004001400044014000480140B7
:1055200000180040001C00400020004010B58468B6
:1055300042EA032224F47F440A432243826010BDDE
:10554000826822F070020A4342F0070181607047CE
:1055500010B5046A036A23F001030362836923F030
:10556000F00343EA021324F00A020A438361026251
:1055700010BD10B5036A23F0100303628469036A47
:1055800024F4704444EA023223F0A00343EA0111F8
:105590008261016210BD000010B50122D1023348C2
:1055A000FDF766FE40F6B83000F06AFE1E2230A11C
:1055B00030A0FDF77FF8C82000F062FE1E222CA16B
:1055C0002CA0FDF777F8C82000F05AFE642228A12D
:1055D0002AA0FDF76FF8C82000F052FE642224A133
:1055E0002AA0FDF767F8C82000F04AFE642220A137
:1055F0002AA0FDF75FF8C82000F042FE64221CA13B
:105600002AA0FDF757F8C82000F03AFE64221AA13C
:1056100028A0FDF74FF8C82000F032FE642227A131
:1056200028A0FDF747F8642211A129A0FDF742F850
:10563000C82000F025FE4FF4967228A128A0FDF79F
:1056400039F84FF0FF3418B128A0FAF76BFF0AE0E1
:105650004FF4FA7000F014FEC82205A12BA0FDF74C
:1056600029F8002800D0204610BD000000000240AC
:105670004F4B000041540D0A0000000041542B49DB
:1056800050523D3131353230300D0A0041542B51EA
:1056900049434C4F53453D300D0A000041542B51B6
:1056A00053434C4B3D300D0A00000000415445303F
:1056B0000D0A00004154490D0A0000002B435351CC
:1056C0003A00000041542B4353510D0A00000000E2
:1056D00041542B434D45453D310D0A0034363000D1
:1056E00041542B43494D490D0A00000042433236D4
:1056F00030E69CAAE68F92E58DA12CE58DB3E5B04E
:1057000086E9878DE590AF0D0A00000041542B43D8
:10571000474154543D310D0A000000000148FEF796
:10572000ABBD00007009002010B5806B0021C18561
:10573000C184FEF7A0FD10BD70B5846B2068406980
:1057400094F83D10C0F3C0100025212904D118B1F0
:10575000E584204600F08AF82068406994F83E10FD
:10576000C0F38010222904D118B1E585204600F04D
:1057700056F8206C40F0100020642046FEF77BFDB8
:1057800070BD10B50146806B09680968C9052FD442
:105790000021C18501680C3151E8002F22F480728C
:1057A00041E80023002BF5D10168143151E8002FA6
:1057B00022F0010241E80023002BF5D101681431E9
:1057C00051E8002F22F0400241E80023002BF5D1E0
:1057D000202180F83E10016B012909D101680C31AC
:1057E00051E8002F22F0100241E80023002BF5D1F0
:1057F000016B012902D0FEF7F8FF10BD818DFEF785
:1058000001FD10BD10B5806B016B012902D0FEF7C0
:10581000EDFF10BD818D4908FEF7F4FC10BD016855
:105820000C3151E8002F22F4907241E80023002B44
:10583000F5D10168143151E8002F22F0010241E84E
:105840000023002BF5D1016B012909D101680C312E
:1058500051E8002F22F0100241E80023002BF5D17F
:10586000202180F83E1000210163704701680C314F
:1058700051E8002F22F0C00241E80023002BF5D1AF
:10588000202180F83D10704708B590F83E1022297D
:1058900001D0022008BD81684FF48053994201D1A4
:1058A000026922B1826A99421BD049B10AE00268BA
:1058B000816A5268C2F308020A80816A891C08E082
:1058C000016971B10168496801F07F011170816A55
:1058D000491C8162C18D491E0904090CC18503D090
:1058E00019E001684968F1E70168CA6822F02002FE
:1058F000CA600168CA6822F48072CA6001684A6995
:1059000022F001024A61202180F83E10016B01293A
:1059100003D0FEF76AFF002008BD00210163016883
:105920000C3151E8002F22F0100241E80023002B37
:10593000F5D101680A68D20602D50A684968009163
:10594000818DFEF75FFCE6E770B5044600680169EB
:10595000E26821F4405111430161A1682069E269C4
:1059600001436069104301432068C26849F20C6337
:105970009A430A43C26020684169A26921F44071D8
:105980001143416131492068884202D03049884240
:1059900002D1FDF76BFE01E0FDF758FEE26900233E
:1059A000192164253226B2F5004F626828D0A0FB89
:1059B0000101930F9200FAF731FD0146B0FBF5F0BB
:1059C0006FF01802504301EB800006EB0010B0FBB3
:1059D000F5F000F0F002B1FBF5F002EB0012B1FBC4
:1059E000F5F06FF01803584301EB800006EB001050
:1059F000B0FBF5F000F00F0021681044886070BD26
:105A0000A0FB010192185B41FAF708FD0146B0FBCB
:105A1000F5F00201B1FBF5F06FF01803584301EB0C
:105A2000800006EBC000B0FBF5F000F0F80002EBE0
:105A30004002B1FBF5F0584301EB800006EBC000DB
:105A4000B0FBF5F000F00700D6E7000000100140C1
:105A50000014014037B582B01346039A82628385F1
:105A6000002504460564222084F83E00A16B1C48F2
:105A7000C863A16B1B480864A16B1B48C864A06B7A
:105A800005652168A06B091DFDF728FA20680168EB
:105A90004068009084F83C50206948B120680C3080
:105AA00050E8001F41F4807140E80012002AF5D14F
:105AB0002068143050E8001F41F0010140E8001256
:105AC000002AF5D12068143050E8001F41F0400151
:105AD00040E80012002AF5D105B0002030BD0000DA
