:020000040800F2
:10000000B80C0020AD010008B12A0008E92600085C
:10001000AD2A00083307000819340008000000006A
:10002000000000000000000000000000DD2C0008BF
:100030008308000800000000B52A0008DF2C000833
:10004000C7010008C7010008C7010008C701000870
:10005000C7010008C7010008C7010008C701000860
:10006000C7010008C7010008C7010008C701000850
:10007000C7010008C7010008C7010008C701000840
:100080003907000849070008C7010008C701000830
:10009000C7010008C7010008C7010008C701000820
:1000A000C7010008C7010008C7010008C701000810
:1000B000C7010008C7010008C7010008C701000800
:1000C000C7010008C7010008C7010008C7010008F0
:1000D000C7010008F133000805340008C701000813
:1000E000C7010008C7010008C7010008C7010008D0
:1000F000C7010008C7010008C7010008C7010008C0
:10010000C7010008C7010008C7010008C7010008AF
:10011000C7010008C7010008C7010008C70100089F
:10012000C7010008C701000859070008C7010008F7
:10013000C7010008C7010008C7010008C70100087F
:10014000C7010008C7010008C7010008C70100086F
:10015000C7010008C701000869070008C7010008B7
:10016000C7010008C7010008C7010008C70100084F
:10017000C7010008C7010008C7010008000000000F
:10018000C7010008C7010008DFF80CD000F050FAE2
:1001900000480047FD3F0008B80C002030BF72B691
:1001A000704762B6704780F30888704706488047FA
:1001B00006480047FEE7FEE7FEE7FEE7FEE7FEE74C
:1001C000FEE7FEE7FEE7FEE7A12D00088901000833
:1001D0002DE9F05F0546002092469B46884606467C
:1001E000814640241BE0284641464746224600F00F
:1001F00057F853465A46C01A914110D31146184633
:10020000224600F03EF82D1A67EB01084F462246C1
:100210000120002100F035F817EB00094E41201EA7
:10022000A4F10104DFDC484631462A464346BDE8D6
:10023000F09FD2B201E000F8012B491EFBD27047BB
:100240000022F6E710B513460A4604461946FFF7A2
:10025000F0FF204610BD30B50B460146002020229D
:10026000012409E021FA02F59D4205D303FA02F5C3
:10027000491B04FA02F52844151EA2F10102F1DC23
:1002800030BD202A04DB203A00FA02F1002070473A
:100290009140C2F1200320FA03F3194390407047C4
:1002A000202A04DB203A21FA02F00021704721FACB
:1002B00002F3D040C2F12002914008431946704732
:1002C0002DE9FE4F804681EA0300C00F0C460090E6
:1002D00021F0004123F00045B8EB0200A94105D20E
:1002E0004046214690461C460B46024623F00040FD
:1002F000104347D0270DC7F30A00C3F30A510290F9
:10030000401A019040286BDAC3F3130040F4801BBD
:100310000098924620B10023D2EB030A63EB0B0B4B
:1003200001985946C0F140025046FFF7AAFF064621
:100330000D4650465946019A00F08CF910EB080022
:100340006141002487EA115284EAE7731A4340D0DE
:10035000009A62B3019A012A4FEA075215DC001B8A
:1003600061EB02014FF0004202EA0752CDE9004280
:10037000001C41F5801132462B4600F08CF903B089
:10038000BDE8F08F40462146F9E7001B61EB020112
:10039000001C41F5801300185B412018A2F50017DE
:1003A00047EB030140EAD570B6196D4111E06D08C5
:1003B0004FEA360645EAC0754FEA0752001B61EB6B
:1003C0000201001C41F5801149084FEA3000001974
:1003D000514132462B4603B0BDE8F04F00F04CB916
:1003E0000098012240000023D0EB020263EBE0738F
:1003F000009821464FEAE074B8EB000061EB04017D
:10040000E9E783F000435BE781F0004158E72DE91D
:10041000FE4F81EA030404F0004421F000410094FF
:100420004FF0000B23F0004350EA01045ED052EA83
:1004300003045BD0C3F30A54C1F30A552C44A4F25D
:10044000F3340194A0FB0254C1F3130141F4801171
:10045000C3F3130343F4801301FB024400FB034E78
:10046000840A970A44EA815447EA8357A4FB076841
:1004700002958D0A05FB07854FEA932C04FB0C546B
:100480002705029D4FEA065847EA1637B5EB0805DF
:100490006EEB070C870E920E47EA811742EA831231
:1004A000A7FB0201B6EB0B0164EB00042B0D43EA42
:1004B0000C335E1844EB1C50DA465146E7FB020150
:1004C000C5F313044FEA0B3343EA14534FEA0432E3
:1004D000019C43EA0603A4F10C040294009CCDE9BC
:1004E00000B400F0D8F803B0BDE8F08F002001465A
:1004F000F9E72DE9F04D81EA030404F0004B21F007
:10050000004514464FF0000A23F0004150EA05026E
:1005100020D054EA01021DD0C5F30A570246C5F3A4
:100520001303C1F31300C1F30A5640F4801543F4DA
:100530008013A7EB0608101BD64608F2FD3873EBB4
:10054000050002D308F1010801E092185B41B8F1FF
:10055000000F03DA00200146BDE8F08D00204FF4C3
:100560008011064684460EE0171B73EB050705D382
:10057000121B63EB050306434CEA010C49084FEAE2
:10058000300092185B4150EA0107EDD152EA0300B6
:1005900012D082EA040083EA0501084305D0101B4B
:1005A000AB4106D20122002306E000224FF00043B7
:1005B00002E06FF0010253101AEB06004CEB0851F9
:1005C00010EB0A0041EB0B01BDE8F04D00F054B810
:1005D000C1F30A52C1F3130140F2FF3341F4801119
:1005E0009A4202DA00200146704740F233439A42B1
:1005F000A2F2334202DC5242FFF752BEFFF741BE85
:1006000030B5041E71F1000404DB4FF00044404299
:1006100064EB0101141E73F1000405DB1C464FF06E
:100620000043524263EB0403994208BF904230BD3D
:10063000064C074D06E0E06840F0010394E807002F
:1006400098471034AC42F6D3FFF7A2FD1C410008D6
:100650003C410008202A06DBCB17203A41FA02F081
:1006600043EAE07306E041FA02F3D040C2F120020F
:10067000914008431946704710B5141E73F10004E9
:1006800008DA401C41F1000192185B411A4301D184
:1006900020F0010010BD2DE9F04D92469B4611B1AE
:1006A000B1FA81F202E0B0FA80F220329046FFF710
:1006B000E8FD04460F4640EA0A0041EA0B015346B2
:1006C0005A46084313D0114653EA010019D0C8F125
:1006D00040025046FFF7E4FD05460E465046594697
:1006E0004246FFF7CEFD084305D0012004E0204636
:1006F0003946BDE8F08D0020054346EAE0762C43FC
:1007000037430A986305E40AA0EB08000022FD0ABB
:1007100044EA47540A3002D500200146E9E70105C2
:1007200010196941DDE9084500196941BDE8F04D3E
:10073000A2E700BFFEE7000010B5024800F010F984
:1007400010BD0000F403002010B5024800F008F9C5
:1007500010BD00005404002010B5024800F000F95C
:1007600010BD00003403002010B5024800F0F8F876
:1007700010BD0000940300200146087810381823AB
:10078000B0FBF3F20848805CC865032A05D9086805
:100790006FF30900001D886503E008686FF3090026
:1007A0008865886D70470000FC4000080146002005
:1007B0008A6A8B69CBB932B1012A0DD0022A03D0E3
:1007C000032A10D10EE000BFCB6A03F08073B3F1AF
:1007D000807F00D1012007E0CB6AB3F1C07F00D158
:1007E000012001E000E000BF34E08B69B3F5005F59
:1007F0001AD132B1012A07D0022A03D0032A11D11B
:100800000AE000BF01200EE0CB6A03F08073B3F171
:10081000807F00D1012006E0CB6AB3F1C07F00D118
:10082000012000E000BF15E032B1012A05D0022A04
:1008300004D0032A0CD103E000BF00BF012008E070
:10084000CB6A03F08073B3F1807F00D1012000E018
:1008500000BF00BF704730B50468246824F48024CA
:1008600005682C60046863608468402C04D10468C7
:10087000A2600468E16003E00468A1600468E260CB
:1008800030BD704772B600BFFEE770B50446A56D77
:1008900000F0FAFB064694F83500022808D08020C4
:1008A000606500BF002084F8340000BF012070BDE7
:1008B0002068006820F01600216808602068406900
:1008C00020F0800021684861206C08B9A06C28B134
:1008D0002068006820F0080021680860206800682F
:1008E00020F001002168086010E000F0CDFB801BC3
:1008F00005280BD920206065032084F8350000BF4F
:10090000002084F8340000BF0320D0E7206800688E
:1009100000F001000028E8D194F85C103F208840E6
:10092000A860012084F8350000BF002084F834005E
:1009300000BF00BFBBE7014691F83500022803D095
:100940008020486501207047052081F8350008683F
:10095000006820F001000A6810600020F3E7000042
:10096000F8B50446002000908C4800684FF41651FA
:10097000B0FBF1F7A56D2E6894F85C100820884054
:10098000304098B12068006800F0040070B1206821
:10099000006820F004002168086094F85C100820CA
:1009A0008840A860606D40F00100606594F85C10BC
:1009B00001208840304068B12068406900F0800024
:1009C00040B194F85C1001208840A860606D40F050
:1009D0000200606594F85C1004208840304068B1E3
:1009E0002068006800F0020040B194F85C10042018
:1009F0008840A860606D40F00400606594F85C1069
:100A000010208840304078B32068006800F008006B
:100A100050B394F85C1010208840A86020680068EB
:100A200000F4802080B12068006800F4002028B91C
:100A3000206CC8B12046216C884715E0A06C98B1A5
:100A40002046A16C88470FE02068006800F48070A1
:100A500028B92068006820F0080021680860206C30
:100A600010B12046216C884794F85C102020884003
:100A70003040002865D02068006800F01000002891
:100A80005FD094F85C1020208840A86094F835006E
:100A9000052828D12068006820F016002168086029
:100AA0002068406920F0800021684861206C08B906
:100AB000A06C28B12068006820F008002168086058
:100AC00094F85C103F208840A860012084F835002D
:100AD00000BF002084F8340000BF206D10B1204614
:100AE000216D8847F8BD2068006800F4802080B13F
:100AF0002068006800F4002028B9606C10B120461E
:100B0000616C88471DE0E06BD8B12046E16B8847F7
:100B100017E02068006800F4807068B920680068F9
:100B200020F0100021680860012084F8350000BF23
:100B3000002084F8340000BFE06B10B12046E16B68
:100B40008847606D38B3606D00F00100F0B105209A
:100B500084F835002068006820F0010021680860F2
:100B600000BF0098401C0090B84200D905E0206802
:100B7000006800F001000028F3D100BF012084F8D4
:100B8000350000BF002084F8340000BFE06C10B1D5
:100B90002046E16C884700BFA4E700002400002045
:100BA0002DE9F0410446002500F06EFA074614B91D
:100BB0000120BDE8F081606A00B100BF022084F826
:100BC000350000BF002084F8340000BF20680068B2
:100BD00020F00100216808600AE000F055FAC01B0F
:100BE000052805D920206065032084F83500E0E75A
:100BF0002068006800F001000028EED12068056838
:100C000021480540D4E901010843E168084321690E
:100C1000084361690843A1690843E1690843216AFF
:100C200008430543606A042803D1D4E90B01084353
:100C30000543206805602068456925F00705606A5E
:100C40000543606A04280DD1A06A0543E06A48B1F3
:100C50002046FFF7ABFD28B140206065012084F8F5
:100C60003500A6E7206845612046FFF785FD06466A
:100C700094F85C103F208840B0600020606501203F
:100C800084F83500002094E73F8010F02DE9F0470C
:100C900004460D4616461F464FF00008D4F85890FB
:100CA00000BF94F83400012802D10220BDE8F0878B
:100CB000012084F8340000BF94F83500012825D1C4
:100CC000022084F83500002060653B463246294604
:100CD0002046FFF7C0FD94F85C103F208840C9F81B
:100CE00008002068006840F0160021680860206C49
:100CF00028B12068006840F008002168086020687A
:100D0000006840F001002168086006E000BF002094
:100D100084F8340000BF4FF002084046C6E70000E8
:100D2000F0B50C46002500220023002194E00126A6
:100D300006FA01F504EA0502AA427DD1484E8F0861
:100D400056F827308E07370F0F26BE403340454EEA
:100D5000B04201D1002623E0434EB04201D101262A
:100D60001EE0424EB04201D1022619E0404EB04290
:100D700001D1032614E03F4EB04201D104260FE01A
:100D80003D4EB04201D105260AE03C4EB04201D1B1
:100D9000062605E03A4EB04201D1072600E00826BB
:100DA0008F073F0FBE409E4224D1364E3668964391
:100DB000344F3E603E1D366896433F1D3E60314EC7
:100DC0000C36366896432F4F0C373E603E1F366810
:100DD00096433F1F3E608E07370F0F2606FA07F334
:100DE0001F4E8F0856F827609E431D4F4FEA910C07
:100DF00047F82C6006684FEA410C032707FA0CF706
:100E0000BE430660CF0800F1200656F827604F0762
:100E10004FEAD76C0F2707FA0CF7BE434FEAD10C05
:100E200000F1200747F82C60C6684FEA410C032701
:100E300007FA0CF7BE4300E00DE0C66046680127E4
:100E40008F40BE43466086684FEA410C032707FA8D
:100E50000CF7BE438660491C1029FFF468AFF0BD53
:100E6000083801400000024000040240000802402F
:100E7000000C024000100240001402400018024022
:100E8000001C0240003C0140F8B502460B4600251C
:100E9000002400200021D6E0012606FA01F51E6894
:100EA00006EA0504AC4274D11E7906F00306012E51
:100EB00004D01E7906F00306022E13D190684F006D
:100EC0000326BE40B0434F00DE68BE403043906012
:100ED000506801268E40B0431E79C6F300168E403E
:100EE000304350601E7906F00306032E09D0D06807
:100EF0004F000326BE40B0434F009E68BE403043C3
:100F0000D0601E7906F00306022E13D1CF0802F13D
:100F1000200656F827004E07F70E0F26BE40B043B6
:100F20004F07FF0E1E69BE403043CF0802F1200676
:100F300046F8270010684F000326BE40B0431E79D4
:100F400006F003064F00BE40304310605E6806F4B2
:100F50004036002E76D000BF002600963C4E366804
:100F600046F480463A4F3E603E46366806F4804678
:100F7000009600BF00BF374E8F0856F827008E0737
:100F8000370F0F26BE40B043334EB24202D1002687
:100F900024E057E0314EB24201D101261EE0304E2E
:100FA000B24201D1022619E02E4EB24201D10326EF
:100FB00014E02D4EB24201D104260FE02B4EB24276
:100FC00001D105260AE02A4EB24201D1062605E0EB
:100FD000284EB24201D1072600E008268F073F0FB6
:100FE000BE4030431B4E8F0846F82700224E306823
:100FF000A0435E6806F4801606B120431E4E3060A2
:10100000361D3068A0435E6806F4001606B1204322
:10101000194E361D3060184E361F3068A0435E688A
:1010200006F4003606B12043134E361F3060361FDB
:101030003068A0435E6806F4803606B120430E4E49
:10104000083E3060491C1029FFF426AFF8BD0000AF
:1010500044380240083801400000024000040240C9
:1010600000080240000C0240001002400014024040
:1010700000180240001C0240083C01400AB1816196
:1010800001E00B048361704701480068704700006D
:101090001800002070B504460CB9012070BD4CF654
:1010A000CC402168086045F2555021680860D4E9B9
:1010B000001048602168A0688860FFF7E5FF0546DA
:1010C0000BE0FFF7E1FF401B312806D92068C0681C
:1010D00000F0030008B10320E0E72068C06800F0DA
:1010E00003000028EDD14AF6AA20216808600020FC
:1010F000D4E700000348006803490978084401491F
:1011000008607047180000202000002010B50D482E
:10111000006840F400700B4908600846006840F41D
:10112000806008600846006840F480700860032012
:1011300000F0C4F80F2000F007F800F02BF80020B2
:1011400010BD0000003C024070B504460E48007817
:101150004FF47A71B1FBF0F00C490968B1FBF0F57E
:10116000284600F080FF08B1012070BD102C07D286
:1011700000222146501E00F063F80548046001E09B
:101180000120F2E70020F0E72000002024000020EA
:101190001C00002008B500BF002000900E48006829
:1011A00040F480400C4908600846006800F4804024
:1011B000009000BF00BF00BF00200090081F006823
:1011C00040F08050091F08600846006800F0805019
:1011D000009000BF00BF08BD4438024010B5014672
:1011E0000846002817DB00F01F0301229A400B4B32
:1011F000440943F8242000BF00BF00BFBFF34F8F56
:1012000000BF00BF00BF00BF00BF00BFBFF36F8FB4
:1012100000BF00BF00BF00BF10BD000080E100E0C4
:1012200001460846002809DB00F01F0301229A400E
:1012300043099B0003F1E023C3F8002100BF70477E
:101240002DE9F05F80460D461646002702F016FA9B
:10125000074639462A46334601F00700C0F1070A1F
:10126000BAF1040F02D94FF0040A01E0C0F1070AF5
:10127000D14600F1040ABAF1070F02D24FF0000A7A
:1012800001E0A0F1030AD4464FF0010A0AFA09FA74
:10129000AAF1010A0AEA020A0AFA0CFA4FF0010B53
:1012A0000BFA0CFBABF1010B0BEA030B4AEA0B0444
:1012B0002146404602F0EAF9BDE8F09F00BF00F089
:1012C0000702064B19684FF6FF031940044B0B4306
:1012D00043EA0221014B196000BF70470CED00E0AA
:1012E0000000FA05F8B5044600250026207800F035
:1012F000010020B9207800F0040004282FD100203C
:101300005B498866FFF7C0FE054606E0FFF7BCFEB6
:10131000401B022801D90320F8BD56480068C0F3DD
:10132000C0600028F2D160688101207A41EA007033
:1013300050498431086001204D498866FFF7A4FEBA
:10134000054606E0FFF7A0FE401B022801D9032056
:10135000E2E748480068C0F3C0600028F2D0207877
:1013600000F0020002287DD100BF0020009041481B
:101370004030006840F080503E49403108600846E7
:10138000006800F08050009000BF00BF3A4800683D
:1013900040F4807038490860FFF776FE054606E0A5
:1013A000FFF772FE401B022801D90320B4E7324840
:1013B000006800F480700028F2D02E487030006879
:1013C00000F440764EB3A08900F44070B04224D0BF
:1013D00028487030006820F44076012027490860D2
:1013E00000200860234870300660006800F00100AB
:1013F00098B1FFF749FE054608E0FFF745FE401BA0
:1014000041F28831884201D9032085E719487030BC
:101410000068C0F340000028EFD000BFA08900F4AE
:101420004070B0F5407F0CD112480830006820F4BD
:10143000F810134AE168114008430E49083108606A
:1014400007E00C480830006820F4F810094908311A
:101450000860084870300068A189C1F30B01084397
:10146000044900E002E07031086000BF002053E74B
:10147000000047420038024000700040400E4742E2
:10148000FFFCFF0F70B504460D460CB9012070BD7E
:101490005848006800F00700A84209D255490D706D
:1014A0000846006800F00700A84201D00120EEE7DE
:1014B000207800F0020002281DD1207800F00400FE
:1014C000042805D14C48006840F4E0504A490860BF
:1014D000207800F00800082805D14748006840F44B
:1014E0006040454908604448006820F0F000A16869
:1014F000084341490860207800F00100A8B3606803
:10150000012807D13C4808380068C0F34040B8B90A
:101510000120BCE76068022802D06068032807D178
:10152000354808380068C0F3406048B90120AEE78C
:10153000314808380068C0F3400008B90120A6E728
:101540002D48006820F00300616808432A490860BC
:10155000FFF79AFD064609E0FFF796FD801B41F272
:101560008831884202D9032091E707E022480068C9
:1015700000F00C006168B0EB810FEDD11D480068F0
:1015800000F00700A84209D91A490D700846006802
:1015900000F00700A84201D0012078E7207800F091
:1015A0000400042807D11448006820F4E050E168E2
:1015B000084311490860207800F00800082808D185
:1015C0000D48006820F46040216940EAC1000A49E2
:1015D000086000F03FF808490968C1F30311074AA1
:1015E000515CC8400649086006480068FFF7ACFD3A
:1015F00000204CE7003C024008380240044100084B
:10160000240000201C0000200148006870470000F2
:101610002400002000B5FFF7F7FF04490968C1F373
:101620008221034A515CC84000BD000008380240D6
:101630001441000800B5FFF7E7FF04490968C1F34A
:101640004231034A515CC84000BD000008380240E6
:10165000144100082DE9F047002400250026A1468A
:101660002548006800F00C0020B1042805D00828A7
:101670003AD105E0DFF8849039E0DFF8849036E075
:101680001D48001F006800F03F041B48001F006851
:1016900000F4800078B11A481749091F0968C1F39E
:1016A0008811A0FB01700146224600233846FEF750
:1016B0008FFD05460EE011480F49091F0968C1F367
:1016C0008811A0FB01700146224600233846FEF730
:1016D0007FFD05460848001F0068C0F30140401C1C
:1016E0004600B5FBF6F902E0DFF8109000BF00BF3E
:1016F0004846BDE8F0870000083802400024F400A6
:1017000000127A00F8B504460CB90120F8BD207823
:1017100000F00100002874D0F948006800F00C00C7
:1017200004280DD0F648006800F00C00082813D1FA
:10173000F348001F006800F48000B0F5800F0BD163
:10174000EF4808380068C0F34040002859D060686E
:10175000002856D10120D9E700BF6068B0F5803F6E
:1017600008D1E7480838006840F48030E449083977
:1017700008601EE06068B0F5A02F0DD1E048083881
:10178000006840F48020DE49083908600846006897
:1017900040F4803008600CE0D9480838006820F434
:1017A0008030D749083908600846006820F4802056
:1017B000086000BF606890B1FFF766FC054606E070
:1017C000FFF762FC401B642801D903209EE7CC4848
:1017D00008380068C0F340400028F1D011E0FFF75E
:1017E00053FC054606E0FFF74FFC401B642801D977
:1017F00003208BE7C24808380068C0F34040002847
:10180000F1D1207800F0020002285FD1BC480068C6
:1018100000F00C0058B1BA48006800F00C0008282D
:101820001CD1B748001F006800F48000B0B9B4486C
:1018300008380068C0F3400020B1E068012801D0FA
:10184000012063E7AE480838006820F0F8002169FD
:1018500040EAC100AA490839086037E0E06800B3EF
:101860000120A8490860FFF70FFC054606E0FFF7D6
:101870000BFC401B022801D9032047E7A048083889
:101880000068C0F340000028F1D09D480838006887
:1018900020F0F800216940EAC10099490839086040
:1018A00014E0002097490860FFF7EEFB054606E0CC
:1018B000FFF7EAFB401B022801D9032026E79048E6
:1018C00008380068C0F340000028F1D1207800F00B
:1018D000080008282CD16069A8B101208A49086055
:1018E000FFF7D2FB054606E0FFF7CEFB401B0228C0
:1018F00001D903200AE782486C300068C0F3400039
:101900000028F1D014E000207F490860FFF7BCFBFD
:10191000054606E0FFF7B8FB401B022801D903206B
:10192000F4E677486C300068C0F340000028F1D13D
:10193000207800F00400042870D100277048383067
:10194000006800F0805090B900BF002000906C4803
:101950003830006840F080506949383108600846E6
:10196000006800F08050009000BF00BF012767486A
:10197000006800F48070B0B96448006840F480707A
:1019800062490860FFF780FB054606E0FFF77CFB35
:10199000401B022801D90320B8E65C48006800F427
:1019A00080700028F2D000BFA068012808D15448F8
:1019B0006830006840F001005149683108601DE05E
:1019C000A06805280DD14E486830006840F004003A
:1019D0004B49683108600846006840F00100086023
:1019E0000CE047486830006820F001004449683145
:1019F00008600846006820F00400086000BFA06886
:101A0000A8B1FFF741FB054609E0FFF73DFB401B8E
:101A100041F28831884202D9032077E626E038482F
:101A200068300068C0F340000028EED013E0FFF7F4
:101A30002BFB054608E0FFF727FB401B41F28831EE
:101A4000884201D9032061E62D4868300068C0F360
:101A500040000028EFD1012F07D129483830006815
:101A600020F0805026493831086000BFA069002866
:101A700045D02348006800F00C0008285DD0A0691C
:101A8000022845D100201F490866FFF7FDFA0546E8
:101A900006E0FFF7F9FA401B022801D9032035E6DA
:101AA000174808380068C0F340600028F1D1D4E935
:101AB00007010843616A40EA81110122A06AC2EB72
:101AC000500041EA00412C20005D41EA00600C49D1
:101AD000091F086001200B490866FFF7D5FA054683
:101AE00006E0FFF7D1FA401B022801D903200DE6DA
:101AF000034808380068C0F340600028F1D049E08E
:101B00000838024000004742800E47420070004003
:101B1000002021490866FFF7B7FA054606E0FFF7FF
:101B2000B3FA401B022801D90320EFE51B480068E7
:101B3000C0F340600028F2D12CE0A069012800D158
:101B4000E4E51648001D0668A069012820D006F4C7
:101B50008001E06981421BD106F03F01206A814289
:101B600016D147F6C0703040616AB0EB811F0FD1CB
:101B700006F440310122A06AC2EB5000B1EB004FE5
:101B800006D106F070612C20005DB1EB006F01D032
:101B90000120BBE50020B9E50000474200380240C3
:101BA00070B5044601250CB9012070BD607F20B9D5
:101BB00000202077204600F045F80220607700BF23
:101BC000CA202168486253202168486200BF20462D
:101BD00000F071FF0546EDB920688068184908409B
:101BE0002168886021696068084361690843216849
:101BF00089680843216888602168E0680861206876
:101C00000169208941EA004021680861204600F00E
:101C100077FF05466DB92068006C20F480202168AC
:101C200008642068006CA1690843216808640120E9
:101C3000607700BFFF202168486200BF2846B4E7F4
:101C4000BFFF8FFF1FB50446002000900190029057
:101C500003900949206888420CD102200090C001FD
:101C600003906846FFF73EFB08B1FEF70BFE01202C
:101C7000024908601FBD0000002800403C0E47429A
:101C800070B5044600252068C06820F0A0002168D7
:101C9000C860FFF7F9F9054607E0FFF7F5F9401BC3
:101CA000B0F57A7F01D9032070BD2068C06800F0CC
:101CB00020000028F1D00020F6E710B504460CB94A
:101CC000012010BD606A38B96068B0F5827F00D12C
:101CD00005E00021E16102E0002121616161002154
:101CE000A16294F8510028B9002084F850002046E1
:101CF00000F060F8022084F851002068006820F0AD
:101D0000400021680860A08800F48270218901F4F5
:101D100004410843A18901F400610843217C01F0DA
:101D200002010843217D01F001010843218B01F4E8
:101D300000710843217F01F0380108432021095D2B
:101D400001F080010843218D01F40051084321680E
:101D500008600421A06901EA104094F8241001F001
:101D600010010843216848602068C06920F40060C1
:101D70002168C86100206065012084F851000020BE
:101D80009FE7000010B5044607492068884209D142
:101D90000648006820F4805004490860382104484F
:101DA000FEF7BEFF10BD0000003001404438024085
:101DB0000004024010B586B00446142101A8FEF7C5
:101DC0003FFA1B49206888422FD100BF00200090B5
:101DD0001848006840F480501649086008460068BA
:101DE00000F48050009000BF00BF00BF00200090B2
:101DF00010481438006840F002000E491439086099
:101E00000846006800F00200009000BF00BF3820C4
:101E100001900220029000200390032004900520EE
:101E2000059001A90448FFF72FF806B010BD000087
:101E30000030014044380240000402402DE9FF5FB9
:101E40000446884691461D460E9E012002900020C1
:101E5000019000BF94F85000012803D1022004B083
:101E6000BDE8F09F012084F8500000BFFFF70CF997
:101E7000074694F851B060680390AA46BBF1010F81
:101E80000BD00398B0F5827F04D1A06810B9BBF1E4
:101E9000040F02D002200190DBE0B8F1000F03D064
:101EA000B9F1000F00D015B901200190D1E094F8EC
:101EB0005100042802D0052084F8510000206065FC
:101EC000C4F83890E587A587C4F83080E586A586F4
:101ED000206460642068006800F04000402805D05D
:101EE0002068006840F0400021680860E068B0F5B4
:101EF000006F4AD1606810B1BAF1010F09D1206BAF
:101F000000882168C860206B801C2063E08E401E22
:101F1000E08633E02068806800F00200022810D1DB
:101F2000E08E70B1029801280BD1206B00882168E7
:101F3000C860206B801C2063E08E401EE08600207D
:101F400002902068806800F0010068B1E08F58B10D
:101F50002068C068A16B0880A06B801CA063E08F24
:101F6000401EE08701200290FFF78EF8C01BB042B0
:101F700004D3701C10B1032001906AE0E08E0028A9
:101F8000C8D1E08F0028C5D14AE0606810B1BAF12D
:101F9000010F09D1206B007821680873206B401C69
:101FA0002063E08E401EE08634E02068806800F008
:101FB0000200022810D1E08E70B1029801280BD1E6
:101FC000206B007821680873206B401C2063E08E32
:101FD000401EE086002002902068806800F001002A
:101FE00068B1E08F58B12068C068A16B0870A06B21
:101FF000401CA063E08F401EE08701200290FFF7A5
:1020000043F8C01BB04201D3701C00B916B90320BD
:1020100001901EE0E08E0028C7D1E08F0028C4D1D7
:102020003A463146204600F0B7FD20B1012001902C
:10203000202060650DE0A06850B900BF002000902E
:102040002068C068009020688068009000BF00BFD2
:1020500000BF012084F8510000BF002084F8500028
:1020600000BF0198FBE670B504462546681EB0F136
:10207000807F01D301200FE0681E4FF0E02148610E
:102080000F214FF0FF3001F001FB00204FF0E02165
:10209000886107200861002070BD704770B5044654
:1020A000002520684069C0F3C01594F83D00212840
:1020B00017D1B5B100BF00BF2168143151E8001F2E
:1020C00021F080002168143141E80002002AF3D198
:1020D00000BF606B10B1606BFEF7D7FB204600F0CD
:1020E00049FF20684069C0F3801594F83E0022281B
:1020F00017D1B5B100BF00BF2168143151E8001FEE
:1021000021F040002168143141E80002002AF3D197
:1021100000BFA06B10B1A06BFEF7B7FB204600F02C
:10212000E3FE002070BD70472DE9F84F044620689B
:1021300005682068C668206847694FF00009CA46EC
:1021400005F00F09B9F1000F0AD105F0200038B1F0
:1021500006F0200020B1204600F01FFFBDE8F88FF8
:10216000B9F1000F7CD007F0010018B906F49070A7
:10217000002875D005F0010030B106F4807018B168
:10218000206C40F00100206405F0040030B107F03D
:10219000010018B1206C40F00200206405F002003C
:1021A00030B107F0010018B1206C40F00400206449
:1021B00005F0080048B106F0200010B907F0010052
:1021C00018B1206C40F008002064206C002846D034
:1021D00005F0200028B106F0200010B1204600F0E4
:1021E000DCFE20684069C0F3801A206C00F0080013
:1021F00010B9BAF1000F2DD0204600F075FE20680E
:10220000406900F04000402820D100BF00BF216895
:10221000143151E8001F21F040002168143141E8D9
:102220000002002AF3D100BFA06B50B17548A16B2A
:102230000865A06BFEF77FFB88B1A06B016D884736
:102240000DE02046FFF76FFF09E009E02046FFF7A9
:102250006AFF04E02046FFF766FF002020647DE768
:10226000206B012876D105F01000002872D006F00E
:1022700010000028FAD000BF0020009020680068FD
:10228000009020684068009000BF00BF206840694F
:1022900000F0400040285ED1A06B006840681FFA43
:1022A00080F8B8F1000F54D0A08D404551DDA4F85E
:1022B0002E80A06BC069B0F5807F43D000BF00BF07
:1022C00021680C3151E8001F21F4807021680C3125
:1022D00041E80002002AF3D100BF00BF00BF21681F
:1022E000143151E8001F21F001002168143141E848
:1022F0000002002AF3D100BF00BF00BF21681431E3
:1023000051E8001F21F040002168143141E800022B
:10231000002AF3D100BF202084F83E000020206373
:1023200000BF00BF21680C3151E8001F21F01000F0
:1023300021680C3141E80002002AF3D100BFA06BF4
:10234000FEF7A3FAA08DE28D801A81B22046FFF736
:10235000A4FE03E740E0A08DE18D401A1FFA80F84B
:10236000E08DC0B3B8F1000F35D000BF00BF2168C9
:102370000C3151E8001F21F4907021680C3141E8C4
:102380000002002AF3D100BF00BF00BF2168143152
:1023900051E8001F21F001002168143141E80002DA
:1023A000002AF3D100BF202084F83E0000202063E3
:1023B00000BF00BF21680C3151E8001F21F0100060
:1023C00021680C3141E80002002AF3D100BF4146E8
:1023D0002046FFF762FEC1E605F0800030B106F04E
:1023E000800018B1204600F0D3FFB7E605F04000AA
:1023F00030B106F0400018B1204600F0ABFDADE66C
:1024000000BFABE6B52D000810B504460CB901209D
:1024100010BDA06900B100E000BF94F83D0028B9EC
:10242000002084F83C00204600F028F8242084F89E
:102430003D002068C06820F400502168C860204634
:1024400000F028FE2068006920F4904021680861AF
:102450002068406920F02A00216848612068C0682F
:1024600040F400502168C86000202064202084F8D7
:102470003D0084F83E000020CAE7000010B586B099
:102480000446142101A8FDF7DBFE7B492068884241
:1024900076D100BF002000907848006840F010001E
:1024A000764908600846006800F01000009000BF00
:1024B00000BF00BF0020009070481438006840F052
:1024C00001006E49143908600846006800F00100F8
:1024D000009000BF00BF4FF4C06001900220029046
:1024E00000200390032004900720059001A9644870
:1024F000FEF7CAFC6348644908604FF0006048601A
:10250000002161488160C1604FF480610161002158
:1025100041618161C16101624162FEF741FB08B125
:10252000FEF7B0F900BF5848A063846300BF554868
:102530007830564908604FF00060486040215348A9
:1025400081600021C1604FF480610161002141611F
:102550008161C16101624162FEF722FB08B1FEF7B1
:1025600091F900BF49486063846300BF00220221E3
:102570002520FEF765FE2520FEF752FE7AE0FFE7F4
:1025800043492068884275D100BF002000903B4835
:10259000001F006840F400303849091F08600846F1
:1025A000006800F40030009000BF00BF00BF0020B2
:1025B000009032481438006840F001002F49143967
:1025C00008600846006800F00100009000BF00BFEE
:1025D0000C20019002200290002003900320049020
:1025E0000720059001A92648FEF74EFC29482A49F4
:1025F00008604FF000604860002127488160C1609A
:102600004FF480610161002141618161C16101621A
:102610004162FEF7C5FA08B1FEF734F900BF1E4863
:10262000A063846300BF1B4818301C4908604FF04A
:10263000006048604021194881600021C1604FF46A
:1026400080610161002141618161C161016241627A
:10265000FEF7A6FA08B1FEF715F900BF0F48606350
:10266000846300BF002211462620FEF7E9FD2620E4
:10267000FEF7D6FD06B010BD001001404438024000
:102680000000024040640240340300209403002014
:102690000044004088600240F403002054040020FD
:1026A00070B504460D46164694F83E00202816D113
:1026B00005B10EB9012070BD00BF94F83C0001289F
:1026C00001D10220F7E7012084F83C0000BF002080
:1026D000206332462946204600F0F2FDEBE7022057
:1026E000E9E770477047704700BFFEE708B500BFD5
:1026F000002000901E48006840F400101C4908604B
:102700000846006800F40010009000BF00BF00BF42
:10271000002000900846006840F4800008600846E9
:10272000006800F48000009000BF00BF0022114646
:102730001020FEF785FD1020FEF772FD00221146E5
:102740001120FEF77DFD1120FEF76AFD00221146E3
:102750003A20FEF775FD3A20FEF762FD0022114691
:102760004620FEF76DFD4620FEF75AFD08BD00002D
:102770003038024000B587B0142102A8FDF760FD93
:1027800000BF002001907948006840F010007749B0
:1027900008600846006800F01000019000BF00BF0C
:1027A00000BF002001900846006840F00400086067
:1027B0000846006800F00400019000BF00BF00BFA1
:1027C000002001900846006840F02000086008469C
:1027D000006800F02000019000BF00BF00BF002093
:1027E00001900846006840F08000086008460068D4
:1027F00000F08000019000BF00BF00BF00200190EA
:102800000846006840F0010008600846006800F0D3
:102810000100019000BF00BF00BF002001900846EA
:10282000006840F0020008600846006800F00200FE
:10283000019000BF00BF00BF002001900846006863
:1028400040F0400008600846006800F04000019039
:1028500000BF00BF00BF002001900846006840F0A4
:10286000080008600846006800F00800019000BFFA
:1028700000BF00224FF404613D48FEF7FFFB002239
:1028800001213C48FEF7FAFB4FF6FE700290032050
:1028900003900020049002A93648FEF7F5FA43F6AB
:1028A000FF700290032003900020049002A9324898
:1028B000FEF7EAFA4FF6FF70029003200390002023
:1028C000049002A92D48FEF7DFFA49F2B2100290F7
:1028D000032003900020049002A92548FEF7D4FAB3
:1028E000402002900120039004900020059002A94E
:1028F0001F48FEF7C9FA4FF6C770029003200390F5
:102900000020049002A91E48FEF7BEFA4FF6FF70A1
:102910000290032003900020049002A91948FEF7BA
:10292000B3FA4FF6FF70029003200390002004904A
:1029300002A91548FEF7A8FA4FF4006002900120A2
:102940000390022004900020059002A90848FEF799
:102950009BFA01200290039004900020059002A9A8
:102960000448FEF791FA07B000BD0000303802407D
:102970000000024000100240000802400014024023
:102980000004024000180240000C024010B5074845
:10299000074908600320486040F6FF7104488160E1
:1029A000FEF778FB08B1FDF76DFF10BD0030004069
:1029B0002800002000B587B0142102A8FDF740FCD4
:1029C000002001900A480B490860002048607F21E0
:1029D00008488160FF21C16000210161416181617E
:1029E000FFF7DEF808B1FDF74DFF07B000BD0000AE
:1029F000002800403400002010B50E480E49086041
:102A00004FF48270486000210B488160C160016111
:102A100041614FF4007181610821C16100210162AF
:102A2000416281620A21C162FFF747F908B1FDF7EF
:102A300029FF10BD003001405400002010B50B48A4
:102A40000B4908604FF4E13048600021084881607C
:102A5000C16001610C21416100218161C161FFF709
:102A6000D3FC08B1FDF70EFF10BD000000100140BF
:102A7000AC02002010B50B480B4908604FF416500B
:102A80004860002108488160C16001610C214161FA
:102A900000218161C161FFF7B7FC08B1FDF7F2FECB
:102AA00010BD000000440040F002002000BFFEE71F
:102AB00000BFFEE7704770B5044600260025206879
:102AC000C06800F04000C8B92068C06840F08000CD
:102AD0002168C860FEF7D8FA064608E0FEF7D4FA87
:102AE000801BB0F57A7F02D9042060770125206829
:102AF000C06800F0400008B9012DEFD1284670BD34
:102B000070B5044600252068C06820F08000216868
:102B1000C8602068806800F0200030B92046FFF7C8
:102B2000AFF810B1042060770125284670BD000081
:102B300001B582B04FF47A70012301AA02A9009076
:102B40000248FFF77BF99DF804000EBD54000020F9
:102B500010490968096821F040010E4A12681160A5
:102B60000C49096809684FF6C7721140094A126892
:102B700011600849096809680143064A1268116032
:102B800004490968096841F04001024A126811606D
:102B900070470000540000207CB504460D461646E0
:102BA000164800681821B0FBF1F01549B0FBF1F0B0
:102BB0004FF47A71484301906068B0F5827F0DD17F
:102BC0002B46002280212046009600F01BF898B189
:102BD000606D40F02000606503207CBD00BF01985F
:102BE00000B908E00198401E019020688068C0F399
:102BF000C0100028F3D100BF0020EEE72400002021
:102C000040420F002DE9F84F04460D4690461E46FF
:102C1000DDF82890FEF738FAA0EB0900371AFEF726
:102C200033FA82462C480068C0F3CB3078430090DA
:102C300045E0701C002842D0FEF726FAA0EB0A00FF
:102C4000B84200D2A7BB2068406820F0E0002168AD
:102C500048606068B0F5827F0DD1A068B0F5004F84
:102C600003D0A068B0F5806F05D12068006820F01F
:102C7000400021680860A06AB0F5005F0DD100BF78
:102C80002068006820F4005021680860206800680F
:102C900040F400502168086000BF012084F8510012
:102CA00000BF002084F8500000BF0320BDE8F88F6B
:102CB000FFE7009800B900270098401E00902068A8
:102CC00080682840A84201D1012000E00020404552
:102CD000AFD10020EAE7000024000020704710B5C3
:102CE000FEF708FA10BD000000B593B0302107A828
:102CF000FDF7A6FA142102A8FDF7A2FA00BF0020F2
:102D000001902548006840F080502349086008463B
:102D1000006800F08050019000BF00BF00BF00209D
:102D200001901E48006840F480401C490860084635
:102D3000006800F48040019000BF00BF0D200790A4
:102D40004FF480300890012009900C9002200D90E3
:102D500041050E9104210F914821109102211191FA
:102D60000421129107A8FEF7CDFC08B1FDF78AFDFA
:102D70000F200290022003908020049040010590D3
:102D800000200690012102A8FEF77CFB08B1FDF7A8
:102D900079FD13B000BD00004038024000700040D3
:102DA0000348006840F47000014908607047000063
:102DB00088ED00E070B50546AC6B0020E085E0844E
:102DC0002046FFF7B0F970BD70B506460025B46B1C
:102DD00020684069C0F3C01594F83D00212805D152
:102DE00025B10020E084204600F0C4F82068406946
:102DF000C0F3801594F83E00222805D125B10020AB
:102E0000E085204600F070F8206C40F0100020644F
:102E10002046FFF788F970BD70B50546AC6B286891
:102E2000006800F48070002842D1E08500BF00BF38
:102E300021680C3151E8001F21F4807021680C31A9
:102E400041E80002002AF3D100BF00BF00BF2168A3
:102E5000143151E8001F21F001002168143141E8CC
:102E60000002002AF3D100BF00BF00BF2168143167
:102E700051E8001F21F040002168143141E80002B0
:102E8000002AF3D100BF202084F83E00206B0128E7
:102E90000ED100BF00BF21680C3151E8001F21F0A6
:102EA000100021680C3141E80002002AF3D100BF74
:102EB000206B012804D1A18D2046FFF7EEF802E037
:102EC0002046FFF70EFC70BD70B50546AC6B206B5D
:102ED000012805D1A08D41082046FFF7DEF802E069
:102EE0002046FFF7FFFB70BD00BF00BF02680C3239
:102EF00052E8002F22F4907102680C3242E800136D
:102F0000002BF3D100BF00BF00BF0268143252E8AB
:102F1000002F22F001010268143242E80013002B56
:102F2000F3D100BF016B01290ED100BF00BF0268C1
:102F30000C3252E8002F22F0100102680C3242E8F5
:102F40000013002BF3D100BF202180F83E10002198
:102F50000163704710B504462068C06820F0400047
:102F60002168C860202084F83D002046FFF7BBFBA5
:102F7000002010BD00BF00BF02680C3252E8002FD5
:102F800022F0C00102680C3242E80013002BF3D19A
:102F900000BF202180F83D107047F8B5044694F832
:102FA0003E00222873D1A068B0F5805F0CD1206963
:102FB00050B90025A66A20684068C0F30800308038
:102FC000A06A801CA06215E0A56A0026A068B0F582
:102FD000805F03D0A06828B9206918B920684068CC
:102FE000287004E02068406800F07F002870A06A24
:102FF000401CA062E08D401E80B2E085002844D1D4
:103000002068C06820F020002168C8602068C0687F
:1030100020F480702168C8602068406920F00100B9
:1030200021684861202084F83E00206B012826D1C9
:103030000020206300BF00BF21680C3151E8001F51
:1030400021F0100021680C3141E80002002AF3D180
:1030500000BF2068006800F0100010280AD100BFEF
:103060000020009020680068009020684068009070
:1030700000BF00BFA18D2046FFF70FF802E02046F9
:10308000FFF72FFB0020F8BD01E00020FBE7022046
:10309000F9E700002DE9F84F04462068006920F4A4
:1030A0004050E1680843216808612169A06808432D
:1030B00061690843E169084300902068C06849F2EB
:1030C0000C618843009908432168C8602068406902
:1030D00020F44070A169084321684861764920685E
:1030E000884203D075492068884203D1FEF7A2FACE
:1030F000814602E0FEF78EFA8146E069B0F5004FA6
:103100006CD102206168A0FB015003461920A9FB85
:10311000007001462A463846FDF75AF86421B0FB94
:10312000F1F04FEA001A02206168A0FB01510B4642
:103130001920A9FB00712A463846FDF749F8834655
:1031400002206168A0FB015003461920A9FB007111
:103150002A463846FDF73CF86421B0FBF1F000EB5D
:10316000C00101EB0010ABEB8000322101EBC0008D
:103170006421B0FBF1F000F0F8000AEB400A0220F5
:103180006168A0FB015003461920A9FB00700146AD
:103190002A463846FDF71CF8834602206168A0FBEA
:1031A000015003461920A9FB00712A463846FDF755
:1031B0000FF86421B0FBF1F000EBC00101EB00104F
:1031C000ABEB8000322101EBC0006421B0FBF1F0D9
:1031D00000F007005044216888606AE004206168BC
:1031E000A0FB015003461920A9FB007001462A46A6
:1031F0003846FCF7EDFF824604206168A0FB0150D1
:1032000003461920A9FB007001462A463846FCF700
:10321000DFFF6421B0FBF1F000EBC00101EB001017
:10322000AAEB8000322101EB00106421B0FBF1F029
:1032300000F0F00A04206168A0FB01700346192029
:10324000A9FB00513A462846FCF7C2FF6421B0FBB7
:10325000F1F00AEB001A04206168A0FB01510B4653
:103260001920A9FB00712A463846FCF7B1FF8346B6
:1032700004206168A0FB015003461920A9FB0070DF
:1032800001462A463846FCF7A3FF6421B0FBF1F063
:1032900000EBC00101EB0010ABEB8000322101EB31
:1032A00000106421B0FBF1F000F00F0050442168E1
:1032B0008860BDE8F88F0000001001400014014054
:1032C00077B581B0044615460298A062A585002016
:1032D0002064222084F83E002A48A16BC8632A4853
:1032E000A16B08642948A16BC8640020A16B086524
:1032F00002AE32682368191D2B46A06BFDF7C6FC91
:1033000000BF00200090206800680090206840689E
:10331000009000BF00BF00BF002084F83C0000BF49
:10332000206970B100BF00BF21680C3151E8001F57
:1033300041F4807021680C3141E80002002AF3D189
:1033400000BF00BF00BF2168143151E8001F41F0E9
:1033500001002168143141E80002002AF3D100BFC6
:1033600000BF00BF2168143151E8001F41F0400048
:103370002168143141E80002002AF3D100BF002087
:1033800004B070BD192E0008C92E0008C92D000810
:10339000014691F83D00212828D18868B0F5805F6A
:1033A0000BD1086948B90A6A1088C0F308000B6895
:1033B0005860086A801C086205E00B6A581C0862A5
:1033C00018780B685860C88C401E80B2C88458B901
:1033D0000868C06820F080000B68D8600868C06882
:1033E00040F040000B68D860002070470220FCE7E6
:1033F00010B500F013F80248FEF796FE10BD00006D
:10340000AC02002010B500F033F80248FEF78CFE45
:1034100010BD0000F002002000BFFEE738B5002517
:103420000F4800680068C0F30015C5B100BF002058
:1034300000900B48006800680090094800684068E8
:10344000009000BF00BF0648FEF728FE0548006850
:10345000446860420449087001200449087038BD7E
:10346000AC020020340300201100002012000020D4
:1034700038B500250F4800680068C0F30015C5B1D5
:1034800000BF002000900B480068006800900948C9
:1034900000684068009000BF00BF0648FEF7FEFDD0
:1034A00005480068446860420449087001200449E6
:1034B000087038BDF0020020F40300201300002043
:1034C0001400002010B586B000BF002000901F48F7
:1034D000006840F002001D4908600846006800F0DE
:1034E0000200009000BF00BF4FF480400190012017
:1034F000029003900320049001A91548FDF7C4FC35
:10350000012014490860FFF777FA0820FFF720FB35
:1035100000F058F810490880084600884EF61871E7
:10352000884210D1032000F071F8044604F0010035
:1035300048B9002007490860B720FFF7F9FA0120D1
:103540000649C1F8B80206B010BD0000303802408C
:1035500000040240B8824042000000200080404247
:103560002DE9F04106460C46174600201349086035
:103570000320FFF7DDFA124800884EF618718842E2
:1035800002D1200EFFF7D4FAC4F30740FFF7D0FAB8
:10359000C4F30720FFF7CCFAE0B2FFF7C9FA002521
:1035A00005E0FF20FFF7C4FA7055681C85B2BD42E4
:1035B000F7DB012001490860BDE8F081B882404294
:1035C0000000002010B5002400200E490860902063
:1035D000FFF7AEFA0020FFF7ABFA0020FFF7A8FADA
:1035E0000020FFF7A5FAFF20FFF7A2FA44EA002423
:1035F000FF20FFF79DFA044301200349C1F8B802F8
:10360000204610BDB88240420080404270B504465A
:1036100000250026012C04D0022C04D0032C06D156
:1036200003E0052605E0352603E0152601E0052622
:1036300000BF00BF0020074908603046FFF778FA56
:10364000FF20FFF775FA054601200349C1F8B802CB
:10365000284670BDB8824042008040420FB4054BFE
:1036600010B503A9044A029800F0F6F810BC5DF802
:1036700014FB0000893F00080C000020024800688D
:10368000C0F30220704700000CED00E010B50028E8
:1036900004DB0A07130E054A135406E00A07140E4A
:1036A000034A00F00F031B1FD45410BD00E400E0D8
:1036B00018ED00E002E008C8121F08C1002AFAD184
:1036C00070477047002001E001C1121F002AFBD1A2
:1036D000704700002DE9FF5F82B00021DDE9043072
:1036E000020DDDF840B0034318D044F61050A2F2AA
:1036F000FF3242431514119801281FD0A5EB0B008F
:10370000401C5FEA000A4FF000064E4FDFF8389188
:10371000B046504615D5CAF1000413E011980124B3
:103720004AA3012801D16FEA0B010298119AC0E95E
:103730000031C0E9024206B0BDE8F09FCBF10000C5
:10374000DFE704460021404A491842EB0450CDE926
:10375000001012E0E00707D032463B46404649469B
:10376000FCF755FE8046894632463B4610461946D0
:10377000FCF74DFE06460F466410002CEAD1DDE949
:103780000401DDE90023BAF1000F06DAFCF73FFE81
:1037900042464B46FCF73BFE05E0FCF7AAFE4246DC
:1037A0004B46FCF7A6FE04460E460022284BFCF7CB
:1037B00027FF03D84FF0FF30014607E00022254BDA
:1037C00020463146FCF77CFDFCF702FF102409E09F
:1037D000002C0ADB0A220023FCF7FAFC039B3032A0
:1037E0001A55641E50EA0102F2D1641C039AC4F116
:1037F00011031444119A012A03D0012208430DD168
:103800000AE0084304D000204FF0110B119072E73A
:10381000A3EB0B056D1E0DE05B4504DD4FF00002D0
:1038200005F1010504E003DA4FF00002A5F10105FE
:10383000002AECD002981199C0E90231C0E9004594
:1038400079E70000000014400000F03F3000000065
:103850000000F0430000E03F2DE9FF4F95B09B468C
:103860008946064600250FE2252877D10024274601
:10387000F84A0121059400E0044316F8013F203B7B
:1038800001FA03F01042F7D130782A2811D06FF0F6
:103890002F033078A0F13002092A16D8059A44F097
:1038A000020402EB820203EB42021044761C0590F4
:1038B000EFE759F8042B0592002A03DA504244F44A
:1038C0000054059044F00204761C30782E2816D15E
:1038D00016F8010F44F004042A280DD06FF02F02CF
:1038E0003078A0F13003092B09D807EB870302EBEE
:1038F0004303C718761CF3E759F8047B761C30782D
:103900006C280FD006DC4C2817D068280DD06A2808
:1039100014D104E0742810D07A280FD10DE044F4BB
:1039200000140AE044F4801401E044F44014727876
:10393000824202D104F58014761C761C3078662809
:103940000BD013DC582877D009DC002875D0452827
:10395000F6D04628F4D047281AD19DE118E0632814
:1039600035D0642879D0652812D195E1702873D0BC
:1039700008DC6728F1D069286FD06E280DD06F2839
:1039800006D1B5E073282CD0752875D0782874D06E
:103990005A46179990476D1C75E1C4F302500228EE
:1039A00009D003280DD0D9F8001004280DD00D60DF
:1039B00009F1040967E1D9F80010EA17C1E90052DA
:1039C000F6E7D9F800100D80F2E70D70F0E719F86E
:1039D000041B8DF8001000208DF80100EA4601203C
:1039E00003E059F804AB4FF0FF3061074FF00001DE
:1039F00002D40DE008F101018846B9420FDA804592
:103A0000F8DB1AF808100029F4D108E008F10101E8
:103A100088468142FADB1AF808100029F6D1059889
:103A20005B46A0EB080721463846179A00F094FA47
:103A3000284400EB080507E04DE029E10DE01AF805
:103A4000010B5A4617999047B8F10108F7D25B4627
:103A500021463846179A13E142E00A220092C4F345
:103A600002524FF0000A022A08D059F804CB032A68
:103A70004FEAEC710AD00DE029E02AE009F10701D4
:103A800021F00702F2E802C1914609E00FFA8CFC2E
:103A90004FEAEC71042A03D14FFA8CFC4FEAEC7127
:103AA000002907DA0A460021DCF1000C61EB020173
:103AB0002D2202E0220504D52B228DF804200122BC
:103AC00003E0E20701D02022F7E7904659E00A21FF
:103AD00002E010220DE010214FF0000A00910BE0EF
:103AE00010224FF0000A44F004040827009203E07B
:103AF00008224FF0000A0092C4F30252022A05D0B5
:103B000059F804CB0021032A08D009E009F1070184
:103B100021F00702F2E802C1914605E01FFA8CFC91
:103B2000042A01D10CF0FF0C4FF00008220728D521
:103B3000702806D0009B83F0100353EA0A0305D0D7
:103B40000EE040228DF80420012208E05CEA010228
:103B500006D030228DF804208DF805000222904610
:103B6000009B83F0080353EA0A030AD15CEA0102CE
:103B700001D1620705D530228DF804204FF00108ED
:103B80007F1E582804D034A003900EA802900DE0A8
:103B900036A0F9E753466046009AFCF719FB8446C5
:103BA0000398825C0298401E029002705CEA010059
:103BB000F0D1029806A9081A00F1200A600702D580
:103BC00024F4803400E00127574502DDA7EB0A000A
:103BD00000E0002000EB0A01009005984144401AE3
:103BE0000590E00306D45B462146179A059800F03D
:103BF000B3F90544002706E001A85A46C05D1799AD
:103C000090476D1C7F1C4745F6DBE0030CD55B46F7
:103C10002146179A059800F09FF9054404E03020EA
:103C20005A46179990476D1C0099481E009000292C
:103C3000F5DC08E0029802995A460078491C029186
:103C4000179990476D1CBAF10001AAF1010AF1DC45
:103C500065E1000009280100303132333435363750
:103C600038396162636465660000000030313233C8
:103C70003435363738394142434445460000000068
:103C800000F058F90544761C307800287FF4ECAD3C
:103C900019B02846BDE8F08F620700D4062709F165
:103CA000070222F0070CFCE80223E14603F000487B
:103CB0005FEA080C02D00FF2702C0DE05FEA045CA2
:103CC00002D50FF2682C07E05FEAC47C02D00FF245
:103CD000602C01E0AFF2700C4FF0FF3823F000438E
:103CE000CDF850C065280CD006DC452809D0462800
:103CF0001DD047283DD13DE0662818D067287ED1E9
:103D000038E00021112F01DB112000E0781CCDE903
:103D1000000106A90EA8FFF7DDFCDDE90F010E9AF0
:103D200003910021009207F1010A04914DE04FF048
:103D300000400097CDE9011006A90EA8FFF7CAFCC4
:103D4000DDE90F0203920E9B11990022DDF80CA011
:103D50000093049211B9791C00EB010AB7EB0A0039
:103D600004D4C0F1FF3007F1010A0490AAEB070068
:103D7000019044E0012F00DA01270021112F01DD1D
:103D8000112000E03846CDE9000106A90EA8FFF792
:103D9000A1FCDDE90F010E9A03910021049100922C
:103DA000BA4621070CD40399514500DA8A46BAF184
:103DB000010F05DD009AAAF10101515C302908D0FC
:103DC000B84202DA10F1040F06DA0121CDE9011040
:103DD00015E0AAF10101E9E7002805DC0499014496
:103DE0000491AAEB000102E0411C514500DD8A4626
:103DF0000499401A401C01904FF0004002902007A7
:103E000004D40198504501DBCDF8048000208DF8E2
:103E10004F0002980DF14F07B0F1004F25D02B2035
:103E20000E9002984FF0020800280CDA40420290EF
:103E30002D200E9007E00A210298FCF70CFA303191
:103E4000029007F8011DB8F10001A8F10108F2DCA9
:103E500002980028EFD1791E0E980870307800F093
:103E6000200040F0450007F8020D12A8C01B00F129
:103E700007081498007800B1012000EB0A010198AE
:103E800001EBE07105984144401A401E0590E003A3
:103E900006D45B462146179A059800F05DF8054464
:103EA0001498007818B15A46179990476D1CE00392
:103EB00024D55B462146179A059800F04DF8054435
:103EC0001CE00498002807DBDDE90301884203DDDC
:103ED0000098405C179901E0179930205A469047A6
:103EE000049805F10105401C04900198401E0190C2
:103EF00004D12E205A46179990476D1CBAF1000143
:103F0000AAF1010ADDDC05E017F8010B5A46179902
:103F100090476D1CB8F10001A8F10108F4DC5B4684
:103F20002146179A0598ABE62D0000002B000000F3
:103F3000200000002DE9F041044600251E461746EA
:103F4000880404D405E039462020B0476D1C641E67
:103F5000F9D52846BDE8F0812DE9F0410446002559
:103F60001E469046C80301D5302700E0202788046C
:103F700004D505E041463846B0476D1C641EF9D5AE
:103F80002846BDE8F081000000BF054A126802F033
:103F90004002002AF9D0C2B2014B5A6070470000BB
:103FA0000010014010B500204FF0E0210861886149
:103FB0002520FDF713F92620FDF710F91020FDF755
:103FC0000DF91120FDF70AF90D20FDF707F92F2053
:103FD000FDF704F90148FDF7D5FE10BD540000209F
:103FE00010B504460449606808602068FCF7DBF8F7
:103FF00001480068804710BD0800002008B5FDF7A3
:1040000085F8FEF771FEFEF7F7FCFFF75BFAFEF7A7
:1040100015FDFEF72FFDFEF769FB0120009004223D
:104020001C496846FFF79CFA009828B11AA0FFF7D0
:1040300015FBFEF7ABFC02E01EA0FFF70FFBFEF73F
:1040400099FBFEF7B7FC22480068C06840F01000FA
:104050001F490968C8604FF480721E491C48FEF76A
:104060001FFB1D480068C06840F010001A4909682D
:10407000C8604FF4807219491748FEF711FBFFF72B
:1040800091FF17A0FFF7EAFA1B48FFF7A9FF00BF4F
:10409000FEE7000058FDFF00626F6F746C6F616493
:1040A0006572E5BC80E590AFE79C8BE997A8E78B4C
:1040B000970D0A00626F6F746C6F61646572E585BD
:1040C000B3E997ADE79C8BE997A8E78B970D0A00BA
:1040D000AC020020AC000020F0020020AC01002067
:1040E000626F6F746C6F61646572E8B7B3E8BDAC02
:1040F0004150500D0A000000000004080006101690
:104100000006101600000000000000000102030479
:104110000607080900000000010203043C410008F2
:104120000000002028000000B436000864410008A8
:1041300028000020900C0000C436000818EF000092
:10414000000000000000000000000000000000006F
:10415000000000000000000010000000010000004E
:044160000024F40043
:040000050800018965
:00000001FF
