:020000040800F2
:1000000008280020AD0100081B220008AF1E0008D0
:1000100019220008DD020008D9460008000000008F
:100020000000000000000000000000002B2200087B
:100030003103000800000000292200082D220008DA
:10004000C7010008C7010008C7010008C701000870
:10005000C7010008C7010008C7010008C701000860
:10006000C7010008C7010008C7010008C701000850
:10007000C7010008C7010008C7010008C701000840
:10008000C7010008C7010008C7010008C701000830
:10009000C7010008C7010008C7010008C701000820
:1000A000C7010008C7010008C7010008C701000810
:1000B000C7010008C7010008C7010008C701000800
:1000C000C7010008C7010008C7010008C7010008F0
:1000D000C701000801250008C7010008C701000882
:1000E000C7010008C7010008C7010008C7010008D0
:1000F000C7010008C7010008C7010008C7010008C0
:10010000C7010008C7010008C7010008C7010008AF
:10011000C7010008C7010008C7010008C70100089F
:10012000C7010008C7010008C7010008C70100088F
:10013000C7010008C7010008C7010008C70100087F
:10014000C7010008C7010008C70100081D220008F8
:10015000C7010008C7010008C7010008C70100085F
:10016000C7010008C7010008C7010008C70100084F
:10017000C7010008C7010008C7010008000000000F
:10018000C7010008C7010008DFF80CD000F094F8A0
:10019000004800472D5E00080828002030BF72B6D6
:1001A000704762B6704780F30888704706488047FA
:1001B00006480047FEE7FEE7FEE7FEE7FEE7FEE74C
:1001C000FEE7FEE7FEE7FEE7C5220008890100081A
:1001D0002DE9F05F0546002092469B46884606467C
:1001E000814640241BE0284641464746224600F00F
:1001F00053F853465A46C01A914110D31146184637
:10020000224600F03AF82D1A67EB01084F462246C5
:100210000120002100F031F817EB00094E41201EAB
:10022000A4F10104DFDC484631462A464346BDE8D6
:10023000F09F40EA01039B0703D009E008C9121FA1
:1002400008C0042AFAD203E011F8013B00F8013B90
:10025000521EF9D27047D2B201E000F8012B491EBC
:10026000FBD270470022F6E710B513460A46044653
:100270001946FFF7F0FF204610BD202A04DB203A84
:1002800000FA02F1002070479140C2F1200320FAE9
:1002900003F3194390407047202A04DB203A21FAE7
:1002A00002F00021704721FA02F3D040C2F120028F
:1002B0009140084319467047064C074D06E0E06838
:1002C00040F0010394E8070098471034AC42F6D39D
:1002D000FFF75EFF280E0308480E0308FEE7000044
:1002E00010B500224FEA020100EB8203521CC3F852
:1002F0008413102AF8D300224FF400738418521C80
:1003000084F81C119A42F9D3017041700122827065
:10031000C0F8C413027640238371417680F81C1321
:1003200080F81D2380F81F1380F81E13002010BDD5
:10033000704772B6FEE70022AFF3008030B50E4B77
:10034000054601205C7A002C14D1587A1C54587A46
:1003500003EB800045605D7A03F108002A54587A67
:10036000421C5A72303008703A2048702F20887032
:10037000CC70002030BD0000F8070020002229B119
:1003800001291AD002291BD04FF440720E490B6884
:1003900023F440730B600B6813430B600A6822F070
:1003A000F8020A600A68022303EBC00002430A60F5
:1003B000086840F48030086070474FF48072E5E7C9
:1003C0004FF40072E2E70000103C0240134801685D
:1003D00089050FD5016821F400710160016841F4BD
:1003E00000610160016821F400610160016841F46D
:1003F00000710160016849050FD5016821F4806131
:100400000160016841F480510160016821F480516C
:100410000160016841F4806101607047003C024066
:1004200030B58FB0044640F6FF7507A800F08AF992
:100430000120CDE90004AA200490099C9DF8340015
:100440008DF818002C4300F055FA00F001FA6846C8
:10045000029400F097F90FB030BD000008490A6817
:1004600022F440720A600A6842F004020A600A68D4
:100470004FF4803343EA002002430A6070470000D3
:10048000103C0240064A136823F44073136013685B
:100490001360136843F0010313600170704700009C
:1004A000103C0240094910B50C6824F440740C60FB
:1004B0000C6844F440740C600C6844F001040C6057
:1004C0000260BFF36F8F436010BD0000103C02401C
:1004D000074A136823F440731360136843F480736E
:1004E0001360136843F0010313600180704700003C
:1004F000103C0240074A136823F4407313601368EA
:1005000043F400731360136843F001031360016048
:1005100070470000103C024017490868C20617489F
:1005200005D5C26942F01002C26110220A600A6851
:10053000920605D5C26942F00802C26120220A6013
:100540000A68520605D5C26942F00402C26140221F
:100550000A600A68120605D5C26942F00202C26149
:1005600080220A600A68920705D5C26942F020021B
:10057000C2610220086070470C3C0240B8070020AE
:1005800070B5114904460020C86100F0C7FA06465C
:100590000E4D09E0601C07D024B100F0BFFA801BAB
:1005A000A04201D9032070BD2868C003F2D4286896
:1005B000C00701D001202860286810F0F200F2D0B6
:1005C000FFF7AAFF012070BDB80700200C3C0240D5
:1005D0002DE9F0410446876D00F0A0FA064694F834
:1005E00035000025022806D08020606584F834504C
:1005F0000120BDE8F0812068016821F0160101604A
:100600002068416921F080014161206C08B9A06C2B
:1006100020B12068016821F00801016020680168AC
:1006200021F0010101600CE000F078FA801B052840
:1006300007D920206065032084F8350084F8345001
:10064000D7E720680068C007EED194F85C103F201F
:100650008840B860012084F8350084F834500020C8
:10066000C7E790F83510022903D0802141650120A9
:100670007047052180F835100068016821F00101FC
:10068000016000207047000070B5044600F046FA93
:100690000546601C02D004480078044400F03EFA8D
:1006A000401BA042FAD370BD080000202DE9F0479E
:1006B000044622480F46017E01290AD001218046C6
:1006C00001764CF250394846FFF75AFF020003D03A
:1006D0002FE00220BDE8F0874FF0FF30386020683F
:1006E000174D012801D0A6681CE0207C6168FFF747
:1006F000B5FE4846FFF744FF0246286820F0040094
:10070000286014E0217C3046FFF738FE4846FFF7AA
:1007100037FF0200286820F0FA00286001D03E6010
:1007200005E0761CD4E902100844B042EAD8FFF78D
:100730004DFE002188F818101046CBE7B8070020BE
:10074000103C02400F2101600D49098881600C4A6C
:10075000AA21521E1378CC2B0FD01278AA2A00D0CF
:10076000552101610649891E0A6802F0E0020276FD
:10077000097801F00C0141617047CC21F1E70000DC
:10078000163C02402DE9F0472E49044601200A7E1E
:10079000012A11D0012288460A7621784CF2503A7B
:1007A000C90715D06068284D0128A668504606D0B4
:1007B000FFF7E6FE48B10BE00220BDE8F087FFF747
:1007C000DFFE28B92988B14301E029883143298017
:1007D0002178890707D5257C5046FFF7D1FE10B94F
:1007E0001949491E0D702178DFF86090490713D52B
:1007F000207E00F0200700F0400500F08006504603
:10080000FFF7BEFE40B999F8002002F01F02154321
:1008100035433D4389F8005021784FF00002090725
:100820000CD5207D99F8003023F00C0389F80030B6
:1008300099F80030034389F80030104688F81820F2
:10084000BBE70000B8070020163C0240143C024001
:1008500006480068C00707D0044805490C38016005
:10086000044901600020704701207047143C024099
:100870003B2A19087F6E5D4C2DE9F0471B4E05465B
:100880001446307E1F468946012808D00120307664
:100890004CF250384046FFF773FE18B114E00220C6
:1008A000BDE8F0879DB1012D16D0022D19D022464A
:1008B0003B464846FFF7F6FD4046FFF761FE0C4910
:1008C0000A6822F001020A6000213176E8E7E1B20D
:1008D0004846FFF7D7FDEFE7A1B24846FFF7F8FD1E
:1008E000EAE721464846FFF705FEE5E7B80700209E
:1008F000103C0240074900200A68002A09DA054A2C
:10090000054B0C3A1360054B13600968002900DAA7
:1009100001207047103C024023016745AB89EFCDB1
:100920002DE9F84FDFF8BCA10022012503264FF086
:100930000F090AF1040BAAF1040E00BF0B6805FAB7
:1009400002F42340A34270D10F7907F00307012F6F
:1009500001D0022F16D187684FEA420806FA08FC38
:1009600027EA0C07D1F80CC00CFA08FC4CEA070C7B
:10097000C0F808C04768A7430C79C4F3001494403A
:100980003C4344600C79E443A4070AD0C4684FEAAE
:10099000420C06FA0CF7BC438F6807FA0CF72743A2
:1009A000C7600C7904F00304022C12D1D40800EBC8
:1009B000840CDCF820405707FF0E09FA07F824EAF8
:1009C0000804D1F8108008FA07F848EA0408CCF8BF
:1009D000208004684FEA420C06FA0CF7BC430F79FA
:1009E00007F0030707FA0CF7274307604C6814F475
:1009F000403F70D03C4C276847F48047276024680C
:100A000022F0030704F480440094384C07EB040CF4
:100A1000DCF8084897074FEA177809FA08F7BC434B
:100A2000334FB84202D1002724E054E0314FB8429E
:100A300001D101271EE0304FB84201D1022719E051
:100A40002E4FB84201D1032714E02D4FB84201D1F7
:100A500004270FE02B4FB84201D105270AE02A4FA7
:100A6000B84201D1062705E0284FB84201D1072737
:100A700000E0082707FA08F72743CCF80878DAF8E7
:100A800000405746D1F804C09C435FEACC2C00D507
:100A90001C433C60DBF800405F46D1F804C09C4337
:100AA0005FEA8C2C00D51C433C60DEF800407746A2
:100AB000D1F804C09C435FEA8C3C00D51C433C60E9
:100AC000084F083F3C68D1F804C09C435FEACC3C27
:100AD00000D51C433C60521C102AFFF42FAFBDE828
:100AE000F88F0000083C01404438024000300140CB
:100AF000000002400004024000080240000C0240D6
:100B0000001002400014024000180240001C024085
:100B10000AB1816170470904FBE700000148806861
:100B20007047000008000020D0F8000302F023B84E
:100B3000D0F8000302F029B8006803F0EBBA0068AF
:100B400003F0ECBA01EB410202EBC10100EB8100C2
:100B500090F86000704701EB410202EBC10100EB2D
:100B60008100006D704710B5044690F8F802012826
:100B700009D0012084F8F802206803F0DAFA002096
:100B800084F8F80210BD022010BD2DE9FE43054691
:100B9000DDE90B7095F8F842DDF828C0012C1ED075
:100BA00001EB410404EBC1044FF0010905EB84049F
:100BB00085F8F892002684F83D6084F83830A4F86F
:100BC000400084F8391084F83F7002F07F0884F800
:100BD0003A805FEA026805D584F83B9004E0022081
:100BE000BDE8FE8384F83B6084F83CC0CDF800C0CB
:100BF000CDE90170286803F0FFFA85F8F862EFE7A5
:100C000070472DE9F00301EB4104DDE906C9DDE998
:100C1000087504EBC10400EB8404022684F83B2031
:100C200084F83F30BCF1000F0AD084F84260002500
:100C30006BB1012B2FD0022B12D0032B16D10FE05A
:100C40004FF0030884F8428084F83D50EFE7BCF190
:100C5000010F0BD152B9DFB9012284F8552003E00E
:100C6000B2B194F85420B2B184F84260C4F8449010
:100C7000E76484F86050256584F8391084F8615081
:100C8000027C04F138010068BDE8F00303F03DBBCD
:100C900094F85520E7E784F84250E7E72DE9F04162
:100CA00006680446304603F040FA012875D12068F2
:100CB00003F04FFC002870D0206803F04AFC80024B
:100CC00003D521684FF400104861206803F041FC0F
:100CD000C00203D521684FF480104861206803F0FA
:100CE00038FC400103D521684FF0806048612068DE
:100CF00003F02FFC800702D521680220486120689C
:100D000003F027FC800015D521684FF000504861A2
:100D1000D6F84004C0070DD11021304603F0DAF9AF
:100D2000304603F0B9F90121206803F0F7FB2046B3
:100D3000FFF7FEFE206803F00CFCC00102D5204640
:100D400001F025F8206803F004FC000705D52046D3
:100D500000F0C7F8216808204861206803F0F9FB1B
:100D6000C043C0060CD42068816921F01001816164
:100D7000204601F056F82068816941F01001816138
:100D8000206803F0E6FB800123D5206803F0B9FA60
:100D9000074600254FF0010814E01AE005F00F01A6
:100DA00008FA01F038420CD006EB4510D0F80005E7
:100DB000E9B20004204602D500F0E6FD01E000F0B3
:100DC000D8FE6D1CA068A842E8D821684FF00070DA
:100DD0004861BDE8F08170B58AB0040005D094F890
:100DE000F9022568002618B107E001200AB070BD9D
:100DF00084F8F862204600F027F8032084F8F9020E
:100E0000E86BC00500D42661206803F011F904F1F5
:100E1000100128220D466846FFF70BFA94E80F00F0
:100E200003F0ACF80121206803F0CFFB282229460B
:100E30006846FFF7FEF994E80F0003F007FB012076
:100E400084F8F9020020D1E710B586B004461421D9
:100E50006846FFF707FA2068B0F1A04F2FD1194874
:100E60000021026842F001020260006800F0010007
:100E700005904FF4C05000900220CDE901010320FD
:100E800003900A20049069460F48FFF749FD0D487A
:100E9000001D016841F0800101600A4814300168BA
:100EA00041F4804101600068002200F48040059018
:100EB0000121432000F0BAF8432000F0AAF806B060
:100EC00010BD00003038024000000240D0F800039E
:100ED00001F0EEBED0F8000301F0EEBE006803F0B2
:100EE0005BBBD0F8000301F09EBE10B5044690F83D
:100EF000F80201280DD0012084F8F80201212068B1
:100F000003F0AEF8206803F0C1F8002084F8F8027E
:100F100010BD022010BD10B5044690F8F80201285B
:100F200009D0012084F8F802206803F07CFB00203F
:100F300084F8F80210BD022010BD0000024881684C
:100F40000278114481607047080000200B4810B5FA
:100F5000016841F400710160016841F48061016041
:100F6000016841F480710160032000F07FF80F20D8
:100F700000F006F800F024F8002010BD003C02400C
:100F800070B50D4D04464FF47A712878B1FBF0F03E
:100F90000A490968B1FBF0F000F01AFB48B9102CBF
:100FA00007D200222146501E00F040F800206C605D
:100FB00070BD012070BD000008000020140000205A
:100FC0000A4808B5016841F480410160006800F4F6
:100FD000804000900548001F016841F08051016089
:100FE000006800F08050009008BD000044380240C6
:100FF00000280DDB00F01F02012191404009800014
:1010000000F1E020C0F88011BFF34F8FBFF36F8F66
:101010007047002809DB00F01F02012191404009C0
:10102000800000F1E020C0F800117047F0B40E4BD2
:101030001B680C46C3F30223C3F10705042D00D936
:101040000425191D072901D2002300E0DB1E01261B
:1010500006FA05F1491E214099409E40761E164031
:101060003143F0BC03F04ABB0CED00E0064900F050
:10107000070208684FF6FF03184040EA0220034ABF
:1010800010430860704700000CED00E00000FA0516
:101090002DE9F0470E46050065D0DFF81481D8F839
:1010A0000000F7B200F00700B04207D288F80070E5
:1010B000D8F8000000F00700B04254D128683D4C39
:1010C000810712D5400703D5206840F4E050206026
:1010D0002878000703D5206840F46040206020682D
:1010E000A96820F0F000084320602878C0072DD0C0
:1010F000304968680839012812D0022813D0032823
:1011000011D00968890700292DDA216821F003012F
:1011100001432160FFF702FD814641F2883A0EE06B
:1011200009688903EFE709688901ECE7FFF7F6FC36
:10113000A0EB0901514502D90320BDE8F0872068E2
:10114000696800F00C00B0EB810FEFD1D8F8001007
:10115000404601F00701B14207D90770006800F06E
:101160000700B04201D00120E7E72878400705D505
:101170002068E96820F4E0500843206028780007E0
:1011800006D52068296920F4604040EAC10020604B
:1011900000F038F82168084AC1F30311515CC840D7
:1011A0000649086006480068FFF7EAFE0020C4E729
:1011B000003C02400838024016620008140000207B
:1011C0000C0000200448054900680968044AC1F37E
:1011D0008221515CC840704714000020083802404A
:1011E000266200080448054900680968044AC1F3FA
:1011F0004231515CC840704714000020083802405A
:1012000026620008154810B5006810F00C0214485A
:1012100013D04110042A0FD0082A0ED10F4C241FDE
:101220002268236802F03F025B0207D52068C0F302
:101230008810A0FB010106E0084610BD2168C1F33B
:101240008811A1FB00010023FEF7C2FF2168C1F352
:101250000141491C4900B0FBF1F010BD08380240C3
:101260000024F4002DE9F84F04006ED02078DFF858
:101270004C93C007A9F104054AD009F104000168A4
:10128000C1F38101012908D00068C0F38100022860
:101290000AD1D9F80000400206D52868800337D566
:1012A00060680028E1D033E06068B0F5803F10D07E
:1012B000B0F5A02F286810D020F48030286028686E
:1012C00020F4802028606068A8B1FFF727FC06465C
:1012D0000DE0286840F48030F4E740F48020286076
:1012E000F7E700BFFFF71AFC801B642873D8286853
:1012F0008003F7D50CE0FFF711FC064605E000BFC0
:10130000FFF70CFC801B6428F0D828688003F7D412
:101310002078DFF8AC8280074FF0000A3ED5A7485E
:10132000001D016811F00C0F08D00068C0F38100A7
:1013300002280BD1D9F80000400207D428688007A2
:1013400016D5E068012800D112E033E1E068B8B1B9
:101350000120C8F80000FFF7E1FB064605E000BFEA
:10136000FFF7DCFB801B0228C0D828688007F7D570
:101370002868216920F0F80040EAC10028600DE0EB
:10138000C8F800A0FFF7CAFB064604E0FFF7C6FB5B
:10139000801B02281FD828688007F7D42078000710
:1013A00022D5864F87486169703771B1012101608C
:1013B000FFF7B4FB064604E0FFF7B0FB801B0228F2
:1013C00009D838688007F7D50EE0C0F800A0FFF70D
:1013D000A5FB064605E082E0FFF7A0FB801B022884
:1013E0007DD838688007F7D42078400768D5DFF8C3
:1013F000CCB100270BF13C0BDBF80000C0000BD494
:10140000DBF8001041F08051CBF80010DBF8000051
:10141000012700F0805000906B4E3068C00510D45A
:10142000306840F480703060FFF778FB009005E092
:10143000FFF774FB0099401A022850D83068C005A5
:10144000F6D55E4EA0686C3601280FD005283068AE
:1014500010D020F001003060306820F004003060CF
:10146000A068B8B1FFF75AFB00900FE0306840F079
:101470000100F4E740F004003060F7E7FFF74EFBAF
:101480000099411A41F28830814266D8306880075D
:10149000F4D50EE0FFF742FB009007E0FFF73EFBBC
:1014A0000099411A41F28830814256D8306880074D
:1014B000F4D42FB1DBF8001021F08051CBF80010EC
:1014C000A069C8B33D49091D0968C1F3810102291A
:1014D0004AD00228504607D0C8F8600000E03CE03F
:1014E000FFF71CFB04463BE04746C8F86000FFF7E7
:1014F00015FB064605E000BFFFF710FB801B022826
:101500002BD828688001F7D4D4E907010843A16AE1
:101510002E4A490802EB0141626A41EA82110843FE
:1015200094F82C1040EA0161C9F8001001203866D7
:10153000FFF7F4FA044606E03EE000BFFFF7EEFADC
:10154000001B022809D828688001F7D534E000BFC5
:10155000FFF7E4FA001B022802D90320BDE8F88F48
:1015600028688001F4D427E00128F7D0D9F80000DA
:10157000E26900F4800191421CD1226A00F03F012F
:10158000914217D147F6C071626A0140B1EB821FE8
:1015900010D1A26A4FF0FF3300F4403103EB520246
:1015A000B1EB024F06D194F82C1000F07060B0EB54
:1015B000016F01D00120D1E70020CFE704380240BD
:1015C00000004742800E4742007000400000FFFFCD
:1015D00010B5401EB0F1807F01D3012010BD4FF047
:1015E000E02460610F21601703F088F80020A061FB
:1015F00007202061002010BD70477047F8B50168D2
:1016000004460868CA684B6910F00F0F4FF00005D8
:1016100059D003F0010602F49077374365D0C10733
:1016200005D0D10503D5216C41F0010121644107AA
:1016300005D5D90703D0216C41F00201216481074F
:1016400005D5D90703D0216C41F0040121640107BD
:1016500007D502F02001314303D0216C41F008018D
:101660002164216C00293AD0800604D5900602D569
:10167000204600F05EFE20684069216CC0F38010B7
:10168000090700D460B3204600F02CFE20684069B2
:10169000400621D52068143050E8001F21F0400199
:1016A00040E80012002AF5D1A06BA8B16C49016591
:1016B000A06BFEF7D6FF002811D0A06B016D01B022
:1016C000BDE8F040084783060FD593060DD52046A8
:1016D000BDE8F84000F02DBE2046FFF78EFFF8BDB4
:1016E0002046FFF78AFF2564F8BD266B2023012ED4
:1016F00079D1C60677D5D60675D5086848680090B2
:101700004869400640D5A16B086840680004000C99
:10171000EAD0A28D8242E7D9E085C869B0F5807F22
:101720002DD020680C3050E8001F21F4807140E873
:101730000012002AF5D12068143050E8001F21F073
:10174000010140E80012002AF5D12068143050E869
:10175000001F21F0400140E80012002AF5D184F872
:101760003E30256320680C3050E8001F21F0100146
:1017700040E80012002AF5D1A06BFEF729FFA08DEA
:10178000E18D401A81B229E0A08DE18D401A81B22D
:10179000E08D0028A8D00029A6D020680C3050E8A1
:1017A000002F22F4907240E80026002EF5D1206828
:1017B000143050E8002F22F0010240E80026002EED
:1017C000F5D184F83E30256320680C3050E8002FB6
:1017D00022F0100240E80023002BF5D12046FFF74D
:1017E0000BFFF8BDFFE705062BD5150629D594F8A4
:1017F0003D002128F5D1A068B0F5805F01D12069B6
:10180000B0B1206A411C2162216800784860E08CF8
:10181000401E0004000CE084E3D12068C16821F080
:101820008001C1602068C16841F04001C160D8E713
:10183000206A0088C0F308004860206A801C20628B
:10184000E5E74006CDD55006CBD5CA68204622F044
:101850004002CA6084F83D3000F095F8C1E700000E
:10186000D522000870B5040004D094F83D0000258E
:1018700010B106E0012070BD84F83C50204600F015
:1018800023F8242084F83D002068C16821F4005129
:10189000C160204600F0AEFD2068016921F490414E
:1018A00001612068416921F02A0141612068C16815
:1018B00041F40051C1602564202084F83D0084F883
:1018C0003E00002070BD000070B586B004461421B3
:1018D0006846FEF7C7FC2748254E256800242549A1
:1018E000143802220323B54223D10D6845F01005B8
:1018F0000D60096801F010010591016841F00101D6
:1019000001600068694600F00100059058028DE80A
:1019100015000720CDE903301748FFF701F8002232
:1019200011462520FFF782FB2520FFF772FB06B04A
:1019300070BD124EB542FAD10D6845F020050D601C
:10194000096801F020010591016841F0040101607E
:101950000068694600F004000590C0208DE815007D
:101960000820CDE903300648FEF7DAFFDFE7000084
:1019700000100140443802400000024000140140C1
:1019800000080240704770472DE9F047074600689D
:101990000D4600EB4116D6F8080501EB410342075E
:1019A00003EBC5014FF006004FF004084FF0050AA5
:1019B00007EB810401D541463CE0D6F80815C9057E
:1019C00007D54FF48070C6F80805072084F8610039
:1019D0001CE0D6F80815890603D52020C6F80805AE
:1019E00018E0D6F808150A074FF0080104D5C6F824
:1019F000081584F861A009E0D6F80825520514D529
:101A00004FF48060C6F8080584F8611029463868EC
:101A100002F08FFBD6F8080580050ED529463868F8
:101A200002F087FB4FF40070A0E0D6F80815090615
:101A3000F0D58021C6F80815C8E7D6F808054FF09C
:101A40000001C0074FF010094FF001023BD0386988
:101A500030B1A06CD6F81035C3F31203C01A20655C
:101A600084F86120E165C6F8082594F83F0030B19C
:101A7000022804D0032809D0012807D012E0294603
:101A8000386802F056FBC6F808950BE0D6F800055A
:101A900040F00050C6F8000584F86020294638461A
:101AA000FFF7AEF83869012806D1B4F84010A06CF1
:101AB000B0FBF1F0C00704D014F8540F80F001001F
:101AC0002070BDE8F087D6F80805800735D594F872
:101AD0006100022301280AD005280BD006280CD06B
:101AE00008280AD003280FD0072818D01CE084F853
:101AF000602019E084F860A016E0E06D401CE0650D
:101B0000022801D9E1650DE084F86030D6F80005BF
:101B100020F0804040F00040C6F8000504E0E06D91
:101B2000401CE06584F86080C6F8083594F86020B1
:101B300029463846FFF764F8C3E7D6F80805C0061B
:101B4000BFD594F83F00032803D020B1022802D06B
:101B50000BE0E16505E0E165386930B9032084F800
:101B600061002946386802F0E4FA4846C6F80805DC
:101B7000A7E72DE9F047026802EB4114D4F80825E5
:101B800001EB4103550703EBC1034FF004024FF093
:101B9000060A00EB830304D5C4F8082583F861A086
:101BA00051E0D4F808554FF00007AD064FF0020C95
:101BB0000BD52022C4F8082593F83D20012A33D103
:101BC00083F83D7083F860C03DE0D4F80855AD055A
:101BD00004D54FF40072C4F8082534E0D4F8085551
:101BE0004FF001065FEAC5784FF040050DD0DF6584
:101BF000D4F80825520603D583F83D60C4F808558B
:101C0000C4F8086583F861601DE0D4F808855FEAD0
:101C100048680BD583F8612083F83D60DF65006874
:101C200002F087FAC4F80855BDE8F087D4F80855E3
:101C30004FF008095FEA05784FF0050508D5C4F8AC
:101C4000089583F861500068BDE8F04702F071BA6A
:101C5000D4F808855FEAC86810D50322DF6583F8E9
:101C6000612093F83D2022B993F83C200AB983F80B
:101C70003D60006802F05DFA10201AE0D4F8088593
:101C80005FEA086818D5056955B1DD6D6D1CDD6525
:101C9000022D0BD9DF6583F86020FEF7B1FF07E066
:101CA00083F861A0006802F044FA01E083F860C0A4
:101CB0008020C4F80805B7E7D4F808855FEA4858DB
:101CC00007D583F86190006802F033FA4FF4806022
:101CD000EFE7D4F808855FEA8878A5D593F86180A6
:101CE000B8F1010F0FD0B8F1030F30D0B8F1040FE5
:101CF0002DD0B8F1050F2DD0B8F1060F2DD0B8F1C9
:101D0000080F2AD03CE083F8606093F83F20022A55
:101D100001D0032A34D102692AB993F8552082F000
:101D2000010283F855200269012A29D1DA6C3AB3FD
:101D3000B3F840502A44521EB2FBF5F2D2071FD02E
:101D400093F8552082F0010283F8552018E083F8BB
:101D500060C015E083F8605012E0DD6D6D1CDD653C
:101D6000022D03D9DF6583F8602009E083F860C0A5
:101D7000D4F8002522F0804242F00042C4F8002549
:101D8000C4F808C593F86020FEF73AFF4CE77CB52D
:101D900004680546D4F840040190D4F8400420F0CB
:101DA0002E0000900198800709D50198C00702D045
:101DB0002846FEF7B9FE009840F002000090019816
:101DC000000724D5009840F00800009001984007D3
:101DD0001AD5A869022803D0E86801280CD00FE0C2
:101DE0000198C0F341400228286803D0012102F085
:101DF00095FB05E00221FAE74EF66020C4F80404E2
:101E00002846FFF767F802E02846FFF75FF80198D9
:101E10008006009802D540F020000090C4F84004ED
:101E20007CBD2DE9F041024600680646016AC1F317
:101E3000434301F00F07C1F30A15022B31D1002DE6
:101E40002FD007EB470101EBC70102EB8104616C66
:101E5000002926D0226DE36C2A449A4223D82A46D0
:101E600002F07BFB606C28446064206D2844206590
:101E700006EB4710D0F81015B4F84020C1F3C94163
:101E8000AA420ED100290CD0D0F8001521F08041D3
:101E900041F00041C0F8001514F8540F80F0010023
:101EA0002070BDE8F081042084F86000F9E7FEE7C7
:101EB00028B101224FF400710248FEF729BE00222A
:101EC000F8E700000008024010B504490448FEF796
:101ED00032FA0249491E087010BD00003900002086
:101EE0003062000870B586B014216846FEF7BAF972
:101EF00016480024016841F004010160016801F006
:101F000004010591016841F080010160016801F060
:101F100080010591016841F00101016000680C4EEB
:101F200000F001004FF4007505900022294630466C
:101F3000FEF7EEFD01200095CDE90104694630462B
:101F40000394FEF7EDFC06B070BD0000303802408F
:101F5000000802400C4810B50A4901604FF4E13115
:101F60004160002181600C22C160C0E904128161DE
:101F7000C161FFF777FC002803D0BDE81040FEF7F1
:101F8000D8B910BD00100140540000200C4810B515
:101F90000A4901604FF4E1314160002181600C2267
:101FA000C160C0E904128161C161FFF75BFC0028D8
:101FB00003D0BDE81040FEF7BCB910BD00140140CD
:101FC0009800002010B501220B490C4800F0ABFD31
:101FD00008B1FEF7AEF90A49084801F093FE08B1CE
:101FE000FEF7A7F9054801F0D0FE002803D0BDE8B0
:101FF0001040FEF79EB910BDA13D0008DC00002096
:1020000018000020014801F05FBD0000DC00002046
:102010002DE9F043ADF66C0D00223C490DF5C6608C
:1020200003F09AF908B13AA00AE03DA002F056FB8D
:1020300001223FA10DF5806003F0BAF918B13EA06E
:1020400002F04CFB5DE041A002F048FB0020FEF7EF
:10205000E7F970B143A000BF02F040FBDDF80C745B
:1020600048A0394602F03AFB4A4E4FF480693446A4
:1020700023E049A002F032FB4DA002F02FFB03F059
:102080003DF94FA0E8E70025E84608E058F80520AC
:10209000002321460220FEF7EFFB241D2D1DDDF855
:1020A00064088542F2D33B486421404220444843BF
:1020B000B0FBF7F146A002F011FB0DF664034A46AF
:1020C00069460DF5806003F07DFA18B9DDF8640803
:1020D0000028D8D10DF5806003F02AF941A002F064
:1020E000FDFA002231A1104603F036F941A002F0BA
:1020F000F5FA03F018FE43A002F0F0FA304603F0C0
:1021000023FE0DF66C0D0020BDE8F08339000020A1
:10211000B9D2D4D855C5CCCAA7B0DC0D0A0000008E
:10212000B9D2D4D855C5CCB3C9B9A60D0A000000A0
:102130004150502E62696E00CEB4D5D2B5BD41502B
:10214000502E62696ECEC4BCFE0D0A00B3C9B9A69A
:10215000BBF1C8A14150502E62696ECEC4BCFE0DC9
:102160000A0000004572726F723A20CAA7C4DC668A
:102170006C617368D0B4B1A3BBA4CAA7B0DC2E2E27
:102180002E0D0A004150502053495A453A256C649F
:102190000D0A000000000408B9D8B1D5666C61735F
:1021A00068D0B4B1A3BBA42E2E2E0D0A00000000EF
:1021B000B2C1B3FD666C6173682E2E2E0D0A00004D
:1021C000B2C1B3FD666C617368CDEAB3C90D0A0094
:1021D000C9FDBCB6BDF8B6C83A20256425250D0A50
:1021E00000000000B9D8B1D5CEC4BCFE2E2E2E0DF5
:1021F0000A000000D0B6D4D855C5CC2E2E2E0D0A1C
:1022000000000000626F6F746C6F61646572CCF8DF
:10221000D7AA4150500D0A00FEE7FEE70148FEF73D
:102220003DBD0000B404002070477047FEF786BE35
:1022300030B593B030216846FEF714F814210CA88D
:10224000FEF710F81D480025016841F0805101603B
:10225000006800F0805011901948016841F48041F5
:1022600001600068022400F4804011900120009079
:10227000000401908001CDE9064004200890A820C8
:10228000CDE9090407200B906846FEF7EBFF08B183
:1022900072B6FEE70CA90F2081E831004FF4A05080
:1022A0000F904FF48050109005210CA8FEF7F0FE1F
:1022B000002801D072B6FEE713B030BD40380240AE
:1022C000007000400248016841F4700101607047ED
:1022D00088ED00E010B5806B0021C185C184FFF757
:1022E0008CF910BD01680C3151E8002F22F4907276
:1022F00041E80023002BF5D10168143151E8002F8B
:1023000022F0010241E80023002BF5D1016B0129E5
:1023100009D101680C3151E8002F22F0100241E888
:102320000023002BF5D1202180F83E10002101630D
:10233000704708B590F83E10222901D0022008BD50
:1023400082684FF480539A4201D1016921B1816AB8
:102350009A421BD04AB10AE00268816A5268C2F30D
:1023600008020A80816A891C08E0026972B1026869
:10237000526802F07F020A70816A491C8162C18D35
:10238000491E0904090CC18503D019E0026852688E
:10239000F1E70168CA6822F02002CA600168CA68D1
:1023A00022F48072CA6001684A6922F001024A611F
:1023B000202180F83E10016B012903D0FFF7E2FADB
:1023C000002008BD0021016301680C3151E8002F95
:1023D00022F0100241E80023002BF5D101680A68C1
:1023E000D20602D50A6849680091818DFFF704F989
:1023F000E6E7000070B5044600680169E26821F470
:102400004051114301612169A068E2690843616993
:10241000114308432168CA6849F20C639A43024396
:10242000CA6020684169A26921F440711143416189
:1024300031492068884202D03049884202D1FEF7F3
:10244000D1FE01E0FEF7BEFEE269002319216425FA
:102450003226B2F5004F626828D0A0FB0101930F2D
:102460009200FDF7B5FE0146B0FBF5F06FF01802E3
:10247000504301EB800006EB0010B0FBF5F000F0DC
:10248000F002B1FBF5F002EB0012B1FBF5F06FF0DA
:102490001803584301EB800006EB0010B0FBF5F089
:1024A00000F00F0021681044886070BDA0FB01019E
:1024B00092185B41FDF78CFE0146B0FBF5F002017E
:1024C000B1FBF5F06FF01803584301EB800006EB09
:1024D000C000B0FBF5F000F0F80002EB4002B1FBE9
:1024E000F5F0584301EB800006EBC000B0FBF5F0BF
:1024F00000F00700D6E70000001001400014014082
:102500000148FFF77BB800005400002010B50022FE
:102510004FF6FF7300EB8204B4F8844324040BD419
:102520009A4207D002F00F0300EB830041F4004110
:10253000C0F88413D0B210BD521CD2B2102AE9D315
:102540001A46F7E77FB51C46012501AE002300952A
:1025500086E80E0002232A46214600F0E1FB04B083
:10256000002070BD7FB51D4690F81D33089C03B157
:1025700000240123CDE90031CDE902240223002209
:10258000294600F0CDFB04B0002070BD10B500F06E
:10259000E9FA002010BD8278012A07D102220274D4
:1025A00001224274002242828182C28200221146AC
:1025B00000F00FB87FB51C46012501AE0023009541
:1025C00086E80E002A46214600F0AAFB04B000204F
:1025D00070BD70B504460120A3780546012B0BD0D1
:1025E000022B08D1204600F020F958B1032809D069
:1025F000022800D1A57070BDA160A28125760221BC
:10260000A17070BDA5700021217670BD7FB51D46FB
:1026100090F81D33089C03B100240123CDE900315B
:10262000CDE9022400231A46294600F079FB04B0C4
:10263000002070BD1FB500231446CDE900310822EB
:10264000CDE902231A46214600F06AFB04B00020BF
:1026500010BDFEF719B8000070B50546002005F55D
:102660004E7500BF00EB800404EBC00405EB44048E
:10267000E67B0A348E4201D0FF2909D1A679964221
:1026800001D0FF2A04D1E4799C4206D0FF2B04D06C
:10269000401CC0B20228E5D3FF2070BD102907D22C
:1026A00000EB8100B0F88413C1F30E01C0F884136D
:1026B0000020704730B48578029C012D0FD141F085
:1026C000800101740621417403214282B1EB122F73
:1026D00002D140F2094100E000218182C4822246F9
:1026E00030BC1946FFF775BF0A8803781A440A8080
:1026F000017808447047F8B50E4600F11C040091BB
:10270000054623464FF400720021FFF7D3FF00284F
:1027100006D1324621462846BDE8F84001F0F6B819
:10272000F8BD38B50D460091044600F58E734FF4A0
:1027300080720021FFF7BEFF010044D194F81C0114
:1027400084F8260394F81D0184F82703B4F81E01C9
:10275000A4F8280394F8200184F82A0394F82101AE
:1027600084F82B0394F8220184F82C0394F82301B5
:1027700084F82D03082806D0102804D0202802D081
:10278000402800D0402084F82D03082D1BD9B4F830
:102790002401A4F82E03B4F82601A4F83003B4F8F9
:1027A0002801A4F8320394F82A0184F8340394F839
:1027B0002B0184F8350394F82C0184F8360394F83F
:1027C0002D0184F83703084638BDF8B51C46164677
:1027D000009341F4407200F58E731D460021FFF70F
:1027E00069FF002814D16978032911D129788A1E3C
:1027F000A24200D814460021A2B2AD1C04E06B5CDA
:10280000891C06F8013B89B29142F8D3002131704E
:10281000F8BD01004FF0000004D0012901D00229C9
:1028200001D002207047012070472DE9F84F0125A3
:10283000017E04460B26092728464FF007084FF073
:10284000050A4FF00D090C2919D2DFE801F0B40692
:102850000E26313C48606B7C899A627904F1100144
:102860002046FFF7E7FE022012E06179204600F0E3
:10287000D6F9012804D0042871D002287FD09AE02C
:10288000207CE18A00F0800021B180283AD1032029
:10289000207690E0802814D02EE0D4F8C403E081A4
:1028A0002379A2892046A168FFF784FE0420EFE780
:1028B0002179204600F0B3F9012802D0052840D044
:1028C00056E0277677E000906379A2892046A168D8
:1028D000FFF79CFED4F8C403E0810620D8E76179B5
:1028E000204600F09CF9012806D0052807D00228D0
:1028F00008D0042809D05EE084F818805BE00C2042
:1029000020761EE084F818A055E0267652E00022DA
:10291000237911462046FFF74DFED4F8C403E08129
:102920000820B5E72179204600F079F9012804D084
:10293000042824D0052804D03DE084F81890002510
:1029400039E0032537E000900022637911462046E4
:10295000FFF75CFED4F8C403E0810A2098E70EE09C
:102960006179204600F05BF9012804D00228A8D044
:10297000042804D01FE0002584F818901BE0267678
:1029800019E0617E491CC9B26176022902D820761D
:10299000A07010E0D4F8D4230621204690470025EB
:1029A000657661792046FFF779FE21792046FFF7A9
:1029B00075FE257002252846BDE8F88F2DE9FE43F7
:1029C00004460126407800250D27B04604F58E7296
:1029D00008280CD2DFE800F0042A3C686F86929940
:1029E00008212046FFF79DFE10B103280DD097E087
:1029F00094F82D03A07184F8018094F81D130091C0
:102A0000CDE9015094F81C3338E094F81E03401CC3
:102A1000C0B284F81E03032818D861792046FFF756
:102A20003DFE21792046FFF739FE59E0122120466C
:102A3000FFF777FEA8BB022047E000BF94F81E0313
:102A4000401CC0B284F81E03032840D9277067E0F9
:102A50000121204601F06FF910B1032822D05FE078
:102A60000220FFF7F6FD84F81C8303206070A07934
:102A700094F81D13CDE90015434602902179802278
:102A8000204600F039FFA07994F81D130091CDE99C
:102A9000015094F81C3361790022204600F02CFF8D
:102AA0003EE00EE027702EE009212046FFF723FECE
:102AB00038B9042009E0B4F83A132046FFF71BFEAA
:102AC00010B10328BAD02BE00520607028E06179AE
:102AD0002046FFF7E3FD21792046FFF7DFFD657013
:102AE00025701DE094F8341306250AE0FF232046E4
:102AF000FFF76BFE38B1032805D011E094F83513C9
:102B000007250029F2D165700AE094F8361331B137
:102B1000FF232046FFF759FE08B1032800D1002605
:102B20003046BDE8FE8370B50E46040018D084F828
:102B3000CC230025C4F87C53C4F8805304F54874B2
:102B4000FDF7CEFBE57025706570A570A4F548749F
:102B50000EB1C4F8D463204600F074F8002070BDB4
:102B6000022070BD10B5D0F8D003FDF7FCFFBDE822
:102B70001040FFF74EBE012180F82013002180F89D
:102B8000211380F822130846704710B5044601202F
:102B900084F82103002084F8200384F823032046CE
:102BA00000F0B5F821792046FFF778FD61792046DD
:102BB000FFF774FD002010BD10B590F8CC0301287C
:102BC00002D10846FFF774F9C820FDF75DFD00202B
:102BD00010BDD0F8D003FDF7BEBF10B50124D0F86A
:102BE000D003FDF7ACFF20B1012805D0022803D1A6
:102BF00001E0002400E00224204610BDD0F8D003FC
:102C000001EB410202EBC10100EB810090F83B10A7
:102C100011B190F85400704790F855007047D0F803
:102C2000D003FDF78FBFD0F8C413491CC0F8C413FC
:102C300001780B2905D1D0F87C13002901D08969CE
:102C40000847704710B5044690F8CC0301281CD102
:102C50000F484FF0A0410022C0F80043C4F8D00351
:102C60000160082181600121C0E903120221C0E94D
:102C70000612FEF7B0F808B1FDF75BFB0448FDF75C
:102C80005BFF0146204600F024F8002010BD000044
:102C9000B4040020FEB508AF97E870008DE870001E
:102CA000D0F8D003FDF771FFBDE8FE40FFF7B1BDDE
:102CB000002180F823137047012180F82313704707
:102CC00010B5D0F8D003FEF709F9BDE81040FFF7C2
:102CD000A0BDC0F8C4137047D0F8D00301EB410386
:102CE00003EBC10100EB810090F83B1011B180F8BB
:102CF000542001E080F855200020704710B5D0F82E
:102D0000D003FEF7F2F8BDE81040FFF782BD10B522
:102D1000D0F8D003FEF7FFF8BDE81040FFF779BD0B
:102D20002DE9FF410DF1280898E8F0008DE8F0004A
:102D3000D0F8D003FDF765FF04B0BDE8F041FFF720
:102D400068BD03460220D3F87C13C9692AB1012A61
:102D500005D189791846FFF71EBCC979FAE7704793
:102D6000D0F87C030549C0694165054981650121A9
:102D700000F8501F817000207047000055534243F7
:102D8000504030202DE9F84F0746D0F87C0301264B
:102D90003546C4694FF00B0A4FF00A0B94F8500007
:102DA0004FF009094FF007080C2845D2DFE800F082
:102DB000D20611252E4852757EA7AFCB84F861103C
:102DC000022084F85000009563791F2204F1540119
:102DD00059E061793846FFF722FF012802D0022826
:102DE0007ED03FE0E06D002829D094F86000000616
:102DF00001D503204BE0052049E02379628938465C
:102E0000D4F88C10FFF79EFB042040E0217938466F
:102E1000FFF705FF01284FD16289E06D90420CD980
:102E2000D4F88C10801A1144C4F88C10E0656BD073
:102E300023793846FFF786FB8CE00020E06563E0ED
:102E40000095637922893846D4F88C10FFF78AFB05
:102E500006201CE061793846FFF7E1FE012804D026
:102E60000228C8D0052815D074E02289E06D904270
:102E7000E3D9D4F88C10801A1144C4F88C10E065A2
:102E800042D0009563793846FFF76CFB62E084F826
:102E900050005FE084F850B05CE023790D2204F12B
:102EA00078013846FFF74EFB0820F0E721793846D5
:102EB000FFF7B5FE012802D005281DD04AE004F82E
:102EC000505F3846A570D7F87C13CC692179FFF79D
:102ED00080FE0D280CD12149A06F884208D100E066
:102EE00036E0A16DE06F884202D194F8840008B109
:102EF00002262FE000262DE084F850902AE00022E0
:102F00003846FFF71EFF38B984F8508022E00122CE
:102F10003846FFF716FF10B1042811D01AE0617986
:102F20003846FFF76BFEC0F10100C2B26179384646
:102F3000FFF7D2FE217900223846FFF7CDFEDBE70E
:102F400084F850A006E0384600F015F8060001D1DC
:102F500084F850503046BDE8F88F00005553425376
:102F6000A1220274FE224274002242828282012245
:102F7000C282FFF72EBB21210174FF214174002181
:102F800041828182C1820A46FFF723BB70B5D0F827
:102F90007C130125CC69A17B21B1022902D0032930
:102FA0002ED127E02146FFF7DBFF0021054603284D
:102FB00001D01DB124E02170002504E02078022812
:102FC00001D9022001E02078401C2070002002235B
:102FD0000CE000BF00EB800202EBC00204EB8202B7
:102FE000401C82F8923082F8C110C0B2227882422E
:102FF000F0D805E00021FFF7CEFA08B9E07BA07316
:10300000284670BD10B51446D0F87C230078D369EB
:103010000B2801D0022010BD01EB810000EBC100A4
:1030200003EB8001342220469031FDF702F90020A5
:1030300010BD70B50546D0F87C030026C4696179DF
:1030400039B12846FFF7A2FA61792846FFF726FB37
:103050006671217939B12846FFF798FA2179284617
:10306000FFF71CFB2671D5F87C03C06920B102F084
:103070006DFDD5F87C03C661002070BDFEB5054628
:10308000D0F87C035023062201792846FFF7E4FAA2
:103090000646FF2823D0022E21D20146284600F002
:1030A0003FFEE0B94FF48077384602F0F1FED5F8E4
:1030B0007C130446C861200011D03946FDF7D2F8D0
:1030C00006EB860000EBC60005EB400090F84E13BF
:1030D0000A0606D5E171B0F85013618105E00220BF
:1030E000FEBDA171B0F85013218190F856130A0665
:1030F00004D5E171B0F85803608103E0A171B0F824
:1031000058032081002020736073A073A1792846A2
:10311000FFF7FCF96071E1792846FFF7F7F92071B4
:103120002846FFF71DFEA27942B3208930B395F8F7
:103130001D1302260091CDE9016095F81C336179D9
:10314000284600F0D9FBE279C2B16089B0B195F8A8
:103150001D130091CDE9016095F81C3321792846B3
:1031600000F0CAFB217900222846FFF7B5FD6179FE
:1031700000222846FFF7B0FD0020FEBD0320FEBD63
:103180002DE9F0470746D0F87C034FF0010AC469E7
:10319000207B10B101282DD12CE1B4F8F800217862
:1031A00001254FF0000888426FD200EB800101EB4F
:1031B000C00004EB8000022680F89150B4F8F800BB
:1031C0004FF0050900EB800101EBC00104EB810227
:1031D00092F8901009290DD2DFE801F0050C1F8844
:1031E0000DB10C0CFF00042082F89000D7F8C40346
:1031F000C4F8FC0000E1C1B238469F3200F08CF9FF
:1032000040B9B4F8F80000EB800101EBC00004EB1A
:103210008000B6E002287DD099E0C1B2384600F0C7
:10322000ABFA10B1022831D091E0B4F8F80000EB0D
:10323000800101EBC00004EB800090F8921011B106
:1032400080F8C15001E080F8C180B4F8F820032074
:1032500002EB820101EBC20104EB810181F89000D5
:10326000B4F8F81001EB810202EBC10104EB81011B
:1032700081F89180B4F8F81001EB810202EBC101F2
:1032800004EB810181F89280B6E0AAE0B4F8F8007E
:1032900000EB800101EBC00004EB800090F892107D
:1032A000022902D080F8C15001E080F8C180B4F852
:1032B000F81001EB810202EBC10104EB810181F8FE
:1032C0009090B4F8F80000EB800101EBC00004EB33
:1032D000800080F89150B4F8F80000EB800101EB19
:1032E000C00004EB800080F8926085E0C1B23846EF
:1032F000943200F0BBF900288CD1B4F8F80000EB50
:10330000800101EBC00004EB800080F89050B4F81D
:10331000F81000E008E001EB810202EBC10104EBD0
:10332000810181F8918031E0B4F8F81001EB81025D
:1033300002EBC10104EB810181F890905CE0C1B225
:1033400038469C3200F0CFF920B1022823D004285F
:103350002DD051E0B4F8F80000EB800101EBC00083
:1033600004EB800090F89C10062901D002290BD1B3
:10337000D7F8C413D4F8FC20891A42F21072914293
:1033800002D280F8906037E080F8905034F8F80F5F
:10339000401C208030E0B4F8F810082001EB8102D6
:1033A00002EBC10104EB810181F8900024E0B4F844
:1033B000F80000EB800101EBC00004EB800080F816
:1033C0009050B4F8F80000EB800101EBC00004EB72
:1033D000800080F891600FE0FFE7401CA4F8F8003F
:1033E0000AE0A4F8F8802573D7F8D42302213846E0
:1033F000904701E04FF0000A5046BDE8F08700001A
:103400002DE9F843D0F87C2301EB810303EBC103E2
:10341000D269012502EB8304082794F890302E46E8
:10342000052B22D000224FF00508062B02D0072BD7
:103430002AD10CE0002300921A4600F0D7F80BE0E6
:1034400002280FD018E000BF84F890701BE0002322
:1034500000921A4600F0B6F90028F1D184F8906085
:10346000002511E084F890800EE004F19C0200F049
:103470003AF920B1022807D00428E5D004E004F886
:10348000906F0220607002252846BDE8F8832DE980
:10349000F8430446D0F87C03089E0F46C56994F8AB
:1034A000200360B120780B2809D107EB870000EBDF
:1034B000C70005EB800090F89010012902D002208F
:1034C000BDE8F8830621297380F89010A5F8FA70FA
:1034D00039462046009600F089F8D4F8C48340F2BB
:1034E00071204FF00109464309E0D4F8C413A1EB61
:1034F0000800B0EB061F0CD894F8200348B13946F9
:103500002046FFF77DFF0128EFD085F80C900020C2
:10351000D6E785F80C90D2E72DE9F0411546D0F8B2
:103520007C2302270026D4694FF0010894F852202A
:10353000012A02D0022A56D126E024208022E0650A
:1035400084F860200A2284F86220C4F86360C4F81A
:103550006760A4F86B60122284F86320490184F844
:10356000641084F8656084F8666084F8670084F805
:103570006860022084F8508084F8520004F1100042
:103580000127C4F88C002EE0FFF7FCFB07002AD1CE
:1035900022212846FCF766FED4F88C00007800F063
:1035A0001F006870D4F88C00007840092870D4F8A7
:1035B0008C004078000602D585F8028000E0AE70ED
:1035C00054F88C0F10228168C5F80310C068C5F844
:1035D0000700216805F10C001031FCF72AFE206875
:1035E000006AC5F81D003846BDE8F0812DE9F041BC
:1035F000154602461F46D2F87C330220069EDC693F
:1036000094F85230012B06D0022B2DD1BDE8F041A9
:103610001046FFF7B7BBB4F8980010217043E0657F
:10362000802084F860000A2084F8620004F16300BE
:10363000FCF718FE282084F86300280E84F8650043
:10364000280C84F86600280A84F8670084F868501B
:10365000300A84F86A0084F86B60012004F8500F87
:103660000220A0700120E763BDE8F08170B5164626
:10367000D0F87C230125D46994F85220012A02D085
:10368000022A2ED11AE00820E065802084F860002C
:103690000A2084F86200102104F16300FCF7E2FDC7
:1036A000252084F86300012084F85000022084F86B
:1036B000520004F11000C4F88C0012E0FFF762FB26
:1036C00005000ED154F88C0F4188427849BA007831
:1036D00062F31F4141EA006030602068C08840BA50
:1036E000B080284670BD70B5154602460E46D2F829
:1036F0007C130220CC6994F85210012914D00229BD
:1037000011D131461046FFF73DFB00280BD154F88C
:103710008C1F897801F00F0129702168097B69707D
:103720002168497BA97070BD0E258020E56584F86D
:1037300060000A2084F86200102104F16300FCF7A5
:1037400091FD032084F86300700184F86400002078
:1037500084F8650084F8660084F8675084F868008F
:10376000012084F85000022084F8520004F1100077
:10377000C4F88C00012070BD70B502460220D2F85A
:103780007C33DC6994F85230012B06D0022B18D11F
:10379000BDE870401046FFF7F5BA0025E56584F8EE
:1037A00060500A2084F86200102104F16300FCF7E5
:1037B00059FD84F86350012004F8500F0220A070D6
:1037C000012070BD2DE9F041154602461F46D2F892
:1037D0007C330220069EDC6994F85230012B06D01F
:1037E000022B2DD1BDE8F0411046FFF7CBBAB4F85B
:1037F000980010217043E065002084F860000A20E2
:1038000084F8620004F16300FCF72CFD2A2084F8A0
:103810006300280E84F86500280C84F86600280AE6
:1038200084F8670084F86850300A84F86A0084F8E5
:103830006B60012004F8500F0220A0700120E763A4
:10384000BDE8F08100207047D0F87C230078D26971
:103850000B2808D101EB810000EBC10002EB8000D6
:1038600090F8910008B100207047012070472DE9C1
:10387000F8430446D0F87C03089E0F46C56994F8C7
:10388000200360B120780B2809D107EB870000EBFB
:10389000C70005EB800090F89010012902D00220AB
:1038A000BDE8F8830721297380F89010A5F8FA7015
:1038B000394620460096FFF785FFD4F8C48340F2CE
:1038C00071204FF00109464309E0D4F8C413A1EB7D
:1038D0000800B0EB061F0CD894F8200348B1394615
:1038E0002046FFF78DFD0128EFD085F80C900020D1
:1038F000D6E785F80C90D2E7FEB508AF97E87000E0
:103900008DE87000FFF7C6F90020FEBD2DE9F74FE6
:1039100082B00878029D4FF0000B0C4685F8380302
:10392000487885F839034888D84605F54E75FF284C
:1039300001D94FF4807068800879287148796871DE
:103940008879A871C879E871207A287229780920C5
:10395000092900D02870092A7CD98146ADF80000D9
:103960005FE069462046FEF7BFFE04464078042823
:1039700054D12078092801D084F8009008EB880100
:1039800001EBC80005EB400A20788AF80A0060784D
:103990008AF80B00A0788AF80C00E0788AF80D000D
:1039A00020798AF80E0060798AF80F00A0798AF8E9
:1039B0001000E0790AF10A068AF81100207A3072C4
:1039C00000271CE069462046FEF78EFE044640783C
:1039D000052814D17079012802D1B079022830D09D
:1039E0002078072801D0072020700AEBC701224663
:1039F0001431029800F030F87F1C8346FFB2307912
:103A0000B84204D96888BDF800108842DAD8307905
:103A1000B84211D808F1010000F0FF08B8F1020F18
:103A200004D26888BDF8001088429AD82879022804
:103A300000D3022040450DD9032005B0BDE8F08F2A
:103A400008E0F0790028D0D120780928CDD084F87A
:103A50000090CAE75846F0E7F0B513780B7053783A
:103A60004B7093788B70D478CC7095888D80064697
:103A7000937900208B71D5B16FF30A058D80928800
:103A80004FF40077C2F30A02BA4200D33A46154314
:103A9000A1F8045096F81D13002904F0030108D082
:103AA00001290BD0E143890700D153B1F0BD0320B8
:103AB000F0E7012902D0E1438907F7D10BB1102BC0
:103AC000F4D90320F0BD0000FEB5022104468DF8B4
:103AD000001094F821230020012A01D10322227032
:103AE00022780D26082700250C2A17D2DFE802F0DD
:103AF000061734E81669CC7C848CA2E194F8200384
:103B000000280BD001202070C820FEF7A2FD20461F
:103B1000FFF7D6F884F81C53C4F8C853EAE094F8C9
:103B2000230301280DD0D4F8C803B0F57A7F0CD94F
:103B300094F81F03401CC0B284F81F03032878D8F0
:103B400075E084F81F532170D4E00A30C4F8C8032C
:103B50000A20FEF77EFDCDE0D4F8D42312B1042173
:103B6000204690476420FEF774FD2046FFF735F8A5
:103B700084F81D030520207000212046FEF7C6FCB6
:103B8000607180212046FEF7C1FC20710146A079BA
:103B900094F81D230092CDE9015094F81C33802243
:103BA0002046FFF7A9FEA07994F81D130091CDE9F6
:103BB000015094F81C33617900222046FFF79CFEE7
:103BC00098E02046FEF7FAFE8DF800009DF8000010
:103BD000002808D184F8245394F83703012801D031
:103BE000072062E0277085E0D4F8D423002A46D06D
:103BF000012120469047F5E794F83D13204600F058
:103C0000A8F8E0BB092050E094F83F034FF00A0504
:103C100080060CD50121204600F0A9F88DF800009F
:103C20009DF8000018B19DF80000032862D12570AE
:103C300060E03CE0D4F8801309B3C4F87C5394F8F6
:103C4000471300BF04EB8002D2F8782312798A422E
:103C500006D104EB8000D0F87803C4F87C0304E0BC
:103C6000401C10F0FF00EDD0284600B381682046CC
:103C70008847E0B9062020700321204600E039E0A3
:103C8000D4F8D423904735E0D4F87C0378B10169A7
:103C9000204688478DF800009DF8000020B19DF86F
:103CA0000000022803D025E00B20207022E02670BF
:103CB00020E0D4F87C03E8B141692046884719E048
:103CC00084F821532046FCF70BFBD4F87C0320B189
:103CD000C16820468847C4F87C53D4F8D42312B175
:103CE00005212046904794F82203012804D020465D
:103CF000FFF704F80020FEBD84F82253204600F0B0
:103D000044F8F7E7002211B1D0F8803313B1022252
:103D1000104670470123C0F88033C0F87813F7E7E6
:103D20000246002092F83C338B4202D982F82413D9
:103D30007047022070478278012A06D1002202745F
:103D40000523437441828282C28200221146FEF71B
:103D500040BC8278012A06D10022027409234374F0
:103D600041828282C28200221146FEF732BC8278F2
:103D7000012A06D100220274032343744182828205
:103D8000C28200221146FEF724BC10B50446FEF79D
:103D9000B5FF01212046FEF70FFF002010BD0000F7
:103DA00001290AD00B48022909D004290BD0052982
:103DB0000ED10321017008A008E011A006E0022145
:103DC000017018A002E0012101701FA000F086BC64
:103DD00070470000040000204170706C695F7374CC
:103DE000617465203D204150504C49434154494F36
:103DF0004E5F444953434F4E4E4543540D0A000015
:103E0000484F53545F555345525F53454C454354B7
:103E10005F434F4E46494755524154494F4E0D0A54
:103E2000000000004170706C695F737461746520FC
:103E30003D204150504C49434154494F4E5F5245FB
:103E40004144590D0A0000004170706C695F737441
:103E5000617465203D204150504C49434154494FC5
:103E60004E5F53544152540D0A0000000020704729
:103E700030B58DB01546012449B1012909D0022978
:103E800010D0032918D004240DB0204630BD0024E2
:103E9000FAE701466A460E48FFF7B4F80028F3D166
:103EA000019813E001466A460948FFF7ABF800287D
:103EB000EAD1BDF8080009E001466A460448FFF768
:103EC000A1F80028E0D1BDF80800400A2860DEE72C
:103ED000DC00002030B58FB0054600930B4601464C
:103EE00001240C48FFF7D3FA68B101AA2946094812
:103EF000FFF788F89DF81100042806D0282804D080
:103F00003A2803D101E0002400E003240FB020464A
:103F100030BD0000DC00002010B50146012403483C
:103F2000FFF792FC00B10024204610BDDC00002009
:103F300030B58FB0054600930B46014601240E486C
:103F4000FFF795FC78B101AA29460B48FFF75AF80C
:103F50009DF8110004280AD0272806D0282806D06A
:103F60003A2805D103E0002402E0022400E0032403
:103F70000FB0204630BD0000DC00002070B50446C4
:103F800006990A9E049D0D98012916D0E06840F01C
:103F90004000E060204600F02BF8A16B1EB321F436
:103FA0008031A163012D07D1A16841F00601A16014
:103FB000A16841F02001A16070BDA16B21F48031A6
:103FC000A163E168094A1140E160E16821F4401110
:103FD000E160012803D1E06840F48010E0602046F1
:103FE00000F006F8DEE741F48031DAE7BFFFBDFFFD
:103FF00008B500220D490092009B5B1C00938B4288
:104000000CD80369002BF7DA0092026942F0010232
:104010000261009A521C00928A4201D9032008BD15
:104020000269D207F5D1002008BD0000400D030051
:10403000816821F0010181600020704700EB411090
:10404000064AC0F81025D0F8001521F0804141F053
:104050000041C0F8001500207047000000000880F3
:1040600008B5D0F8402422F02E020092D20405D4E4
:10407000012909D1009941F4805103E021B9009947
:1040800021F48051C0F84014002008BD816841F03F
:10409000010181600020704708B500220C490092A0
:1040A000009B5B1C00938B420AD80369002BF7DA54
:1040B000009210220261009A521C00928A4201D999
:1040C000032008BD0269D206F5D4002008BD000017
:1040D000400D030018B500230D4A0093009C641C9A
:1040E000009494420CD80469002CF7DA0093202342
:1040F00043EA811101610099491C0091914201D963
:10410000032018BD01698906F5D4002018BD000000
:10411000400D0300D0F8080480B2704708B5D0F80D
:1041200040040090C0F3414008BD406900F0010028
:10413000704718B5002200EB41110092D1F800251C
:10414000D1F80035C2F381428468DB0FA40600D5A4
:104150001BB34FF47A736AB1022A0BD0D1F8002551
:1041600042F08042C1F80025D0F8100410F47F0F0F
:104170002BD00CE0D1F8002542F08042C1F8002598
:104180008268920609D4C06A10F47F0F07D0D1F874
:10419000000540F00040C1F80005002018BDD1F82E
:1041A000000520F00040C1F80005D1F8000540F0FE
:1041B0000040C1F800050098401C00909842ECD8DF
:1041C000D1F800050028F6DBE7E7D1F8000520F07C
:1041D0000040C1F80005D1F8000540F00040C1F8EA
:1041E00000050098401C00909842D6D8D1F80005F0
:1041F0000028F6DBD1E700002DE9F0431E46DDE99B
:104200000785002700EB41147B1EDDF82490C4F8DD
:10421000083505B3012D39D0022D1CD0032D2ED029
:104220005FF00107D4F80C3543F00203C4F80C35F5
:10423000D0F8183401F00F0C012101FA0CF10B43F6
:10424000C0F81834816941F00071816111062AD5E6
:104250004FF4004128E040F29D43C4F80C351306AA
:1042600005D500BFD4F80C3543F4807318E0C36B58
:10427000DB05D7D5D4F80C3543F0600310E040F2ED
:104280009D63C4F80C351306ECD4CBE740F225232C
:10429000C4F80C351306C5D5D4F80C3543F4C073F7
:1042A000C4F80C35BEE70021FFF738FFB8F1020F64
:1042B00004D1022802D04FF4003000E000204FF07B
:1042C000FE5303EA86534FF4F04606EAC222134334
:1042D0004FF4402202EA85421343C9F30A02134312
:1042E0000B430343C4F80035032D01D0012D05D144
:1042F000D4F8000540F00050C4F800053846BDE889
:10430000F083D0F8140480B27047F8B54C78C56BD0
:104310004FF48073ED0515D50D799DB9012A01D0B3
:104320006AB10FE0CD790DB1022D0BD100EB441530
:10433000D5F80C6526F07006C5F80C6502E04D79DD
:10434000012D0DD04E697EB10D8977197F1EB7FB07
:10435000F5F7BFB29F4208D91F462B020B6104E05C
:104360002146FFF76BFE6EE00127CB781BB10B896E
:104370007B430B6101E033460E61C3F312056FF01E
:10438000604303EAC7431D438B7A4FF0C04606EAF9
:1043900043731D4300EB4413C3F8105512B1CC68AE
:1043A000C3F81445D0F80844D3F8005544F300048A
:1043B00025F00055C3F80055D3F80055641C45EAB4
:1043C0004474C3F80045D3F8004524F080440094B9
:1043D000CC78002C009C02D044F4004401E024F48A
:1043E000004444F000440094C3F800455ABBCA7826
:1043F0004ABB4A693AB3CB7933B1012B0FD0022BB8
:1044000002D0032B17D10AE0D21CC36AC2F38F0279
:104410009BB293420FD2826942F020020AE0D21C82
:10442000D0F81034C2F38F029BB2934203D2826958
:1044300042F080628261002200928A8A93B24A78B6
:10444000C96800F035F90020F8BD00002DE9F04101
:104450000025DDF81880174604462E46C0F8005E99
:10446000806B40F40010A063A06B20F40020A063D8
:10447000A06B20F48020A063E06BC00501D5012B68
:1044800004D0D4F8000420F0040103E0D4F80004C0
:1044900040F004012046C4F800141021FFF71AFE72
:1044A00000B101252046FFF7F7FD00B101250020EE
:1044B000411E06E004EB4012C2F80815C2F80C6574
:1044C000401C8742F6D8A6616161E06BC00506D545
:1044D0004FF4007060620C48A0620C4804E0802039
:1044E00060620B48A0620B48C4F80001B8F1000FED
:1044F00003D1A06940F01000A061A06906490843FB
:10450000A0612846BDE8F081000200010003E00040
:1045100080006000E0004000080020A3D0F80024E4
:1045200022F00302C0F80024D0F8002401F00303B5
:104530001A43C0F80024012902D0022903D006E062
:104540004BF6803101E041F27071C0F80414002094
:104550007047416980690840704730B50346084696
:10456000940802F00301002203F5805303E01D6864
:1045700040F8045B521CA242F9D300290BD01C68FE
:104580000022D50024FA05F3491E521C090400F844
:10459000013B090CF5D130BD38B50446D0F84004D4
:1045A00020F02E00009040F48070C4F84004642095
:1045B00004F58864FCF768F8009820F480702060A7
:1045C0000A20FCF761F8002038BD70B50446C068C9
:1045D000002520F0C040E060012901D079B120E041
:1045E000E06840F00050E0600120FCF74DF86069A1
:1045F0006D1C10F0010F10D1322DF5D30DE0E068E5
:1046000040F08040E0600120FCF73EF860696D1CDE
:1046100010F0010F01D0322DF5D3322D01D0002042
:1046200070BD012070BD38B5002504460095806836
:1046300020F00100A06010212046FFF74BFD00B1E3
:1046400001252046FFF728FD00B10125002004EBDD
:104650004011D1F8002522F0802242F08042C1F8BA
:104660000025401C0F28F2D900204FF47A7304EB88
:104670004011D1F8002522F4004242F04042C1F836
:104680000025009A521C00929A4203D8D1F80025C6
:10469000002AF6DB401C0F28E9D94FF0FF30C4F8A0
:1046A00014046061A06840F00100A060284638BD95
:1046B00010B5029C74B9DB1C9C0800EB023000238F
:1046C00000F5805004E000BF51F8042B02605B1C31
:1046D000A342F9D3002010BDFEE700000FB4054B44
:1046E00010B503A9044A029800F028F810BC5DF840
:1046F00014FB0000395B0008000000200907090EC8
:10470000002804DB00F1E02080F80014704700F07E
:104710000F0000F1E02080F8141D704702E008C887
:10472000121F08C1002AFAD170477047002001E02B
:1047300001C1121F002AFBD1704700002DE9FF4F75
:104740008BB09A460F460446002606E025280BD07B
:1047500052460D999047641C761C20780028F5D1AC
:104760000FB03046BDE8F08F0025A94601227D49F3
:1047700000E0054314F8013F203B02FA03F0084231
:10478000F7D120782E2817D114F8010F45F0040531
:104790002A280ED06FF02F022078A0F130010929CD
:1047A0000AD809EB890102EB410100EB0109641C05
:1047B000F2E757F8049B641C20786C280DD004DCC9
:1047C0004C2812D06A2811D104E074280DD07A2820
:1047D0000CD10AE045F4001507E0617845F4801536
:1047E000814202D1641C05F58015641C207869287B
:1047F0003ED006DC0028B3D063280BD0642804D157
:1048000036E0732810D075285CD052460D99904739
:10481000761CA5E017F8040B8DF8000000208DF839
:104820000100E846012003E057F8048B4FF0FF3009
:1048300069074FF0000501D40AE06D1C4D450DDA03
:104840008542FADB18F805100029F6D106E06D1C48
:104850008542FCDB18F805100029F8D12E4404E04D
:1048600018F8010B52460D9990476D1EF8D277E06B
:1048700000200A90C5F302504FF00A0B02280CD01A
:1048800001CFC117021E71F100020CDA0023D0EB38
:10489000030063EB01012D2208E0FF1D27F007074D
:1048A000F7E80201EEE72A0504D52B228DF8242033
:1048B000012203E0EA070FD02022F7E70DF12008DC
:1048C000089218E000200A90C5F302504FF00A0B3E
:1048D000022803D001CF00210022EFE7FF1D27F0BF
:1048E0000707F7E80201F7E75A460A9BFBF770FC57
:1048F000303208F8012D50EA0102F5D1ADEB080085
:1049000000F1200B680701D44FF00109D94502DD01
:10491000A9EB0B0000E000208146002506E009A875
:104920005246405D0D9990476D1C761C0898854253
:10493000F5DB04E0302052460D999047761CB9F122
:104940000001A9F10109F5DC05E018F8010B524658
:104950000D999047761CBBF10001ABF1010BF4DC23
:10496000641CFAE60928010010B504460020E07036
:10497000401E2063204601F0D2FA08B1042010BD89
:1049800004F2322001F04CFAA0F52A41553901D049
:10499000032010BD94F83400E92805D0EB2814D189
:1049A00094F83600902810D104F16A0001F02DFA35
:1049B0000749B1EB002F06D004F1860001F025FA7B
:1049C0000449884201D1002010BD022010BD000022
:1049D000004641544641543300E0401C02780AB17D
:1049E0008A42FAD1D0B27047F0B50022144D134676
:1049F00005EB021426685EB10768BE4209D16668FD
:104A00008768BE4205D1A4684669B44204D000E07C
:104A10000123521C022AEBD3022A01D069B904E017
:104A20004BB9022907D01220F0BD05EB0210808996
:104A3000B0F5807F01D00020F0BD1020F0BD000057
:104A4000D807002030B50021054B0C4603EB0112BE
:104A50001568854200D11460491C0229F6D330BD87
:104A6000D80700200268490AC06A5289B1FBF2F1F6
:104A7000001D04C81AB1914203D3891AF8E7002037
:104A800070470068084470478269891E921E8A42F6
:104A900001D800207047C26A408901FB002070479E
:104AA0002DE9F05F82460C4601F11A0001F0B8F9D9
:104AB00078BB2078012700F03F00401E00EB80010A
:104AC000DFF8589001EBC00500264FF6FF7B00BFD2
:104AD00019F80600204401F0A3F980466FB1FF2DBC
:104AE00017D200F085FE07463AF815006D1C00F05D
:104AF0007FFE87420DD1474601E0D84509D1761C9B
:104B00000D2EE5D32078400606D52FB13AF81500D2
:104B100010B10020BDE8F09F0120FBE744620008CF
:104B20002DE9F04105680F00804606D001F07CF8C1
:104B3000022809D20120BDE8F0812E6916B1A869CA
:104B4000B04207D8012605E0411CF4D0A969814292
:104B5000F1D83E463446A869641CA04202D802241B
:104B6000022E0AD32146404601F05EF838B10128F2
:104B7000E1D0411CDFD0B442EDD10020DBE74FF0A3
:104B8000FF3632462146284601F0E2F930B957B1E6
:104B900022463946284601F0DBF920B101280FD022
:104BA00001242046C7E72C61D5E90501891E88420A
:104BB00001D8401E6861287940F001002871F0E7B3
:104BC0003446EEE72DE9F84F824600680F6800246E
:104BD000C66888462546785D6D1C20282AD32F2874
:104BE00023D05C2821D0FF2C49D2A0F181017D295E
:104BF0000BD8795D6D1C01EB0020A1F1400280B261
:104C00003F2A02D380397F2939D2012100F0CAFD21
:104C10005FEA000933D0B9F1800F12D2014675A0C6
:104C2000FFF7DAFE58BB0CE06D1C795D2F29FBD035
:104C30005C29F9D07A19C8F80020202805D204256B
:104C40000FE026F81490641CC5E7002509E000BFBA
:104C500006EB440030F8020C202801D02E2802D1A7
:104C6000641E002CF4D1002026F814003CB10B2265
:104C700020210AF1240001F04BF9002703E006206F
:104C8000BDE8F88F7F1C36F817002028FAD02E28B0
:104C9000F8D01FB145F0030500E0641E2CB106EB0F
:104CA000440030F8020C2E28F7D14FF000094FF0E5
:104CB000080BCDF8009000BF36F8170007F1010788
:104CC0005FEA000824D0B8F1200F04D0B8F12E0F0D
:104CD00004D1A74202D045F00305EDE700985845FE
:104CE00001D2A74219D1BBF10B0F0FD0A74201D0BF
:104CF00045F003050CD84FF0080000904FEA89609A
:104D000027464FF00B0B4FEA1069D5E745F0030536
:104D10009AF82400E52849D04BE04046B8F1800FCE
:104D200007D300F065FD002100F03CFD804645F012
:104D30000205B8F1FF0F13D90099ABF101008142D0
:104D400004D345F00305CDF800B0B5E70AEB010048
:104D50004FEA182280F824200098401C00901CE0A4
:104D6000B8F1000F04D0014625A0FFF735FE20B1B1
:104D70004FF05F0845F003050FE0A8F14100192846
:104D800002D849F0020908E0A8F16100192804D806
:104D9000413049F001091FFA80F8009A0AEB02013C
:104DA00081F824800098401C009085E705218AF84E
:104DB0002410BBF1080F03D14FEA89604FEA106954
:104DC000C9F38100032803D06FEA0901890701D1E3
:104DD00045F00205A90709D409F00301012901D111
:104DE00045F01005012801D145F008058AF82F503B
:104DF000002045E7222A3A3C3E3F7C7F000000002D
:104E00002B2C3B3D5B5D0000401E022812D20A495C
:104E100001EB00118889B0F5807F05D008B1401EF4
:104E200080B2888110B103E00020FAE7002008601A
:104E30000020704702207047D80700202DE9F04776
:104E400004460021D0F8009000F0CCF900285BD196
:104E5000FF25471EA84627634846E16901F05FF831
:104E6000060050D1216A087850B1CA7AE52802F0CC
:104E70003F02A2713FD0130704D50F2A3BD105E0B2
:104E8000042640E00F2A01D0E5B120E094F82F205D
:104E9000520632D4420606D591F80D8000F0BF00CC
:104EA000626905462263A84209D14A7B424506D180
:104EB000D9F80C00FFF7F4FD08B16D1E00E0FF25E6
:104EC000EDB21AE0084601F012F940451BD094F803
:104ED0002F00C0070FD1D4F8201004F124000B22BA
:104EE00011F8013B10F8015B5B1B521E02D0002B36
:104EF000F6D000E03BB1FF2527630021204600F0FB
:104F000005F80600A8D03046BDE8F0872DE9F04747
:104F1000054647690468C0698946203710B1B7F56E
:104F2000001F02D30420BDE8F087F90560D1401CC2
:104F3000E861A9694FF0000829B16089401E10EAB4
:104F4000572F05D054E02089B0EB571F1DD94FE0F3
:104F5000284600F069FE064601281BD9701C33D094
:104F6000A069B0423ED8B9F1000F0ED02846A96919
:104F7000FFF7D6FD06000BD0012E0BD0701C23D0FE
:104F8000204601F005F9F8B906E0C5F81C80C9E72C
:104F90000720C8E70220C6E74FF40072002104F1A1
:104FA000340000F0B5FF4FF0000831462046FFF70F
:104FB0006BFD4FF0010920630DE000BF84F8039002
:104FC000204601F0E5F808B10120ACE7206B08F1BC
:104FD0000108401C206361894145EFD8216BA1EB9A
:104FE0000800206331462046AE61FFF74DFDE861C1
:104FF000C7F30800204434306F612862002092E734
:105000002DE9F04F0446D0F8009090F82F0089B0B9
:1050100010F0A00F03D0062009B0BDE8F08F0025E6
:10502000D9F80C0000E06D1C30F815100029FAD1F9
:1050300004F124010C226846039100F05FFF9DF803
:105040000B00C00719D0402084F82F0001263346FA
:105050006946D9F80C20039800F0A0FD2046FFF720
:10506000EDFE10B9761C642EF1D3642E0FD0042807
:10507000D2D19DF80B0084F82F009DF80B0080071B
:1050800007D50D200C35B5FBF0F56D1C02E00720AF
:10509000C2E7012500212046276800F0A3F888B95F
:1050A00000263846E16900F03AFF58B9206A0078D6
:1050B000E5280AD048B1002601212046FFF726FF47
:1050C0000028EED0042812D012E0761C2846AE420A
:1050D000F2D1451E059567D06169684201EB401128
:1050E000204600F07FF85FEA000803D076E0072052
:1050F000804673E0039800F0FAFF4FF6FF7B0790BD
:105100004846E16900F00BFF5FEA000866D1D9F874
:105110000C0006900598D4F82080C0B2049007993E
:1051200088F80D100F2188F80B10002188F80C105A
:1051300008F11A0000F0D7FF0498DFF8A4A0401E81
:1051400000EB800101EBC006002701E05D4503D0C4
:10515000069830F81650761C1AF8071001EB080074
:10516000294600F0C0FF05B95D467F1C0D2FEDD329
:105170005D4505D0069830F8160008B1049803E0A4
:10518000049840F04000049088F80000012189F85C
:10519000031000212046FFF7B9FE5FEA00081DD189
:1051A0000598401E0590ABD14846E16900F0B7FE76
:1051B0005FEA000812D120220021206A00F0A8FE38
:1051C0000B22206A039900F099FE94F82F00216ABF
:1051D00000F018000873012089F8030040461BE71F
:1051E000446200082DE9F04107680E460546B1F516
:1051F000001F36D2F00634D16E61AC6824B938781D
:10520000032805D3BC6A1CB178894FEA402812E014
:105210003889B0EB561F24D9B86A12E0284600F04E
:1052200003FD0446401C1AD0022C1AD3B869A042D0
:1052300017D9A6EB080646452146EFD23846FFF7B8
:1052400023FCC5E9064060B100EB5620E861C6F3D7
:1052500008003844343028620020BDE8F081012085
:10526000FBE70220F9E70000084910B50B5C0022BB
:1052700053B901220A540A1801EB8000127A4068DF
:105280000168104688470246104610BDF807002006
:1052900030B4054C231804EB80001B7A4068046985
:1052A0001846A44630BC6047F807002030B4054DCE
:1052B0002C1805EB8000247A406885682046AC46AF
:1052C00030BC6047F8070020044A111802EB800048
:1052D000097A40684268084610470000F807002035
:1052E00030B4054D2C1805EB8000247A4068C56861
:1052F0002046AC4630BC6047F807002010B586B0A9
:1053000000200590009002200490FBF7F3FA06209D
:105310000124CDE9020405A96846FBF7C7F9072077
:10532000CDE9020405A96846FBF7C0F906B010BD37
:1053300038B5044600F0EFF900280CD16946204644
:1053400000F04FFF002806D12069FFF75DFD00281F
:1053500001D10021216038BD2DE9F74181B090468F
:1053600002980090684600F0C0FC040003D50B20B2
:1053700004B0BDE8F0810D4E002756F824501DB151
:105380002846FFF75FFB2F700198002800D00770B8
:1053900046F8240002D0B8F1010F01D00020E7E761
:1053A000002201A902A800F063FAE1E7440000200E
:1053B0002DE9F743ADF5147D05000BD002F03F0653
:1053C0003246694695A800F053FA04004FF00008F1
:1053D00005D0EFE009200DF5177DBDE8F0830098BA
:1053E00010A90190C16001A8959900F06BFB040021
:1053F0000ED19DF83300000601D5062408E07008A0
:1054000001D0012100E0002101A8FFF7EDFA0446D8
:1054100016F01C0F5DD04FF00109C4B1042C10D15F
:105420000020674902E0401C022804D201EB001270
:105430001268002AF7D1022807D001A8FFF7E0FD83
:10544000044646F008065CB1B4E01224B2E09DF8D0
:105450000A0010F0110F47D1700701D50824A9E008
:10546000300747D500F03FFC0746099839460E3013
:1054700000F031FE09983946163000F02CFE0999EB
:105480002020C8720999009800F0ACFC0746002261
:105490000999009800F00BFE099800211C3000F0DB
:1054A0001AFE009981F8039017B3D1F830900022CA
:1054B000394601A800F0C1FD04007BD1494600989F
:1054C00000F02DFD04000098A7F1010707610DD041
:1054D00070E0ECBB9DF80A00C10601D5042469E028
:1054E000B10703D5C00701D0072463E0300701D519
:1054F00046F040060098006B68620998A862700840
:1055000001D0012100E0002101A800F02BFC28615E
:10551000B8B30999009800F065FCA86009981C30A0
:1055200000F073FCC5F82C80E860009929600099B0
:1055300005F130004FF40072C988A9802E7585F8F6
:105540001580C5F8208000218146C5F8188000E04C
:1055500030E000F0DDFCB0062ED5EE6866B3AE613B
:105560000098A968408947020FE0284600F05CFBDC
:105570000146012800D80224481C03D0F61B24B1A0
:1055800005E01BE00124F61B01E0BE42EDD8E96115
:1055900084B9F00510D00098FFF776FA70B100EBEF
:1055A00056222A620098012349464078FFF77EFE82
:1055B00010B10124C5F8008020460CE70224F9E769
:1055C000D80700202DE9FE4F884600211960994632
:1055D0001546044602A900F004FE002812D1607DA1
:1055E00000280FD1207DC0070BD0E168A0690127FA
:1055F000081A4FF0020A04F1300B854200D9054623
:1056000084E00720BDE8FE8FA169C80566D1029835
:105610004089401E10EA512611D129B1E06A28B113
:105620002046FFF71FFA05E0A06803E02046E16985
:1056300000F0FAFA02281BD3411C4AD0E061E1696C
:105640000298FFF721FA98B130440190680A00905F
:1056500025D0029932184889824201D9801B0090D6
:10566000DDE9003248784146FFF720FE88BB03E0C1
:1056700084F815A00220C5E7207D00060CD5216A1C
:105680000198081A0099884206D208EB40204FF48E
:105690000072594600F032FC009846022CE0226A63
:1056A0000198824218D0207D00060AD50298012375
:1056B00059464078FFF714FE58B9207D00F07F006E
:1056C00020750298012359464078019AFFF7EEFDB4
:1056D00010B16775012095E701982062208BC0F317
:1056E0000800C0F50076AE4200D92E4601193246B8
:1056F0004046303100F002FCA069B0443044A06163
:10570000D9F800008119AD1BC9F80010002D7FF4F5
:105710007BAF002076E7F8B50446694600F061FDEE
:1057200000280ED1217D4A060BD508060ED500981B
:10573000226A0123407804F13001FFF7D1FD08B15E
:105740000120F8BD207D00F07F00207500F0CBFA2D
:105750000646616A009800F0E2FB0028F1D1A56AD4
:105760002946E87A40F02000E872A268206800F03C
:105770009EFC05F11C00E16800F0ADFC314605F12E
:10578000160000F0A8FC002105F1120000F0ABFCAF
:1057900000980121C17000F0B7FC217D01F0BF012C
:1057A0002175F8BD70B580281BD345F2205309B18F
:1057B0000D4D00E00D4D002110245A1A02EBD2725B
:1057C00001EB620235F82260864206D001D2114612
:1057D00000E01346641EF0D104E01CB105EB82002A
:1057E000408870BD002070BDF2B601086E620008EE
:1057F00030B5B0F5805F01D21B4900E01B4931F89C
:10580000022B002A15D0904213D331F8024B230A01
:10581000E5B252FA84F4844221D9092B09D2DFE897
:1058200003F005090E11131517191B00801A31F822
:10583000100030BD811A01F00101401A00E010385B
:1058400080B230BD2038FBE73038F9E71A38F7E787
:105850000830F5E75038F3E7A0F5E350F0E7002B08
:10586000CDD101EB4501CAE7760B0308680D0308AB
:105870002DE9FF41002790460E460F6000F035FAF3
:10588000050003D50B2004B0BDE8F0818A4850F82C
:1058900025409CB13460207808F0FE0620B1607885
:1058A000FFF712FDC1070BD02770E8B2B846607051
:1058B000FFF7DAFCC10708D00320E4E70C20E2E799
:1058C0000EB1400704D40020DDE71EB1400701D52A
:1058D0000A20D8E7002631462046FFF745F802287F
:1058E00022D100254FEA0D0704EB051090F8F611C0
:1058F00000F5F97019B1083000F087FA00E00020D7
:1059000047F825006D1C042DEED3002557F82560BF
:1059100036B131462046FFF727F8022801D203E0CE
:1059200003206D1C042DF1D3042809D002286DD268
:1059300004F13F0000F074FAB0F5007F66D101E099
:105940000120A0E704F14A0000F06AFA18B904F156
:10595000580000F05AFAE06194F84450A570012D07
:1059600001D0022D52D1454394F841006081E8B343
:10597000411E08424AD104F1450000F051FA20814D
:10598000000743D104F1470000F04AFA070004D1B0
:1059900004F1540000F039FA074604F1420000F027
:1059A0003FFA010032D02389481900EB13129742C5
:1059B0002CD3B81A6789B0FBF7F0B8B103274FF6BC
:1059C000F57C604500D8022740F6F57C604500D89C
:1059D0000127801C3244E2623144A061C4E90861BD
:1059E000032F15D013B12944A16200E00EE0022F6D
:1059F0001FD000F0010100EB400001EB500000BFA0
:105A0000E16900F2FF10B1EB502F14D20D203AE7FC
:105A100004F15E0000F004FA0028F7D12089002884
:105A2000F4D104F1600000F0F0F9A062A0698000F8
:105A3000E6E74000E4E74FF0FF306061206180203E
:105A40002071032F2CD104F1640000F0E9F9012842
:105A500026D1711C204600F062FA08BB84F804804D
:105A600004F2322000F0DCF9A0F52A41553917D1B3
:105A700004F1340000F0C9F91049884210D104F54E
:105A8000067000F0C2F90E49884209D104F507708A
:105A900000F0BBF9606104F5087000F0B6F9206110
:105AA00005492770091F0888401C0880E0802046AF
:105AB000FEF7C8FF07E70000440000205252614192
:105AC0007272416173B504460568019801E0401C9B
:105AD000019001782F29FAD05C29F8D00021A1602B
