:020000040800F2
:10000000482C00209D0100088B1B0008B719000830
:10001000891B0008CD0200084940000800000000CC
:100020000000000000000000000000009B1B000812
:100030002103000800000000991B00089D1B000818
:10004000B7010008B7010008B7010008B7010008B0
:10005000B7010008B7010008B7010008B7010008A0
:10006000B7010008B7010008B7010008B701000890
:10007000B7010008B7010008B7010008B701000880
:10008000B7010008B7010008B7010008B701000870
:10009000B7010008B7010008B7010008B701000860
:1000A000B7010008B7010008B7010008B701000850
:1000B000B7010008B7010008B7010008B701000840
:1000C000B7010008B7010008B7010008B701000830
:1000D000B7010008711E0008B7010008B701000849
:1000E000B7010008B7010008B7010008B701000810
:1000F000B7010008B7010008B7010008B701000800
:10010000B7010008B7010008B7010008B7010008EF
:10011000B7010008B7010008B7010008B7010008DF
:10012000B7010008B7010008B7010008B7010008CF
:10013000B7010008B7010008B7010008B7010008BF
:10014000B7010008B7010008B70100088D1B0008BF
:10015000B7010008B7010008B7010008B70100089F
:10016000B7010008B7010008B7010008B70100088F
:10017000B7010008B7010008B7010008000000003F
:10018000B7010008B7010008DFF80CD000F08CF8C8
:100190000048004761580008482C00200648804766
:1001A00006480047FEE7FEE7FEE7FEE7FEE7FEE75C
:1001B000FEE7FEE7FEE7FEE7351C000889010008C0
:1001C0002DE9F05F0546002092469B46884606468C
:1001D000814640241BE0284641464746224600F01F
:1001E00053F853465A46C01A914110D31146184647
:1001F000224600F03AF82D1A67EB01084F462246D6
:100200000120002100F031F817EB00094E41201EBB
:10021000A4F10104DFDC484631462A464346BDE8E6
:10022000F09F40EA01039B0703D009E008C9121FB1
:1002300008C0042AFAD203E011F8013B00F8013BA0
:10024000521EF9D27047D2B201E000F8012B491ECC
:10025000FBD270470022F6E710B513460A46044663
:100260001946FFF7F0FF204610BD202A04DB203A94
:1002700000FA02F1002070479140C2F1200320FAF9
:1002800003F3194390407047202A04DB203A21FAF7
:1002900002F00021704721FA02F3D040C2F120029F
:1002A0009140084319467047064C074D06E0E06848
:1002B00040F0010394E8070098471034AC42F6D3AD
:1002C000FFF766FFD4070308F4070308FEE7000002
:1002D00010B500224FEA020100EB8203521CC3F862
:1002E0008413102AF8D300224FF400738418521C90
:1002F00084F81C119A42F9D3017041700122827076
:10030000C0F8C413027640238371417680F81C1331
:1003100080F81D2380F81F1380F81E13002010BDE5
:10032000704772B6FEE70022AFF3008030B50E4B87
:10033000054601205C7A002C14D1587A1C54587A56
:1003400003EB800045605D7A03F108002A54587A77
:10035000421C5A72303008703A2048702F20887042
:10036000CC70002030BD0000380C00202DE9F04199
:100370000446876D00F066F9064694F835000025BE
:10038000022806D08020606584F834500120BDE842
:10039000F0812068016821F0160101602068416940
:1003A00021F080014161206C08B9A06C20B1206867
:1003B000016821F0080101602068016821F0010155
:1003C00001600CE000F03EF9801B052807D92020D1
:1003D0006065032084F8350084F83450D7E720683E
:1003E0000068C007EED194F85C103F208840B860E8
:1003F000012084F8350084F834500020C7E790F8D5
:100400003510022903D08021416501207047052164
:1004100080F835100068016821F0010101600020BA
:100420007047000070B5044600F00CF90546601CEA
:1004300002D004480078044400F004F9401BA042B4
:10044000FAD370BD080000202DE9F84FDFF8BCA1F9
:100450000022012503264FF00F090AF1040BAAF12F
:10046000040E00BF0B6805FA02F42340A34270D1CA
:100470000F7907F00307012F01D0022F16D18768EB
:100480004FEA420806FA08FC27EA0C07D1F80CC02C
:100490000CFA08FC4CEA070CC0F808C04768A743F0
:1004A0000C79C4F3001494403C4344600C79E44359
:1004B000A4070AD0C4684FEA420C06FA0CF7BC4302
:1004C0008F6807FA0CF72743C7600C7904F0030420
:1004D000022C12D1D40800EB840CDCF82040570722
:1004E000FF0E09FA07F824EA0804D1F8108008FA88
:1004F00007F848EA0408CCF8208004684FEA420C68
:1005000006FA0CF7BC430F7907F0030707FA0CF75C
:10051000274307604C6814F4403F70D03C4C276878
:1005200047F480472760246822F0030704F48044DE
:100530000094384C07EB040CDCF8084897074FEAA6
:10054000177809FA08F7BC43334FB84202D10027A5
:1005500024E054E0314FB84201D101271EE0304F72
:10056000B84201D1022719E02E4FB84201D103272A
:1005700014E02D4FB84201D104270FE02B4FB842B1
:1005800001D105270AE02A4FB84201D1062705E02C
:10059000284FB84201D1072700E0082707FA08F7DB
:1005A0002743CCF80878DAF800405746D1F804C061
:1005B0009C435FEACC2C00D51C433C60DBF8004038
:1005C0005F46D1F804C09C435FEA8C2C00D51C43E5
:1005D0003C60DEF800407746D1F804C09C435FEAF7
:1005E0008C3C00D51C433C60084F083F3C68D1F868
:1005F00004C09C435FEACC3C00D51C433C60521CC9
:10060000102AFFF42FAFBDE8F88F0000083C01402E
:100610004438024000300140000002400004024023
:1006200000080240000C024000100240001402408A
:1006300000180240001C02400AB1816170470904A1
:10064000FBE70000014880687047000008000020B8
:10065000D0F8000301F047BFD0F8000301F04DBF10
:10066000006803F00FBA006803F010BA01EB410212
:1006700002EBC10100EB810090F86000704701EBD4
:10068000410202EBC10100EB8100006D704710B523
:10069000044690F8F802012809D0012084F8F802F5
:1006A000206803F0FEF9002084F8F80210BD022053
:1006B00010BD2DE9FE430546DDE90B7095F8F842C3
:1006C000DDF828C0012C1ED001EB410404EBC1046D
:1006D0004FF0010905EB840485F8F892002684F8B0
:1006E0003D6084F83830A4F8400084F8391084F86C
:1006F0003F7002F07F0884F83A805FEA026805D50F
:1007000084F83B9004E00220BDE8FE8384F83B605F
:1007100084F83CC0CDF800C0CDE90170286803F032
:1007200023FA85F8F862EFE770472DE9F00301EB53
:100730004104DDE906C9DDE9087504EBC10400EBFD
:100740008404022684F83B2084F83F30BCF1000F7B
:100750000AD084F8426000256BB1012B2FD0022B08
:1007600012D0032B16D10FE04FF0030884F842801B
:1007700084F83D50EFE7BCF1010F0BD152B9DFB95E
:10078000012284F8552003E0B2B194F85420B2B1AC
:1007900084F84260C4F84490E76484F860502565AA
:1007A00084F8391084F86150027C04F13801006843
:1007B000BDE8F00303F061BA94F85520E7E784F848
:1007C0004250E7E72DE9F04106680446304603F061
:1007D00064F9012875D1206803F073FB002870D0FC
:1007E000206803F06EFB800203D521684FF40010EF
:1007F0004861206803F065FBC00203D521684FF40F
:1008000080104861206803F05CFB400103D521683B
:100810004FF080604861206803F053FB800702D5E9
:10082000216802204861206803F04BFB800015D549
:1008300021684FF000504861D6F84004C0070DD140
:100840001021304603F0FEF8304603F0DDF80121B8
:10085000206803F01BFB2046FFF7FEFE206803F034
:1008600030FBC00102D5204601F015F8206803F0E6
:1008700028FB000705D5204600F0C7F821680820AE
:100880004861206803F01DFBC043C0060CD42068FB
:10089000816921F010018161204601F046F820684D
:1008A000816941F010018161206803F00AFB800139
:1008B00023D5206803F0DDF9074600254FF0010835
:1008C00014E01AE005F00F0108FA01F038420CD0EC
:1008D00006EB4510D0F80005E9B20004204602D529
:1008E00000F0D6FD01E000F0C8FE6D1CA068A84233
:1008F000E8D821684FF000704861BDE8F08170B51C
:100900008AB0040005D094F8F9022568002618B1D1
:1009100007E001200AB070BD84F8F862204600F0BC
:1009200027F8032084F8F902E86BC00500D426619B
:10093000206803F035F804F1100128220D466846BE
:10094000FFF76FFC94E80F0002F0D0FF0121206850
:1009500003F0F3FA282229466846FFF762FC94E880
:100960000F0003F02BFA012084F8F9020020D1E7F0
:1009700010B586B0044614216846FFF76BFC20686A
:10098000B0F1A04F2FD119480021026842F00102B6
:100990000260006800F0010005904FF4C050009024
:1009A0000220CDE90101032003900A20049069464A
:1009B0000F48FFF749FD0D48001D016841F0800117
:1009C00001600A481430016841F480410160006808
:1009D000002200F4804005900121432000F0AAF895
:1009E000432000F099F806B010BD000030380240F6
:1009F00000000240D0F8000301F012BED0F800035E
:100A000001F012BE006803F07FBAD0F8000301F0D5
:100A1000C2BD10B5044690F8F80201280DD001209F
:100A200084F8F8020121206802F0D2FF206802F069
:100A3000E5FF002084F8F80210BD022010BD10B5BB
:100A4000044690F8F802012809D0012084F8F80241
:100A5000206803F0A0FA002084F8F80210BD0220FC
:100A600010BD00000248816802781144816070471F
:100A7000080000200B4810B5016841F400710160C6
:100A8000016841F480610160016841F48071016096
:100A9000032000F06FF80F2000F006F800F024F8B3
:100AA000002010BD003C024070B50D4D04464FF4CF
:100AB0007A712878B1FBF0F00A490968B1FBF0F0CF
:100AC00000F00AFB48B9102C07D200222146501E24
:100AD00000F030F800206C6070BD012070BD000097
:100AE00008000020140000200A4808B5016841F4FD
:100AF00080410160006800F4804000900548001FBC
:100B0000016841F080510160006800F08050009061
:100B100008BD000044380240002809DB00F01F0235
:100B2000012191404009800000F1E020C0F800114F
:100B300070470000F0B40E4B1B680C46C3F3022351
:100B4000C3F10705042D00D90425191D072901D279
:100B5000002300E0DB1E012606FA05F1491E2140B4
:100B600099409E40761E16403143F0BC03F07EBA99
:100B70000CED00E0064900F0070208684FF6FF039D
:100B8000184040EA0220034A104308607047000002
:100B90000CED00E00000FA052DE9F0470E460500D7
:100BA00065D0DFF81481D8F80000F7B200F0070034
:100BB000B04207D288F80070D8F8000000F00700B3
:100BC000B04254D128683D4C810712D5400703D567
:100BD000206840F4E05020602878000703D52068A2
:100BE00040F4604020602068A96820F0F0000843CD
:100BF00020602878C0072DD030496868083901285E
:100C000012D0022813D0032811D0096889070029BF
:100C10002DDA216821F0030101432160FFF712FD65
:100C2000814641F2883A0EE009688903EFE70968D6
:100C30008901ECE7FFF706FDA0EB0901514502D958
:100C40000320BDE8F0872068696800F00C00B0EB75
:100C5000810FEFD1D8F80010404601F00701B142F2
:100C600007D90770006800F00700B04201D00120EA
:100C7000E7E72878400705D52068E96820F4E050C8
:100C8000084320602878000706D52068296920F4E9
:100C9000604040EAC100206000F038F82168084A4E
:100CA000C1F30311515CC84006490860064800685A
:100CB000FFF7FAFE0020C4E7003C0240083802407B
:100CC000C25B0008140000200C0000200448054905
:100CD00000680968044AC1F38221515CC84070472A
:100CE0001400002008380240D25B0008044805497F
:100CF00000680968044AC1F34231515CC84070473A
:100D00001400002008380240D25B0008154810B5D6
:100D1000006810F00C02144813D04110042A0FD0C0
:100D2000082A0ED10F4C241F2268236802F03F02CC
:100D30005B0207D52068C0F38810A0FB010106E024
:100D4000084610BD2168C1F38811A1FB00010023F2
:100D5000FFF736FA2168C1F30141491C4900B0FB95
:100D6000F1F010BD083802400024F4002DE9F84FDE
:100D700004006ED02078DFF84C93C007A9F1040579
:100D80004AD009F104000168C1F38101012908D0AA
:100D90000068C0F3810002280AD1D9F8000040029F
:100DA00006D52868800337D560680028E1D033E095
:100DB0006068B0F5803F10D0B0F5A02F286810D043
:100DC00020F480302860286820F480202860606843
:100DD000A8B1FFF737FC06460DE0286840F48030E4
:100DE000F4E740F480202860F7E700BFFFF72AFC13
:100DF000801B642873D828688003F7D50CE0FFF7C0
:100E000021FC064605E000BFFFF71CFC801B6428A0
:100E1000F0D828688003F7D42078DFF8AC82800708
:100E20004FF0000A3ED5A748001D016811F00C0FD5
:100E300008D00068C0F3810002280BD1D9F8000067
:100E4000400207D42868800716D5E068012800D141
:100E500012E033E1E068B8B10120C8F80000FFF704
:100E6000F1FB064605E000BFFFF7ECFB801B022804
:100E7000C0D828688007F7D52868216920F0F800D5
:100E800040EAC10028600DE0C8F800A0FFF7DAFBD7
:100E9000064604E0FFF7D6FB801B02281FD828680F
:100EA0008007F7D42078000722D5864F87486169EC
:100EB000703771B101210160FFF7C4FB064604E001
:100EC000FFF7C0FB801B022809D838688007F7D5D8
:100ED0000EE0C0F800A0FFF7B5FB064605E082E093
:100EE000FFF7B0FB801B02287DD838688007F7D455
:100EF0002078400768D5DFF8CCB100270BF13C0B18
:100F0000DBF80000C0000BD4DBF8001041F080518A
:100F1000CBF80010DBF80000012700F080500090B3
:100F20006B4E3068C00510D4306840F4807030607B
:100F3000FFF788FB009005E0FFF784FB0099401A5B
:100F4000022850D83068C005F6D55E4EA0686C36D1
:100F500001280FD00528306810D020F00100306043
:100F6000306820F004003060A068B8B1FFF76AFB79
:100F700000900FE0306840F00100F4E740F004001A
:100F80003060F7E7FFF75EFB0099411A41F28830C5
:100F9000814266D830688007F4D50EE0FFF752FB37
:100FA000009007E0FFF74EFB0099411A41F28830AC
:100FB000814256D830688007F4D42FB1DBF8001096
:100FC00021F08051CBF80010A069C8B33D49091D3C
:100FD0000968C1F3810102294AD00228504607D08E
:100FE000C8F8600000E03CE0FFF72CFB04463BE063
:100FF0004746C8F86000FFF725FB064605E000BF3E
:10100000FFF720FB801B02282BD828688001F7D42B
:10101000D4E907010843A16A2E4A490802EB0141BD
:10102000626A41EA8211084394F82C1040EA016197
:10103000C9F8001001203866FFF704FB044606E0FB
:101040003EE000BFFFF7FEFA001B022809D828681F
:101050008001F7D534E000BFFFF7F4FA001B022847
:1010600002D90320BDE8F88F28688001F4D427E076
:101070000128F7D0D9F80000E26900F4800191421C
:101080001CD1226A00F03F01914217D147F6C0718E
:10109000626A0140B1EB821F10D1A26A4FF0FF33A8
:1010A00000F4403103EB5202B1EB024F06D194F849
:1010B0002C1000F07060B0EB016F01D00120D1E77F
:1010C0000020CFE70438024000004742800E47422C
:1010D000007000400000FFFF10B5401EB0F1807F9F
:1010E00001D3012010BD4FF0E02460610F21601793
:1010F00002F0BCFF0020A06107202061002010BD8D
:1011000070477047F8B5016804460868CA684B69BB
:1011100010F00F0F4FF0000559D003F0010602F454
:101120009077374365D0C10705D0D10503D5216C31
:1011300041F001012164410705D5D90703D0216C95
:1011400041F002012164810705D5D90703D0216C44
:1011500041F004012164010707D502F02001314369
:1011600003D0216C41F008012164216C00293AD0A0
:10117000800604D5900602D5204600F092FD206836
:101180004069216CC0F38010090700D460B3204689
:1011900000F060FD20684069400621D520681430C9
:1011A00050E8001F21F0400140E80012002AF5D16C
:1011B000A06BA8B16C490165A06BFFF720F900286E
:1011C00011D0A06B016D01B0BDE8F0400847830667
:1011D0000FD593060DD52046BDE8F84000F061BD5F
:1011E0002046FFF78EFFF8BD2046FFF78AFF2564F3
:1011F000F8BD266B2023012E79D1C60677D5D606F9
:1012000075D50868486800904869400640D5A16BCC
:10121000086840680004000CEAD0A28D8242E7D939
:10122000E085C869B0F5807F2DD020680C3050E88B
:10123000001F21F4807140E80012002AF5D12068D7
:10124000143050E8001F21F0010140E80012002A8C
:10125000F5D12068143050E8001F21F0400140E82B
:101260000012002AF5D184F83E30256320680C3046
:1012700050E8001F21F0100140E80012002AF5D1CB
:10128000A06BFFF773F8A08DE18D401A81B229E0C1
:10129000A08DE18D401A81B2E08D0028A8D00029F0
:1012A000A6D020680C3050E8002F22F4907240E85D
:1012B0000026002EF5D12068143050E8002F22F0CF
:1012C000010240E80026002EF5D184F83E30256367
:1012D00020680C3050E8002F22F0100240E8002374
:1012E000002BF5D12046FFF70BFFF8BDFFE7050601
:1012F0002BD5150629D594F83D002128F5D1A068F5
:10130000B0F5805F01D12069B0B1206A411C216233
:10131000216800784860E08C401E0004000CE084E6
:10132000E3D12068C16821F08001C1602068C168F4
:1013300041F04001C160D8E7206A0088C0F308008E
:101340004860206A801C2062E5E74006CDD5500643
:10135000CBD5CA68204622F04002CA6084F83D30EE
:1013600000F095F8C1E70000451C000870B50400C6
:1013700004D094F83D00002510B106E0012070BDB6
:1013800084F83C50204600F023F8242084F83D00E7
:101390002068C16821F40051C160204600F0E2FCE1
:1013A0002068016921F4904101612068416921F0C0
:1013B0002A0141612068C16841F40051C16025647F
:1013C000202084F83D0084F83E00002070BD00001D
:1013D00070B586B0044614216846FEF73BFF2748E7
:1013E000254E256800242549143802220323B542DE
:1013F00023D10D6845F010050D60096801F010015A
:101400000591016841F0010101600068694600F042
:101410000100059058028DE815000720CDE9033042
:101420001748FFF711F8002211462520FFF782FB2D
:101430002520FFF771FB06B070BD124EB542FAD100
:101440000D6845F020050D60096801F02001059147
:10145000016841F0040101600068694600F0040081
:101460000590C0208DE815000820CDE9033006481E
:10147000FEF7EAFFDFE700000010014044380240B9
:10148000000002400014014000080240704770470D
:101490002DE9F047074600680D4600EB4116D6F8E7
:1014A000080501EB4103420703EBC5014FF00600BD
:1014B0004FF004084FF0050A07EB810401D54146BF
:1014C0003CE0D6F80815C90507D54FF48070C6F87A
:1014D0000805072084F861001CE0D6F80815890685
:1014E00003D52020C6F8080518E0D6F808150A0725
:1014F0004FF0080104D5C6F8081584F861A009E08A
:10150000D6F80825520514D54FF48060C6F80805B2
:1015100084F861102946386802F0C3FAD6F8080545
:1015200080050ED52946386802F0BBFA4FF40070EA
:10153000A0E0D6F808150906F0D58021C6F80815F0
:10154000C8E7D6F808054FF00001C0074FF01009B2
:101550004FF001023BD0386930B1A06CD6F810359D
:10156000C3F31203C01A206584F86120E165C6F850
:10157000082594F83F0030B1022804D0032809D090
:10158000012807D012E02946386802F08AFAC6F826
:1015900008950BE0D6F8000540F00050C6F80005AD
:1015A00084F8602029463846FFF7BEF838690128DC
:1015B00006D1B4F84010A06CB0FBF1F0C00704D025
:1015C00014F8540F80F001002070BDE8F087D6F8C1
:1015D0000805800735D594F86100022301280AD058
:1015E00005280BD006280CD008280AD003280FD0D5
:1015F000072818D01CE084F8602019E084F860A067
:1016000016E0E06D401CE065022801D9E1650DE0BF
:1016100084F86030D6F8000520F0804040F00040AB
:10162000C6F8000504E0E06D401CE06584F86080C9
:10163000C6F8083594F8602029463846FFF774F854
:10164000C3E7D6F80805C006BFD594F83F000328C5
:1016500003D020B1022802D00BE0E16505E0E1658E
:10166000386930B9032084F861002946386802F0EF
:1016700018FA4846C6F80805A7E72DE9F0470268BA
:1016800002EB4114D4F8082501EB4103550703EBA5
:10169000C1034FF004024FF0060A00EB830304D5A8
:1016A000C4F8082583F861A051E0D4F808554FF03C
:1016B0000007AD064FF0020C0BD52022C4F8082518
:1016C00093F83D20012A33D183F83D7083F860C040
:1016D0003DE0D4F80855AD0504D54FF40072C4F8C8
:1016E000082534E0D4F808554FF001065FEAC578C4
:1016F0004FF040050DD0DF65D4F80825520603D51C
:1017000083F83D60C4F80855C4F8086583F8616043
:101710001DE0D4F808855FEA48680BD583F861209E
:1017200083F83D60DF65006802F0BBF9C4F8085536
:10173000BDE8F087D4F808554FF008095FEA05784E
:101740004FF0050508D5C4F8089583F86150006886
:10175000BDE8F04702F0A5B9D4F808855FEAC8688B
:1017600010D50322DF6583F8612093F83D2022B96C
:1017700093F83C200AB983F83D60006802F091F9C3
:1017800010201AE0D4F808855FEA086818D50569C2
:1017900055B1DD6D6D1CDD65022D0BD9DF6583F85C
:1017A0006020FEF7C1FF07E083F861A0006802F047
:1017B00078F901E083F860C08020C4F80805B7E735
:1017C000D4F808855FEA485807D583F86190006827
:1017D00002F067F94FF48060EFE7D4F808855FEA1C
:1017E0008878A5D593F86180B8F1010F0FD0B8F1D2
:1017F000030F30D0B8F1040F2DD0B8F1050F2DD064
:10180000B8F1060F2DD0B8F1080F2AD03CE083F8CC
:10181000606093F83F20022A01D0032A34D1026984
:101820002AB993F8552082F0010283F85520026905
:10183000012A29D1DA6C3AB3B3F840502A44521E37
:10184000B2FBF5F2D2071FD093F8552082F00102C7
:1018500083F8552018E083F860C015E083F86050E5
:1018600012E0DD6D6D1CDD65022D03D9DF6583F8A7
:10187000602009E083F860C0D4F8002522F080429F
:1018800042F00042C4F80025C4F808C593F860206F
:10189000FEF74AFF4CE77CB504680546D4F84004DF
:1018A0000190D4F8400420F02E00009001988007A9
:1018B00009D50198C00702D02846FEF7C9FE009856
:1018C00040F0020000900198000724D5009840F0F5
:1018D00008000090019840071AD5A869022803D093
:1018E000E86801280CD00FE00198C0F341400228BD
:1018F000286803D0012102F0C9FA05E00221FAE7C5
:101900004EF66020C4F804042846FFF777F802E09A
:101910002846FFF76FF801988006009802D540F03E
:1019200020000090C4F840047CBD2DE9F04102463F
:1019300000680646016AC1F3434301F00F07C1F393
:101940000A15022B31D1002D2FD007EB470101EBF7
:10195000C70102EB8104616C002926D0226DE36C83
:101960002A449A4223D82A4602F0AFFA606C2844EF
:101970006064206D2844206506EB4710D0F81015F0
:10198000B4F84020C1F3C941AA420ED100290CD0BD
:10199000D0F8001521F0804141F00041C0F8001559
:1019A00014F8540F80F001002070BDE8F08104208D
:1019B00084F86000F9E7FEE770B5ADF5816D0022AF
:1019C0001249134803F046FA08B172B6FEE7012245
:1019D00010A1124803F06AFA08B172B6FEE70DF5DD
:1019E00080634FF4806269460C4803F069FB002471
:1019F0006D4640F2FF36295D09A002F027FB641C0A
:101A0000B442F8DB0DF5816D70BD00003900002097
:101A1000500000204150502E62696E008402002068
:101A2000307825303258200028B101224FF400715F
:101A30000248FEF701BE0022F8E70000000802405D
:101A400010B504490448FEF76EFC0249491E0870AF
:101A500010BD000039000020DC5B000870B586B0C6
:101A600014216846FEF7F6FB16480024016841F091
:101A700004010160016801F004010591016841F071
:101A800080010160016801F080010591016841F069
:101A90000101016000680C4E00F001004FF4007578
:101AA0000590002229463046FEF7C6FD012000952C
:101AB000CDE90104694630460394FEF7C5FC06B043
:101AC00070BD000030380240000802400C4810B5DC
:101AD0000A4901604FF4E1314160002181600C222C
:101AE000C160C0E904128161C161FFF73FFC0028B9
:101AF00003D0BDE81040FEF714BC10BD001001403B
:101B0000B40400200C4810B50A4901604FF4E131DB
:101B10004160002181600C22C160C0E90412816132
:101B2000C161FFF723FC002803D0BDE81040FEF799
:101B3000F8BB10BD00140140F804002010B50122CC
:101B40000B490C4800F0A7FC08B1FEF7EAFB0A4974
:101B5000084801F08FFD08B1FEF7E3FB054801F0EE
:101B6000CCFD002803D0BDE81040FEF7DABB10BD65
:101B7000113700083C05002018000020014801F042
:101B80005BBC00003C050020FEE7FEE70148FEF7D5
:101B900019BE00001409002070477047FEF762BFAD
:101BA00030B593B030216846FEF754FB14210CA8E1
:101BB000FEF750FB1D480025016841F0805101608F
:101BC000006800F0805011901948016841F480418C
:101BD00001600068022400F4804011900120009010
:101BE000000401908001CDE9064004200890A8205F
:101BF000CDE9090407200B906846FFF7B7F808B154
:101C000072B6FEE70CA90F2081E831004FF4A05016
:101C10000F904FF48050109005210CA8FEF7BCFFE8
:101C2000002801D072B6FEE713B030BD4038024044
:101C3000007000400248016841F470010160704783
:101C400088ED00E010B5806B0021C185C184FFF7ED
:101C500058FA10BD01680C3151E8002F22F490723F
:101C600041E80023002BF5D10168143151E8002F21
:101C700022F0010241E80023002BF5D1016B01297C
:101C800009D101680C3151E8002F22F0100241E81F
:101C90000023002BF5D1202180F83E1000210163A4
:101CA000704708B590F83E10222901D0022008BDE7
:101CB00082684FF480539A4201D1016921B1816A4F
:101CC0009A421BD04AB10AE00268816A5268C2F3A4
:101CD00008020A80816A891C08E0026972B1026800
:101CE000526802F07F020A70816A491C8162C18DCC
:101CF000491E0904090CC18503D019E00268526825
:101D0000F1E70168CA6822F02002CA600168CA6867
:101D100022F48072CA6001684A6922F001024A61B5
:101D2000202180F83E10016B012903D0FFF7AEFBA4
:101D3000002008BD0021016301680C3151E8002F2B
:101D400022F0100241E80023002BF5D101680A6857
:101D5000D20602D50A6849680091818DFFF7D0F953
:101D6000E6E7000070B5044600680169E26821F406
:101D70004051114301612169A068E269084361692A
:101D8000114308432168CA6849F20C639A4302432D
:101D9000CA6020684169A26921F440711143416120
:101DA00031492068884202D03049884202D1FEF78A
:101DB0009DFF01E0FEF78AFFE269002319216425F7
:101DC0003226B2F5004F626828D0A0FB0101930FC4
:101DD0009200FEF7F5F90146B0FBF5F06FF018023E
:101DE000504301EB800006EB0010B0FBF5F000F073
:101DF000F002B1FBF5F002EB0012B1FBF5F06FF071
:101E00001803584301EB800006EB0010B0FBF5F01F
:101E100000F00F0021681044886070BDA0FB010134
:101E200092185B41FEF7CCF90146B0FBF5F00201D8
:101E3000B1FBF5F06FF01803584301EB800006EB9F
:101E4000C000B0FBF5F000F0F80002EB4002B1FB7F
:101E5000F5F0584301EB800006EBC000B0FBF5F055
:101E600000F00700D6E70000001001400014014018
:101E70000148FFF747B90000B404002010B5002264
:101E80004FF6FF7300EB8204B4F8844324040BD4B0
:101E90009A4207D002F00F0300EB830041F40041A7
:101EA000C0F88413D0B210BD521CD2B2102AE9D3AC
:101EB0001A46F7E77FB51C46012501AE00230095C1
:101EC00086E80E0002232A46214600F0E1FB04B01A
:101ED000002070BD7FB51D4690F81D33089C03B1EE
:101EE00000240123CDE90031CDE9022402230022A0
:101EF000294600F0CDFB04B0002070BD10B500F005
:101F0000E9FA002010BD8278012A07D1022202746A
:101F100001224274002242828182C2820022114642
:101F200000F00FB87FB51C46012501AE00230095D7
:101F300086E80E002A46214600F0AAFB04B00020E5
:101F400070BD70B504460120A3780546012B0BD067
:101F5000022B08D1204600F020F958B1032809D0FF
:101F6000022800D1A57070BDA160A2812576022152
:101F7000A17070BDA5700021217670BD7FB51D4692
:101F800090F81D33089C03B100240123CDE90031F2
:101F9000CDE9022400231A46294600F079FB04B05B
:101FA000002070BD1FB500231446CDE90031082282
:101FB000CDE902231A46214600F06AFB04B0002056
:101FC00010BDFEF72FBA000070B50546002005F5DC
:101FD0004E7500BF00EB800404EBC00405EB440425
:101FE000E67B0A348E4201D0FF2909D1A6799642B8
:101FF00001D0FF2A04D1E4799C4206D0FF2B04D003
:10200000401CC0B20228E5D3FF2070BD102907D2C2
:1020100000EB8100B0F88413C1F30E01C0F8841303
:102020000020704730B48578029C012D0FD141F01B
:10203000800101740621417403214282B1EB122F09
:1020400002D140F2094100E000218182C48222468F
:1020500030BC1946FFF775BF0A8803781A440A8016
:10206000017808447047F8B50E4600F11C04009151
:10207000054623464FF400720021FFF7D3FF0028E6
:1020800006D1324621462846BDE8F84001F0F6B8B0
:10209000F8BD38B50D460091044600F58E734FF437
:1020A00080720021FFF7BEFF010044D194F81C01AB
:1020B00084F8260394F81D0184F82703B4F81E0160
:1020C000A4F8280394F8200184F82A0394F8210145
:1020D00084F82B0394F8220184F82C0394F823014C
:1020E00084F82D03082806D0102804D0202802D018
:1020F000402800D0402084F82D03082D1BD9B4F8C7
:102100002401A4F82E03B4F82601A4F83003B4F88F
:102110002801A4F8320394F82A0184F8340394F8CF
:102120002B0184F8350394F82C0184F8360394F8D5
:102130002D0184F83703084638BDF8B51C4616460D
:10214000009341F4407200F58E731D460021FFF7A5
:1021500069FF002814D16978032911D129788A1ED2
:10216000A24200D814460021A2B2AD1C04E06B5C70
:10217000891C06F8013B89B29142F8D300213170E5
:10218000F8BD01004FF0000004D0012901D0022960
:1021900001D002207047012070472DE9F84F01253A
:1021A000017E04460B26092728464FF007084FF00A
:1021B000050A4FF00D090C2919D2DFE801F0B40629
:1021C0000E26313C48606B7C899A627904F11001DB
:1021D0002046FFF7E7FE022012E06179204600F07A
:1021E000D6F9012804D0042871D002287FD09AE0C3
:1021F000207CE18A00F0800021B180283AD10320C0
:10220000207690E0802814D02EE0D4F8C403E0813A
:102210002379A2892046A168FFF784FE0420EFE716
:102220002179204600F0B3F9012802D0052840D0DA
:1022300056E0277677E000906379A2892046A1686E
:10224000FFF79CFED4F8C403E0810620D8E761794B
:10225000204600F09CF9012806D0052807D0022866
:1022600008D0042809D05EE084F818805BE00C20D8
:1022700020761EE084F818A055E0267652E0002271
:10228000237911462046FFF74DFED4F8C403E081C0
:102290000820B5E72179204600F079F9012804D01B
:1022A000042824D0052804D03DE084F818900025A7
:1022B00039E0032537E0009000226379114620467B
:1022C000FFF75CFED4F8C403E0810A2098E70EE033
:1022D0006179204600F05BF9012804D00228A8D0DB
:1022E000042804D01FE0002584F818901BE026760F
:1022F00019E0617E491CC9B26176022902D82076B4
:10230000A07010E0D4F8D423062120469047002581
:10231000657661792046FFF779FE21792046FFF73F
:1023200075FE257002252846BDE8F88F2DE9FE438D
:1023300004460126407800250D27B04604F58E722C
:1023400008280CD2DFE800F0042A3C686F869299D6
:1023500008212046FFF79DFE10B103280DD097E01D
:1023600094F82D03A07184F8018094F81D13009156
:10237000CDE9015094F81C3338E094F81E03401C5A
:10238000C0B284F81E03032818D861792046FFF7ED
:102390003DFE21792046FFF739FE59E01221204603
:1023A000FFF777FEA8BB022047E000BF94F81E03AA
:1023B000401CC0B284F81E03032840D9277067E090
:1023C0000121204601F06FF910B1032822D05FE00F
:1023D0000220FFF7F6FD84F81C8303206070A079CB
:1023E00094F81D13CDE9001543460290217980220F
:1023F000204600F039FFA07994F81D130091CDE933
:10240000015094F81C3361790022204600F02CFF23
:102410003EE00EE027702EE009212046FFF723FE64
:1024200038B9042009E0B4F83A132046FFF71BFE40
:1024300010B10328BAD02BE00520607028E0617944
:102440002046FFF7E3FD21792046FFF7DFFD6570A9
:1024500025701DE094F8341306250AE0FF2320467A
:10246000FFF76BFE38B1032805D011E094F835135F
:1024700007250029F2D165700AE094F8361331B1CE
:10248000FF232046FFF759FE08B1032800D100269C
:102490003046BDE8FE8370B50E46040018D084F8BF
:1024A000CC230025C4F87C53C4F8805304F5487449
:1024B000FDF70EFFE57025706570A570A4F54874F2
:1024C0000EB1C4F8D463204600F074F8002070BD4B
:1024D000022070BD10B5D0F8D003FEF7D8F8BDE8E3
:1024E0001040FFF74EBE012180F82013002180F834
:1024F000211380F822130846704710B504460120C6
:1025000084F82103002084F8200384F82303204664
:1025100000F0B5F821792046FFF778FD6179204673
:10252000FFF774FD002010BD10B590F8CC03012812
:1025300002D10846FFF778FAC820FDF773FF0020A4
:1025400010BDD0F8D003FEF79AB810B50124D0F82A
:10255000D003FEF788F820B1012805D0022803D166
:1025600001E0002400E00224204610BDD0F8D00392
:1025700001EB410202EBC10100EB810090F83B103E
:1025800011B190F85400704790F855007047D0F89A
:10259000D003FEF76BB8D0F8C413491CC0F8C413BD
:1025A00001780B2905D1D0F87C13002901D0896965
:1025B0000847704710B5044690F8CC0301281CD199
:1025C0000F484FF0A0410022C0F80043C4F8D003E8
:1025D0000160082181600121C0E903120221C0E9E4
:1025E0000612FEF78CF908B1FDF79BFE0448FEF7D2
:1025F00037F80146204600F024F8002010BD000006
:1026000014090020FEB508AF97E870008DE870004F
:10261000D0F8D003FEF74DF8BDE8FE40FFF7B1BD9E
:10262000002180F823137047012180F8231370479D
:1026300010B5D0F8D003FEF7E5F9BDE81040FFF77C
:10264000A0BDC0F8C4137047D0F8D00301EB41031C
:1026500003EBC10100EB810090F83B1011B180F851
:10266000542001E080F855200020704710B5D0F8C4
:10267000D003FEF7CEF9BDE81040FFF782BD10B5DC
:10268000D0F8D003FEF7DBF9BDE81040FFF779BDC5
:102690002DE9FF410DF1280898E8F0008DE8F000E1
:1026A000D0F8D003FEF741F804B0BDE8F041FFF7E1
:1026B00068BD03460220D3F87C13C9692AB1012AF8
:1026C00005D189791846FFF71EBCC979FAE770472A
:1026D000D0F87C030549C069416505498165012140
:1026E00000F8501F8170002070470000555342438E
:1026F000504030202DE9F84F0746D0F87C030126E2
:102700003546C4694FF00B0A4FF00A0B94F850009D
:102710004FF009094FF007080C2845D2DFE800F018
:10272000D20611252E4852757EA7AFCB84F86110D2
:10273000022084F85000009563791F2204F15401AF
:1027400059E061793846FFF722FF012802D00228BC
:102750007ED03FE0E06D002829D094F860000006AC
:1027600001D503204BE0052049E0237962893846F2
:10277000D4F88C10FFF79EFB042040E02179384606
:10278000FFF705FF01284FD16289E06D90420CD917
:10279000D4F88C10801A1144C4F88C10E0656BD00A
:1027A00023793846FFF786FB8CE00020E06563E084
:1027B0000095637922893846D4F88C10FFF78AFB9C
:1027C00006201CE061793846FFF7E1FE012804D0BD
:1027D0000228C8D0052815D074E02289E06D904207
:1027E000E3D9D4F88C10801A1144C4F88C10E06539
:1027F00042D0009563793846FFF76CFB62E084F8BD
:1028000050005FE084F850B05CE023790D2204F1C1
:1028100078013846FFF74EFB0820F0E7217938466B
:10282000FFF7B5FE012802D005281DD04AE004F8C4
:10283000505F3846A570D7F87C13CC692179FFF733
:1028400080FE0D280CD12149A06F884208D100E0FC
:1028500036E0A16DE06F884202D194F8840008B19F
:1028600002262FE000262DE084F850902AE0002276
:102870003846FFF71EFF38B984F8508022E0012265
:102880003846FFF716FF10B1042811D01AE061791D
:102890003846FFF76BFEC0F10100C2B261793846DD
:1028A000FFF7D2FE217900223846FFF7CDFEDBE7A5
:1028B00084F850A006E0384600F015F8060001D173
:1028C00084F850503046BDE8F88F0000555342530D
:1028D000A1220274FE2242740022428282820122DC
:1028E000C282FFF72EBB21210174FF214174002118
:1028F00041828182C1820A46FFF723BB70B5D0F8BE
:102900007C130125CC69A17B21B1022902D00329C6
:102910002ED127E02146FFF7DBFF002105460328E3
:1029200001D01DB124E02170002504E020780228A8
:1029300001D9022001E02078401C207000200223F1
:102940000CE000BF00EB800202EBC00204EB82024D
:10295000401C82F8923082F8C110C0B222788242C4
:10296000F0D805E00021FFF7CEFA08B9E07BA073AC
:10297000284670BD10B51446D0F87C230078D36982
:102980000B2801D0022010BD01EB810000EBC1003B
:1029900003EB8001342220469031FDF742FC0020F9
:1029A00010BD70B50546D0F87C030026C469617976
:1029B00039B12846FFF7A2FA61792846FFF726FBCE
:1029C0006671217939B12846FFF798FA21792846AE
:1029D000FFF71CFB2671D5F87C03C06920B102F01B
:1029E000EDFDD5F87C03C661002070BDFEB505463F
:1029F000D0F87C035023062201792846FFF7E4FA39
:102A00000646FF2823D0022E21D20146284600F098
:102A10003FFEE0B94FF48077384602F053FFD5F817
:102A20007C130446C861200011D03946FDF712FC22
:102A300006EB860000EBC60005EB400090F84E1355
:102A40000A0606D5E171B0F85013618105E0022055
:102A5000FEBDA171B0F85013218190F856130A06FB
:102A600004D5E171B0F85803608103E0A171B0F8BA
:102A700058032081002020736073A073A179284639
:102A8000FFF7FCF96071E1792846FFF7F7F920714B
:102A90002846FFF71DFEA27942B3208930B395F88E
:102AA0001D1302260091CDE9016095F81C33617970
:102AB000284600F0D9FBE279C2B16089B0B195F83F
:102AC0001D130091CDE9016095F81C33217928464A
:102AD00000F0CAFB217900222846FFF7B5FD617995
:102AE00000222846FFF7B0FD0020FEBD0320FEBDFA
:102AF0002DE9F0470746D0F87C034FF0010AC4697E
:102B0000207B10B101282DD12CE1B4F8F8002178F8
:102B100001254FF0000888426FD200EB800101EBE5
:102B2000C00004EB8000022680F89150B4F8F80051
:102B30004FF0050900EB800101EBC00104EB8102BD
:102B400092F8901009290DD2DFE801F0050C1F88DA
:102B50000DB10C0CFF00042082F89000D7F8C403DC
:102B6000C4F8FC0000E1C1B238469F3200F08CF995
:102B700040B9B4F8F80000EB800101EBC00004EBB1
:102B80008000B6E002287DD099E0C1B2384600F05E
:102B9000ABFA10B1022831D091E0B4F8F80000EBA4
:102BA000800101EBC00004EB800090F8921011B19D
:102BB00080F8C15001E080F8C180B4F8F82003200B
:102BC00002EB820101EBC20104EB810181F890006C
:102BD000B4F8F81001EB810202EBC10104EB8101B2
:102BE00081F89180B4F8F81001EB810202EBC10189
:102BF00004EB810181F89280B6E0AAE0B4F8F80015
:102C000000EB800101EBC00004EB800090F8921013
:102C1000022902D080F8C15001E080F8C180B4F8E8
:102C2000F81001EB810202EBC10104EB810181F894
:102C30009090B4F8F80000EB800101EBC00004EBC9
:102C4000800080F89150B4F8F80000EB800101EBAF
:102C5000C00004EB800080F8926085E0C1B2384685
:102C6000943200F0BBF900288CD1B4F8F80000EBE6
:102C7000800101EBC00004EB800080F89050B4F8B4
:102C8000F81000E008E001EB810202EBC10104EB67
:102C9000810181F8918031E0B4F8F81001EB8102F4
:102CA00002EBC10104EB810181F890905CE0C1B2BC
:102CB00038469C3200F0CFF920B1022823D00428F6
:102CC0002DD051E0B4F8F80000EB800101EBC0001A
:102CD00004EB800090F89C10062901D002290BD14A
:102CE000D7F8C413D4F8FC20891A42F2107291422A
:102CF00002D280F8906037E080F8905034F8F80FF6
:102D0000401C208030E0B4F8F810082001EB81026C
:102D100002EBC10104EB810181F8900024E0B4F8DA
:102D2000F80000EB800101EBC00004EB800080F8AC
:102D30009050B4F8F80000EB800101EBC00004EB08
:102D4000800080F891600FE0FFE7401CA4F8F800D5
:102D50000AE0A4F8F8802573D7F8D4230221384676
:102D6000904701E04FF0000A5046BDE8F0870000B0
:102D70002DE9F843D0F87C2301EB810303EBC10379
:102D8000D269012502EB8304082794F890302E467F
:102D9000052B22D000224FF00508062B02D0072B6E
:102DA0002AD10CE0002300921A4600F0D7F80BE07D
:102DB00002280FD018E000BF84F890701BE00023B9
:102DC00000921A4600F0B6F90028F1D184F890601C
:102DD000002511E084F890800EE004F19C0200F0E0
:102DE0003AF920B1022807D00428E5D004E004F81D
:102DF000906F0220607002252846BDE8F8832DE917
:102E0000F8430446D0F87C03089E0F46C56994F841
:102E1000200360B120780B2809D107EB870000EB75
:102E2000C70005EB800090F89010012902D0022025
:102E3000BDE8F8830621297380F89010A5F8FA7090
:102E400039462046009600F089F8D4F8C48340F251
:102E500071204FF00109464309E0D4F8C413A1EBF7
:102E60000800B0EB061F0CD894F8200348B139468F
:102E70002046FFF77DFF0128EFD085F80C90002059
:102E8000D6E785F80C90D2E72DE9F0411546D0F849
:102E90007C2302270026D4694FF0010894F85220C1
:102EA000012A02D0022A56D126E024208022E065A1
:102EB00084F860200A2284F86220C4F86360C4F8B1
:102EC0006760A4F86B60122284F86320490184F8DB
:102ED000641084F8656084F8666084F8670084F89C
:102EE0006860022084F8508084F8520004F11000D9
:102EF0000127C4F88C002EE0FFF7FCFB07002AD165
:102F000022212846FDF7A6F9D4F88C00007800F0BD
:102F10001F006870D4F88C00007840092870D4F83D
:102F20008C004078000602D585F8028000E0AE7083
:102F300054F88C0F10228168C5F80310C068C5F8DA
:102F40000700216805F10C001031FDF76AF92068CF
:102F5000006AC5F81D003846BDE8F0812DE9F04152
:102F6000154602461F46D2F87C330220069EDC69D5
:102F700094F85230012B06D0022B2DD1BDE8F04140
:102F80001046FFF7B7BBB4F8980010217043E06516
:102F9000802084F860000A2084F8620004F1630055
:102FA000FDF758F9282084F86300280E84F865009E
:102FB000280C84F86600280A84F8670084F86850B2
:102FC000300A84F86A0084F86B60012004F8500F1E
:102FD0000220A0700120E763BDE8F08170B51646BD
:102FE000D0F87C230125D46994F85220012A02D01C
:102FF000022A2ED11AE00820E065802084F86000C3
:103000000A2084F86200102104F16300FDF722F920
:10301000252084F86300012084F85000022084F801
:10302000520004F11000C4F88C0012E0FFF762FBBC
:1030300005000ED154F88C0F4188427849BA0078C7
:1030400062F31F4141EA006030602068C08840BAE6
:10305000B080284670BD70B5154602460E46D2F8BF
:103060007C130220CC6994F85210012914D0022953
:1030700011D131461046FFF73DFB00280BD154F823
:103080008C1F897801F00F0129702168097B697014
:103090002168497BA97070BD0E258020E56584F804
:1030A00060000A2084F86200102104F16300FDF73B
:1030B000D1F8032084F86300700184F864000020D4
:1030C00084F8650084F8660084F8675084F8680026
:1030D000012084F85000022084F8520004F110000E
:1030E000C4F88C00012070BD70B502460220D2F8F1
:1030F0007C33DC6994F85230012B06D0022B18D1B6
:10310000BDE870401046FFF7F5BA0025E56584F884
:1031100060500A2084F86200102104F16300FDF77A
:1031200099F884F86350012004F8500F0220A07031
:10313000012070BD2DE9F041154602461F46D2F828
:103140007C330220069EDC6994F85230012B06D0B5
:10315000022B2DD1BDE8F0411046FFF7CBBAB4F8F1
:10316000980010217043E065002084F860000A2078
:1031700084F8620004F16300FDF76CF82A2084F8FB
:103180006300280E84F86500280C84F86600280A7D
:1031900084F8670084F86850300A84F86A0084F87C
:1031A0006B60012004F8500F0220A0700120E7633B
:1031B000BDE8F08100207047D0F87C230078D26908
:1031C0000B2808D101EB810000EBC10002EB80006D
:1031D00090F8910008B100207047012070472DE958
:1031E000F8430446D0F87C03089E0F46C56994F85E
:1031F000200360B120780B2809D107EB870000EB92
:10320000C70005EB800090F89010012902D0022041
:10321000BDE8F8830721297380F89010A5F8FA70AB
:10322000394620460096FFF785FFD4F8C48340F264
:1032300071204FF00109464309E0D4F8C413A1EB13
:103240000800B0EB061F0CD894F8200348B13946AB
:103250002046FFF78DFD0128EFD085F80C90002067
:10326000D6E785F80C90D2E7FEB508AF97E8700076
:103270008DE87000FFF7C6F90020FEBD2DE9F74F7D
:1032800082B00878029D4FF0000B0C4685F8380399
:10329000487885F839034888D84605F54E75FF28E3
:1032A00001D94FF480706880087928714879687175
:1032B0008879A871C879E871207A2872297809205C
:1032C000092900D02870092A7CD98146ADF8000070
:1032D0005FE069462046FEF7BFFE044640780428BA
:1032E00054D12078092801D084F8009008EB880197
:1032F00001EBC80005EB400A20788AF80A006078E4
:103300008AF80B00A0788AF80C00E0788AF80D00A3
:1033100020798AF80E0060798AF80F00A0798AF87F
:103320001000E0790AF10A068AF81100207A30725A
:1033300000271CE069462046FEF78EFE04464078D2
:10334000052814D17079012802D1B079022830D033
:103350002078072801D0072020700AEBC7012246F9
:103360001431029800F030F87F1C8346FFB23079A8
:10337000B84204D96888BDF800108842DAD830799C
:10338000B84211D808F1010000F0FF08B8F1020FAF
:1033900004D26888BDF8001088429AD8287902289B
:1033A00000D3022040450DD9032005B0BDE8F08FC1
:1033B00008E0F0790028D0D120780928CDD084F811
:1033C0000090CAE75846F0E7F0B513780B705378D1
:1033D0004B7093788B70D478CC7095888D8006462E
:1033E000937900208B71D5B16FF30A058D80928897
:1033F0004FF40077C2F30A02BA4200D33A461543AB
:10340000A1F8045096F81D13002904F0030108D018
:1034100001290BD0E143890700D153B1F0BD03204E
:10342000F0E7012902D0E1438907F7D10BB1102B56
:10343000F4D90320F0BD0000FEB5022104468DF84A
:10344000001094F821230020012A01D103222270C8
:1034500022780D26082700250C2A17D2DFE802F073
:10346000061734E81669CC7C848CA2E194F820031A
:1034700000280BD001202070C820FEF7A2FD2046B6
:10348000FFF7D6F884F81C53C4F8C853EAE094F860
:10349000230301280DD0D4F8C803B0F57A7F0CD9E6
:1034A00094F81F03401CC0B284F81F03032878D887
:1034B00075E084F81F532170D4E00A30C4F8C803C3
:1034C0000A20FEF77EFDCDE0D4F8D42312B104210A
:1034D000204690476420FEF774FD2046FFF735F83C
:1034E00084F81D030520207000212046FEF7C6FC4D
:1034F000607180212046FEF7C1FC20710146A07951
:1035000094F81D230092CDE9015094F81C338022D9
:103510002046FFF7A9FEA07994F81D130091CDE98C
:10352000015094F81C33617900222046FFF79CFE7D
:1035300098E02046FEF7FAFE8DF800009DF80000A6
:10354000002808D184F8245394F83703012801D0C7
:10355000072062E0277085E0D4F8D423002A46D003
:10356000012120469047F5E794F83D13204600F0EE
:10357000A8F8E0BB092050E094F83F034FF00A059B
:1035800080060CD50121204600F0A9F88DF8000036
:103590009DF8000018B19DF80000032862D1257045
:1035A00060E03CE0D4F8801309B3C4F87C5394F88D
:1035B000471300BF04EB8002D2F8782312798A42C5
:1035C00006D104EB8000D0F87803C4F87C0304E053
:1035D000401C10F0FF00EDD0284600B38168204663
:1035E0008847E0B9062020700321204600E039E03A
:1035F000D4F8D423904735E0D4F87C0378B101693E
:10360000204688478DF800009DF8000020B19DF805
:103610000000022803D025E00B20207022E0267055
:1036200020E0D4F87C03E8B141692046884719E0DE
:1036300084F821532046FCF74BFED4F87C0320B1DC
:10364000C16820468847C4F87C53D4F8D42312B10B
:1036500005212046904794F82203012804D02046F3
:10366000FFF704F80020FEBD84F82253204600F046
:1036700044F8F7E7002211B1D0F8803313B10222E9
:10368000104670470123C0F88033C0F87813F7E77D
:103690000246002092F83C338B4202D982F8241370
:1036A0007047022070478278012A06D100220274F6
:1036B0000523437441828282C28200221146FEF7B2
:1036C00040BC8278012A06D1002202740923437487
:1036D00041828282C28200221146FEF732BC827889
:1036E000012A06D10022027403234374418282829C
:1036F000C28200221146FEF724BC10B50446FEF734
:10370000B5FF01212046FEF70FFF002010BD00008D
:1037100001290AD00B48022909D004290BD0052918
:103720000ED10321017008A008E011A006E00221DB
:10373000017018A002E0012101701FA000F086BCFA
:1037400070470000040000204170706C695F737462
:10375000617465203D204150504C49434154494FCC
:103760004E5F444953434F4E4E4543540D0A0000AB
:10377000484F53545F555345525F53454C4543544E
:103780005F434F4E46494755524154494F4E0D0AEB
:10379000000000004170706C695F73746174652093
:1037A0003D204150504C49434154494F4E5F524592
:1037B0004144590D0A0000004170706C695F7374D8
:1037C000617465203D204150504C49434154494F5C
:1037D0004E5F53544152540D0A00000000207047C0
:1037E00030B58DB01546012449B1012909D002290F
:1037F00010D0032918D004240DB0204630BD002479
:10380000FAE701466A460E48FFF7B4F80028F3D1FC
:10381000019813E001466A460948FFF7ABF8002813
:10382000EAD1BDF8080009E001466A460448FFF7FE
:10383000A1F80028E0D1BDF80800400A2860DEE7C2
:103840003C05002030B58FB0054600930B4601467D
:1038500001240C48FFF7D3FA68B101AA29460948A8
:10386000FFF788F89DF81100042806D0282804D016
:103870003A2803D101E0002400E003240FB02046E1
:1038800030BD00003C05002010B50146012403486E
:10389000FFF792FC00B10024204610BD3C0500203B
:1038A00030B58FB0054600930B46014601240E4803
:1038B000FFF795FC78B101AA29460B48FFF75AF8A3
:1038C0009DF8110004280AD0272806D0282806D001
:1038D0003A2805D103E0002402E0022400E003249A
:1038E0000FB0204630BD00003C05002070B50446F6
:1038F00006990A9E049D0D98012916D0E06840F0B3
:103900004000E060204600F02BF8A16B1EB321F4CC
:103910008031A163012D07D1A16841F00601A160AA
:10392000A16841F02001A16070BDA16B21F480313C
:10393000A163E168094A1140E160E16821F44011A6
:10394000E160012803D1E06840F48010E060204687
:1039500000F006F8DEE741F48031DAE7BFFFBDFF93
:1039600008B500220D490092009B5B1C00938B421E
:103970000CD80369002BF7DA0092026942F00102C9
:103980000261009A521C00928A4201D9032008BDAC
:103990000269D207F5D1002008BD0000400D0300E8
:1039A000816821F0010181600020704700EB411027
:1039B000064AC0F81025D0F8001521F0804141F0EA
:1039C0000041C0F80015002070470000000008808A
:1039D00008B5D0F8402422F02E020092D20405D47B
:1039E000012909D1009941F4805103E021B90099DE
:1039F00021F48051C0F84014002008BD816841F0D6
:103A0000010181600020704708B500220C49009236
:103A1000009B5B1C00938B420AD80369002BF7DAEA
:103A2000009210220261009A521C00928A4201D92F
:103A3000032008BD0269D206F5D4002008BD0000AD
:103A4000400D030018B500230D4A0093009C641C30
:103A5000009494420CD80469002CF7DA00932023D8
:103A600043EA811101610099491C0091914201D9F9
:103A7000032018BD01698906F5D4002018BD000097
:103A8000400D0300D0F8080480B2704708B5D0F8A4
:103A900040040090C0F3414008BD406900F00100BF
:103AA000704718B5002200EB41110092D1F80025B3
:103AB000D1F80035C2F381428468DB0FA40600D53B
:103AC0001BB34FF47A736AB1022A0BD0D1F80025E8
:103AD00042F08042C1F80025D0F8100410F47F0FA6
:103AE0002BD00CE0D1F8002542F08042C1F800252F
:103AF0008268920609D4C06A10F47F0F07D0D1F80B
:103B0000000540F00040C1F80005002018BDD1F8C4
:103B1000000520F00040C1F80005D1F8000540F094
:103B20000040C1F800050098401C00909842ECD875
:103B3000D1F800050028F6DBE7E7D1F8000520F012
:103B40000040C1F80005D1F8000540F00040C1F880
:103B500000050098401C00909842D6D8D1F8000586
:103B60000028F6DBD1E700002DE9F0431E46DDE931
:103B70000785002700EB41147B1EDDF82490C4F874
:103B8000083505B3012D39D0022D1CD0032D2ED0C0
:103B90005FF00107D4F80C3543F00203C4F80C358C
:103BA000D0F8183401F00F0C012101FA0CF10B438D
:103BB000C0F81834816941F00071816111062AD57D
:103BC0004FF4004128E040F29D43C4F80C35130641
:103BD00005D500BFD4F80C3543F4807318E0C36BEF
:103BE000DB05D7D5D4F80C3543F0600310E040F284
:103BF0009D63C4F80C351306ECD4CBE740F22523C3
:103C0000C4F80C351306C5D5D4F80C3543F4C0738D
:103C1000C4F80C35BEE70021FFF738FFB8F1020FFA
:103C200004D1022802D04FF4003000E000204FF011
:103C3000FE5303EA86534FF4F04606EAC2221343CA
:103C40004FF4402202EA85421343C9F30A021343A8
:103C50000B430343C4F80035032D01D0012D05D1DA
:103C6000D4F8000540F00050C4F800053846BDE81F
:103C7000F083D0F8140480B27047F8B54C78C56B67
:103C80004FF48073ED0515D50D799DB9012A01D04A
:103C90006AB10FE0CD790DB1022D0BD100EB4415C7
:103CA000D5F80C6526F07006C5F80C6502E04D7974
:103CB000012D0DD04E697EB10D8977197F1EB7FB9E
:103CC000F5F7BFB29F4208D91F462B020B6104E0F3
:103CD0002146FFF76BFE6EE00127CB781BB10B8905
:103CE0007B430B6101E033460E61C3F312056FF0B5
:103CF000604303EAC7431D438B7A4FF0C04606EA90
:103D000043731D4300EB4413C3F8105512B1CC6844
:103D1000C3F81445D0F80844D3F8005544F3000420
:103D200025F00055C3F80055D3F80055641C45EA4A
:103D30004474C3F80045D3F8004524F0804400944F
:103D4000CC78002C009C02D044F4004401E024F420
:103D5000004444F000440094C3F800455ABBCA78BC
:103D60004ABB4A693AB3CB7933B1012B0FD0022B4E
:103D700002D0032B17D10AE0D21CC36AC2F38F0210
:103D80009BB293420FD2826942F020020AE0D21C19
:103D9000D0F81034C2F38F029BB2934203D28269EF
:103DA00042F080628261002200928A8A93B24A784D
:103DB000C96800F035F90020F8BD00002DE9F04198
:103DC0000025DDF81880174604462E46C0F8005E30
:103DD000806B40F40010A063A06B20F40020A0636F
:103DE000A06B20F48020A063E06BC00501D5012BFF
:103DF00004D0D4F8000420F0040103E0D4F8000457
:103E000040F004012046C4F800141021FFF71AFE08
:103E100000B101252046FFF7F7FD00B10125002084
:103E2000411E06E004EB4012C2F80815C2F80C650A
:103E3000401C8742F6D8A6616161E06BC00506D5DB
:103E40004FF4007060620C48A0620C4804E08020CF
:103E500060620B48A0620B48C4F80001B8F1000F83
:103E600003D1A06940F01000A061A0690649084391
:103E7000A0612846BDE8F081000200010003E000D7
:103E800080006000E0004000080020A3D0F800247B
:103E900022F00302C0F80024D0F8002401F003034C
:103EA0001A43C0F80024012902D0022903D006E0F9
:103EB0004BF6803101E041F27071C0F8041400202B
:103EC0007047416980690840704730B5034608462D
:103ED000940802F00301002203F5805303E01D68FB
:103EE00040F8045B521CA242F9D300290BD01C6895
:103EF0000022D50024FA05F3491E521C090400F8DB
:103F0000013B090CF5D130BD38B50446D0F840046A
:103F100020F02E00009040F48070C4F8400464202B
:103F200004F58864FCF77EFA009820F48070206025
:103F30000A20FCF777FA002038BD70B50446C06847
:103F4000002520F0C040E060012901D079B120E0D7
:103F5000E06840F00050E0600120FCF763FA60691F
:103F60006D1C10F0010F10D1322DF5D30DE0E0687B
:103F700040F08040E0600120FCF754FA60696D1C5D
:103F800010F0010F01D0322DF5D3322D01D00020D9
:103F900070BD012070BD38B50025044600958068CD
:103FA00020F00100A06010212046FFF74BFD00B17A
:103FB00001252046FFF728FD00B10125002004EB74
:103FC0004011D1F8002522F0802242F08042C1F851
:103FD0000025401C0F28F2D900204FF47A7304EB1F
:103FE0004011D1F8002522F4004242F04042C1F8CD
:103FF0000025009A521C00929A4203D8D1F800255D
:10400000002AF6DB401C0F28E9D94FF0FF30C4F836
:1040100014046061A06840F00100A060284638BD2B
:1040200010B5029C74B9DB1C9C0800EB0230002325
:1040300000F5805004E000BF51F8042B02605B1CC7
:10404000A342F9D3002010BDFEE700000FB4054BDA
:1040500010B503A9044A029800F028F810BC5DF8D6
:1040600014FB0000A9550008000000200907090EF4
:10407000002804DB00F1E02080F80014704700F015
:104080000F0000F1E02080F8141D704702E008C81E
:10409000121F08C1002AFAD170477047002001E0C2
:1040A00001C1121F002AFBD1704700002DE9FF4F0C
:1040B0008DB00F460546002606E025280BD0DDE929
:1040C0000F1290476D1C761C28780028F5D111B08E
:1040D0003046BDE8F08F0024A246A1460122EC49FB
:1040E00000E0044315F8013F203B02FA03F00842C8
:1040F000F7D128782A2810D06FF02F022878A0F165
:104100003001092914D80AEB8A0102EB410144F07D
:10411000020400EB010A6D1CF0E701CF5FEA000A20
:1041200003D544F40054CAF1000A44F002046D1CA3
:1041300028782E2817D115F8010F44F004042A28F6
:104140000ED06FF02F022878A0F1300109290AD88B
:1041500009EB890102EB410100EB01096D1CF2E75B
:1041600057F8049B6D1C28786C280FD006DC4C286F
:1041700017D068280DD06A2814D104E0742810D014
:104180007A280FD10DE044F400140AE044F48014BE
:1041900001E044F440146978814202D104F58014AE
:1041A0006D1C6D1C2A786E2A1FD00CDC632A31D05E
:1041B00004DC002A8BD0582A11D1A3E0642A68D0ED
:1041C000692A0CD165E0732A2ED004DC6F2A73D0E3
:1041D000702A04D19BE0752A6FD0782A6ED01046E1
:1041E000DDE90F129047761C50E1C4F3025002281B
:1041F00006D0032809D0042801CF09D0066045E184
:1042000001CFF117C0E9006140E101CF06803DE137
:1042100006703BE117F8040B8DF8000000208DF8C4
:104220000100EB46012003E057F804BB4FF0FF30DC
:1042300061074FF0000102D40DE008F1010188464A
:1042400049450FDA8045F8DB1BF808100029F4D146
:1042500008E008F1010188468142FADB1BF80810EA
:104260000029F6D1DDE90F23AAEB0800814621469B
:1042700000F036F9304400EB080604E0DDE90F12E7
:104280001BF8010B9047B8F10108F7D221464846C8
:10429000F7E00A21C4F302534FF0000B0891022B00
:1042A00004D001CFC117032B09D00AE0FF1D27F06E
:1042B0000707F7E8020108E032E01FE020E000B263
:1042C000C117042B01D140B2C117031E71F10003C5
:1042D00007DA4FF0000CD0EB0C006CEB01012D2342
:1042E00002E0230504D52B238DF82430012303E0BD
:1042F000E30701D02023F7E7984658E00A2110E0B1
:1043000010210EE010204FF0000B08900CE010215F
:104310004FF0000B44F004044FF00809089103E04B
:1043200008214FF0000B0891C4F30253022B04D074
:1043300001CF0021032B06D006E0FF1D27F0070761
:10434000F7E8020103E080B2042B00D1C0B24FF0C5
:10435000000823072BD5702A07D0DDF820C08CF089
:10436000100C5CEA0B0C05D00EE040238DF82430D5
:10437000012308E050EA010306D030238DF82430F1
:104380008DF8252002239846DDF820C08CF0080C1B
:104390005CEA0B0C0BD150EA010301D1630706D58F
:1043A00030238DF824304FF00108A9F10109582A73
:1043B00004D038A20B9208AA0A920BE03AA2F9E7BD
:1043C0005B46089AFBF7FCFE0B9B9B5C0A9A521E0D
:1043D0000A92137050EA0102F2D10A98ADEB000084
:1043E00000F1200B600702D524F4803401E04FF087
:1043F0000109D94502DDA9EB0B0000E0002000EB2C
:104400000B0141440890AAEB010AE00306D4DDE960
:104410000F232146504600F063F806444FF0000990
:1044200008E009A911F80900DDE90F12904709F128
:104430000109761CC145F4DBE0030CD5DDE90F234F
:104440002146504600F04CF8064404E0DDE90F1226
:1044500030209047761C0899481E08900029F5DC0A
:1044600008E00A980A990078491C0A91DDE90F12C0
:104470009047761CBBF10001ABF1010BF1DC21464A
:104480005046DDE90F2300F019F806446D1C1BE6C9
:10449000092801003031323334353637383961621A
:1044A00063646566000000003031323334353637DE
:1044B0003839414243444546000000002DE9F041AF
:1044C000044600251E461746880404D405E03946F4
:1044D0002020B0476D1C641EF9D52846BDE8F08148
:1044E0002DE9F041044600251E469046C80301D53B
:1044F000302700E02027880404D505E041463846EF
:10450000B0476D1C641EF9D52846BDE8F081000057
:1045100010B504460020E070401E2063204601F0E4
:1045200018FA08B1042010BD04F2322001F092F90B
:10453000A0F52A41553901D0032010BD94F834006C
:10454000E92805D0EB2814D194F83600902810D132
:1045500004F16A0001F073F90749B1EB002F06D0AE
:1045600004F1860001F06BF90449884201D1002072
:1045700010BD022010BD0000004641544641543396
:1045800000E0401C02780AB18A42FAD1D0B27047EA
:10459000F0B50022144D134605EB021426685EB1F7
:1045A0000768BE4209D166688768BE4205D1A46823
:1045B0004669B44204D000E00123521C022AEBD326
:1045C000022A01D069B904E04BB9022907D01220B0
:1045D000F0BD05EB02108089B0F5807F01D000208E
:1045E000F0BD1020F0BD0000180C002030B50021F7
:1045F000054B0C4603EB01121568854200D114608F
:10460000491C0229F6D330BD180C00200268490A63
:10461000C06A5289B1FBF2F1001D04C81AB191427F
:1046200003D3891AF8E700207047006808447047F0
:104630008269891E921E8A4201D800207047C26A90
:10464000408901FB002070472DE9F05F82460C464F
:1046500001F11A0001F0FEF878BB2078012700F084
:104660003F00401E00EB8001DFF8589001EBC005D1
:1046700000264FF6FF7B00BF19F80600204401F02A
:10468000E9F880466FB1FF2D17D200F0E9FD07462B
:104690003AF815006D1C00F0E3FD87420DD1474646
:1046A00001E0D84509D1761C0D2EE5D320784006CF
:1046B00006D52FB13AF8150010B10020BDE8F09FE3
:1046C0000120FBE7F05B00082DE9F04105680F00D1
:1046D000804606D000F0E0FF022809D20120BDE8A4
:1046E000F0812E6916B1A869B04207D8012605E00D
:1046F000411CF4D0A9698142F1D83E463446A869EC
:10470000641CA04202D80224022E0AD3214640464D
:1047100000F0C2FF38B10128E1D0411CDFD0B44223
:10472000EDD10020DBE74FF0FF3632462146284628
:1047300001F028F930B957B122463946284601F030
:1047400021F920B101280FD001242046C7E72C61B0
:10475000D5E90501891E884201D8401E6861287983
:1047600040F001002871F0E73446EEE72DE9F84FFC
:10477000824600680F680024C66888462546785D32
:104780006D1C20282AD32F2823D05C2821D0FF2C71
:1047900049D2A0F181017D290BD8795D6D1C01EB17
:1047A0000020A1F1400280B23F2A02D380397F2944
:1047B00039D2012100F02EFD5FEA000933D0B9F1B2
:1047C000800F12D2014675A0FFF7DAFE58BB0CE04D
:1047D0006D1C795D2F29FBD05C29F9D07A19C8F8B6
:1047E0000020202805D204250FE026F81490641C30
:1047F000C5E7002509E000BF06EB440030F8020CD5
:10480000202801D02E2802D1641E002CF4D10020D3
:1048100026F814003CB10B2220210AF1240001F0FB
:1048200091F8002703E00620BDE8F88F7F1C36F8DA
:1048300017002028FAD02E28F8D01FB145F0030524
:1048400000E0641E2CB106EB440030F8020C2E2868
:10485000F7D14FF000094FF0080BCDF8009000BFE2
:1048600036F8170007F101075FEA000824D0B8F115
:10487000200F04D0B8F12E0F04D1A74202D045F08A
:104880000305EDE70098584501D2A74219D1BBF1C5
:104890000B0F0FD0A74201D045F003050CD84FF005
:1048A000080000904FEA896027464FF00B0B4FEA53
:1048B0001069D5E745F003059AF82400E52849D0AA
:1048C0004BE04046B8F1800F07D300F0C9FC00214F
:1048D00000F0A0FC804645F00205B8F1FF0F13D9A7
:1048E0000099ABF10100814204D345F00305CDF8F6
:1048F00000B0B5E70AEB01004FEA182280F8242047
:104900000098401C00901CE0B8F1000F04D0014654
:1049100025A0FFF735FE20B14FF05F0845F00305F5
:104920000FE0A8F14100192802D849F0020908E077
:10493000A8F16100192804D8413049F001091FFA93
:1049400080F8009A0AEB020181F824800098401C4C
:10495000009085E705218AF82410BBF1080F03D1E8
:104960004FEA89604FEA1069C9F38100032803D038
:104970006FEA0901890701D145F00205A90709D4A9
:1049800009F00301012901D145F01005012801D1E9
:1049900045F008058AF82F50002045E7222A3A3CC6
:1049A0003E3F7C7F000000002B2C3B3D5B5D000008
:1049B0002DE9F04704460021D0F8009000F0CCF932
:1049C00000285BD1FF25471EA84627634846E169BA
:1049D00000F0BFFF060050D1216A087850B1CA7AB2
:1049E000E52802F03F02A2713FD0130704D50F2A39
:1049F0003BD105E0042640E00F2A01D0E5B120E0DC
:104A000094F82F20520632D4420606D591F80D8034
:104A100000F0BF00626905462263A84209D14A7BC3
:104A2000424506D1D9F80C00FFF70EFE08B16D1E05
:104A300000E0FF25EDB21AE0084601F072F84045AB
:104A40001BD094F82F00C0070FD1D4F8201004F128
:104A500024000B2211F8013B10F8015B5B1B521E76
:104A600002D0002BF6D000E03BB1FF2527630021E8
:104A7000204600F005F80600A8D03046BDE8F087D3
:104A80002DE9F047054647690468C0698946203723
:104A900010B1B7F5001F02D30420BDE8F087F90577
:104AA00060D1401CE861A9694FF0000829B1608914
:104AB000401E10EA572F05D054E02089B0EB571F55
:104AC0001DD94FE0284600F0E7FD064601281BD916
:104AD000701C33D0A069B0423ED8B9F1000F0ED09F
:104AE0002846A969FFF7F0FD06000BD0012E0BD078
:104AF000701C23D0204601F021F8F8B906E0C5F873
:104B00001C80C9E70720C8E70220C6E74FF40072FF
:104B1000002104F1340000F015FF4FF00008314689
:104B20002046FFF785FD4FF0010920630DE000BF2F
:104B300084F80390204601F001F808B10120ACE7A9
:104B4000206B08F10108401C206361894145EFD8C2
:104B5000216BA1EB0800206331462046AE61FFF7D0
:104B600067FDE861C7F30800204434306F612862B4
:104B7000002092E72DE9F04F0446D0F8009090F81D
:104B80002F0089B010F0A00F03D0062009B0BDE8B7
:104B9000F08F0025D9F80C0000E06D1C30F81510DE
:104BA0000029FAD104F124010C226846039100F097
:104BB000BFFE9DF80B00C00719D0402084F82F00DD
:104BC000012633466946D9F80C20039800F01EFDF3
:104BD0002046FFF7EDFE10B9761C642EF1D3642E4B
:104BE0000FD00428D2D19DF80B0084F82F009DF837
:104BF0000B00800707D50D200C35B5FBF0F56D1CBB
:104C000002E00720C2E7012500212046276800F0C6
:104C1000A3F888B900263846E16900F09AFE58B931
:104C2000206A0078E5280AD048B1002601212046F4
:104C3000FFF726FF0028EED0042812D012E0761CE1
:104C40002846AE42F2D1451E059567D0616968429B
:104C500001EB4011204600F07FF85FEA000803D026
:104C600076E00720804673E0039800F05AFF4FF685
:104C7000FF7B07904846E16900F06BFE5FEA0008A1
:104C800066D1D9F80C0006900598D4F82080C0B2FF
:104C90000490079988F80D100F2188F80B10002157
:104CA00088F80C1008F11A0000F037FF0498DFF8BC
:104CB000A4A0401E00EB800101EBC006002701E02C
:104CC0005D4503D0069830F81650761C1AF8071088
:104CD00001EB0800294600F020FF05B95D467F1C66
:104CE0000D2FEDD35D4505D0069830F8160008B1BC
:104CF000049803E0049840F04000049088F8000015
:104D0000012189F8031000212046FFF7B9FE5FEA70
:104D100000081DD10598401E0590ABD14846E169B9
:104D200000F017FE5FEA000812D120220021206A5D
:104D300000F008FE0B22206A039900F0F9FD94F8B8
:104D40002F00216A00F018000873012089F8030081
:104D500040461BE7F05B00082DE9F04107680E466E
:104D60000546B1F5001F36D2F00634D16E61AC684D
:104D700024B93878032805D3BC6A1CB178894FEA76
:104D8000402812E03889B0EB561F24D9B86A12E0E7
:104D9000284600F081FC0446401C1AD0022C1AD38D
:104DA000B869A04217D9A6EB080646452146EFD2BE
:104DB0003846FFF73DFCC5E9064060B100EB5620E0
:104DC000E861C6F308003844343028620020BDE8AA
:104DD000F0810120FBE70220F9E70000084910B547
:104DE0000B5C002253B901220A540A1801EB80001F
:104DF000127A40680168104688470246104610BD86
:104E0000380C002030B4054D2C1805EB8000247AB6
:104E1000406885682046AC4630BC6047380C0020AE
:104E2000044A111802EB8000097A4068426808467B
:104E300010470000380C002030B4054D2C1805EB4D
:104E40008000247A4068C5682046AC4630BC604784
:104E5000380C00202DE9F74181B09046029800906F
:104E6000684600F07AFC040003D50B2004B0BDE8CE
:104E7000F0810D4E002756F824501DB12846FFF74B
:104E8000B5FB2F700198002800D0077046F8240069
:104E900002D0B8F1010F01D00020E7E7002201A9FC
:104EA00002A800F01DFAE1E7440000202DE9F743D5
:104EB000ADF5147D05000BD002F03F063246694681
:104EC00095A800F00DFA04004FF0000805D0EFE0BF
:104ED00009200DF5177DBDE8F083009810A9019019
:104EE000C16001A8959900F025FB04000ED19DF842
:104EF0003300000601D5062408E0700801D0012126
:104F000000E0002101A8FFF743FB044616F01C0F48
:104F10005DD04FF00109C4B1042C10D100206749C5
:104F200002E0401C022804D201EB00121268002AA1
:104F3000F7D1022807D001A8FFF71CFE044646F06F
:104F400008065CB1B4E01224B2E09DF80A0010F04B
:104F5000110F47D1700701D50824A9E0300747D5C4
:104F600000F0F9FB0746099839460E3000F0CDFDF8
:104F700009983946163000F0C8FD09992020C872FA
:104F80000999009800F048FC07460022099900980A
:104F900000F0A7FD099800211C3000F0B6FD009933
:104FA00081F8039017B3D1F830900022394601A858
:104FB00000F05DFD04007BD14946009800F0C9FC7B
:104FC00004000098A7F1010707610DD070E0ECBB69
:104FD0009DF80A00C10601D5042469E0B10703D594
:104FE000C00701D0072463E0300701D546F0400632
:104FF0000098006B68620998A862700801D00121CE
:1050000000E0002101A800F0C7FB2861B8B30999AE
:10501000009800F001FCA86009981C3000F00FFC1B
:10502000C5F82C80E86000992960009905F13000EE
:105030004FF40072C988A9802E7585F81580C5F8CF
:10504000208000218146C5F8188000E030E000F0A3
:1050500079FCB0062ED5EE6866B3AE610098A968FB
:10506000408947020FE0284600F016FB0146012860
:1050700000D80224481C03D0F61B24B105E01BE035
:105080000124F61B01E0BE42EDD8E96184B9F005C8
:1050900010D00098FFF7CCFA70B100EB56222A62CC
:1050A0000098012349464078FFF7ACFE10B1012477
:1050B000C5F8008020460CE70224F9E7180C002010
:1050C0002DE9FE4F88460021196099461546044691
:1050D00002A900F05CFD002812D1607D00280FD1EC
:1050E000207DC0070BD0E168A0690127081A4FF0A6
:1050F000020A04F1300B854200D9054684E00720FE
:10510000BDE8FE8FA169C80566D102984089401E9E
:1051100010EA512611D129B1E06A28B12046FFF7E3
:1051200075FA05E0A06803E02046E16900F0B4FAF2
:1051300002281BD3411C4AD0E061E1690298FFF7C5
:1051400077FA98B130440190680A009025D002990E
:1051500032184889824201D9801B0090DDE9003273
:1051600048784146FFF74EFE88BB03E084F815A05F
:105170000220C5E7207D00060CD5216A0198081A97
:105180000099884206D208EB40204FF4007259463D
:1051900000F0CEFB009846022CE0226A0198824281
:1051A00018D0207D00060AD5029801235946407880
:1051B000FFF742FE58B9207D00F07F00207502986D
:1051C000012359464078019AFFF71CFE10B167751C
:1051D000012095E701982062208BC0F30800C0F5FC
:1051E0000076AE4200D92E46011932464046303193
:1051F00000F09EFBA069B0443044A061D9F80000E3
:105200008119AD1BC9F80010002D7FF47BAF002081
:1052100076E7000070B580281BD345F2205309B112
:105220000D4D00E00D4D002110245A1A02EBD272F0
:1052300001EB620235F82260864206D001D21146A7
:1052400000E01346641EF0D104E01CB105EB8200BF
:10525000408870BD002070BD9EB001081A5C000837
:1052600030B5B0F5805F01D21B4900E01B4931F831
:10527000022B002A15D0904213D331F8024B230A97
:10528000E5B252FA84F4844221D9092B09D2DFE82D
:1052900003F005090E11131517191B00801A31F8B8
:1052A000100030BD811A01F00101401A00E01038F1
:1052B00080B230BD2038FBE73038F9E71A38F7E71D
:1052C0000830F5E75038F3E7A0F5E350F0E7002B9E
:1052D000CDD101EB4501CAE72205030814070308F5
:1052E0002DE9FF41002790460E460F6000F035FA89
:1052F000050003D50B2004B0BDE8F0818A4850F8C2
:1053000025409CB13460207808F0FE0620B160781A
:10531000FFF786FDC1070BD02770E8B2B846607072
:10532000FFF75CFDC10708D00320E4E70C20E2E7AB
:105330000EB1400704D40020DDE71EB1400701D5BF
:105340000A20D8E7002631462046FFF7E1F8022878
:1053500022D100254FEA0D0704EB051090F8F61155
:1053600000F5F97019B1083000F069FA00E000208A
:1053700047F825006D1C042DEED3002557F8256055
:1053800036B131462046FFF7C3F8022801D203E0C8
:1053900003206D1C042DF1D3042809D002286DD2FE
:1053A00004F13F0000F056FAB0F5007F66D101E04D
:1053B0000120A0E704F14A0000F04CFA18B904F10A
:1053C000580000F03CFAE06194F84450A570012DBB
:1053D00001D0022D52D1454394F841006081E8B3D9
:1053E000411E08424AD104F1450000F033FA208101
:1053F000000743D104F1470000F02CFA070004D164
:1054000004F1540000F01BFA074604F1420000F0DA
:1054100021FA010032D02389481900EB1312974278
:105420002CD3B81A6789B0FBF7F0B8B103274FF651
:10543000F57C604500D8022740F6F57C604500D831
:105440000127801C3244E2623144A061C4E9086152
:10545000032F15D013B12944A16200E00EE0022F02
:105460001FD000F0010100EB400001EB500000BF35
:10547000E16900F2FF10B1EB502F14D20D203AE792
:1054800004F15E0000F0E6F90028F7D12089002839
:10549000F4D104F1600000F0D2F9A062A0698000AC
:1054A000E6E74000E4E74FF0FF30606120618020D4
:1054B0002071032F2CD104F1640000F0CBF90128F6
:1054C00026D1711C204600F044FA08BB84F8048001
:1054D00004F2322000F0BEF9A0F52A41553917D167
:1054E00004F1340000F0ABF91049884210D104F502
:1054F000067000F0A4F90E49884209D104F507703E
:1055000000F09DF9606104F5087000F098F92061E1
:1055100005492770091F0888401C0880E080204644
:10552000FFF764F807E70000440000205252614191
:105530007272416173B504460568019801E0401C30
:10554000019001782F29FAD05C29F8D00021A160C0
:1055500001980078202806D2802084F82F00204669
:10556000FFF7FAFB7CBD01A92046FFF7FFF80028F2
:10557000F8D12046FFF71CFA94F82F1028B1042820
:10558000F0D14907EED405207CBD4907FCD4A079B1
:10559000C006F8D5A08AC0F3080041192846343166
:1055A00000F03AF9A060DEE703490A685206FCD52C
:1055B000C2B24A60704700000010014010B50028D8
:1055C00021D0114B0022001F196803E0814203D84B
:1055D0000A4649680029F9D152B11368841A9C42DD
:1055E00004D1006818441060104602E0506000E0EA
:1055F000186039B102680B1A934203D10B681A4440
:1056000002604968416010BD480000207CB5164624
:105610001C4605460B2200F08BF9052C11D91D4ABA
:105620000CE00021B61C2346044663F35F044008E7
:10563000E30300D55440491C1029F4D330880028D6
:10564000EFD107214FEA0D0304F00F003030392865
:1056500000D9C01D5854491E2409F5D17E200022CE
:1056600058544C1E06E081387D2802D8A24206D04C
:10567000521C521C8A4202D2A85C2028F3D108296D
:1056800002D2585C491C00E02020A854521C082A71
:10569000F5D37CBD211001002DE9F04104680D46D1
:1056A00002290BD3A069A84208D920784FF0FF3611
:1056B000012807D002282BD0032839D001263046F4
:1056C000BDE8F081606A05EB550700EB57212046E5
:1056D00000F03FF90028F2D1C7F3080020447F1CF6
:1056E00090F83480606A00EB5721204600F031F9D1
:1056F0000028E4D1C7F30800204490F8341048EAA9
:105700000120E90701D00609D9E7C0F30B06D6E767
:10571000606A00EB1521204600F01BF90028CED16D
:10572000E8B204EB4000343000F094F80646C6E7D7
:10573000606A00EBD511204600F00BF90028BED1BD
:1057400040F2FF1000EA85002044343000F077F882
:1057500020F07046B3E70020704710B504464FF0C4
:10576000FF302268002A13D0114600E0491C0B7854
:10577000202B0ED33A2BF9D112F8013B303B0A2BE8
:1057800006D28A4204D1002B02D1491C184621605E
:1057900010BD002010BD0000F0B502461D4BD2F830
:1057A0000050002003EB00142668AE4207D1666863
:1057B0009768BE4203D1A4685669B44202D0401C27
:1057C0000228EFD3022814D1002002E0401C022856
:1057D00004D203EB00142468002CF7D102280ED069
:1057E00003EB00142560956865605269A260002291
:1057F000A281002903EB0011898902D019B1002090
:10580000F0BD491C01E04FF4807103EB0012401C15
:105810009181F0BD180C002070B506460D4601F1CF
:105820001A0000F017F804463078032805D105F176
:10583000140000F00FF844EA0044204670BDC1781F
:10584000827842EA01214278007842EA012140EA66
:10585000012070474178007840EA0120704700003D
:10586000FBF708F9FCF79CF9FCF7F8F8FCF72EF9C0
:10587000FCF764F9FCF746F9FCF7E2F80BA0FEF739
:10588000E5FB0E4C5FF00305FCF778F92078022861
:1058900007D00328F8D1002209A11046FFF7DAFA51
:1058A000F2E7FCF789F82570EEE70000626F6F748D
:1058B0006C6F61646572A3A10D0A000004000020F2
:1058C00000000000F0B50B30154D20F0070100245A
:1058D000144A0FE003688B420BD38B4205D95E1A42
:1058E00043184768C3E9006700E04368136002C0DB
:1058F00004E0021D10680028ECD12046002802D1E7
:10590000286808B10020F0BD064A07481060074A21
:10591000121A22F00702C0E9002401202860D7E70C
:105920004C000020480000204C0C0020481C0020A7
:10593000002A05D011F8013B00F8013B521EF9D1B5
:10594000704700005FFA81F100F8011B521EFBD185
:10595000704770B50446006B0D460026A8420FD074
:10596000204600F0EBF806000AD1607801232A46B1
:1059700004F13401FFF746FA08B1751E01262563CC
:10598000304670BD2DE9F047022617460D46044605
:10599000022969D3A069A84266D920784FF001098D
:1059A000012804D0022836D003285DD143E0616A83
:1059B00005EB550801EB58212046FFF7CAFF06000A
:1059C00052D1C8F308002044343008F10108E90737
:1059D00004D00178FAB262F31F1100E03946017079
:1059E00084F80390616A204601EB5821FFF7B1FF6C
:1059F000060039D1C8F3080020443430E90702D04A
:105A0000C7F3071105E00178C7F3032201F0F001A5
:105A10001143017026E0606A00EB15212046FFF774
:105A200098FF060020D1E8B204EB4000B9B2343050
:105A300000F073F816E0606A00EBD5112046FFF71E
:105A400088FF060010D140F2FF1000EA85002044D4
:105A500034300546FFF7F3FE67F31B000146284686
:105A600000F053F884F803903046BDE8F0872DE944
:105A7000F041056813460E46074602292DD3A86952
:105A8000B0422AD93BB14FF0FF3219462846FFF702
:105A900079FF00281FD131463846FFF7FDFD04008D
:105AA00018D0012C19D0601C19D00022314628468C
:105AB000FFF768FF00280ED1D5E90510821E91423C
:105AC00005D2491C6961297941F0010129712646F5
:105AD000B042E0D80020BDE8F0810220FBE70120C1
