:020000040804EE
:10000000A00E002029020408531C0408DD1904086E
:10001000511C0408AD040408A921040800000000D4
:10002000000000000000000000000000CB1C0408DD
:10003000C505040800000000551C0408CD1C040878
:10004000430204084302040843020408430204086C
:10005000430204084302040843020408430204085C
:10006000430204084302040843020408430204084C
:10007000430204084302040843020408430204083C
:10008000B1040408BD040408430204084302040840
:10009000430204084302040843020408430204081C
:1000A000430204084302040843020408430204080C
:1000B00043020408430204084302040843020408FC
:1000C00043020408430204084302040843020408EC
:1000D000430204088121040895210408430204080E
:1000E00043020408430204084302040843020408CC
:1000F00043020408430204084302040843020408BC
:1001000043020408430204084302040843020408AB
:10011000430204084302040843020408430204089B
:100120004302040843020408C90404084302040803
:10013000430204084302040843020408430204087B
:10014000430204084302040843020408430204086B
:100150004302040843020408D504040843020408C7
:10016000430204084302040843020408430204084B
:10017000430204084302040843020408000000008C
:10018000430204084302040800F002F800F03CF8BF
:100190000AA090E8000C82448344AAF10107DA45E2
:1001A00001D100F031F8AFF2090EBAE80F0013F0F8
:1001B000010F18BFFB1A43F001031847B8210000D4
:1001C000D8210000103A24BF78C878C1FAD8520765
:1001D00024BF30C830C144BF04680C6070470000C1
:1001E0000023002400250026103A28BF78C1FBD840
:1001F000520728BF30C148BF0B6070471FB502F0DF
:10020000A3F81FBD10B510BD00F00AF91146FFF7A5
:10021000F5FF02F04DF800F03CF903B4FFF7F2FFF0
:1002200003BC02F039F8000009488047094800473C
:10023000FEE7FEE7FEE7FEE7FEE7FEE7FEE7FEE796
:10024000FEE7FEE704480549054A064B70470000F3
:10025000651D040889010408A0040020A00E0020E8
:10026000A0060020A006002053EA020C00F06980DE
:100270002DE9F04B4FF00006002B1FBFB3FA83F5BA
:1002800003FA05F424FA05F65E4012BF1643B2FAEB
:1002900082F502FA05F4C5F120051EBF22FA05FC1D
:1002A00044EA0C04203556EA044C4FEA144418BFC3
:1002B000641C4FF000084FF00009904271EB030CF2
:1002C00039D3002919BFB1FA81F701FA07F6B0FA5C
:1002D00080F700FA07F6C7F120071EBF20FA07FCD7
:1002E00046EA0C062037B6FBF4FCA7EB0507103FE7
:1002F00007F01F0BCBF120060CFA0BFB2CFA06F6CD
:1003000044BFB3460026202FA4BF5E464FF0000B2B
:100310005BEA060C08BF4FF0010B19EB0B09ABFBB6
:10032000027C48EB0608C01B06FB02CC0BFB03CC8F
:1003300071EB0C01C1E70B46024641464846BDE859
:10034000F08B13B54FF000004FF00001AFF30080C9
:10035000BDE81C40704700000FB4044910B503AA63
:10036000029800F02FF810BC5DF814FB0400002088
:100370004FF0000200B5134694469646203922BF3E
:10038000A0E80C50A0E80C50B1F12001BFF4F7AF89
:10039000090728BFA0E80C5048BF0CC05DF804EB6B
:1003A000890028BF40F8042B08BF704748BF20F8D9
:1003B000022B11F0804F18BF00F8012B70477047D7
:1003C00070477047074B70B50D467B4400F011F83D
:1003D0000446284600F020F810B14FF0FF3070BD01
:1003E000204670BDCF1E000001694A1C02610878DA
:1003F000704700B58FB0CDE9013100210591054965
:100400007944CDE903101146684600F02EF80FB08C
:1004100000BD0000E5FFFFFF007B00F0800070479B
:10042000754600F03FF8AE4605006946534620F099
:100430000700854618B020B5FFF704FFBDE820404F
:100440004FF000064FF000074FF000084FF0000B90
:1004500021F00701AC46ACE8C009ACE8C009ACE843
:10046000C009ACE8C0098D4670472DE9F041064649
:100470000024D6E90170F5688046304603E0414625
:10048000B847641C3046A8470028F8D12046BDE88C
:10049000F08110B50446AFF300802046BDE810405F
:1004A000FFF7BBBE0048704740040020FEE7000095
:1004B000014800F0E5B8000080030020014800F08A
:1004C000DFB80000E0030020014800F0D9B80000C8
:1004D000C0020020014800F0D3B800002003002033
:1004E00001681823CAB2103AB2FBF3F2054B6FF35E
:1004F0000901032A9B5CC36500D9091D8165084673
:10050000704700005223040810B5014600208B6993
:100510008A6A4FF0C07453B1B3F5005F15D072B161
:10052000012A0CD0022A0AD0032A09D104E01AB108
:10053000012A06D0022A03D1C96AC90100D50120C7
:1005400010BDC96AA142FAD010BD002AF7D0012A15
:10055000F2D0022AF3D0032AF3D010BD30B50468DC
:10056000256825F480252560046863608368402B36
:10057000036803D099600068C26030BD9A6000686B
:10058000C16030BD0A4610B50146054801F0DEF9EC
:10059000002803D0BDE8104000F015B810BD0000E1
:1005A000380200200A4610B50146054801F0CEF990
:1005B000002803D0BDE8104000F005B810BD0000D1
:1005C0007C020020704772B6FEE72DE9F041044638
:1005D000876D00F0C5FA064694F83500002502281C
:1005E00006D08020606584F834500120BDE8F08199
:1005F0002068016821F0160101602068416921F03E
:1006000080014161206C08B9A06C20B120680168AC
:1006100021F0080101602068016821F001010160FA
:100620000CE000F09DFA801B052807D920206065AA
:10063000032084F8350084F83450D7E72068006838
:10064000C007EED194F85C103F208840B8600120CC
:1006500084F8350084F834500020C7E790F835104E
:10066000022903D08021416501207047052180F8CF
:1006700035100068016821F0010101600020704719
:100680002DE9F84304464FF00009CDF80090634887
:100690004FF41651A56D0068B0FBF1F72E6894F881
:1006A0005C10082000FA01F131420FD021680A687D
:1006B00052070BD50A6822F004020A6094F85C1015
:1006C0008840A860606D40F00100606594F85C109F
:1006D0004FF0010808FA01F0304208D0216849695A
:1006E000090604D5A860606D40F00200606594F8CA
:1006F0005C1004208840304208D0216809688907CE
:1007000004D5A860606D40F00400606594F85C104A
:1007100010208840304218D021680968090714D594
:10072000A86020680168490304D50068000308D563
:10073000A16C07E00168C90503D4016821F0080134
:100740000160216C09B12046884794F85C10202094
:100750008840304231D021680968C9062DD5A8608B
:1007600094F8350005282068016806D0490347D56C
:10077000006800031DD4616C1CE021F016010160CB
:100780002068416921F080014161206C08B9A06CAA
:1007900020B12068016821F00801016094F85C1024
:1007A0003F208840A86084F8358084F83490216D1B
:1007B0001FE0E16B09B120468847606D00282BD00F
:1007C000606DC00714D0052084F8350020680168EA
:1007D00021F0010101600098401C0090B84203D84C
:1007E00020680068C007F6D184F8358084F834901A
:1007F000E16C002910D001B02046BDE8F043084765
:100800000168C905D5D4016821F01001016084F8A0
:10081000358084F83490CCE7BDE8F88314000020DC
:100820002DE9F041044600F09BF906465CB1022038
:1008300084F83500002584F834502068016821F0E0
:10084000010101600DE00120BDE8F08100F088F9B0
:10085000801B052805D920206065032084F8350019
:10086000F2E720680068C007F0D1226811682048CC
:100870000140D4E901031843D4E903363343184354
:1008800063691843A3691843E3691843236A18434B
:100890000843616A042903D1D4E90B1319430843BF
:1008A000106020684069666A20F0070130460E43F8
:1008B000012704280CD1A06A0643E06A40B1204613
:1008C000FFF722FE20B14020606584F83570BAE75A
:1008D000206846612046FFF703FE94F85C203F2124
:1008E00091408160656584F835700020ACE70000B8
:1008F0003F8010F02DE9F0410446866D90F83400F9
:10090000002501280DD0012084F8340094F83570BA
:100910000020012F07D084F8340002252846BDE8C6
:10092000F0810220FBE7022784F8357060652046DD
:10093000FFF714FE94F85C103F208840B0602068F8
:10094000016841F016010160206C20B12068016847
:1009500041F0080101602068016841F00101016077
:10096000DCE700002DE9F84FDFF8BCA100220125EB
:1009700003264FF00F090AF1040BAAF1040E00BF81
:100980000B6805FA02F42340A34270D10F7907F0F7
:100990000307012F01D0022F16D187684FEA4208C2
:1009A00006FA08FC27EA0C07D1F80CC00CFA08FC80
:1009B0004CEA070CC0F808C04768A7430C79C4F399
:1009C000001494403C4344600C79E443A4070AD0EB
:1009D000C4684FEA420C06FA0CF7BC438F6807FA6A
:1009E0000CF72743C7600C7904F00304022C12D1E2
:1009F000D40800EB840CDCF820405707FF0E09FAFE
:100A000007F824EA0804D1F8108008FA07F848EA41
:100A10000408CCF8208004684FEA420C06FA0CF770
:100A2000BC430F7907F0030707FA0CF72743076069
:100A30004C6814F4403F70D03C4C276847F4804722
:100A40002760246822F0030704F480440094384CA3
:100A500007EB040CDCF8084897074FEA177809FA07
:100A600008F7BC43334FB84202D1002724E054E0DA
:100A7000314FB84201D101271EE0304FB84201D1B9
:100A8000022719E02E4FB84201D1032714E02D4F61
:100A9000B84201D104270FE02B4FB84201D10527FE
:100AA0000AE02A4FB84201D1062705E0284FB84294
:100AB00001D1072700E0082707FA08F72743CCF8F9
:100AC0000878DAF800405746D1F804C09C435FEA42
:100AD000CC2C00D51C433C60DBF800405F46D1F8CD
:100AE00004C09C435FEA8C2C00D51C433C60DEF8BC
:100AF00000407746D1F804C09C435FEA8C3C00D5A7
:100B00001C433C60084F083F3C68D1F804C09C433C
:100B10005FEACC3C00D51C433C60521C102AFFF419
:100B20002FAFBDE8F88F0000083C01404438024078
:100B30000030014000000240000402400008024072
:100B4000000C024000100240001402400018024055
:100B5000001C02400AB1816170470904FBE70000F4
:100B60000148806870470000080000200248816842
:100B70000278114481607047080000200B4810B5CE
:100B8000016841F400710160016841F48061016015
:100B9000016841F480710160032000F06FF80F20BC
:100BA00000F006F800F024F8002010BD003C0240E0
:100BB00070B50D4D04464FF47A712878B1FBF0F012
:100BC0000A490968B1FBF0F000F025FC48B9102C87
:100BD00007D200222146501E00F030F800206C6041
:100BE00070BD012070BD000008000020140000202E
:100BF0000A4808B5016841F480410160006800F4CA
:100C0000804000900548001F016841F0805101605C
:100C1000006800F08050009008BD00004438024099
:100C2000002809DB00F01F020121914040098000EB
:100C300000F1E020C0F8001170470000F0B40E4B46
:100C40001B680C46C3F30223C3F10705042D00D92A
:100C50000425191D072901D2002300E0DB1E01260F
:100C600006FA05F1491E214099409E40761E164025
:100C70003143F0BC01F000BB0CED00E0064900F090
:100C8000070208684FF6FF03184040EA0220034AB3
:100C900010430860704700000CED00E00000FA050A
:100CA0002DE9F843054600684FF00109C1074FF0F0
:100CB000000601D1400727D5DFF80C81C8F868602D
:100CC000FFF74EFF0746414C05E000BFFFF748FF26
:100CD000C01B022857D820680001F7D4686881013A
:100CE000287A41EA0070394984310860C8F8689070
:100CF000FFF736FF074604E0FFF732FFC01B02286C
:100D000041D820680001F7D52878800752D52F48B0
:100D10004030016841F08051016000682C4C00F0C7
:100D200080500090206840F480702060FFF718FF2A
:100D3000074604E0FFF714FFC01B022823D82068F1
:100D4000C005F7D5214C7034206810F4407020D0D5
:100D5000A98901F4407181421BD020681D4920F40B
:100D60004070C1F800900E6020602068C00710D06D
:100D7000FFF7F6FE064641F2883707E0FFF7F0FE80
:100D8000801BB84202D90320BDE8F88320688007A1
:100D9000F4D5E9680D48C1F301220830032A0BD0CD
:100DA000016821F4F81101602068A989C1F30B01E1
:100DB000084320600020E7E70268074B22F4F8129E
:100DC00019400A430260EFE7000047420038024042
:100DD00000700040400E4742FFFCFF0F2DE9F04736
:100DE0000E46050065D0DFF81481D8F80000F7B290
:100DF00000F00700B04207D288F80070D8F8000071
:100E000000F00700B04254D128683D4C810712D54C
:100E1000400703D5206840F4E050206028780007A0
:100E200003D5206840F4604020602068A96820F065
:100E3000F000084320602878C0072DD0304968684A
:100E40000839012812D0022813D0032811D00968CC
:100E5000890700292DDA216821F00301014321606F
:100E6000FFF77EFE814641F2883A0EE00968890369
:100E7000EFE709688901ECE7FFF772FEA0EB0901D3
:100E8000514502D90320BDE8F0872068696800F069
:100E90000C00B0EB810FEFD1D8F80010404601F004
:100EA0000701B14207D90770006800F00700B0429F
:100EB00001D00120E7E72878400705D52068E968D8
:100EC00020F4E050084320602878000706D5206809
:100ED000296920F4604040EAC100206000F038F841
:100EE0002168084AC1F30311515CC84006490860F3
:100EF00006480068FFF75CFE0020C4E7003C0240A3
:100F0000083802405A230408140000200C00002076
:100F10000448054900680968044AC1F38221515C0C
:100F2000C840704714000020083802406A230408B3
:100F30000448054900680968044AC1F34231515C1C
:100F4000C840704714000020083802406A23040893
:100F5000154810B5006810F00C02144813D0411069
:100F6000042A0FD0082A0ED10F4C241F22682368B0
:100F700002F03F025B0207D52068C0F38810A0FB97
:100F8000010106E0084610BD2168C1F38811A1FBEC
:100F900000010023FFF768F92168C1F30141491CF2
:100FA0004900B0FBF1F010BD083802400024F40005
:100FB0002DE9F84F04006ED02078DFF84C93C0077D
:100FC000A9F104054AD009F104000168C1F38101C7
:100FD000012908D00068C0F3810002280AD1D9F89D
:100FE0000000400206D52868800337D560680028D5
:100FF000E1D033E06068B0F5803F10D0B0F5A02FAD
:10100000286810D020F480302860286820F48020E0
:1010100028606068A8B1FFF7A3FD06460DE02868C8
:1010200040F48030F4E740F480202860F7E700BF08
:10103000FFF796FD801B642873D828688003F7D5D6
:101040000CE0FFF78DFD064605E000BFFFF788FDC9
:10105000801B6428F0D828688003F7D42078DFF854
:10106000AC8280074FF0000A3ED5A748001D0168FA
:1010700011F00C0F08D00068C0F3810002280BD1DA
:10108000D9F80000400207D42868800716D5E06828
:10109000012800D112E033E1E068B8B10120C8F8BE
:1010A0000000FFF75DFD064605E000BFFFF758FDB5
:1010B000801B0228C0D828688007F7D528682169D6
:1010C00020F0F80040EAC10028600DE0C8F800A058
:1010D000FFF746FD064604E0FFF742FD801B0228AD
:1010E0001FD828688007F7D42078000722D5864FBC
:1010F00087486169703771B101210160FFF730FDE8
:10110000064604E0FFF72CFD801B022809D838684A
:101110008007F7D50EE0C0F800A0FFF721FD0646D6
:1011200005E082E0FFF71CFD801B02287DD83868AF
:101130008007F7D42078400768D5DFF8CCB10027C6
:101140000BF13C0BDBF80000C0000BD4DBF8001007
:1011500041F08051CBF80010DBF80000012700F0CF
:10116000805000906B4E3068C00510D4306840F459
:1011700080703060FFF7F4FC009005E0FFF7F0FCB2
:101180000099401A022850D83068C005F6D55E4E46
:10119000A0686C3601280FD00528306810D020F0E8
:1011A00001003060306820F004003060A068B8B101
:1011B000FFF7D6FC00900FE0306840F00100F4E744
:1011C00040F004003060F7E7FFF7CAFC0099411ACD
:1011D00041F28830814266D830688007F4D50EE04D
:1011E000FFF7BEFC009007E0FFF7BAFC0099411A38
:1011F00041F28830814256D830688007F4D42FB14C
:10120000DBF8001021F08051CBF80010A069C8B3C2
:101210003D49091D0968C1F3810102294AD002280C
:10122000504607D0C8F8600000E03CE0FFF798FCAB
:1012300004463BE04746C8F86000FFF791FC0646CD
:1012400005E000BFFFF78CFC801B02282BD8286824
:101250008001F7D4D4E907010843A16A2E4A49085E
:1012600002EB0141626A41EA8211084394F82C10B2
:1012700040EA0161C9F8001001203866FFF770FCF0
:10128000044606E03EE000BFFFF76AFC001B0228B0
:1012900009D828688001F7D534E000BFFFF760FC6B
:1012A000001B022802D90320BDE8F88F28688001BE
:1012B000F4D427E00128F7D0D9F80000E26900F45F
:1012C000800191421CD1226A00F03F01914217D166
:1012D00047F6C071626A0140B1EB821F10D1A26A69
:1012E0004FF0FF3300F4403103EB5202B1EB024FF9
:1012F00006D194F82C1000F07060B0EB016F01D0B3
:101300000120D1E70020CFE7043802400000474227
:10131000800E4742007000400000FFFF10B504003F
:1013200002D0607F10B106E0012010BD00202077C0
:10133000204600F039F8022060772168CA20486210
:10134000216853204862204600F086FC30BB2068AC
:101350008168144A1140816021688868626810437E
:10136000D4E904231A43104388602168E0680861C7
:1013700020680169228941EA02410161204600F0AA
:101380008FFC58B921680A6C22F480220A64216813
:101390000A6CA3691A430A64012161772268FF215C
:1013A000516210BDBFFF8FFF1FB500210091019159
:1013B000029103910068084988420CD102200090F4
:1013C000C00103906846FFF76BFC08B1FFF7FBF81C
:1013D0000249012008601FBD002800403C0E474222
:1013E00070B504460068C16821F0A001C160FFF734
:1013F000B7FB05464FF47A7607E000BFFFF7B0FB76
:10140000401BB04201D9032070BD2068C06880062F
:10141000F4D5002070BD10B5401EB0F1807F01D31F
:10142000012010BD4FF0E02460610F21601700F033
:1014300023FF0020A06107202061002010BD70471D
:1014400010B504460068406994F83D10C0F3C01020
:10145000212911D180B12068143050E8001F21F0FB
:10146000800140E80012002AF5D1606B08B1FFF757
:10147000ACF8204600F046FD2068406994F83E1024
:10148000C0F38010222911D180B12068143050E8B7
:10149000001F21F0400140E80012002AF5D1A06BA6
:1014A00008B1FFF792F8204600F005FD002010BDBE
:1014B00070470000F8B5016804460868CA684B69BF
:1014C00010F00F0F4FF0000559D003F0010602F4A1
:1014D0009077374365D0C10705D0D10503D5216C7E
:1014E00041F001012164410705D5D90703D0216CE2
:1014F00041F002012164810705D5D90703D0216C91
:1015000041F004012164010707D502F020013143B5
:1015100003D0216C41F008012164216C00293AD0EC
:10152000800604D5900602D5204600F0F9FC20681C
:101530004069216CC0F38010090700D460B32046D5
:1015400000F0B9FC20684069400621D520681430BD
:1015500050E8001F21F0400140E80012002AF5D1B8
:10156000A06BA8B16C490165A06BFFF777F8002864
:1015700011D0A06B016D01B0BDE8F04008478306B3
:101580000FD593060DD52046BDE8F84000F0C8BC45
:101590002046FFF78DFFF8BD2046FFF789FF256441
:1015A000F8BD266B2023012E79D1C60677D5D60645
:1015B00075D50868486800904869400640D5A16B19
:1015C000086840680004000CEAD0A28D8242E7D986
:1015D000E085C869B0F5807F2DD020680C3050E8D8
:1015E000001F21F4807140E80012002AF5D1206824
:1015F000143050E8001F21F0010140E80012002AD9
:10160000F5D12068143050E8001F21F0400140E877
:101610000012002AF5D184F83E30256320680C3092
:1016200050E8001F21F0100140E80012002AF5D117
:10163000A06BFEF7CAFFA08DE18D401A81B229E0B0
:10164000A08DE18D401A81B2E08D0028A8D000293C
:10165000A6D020680C3050E8002F22F4907240E8A9
:101660000026002EF5D12068143050E8002F22F01B
:10167000010240E80026002EF5D184F83E302563B3
:1016800020680C3050E8002F22F0100240E80023C0
:10169000002BF5D12046FFF7D2FEF8BDFFE7050687
:1016A0002BD5150629D594F83D002128F5D1A06841
:1016B000B0F5805F01D12069B0B1206A411C216280
:1016C000216800784860E08C401E0004000CE08433
:1016D000E3D12068C16821F08001C1602068C16841
:1016E00041F04001C160D8E7206A0088C0F30800DB
:1016F0004860206A801C2062E5E74006CDD5500690
:10170000CBD5CA68204622F04002CA6084F83D303A
:1017100000F062F9C1E70000751D040870B504000F
:1017200004D094F83D00002510B106E0012070BD02
:1017300084F83C50204600F023F8242084F83D0033
:101740002068C16821F40051C160204600F048FCC7
:101750002068016921F4904101612068416921F00C
:101760002A0141612068C16841F40051C1602564CB
:10177000202084F83D0084F83E00002070BD000069
:101780002DE9F04786B0044614216846FEF7F0FDC7
:10179000DFF868C102212668594803220723DFF8D1
:1017A000648100258F064FF0400A4FF4806966453A
:1017B0004DD1534E1436D6F800C04CF0100CC6F87C
:1017C00000C0366806F010060596066846F0010669
:1017D0000660006800F00100059050028DE82300CB
:1017E00069464046CDE90323FFF7BCF8474E46481B
:1017F000C8463060C6E90175C6E903597561B5612F
:10180000F561356230467562FFF70AF808B1FEF7F8
:10181000DAFEA663B4633D4E3B4860367830C6E9D5
:1018200003587561B561F5613562756286E88104BA
:101830003046FEF7F5FF08B1FEF7C5FE66630022ED
:1018400002212520B463FFF7F9F9252051E0DFF8E4
:10185000C0C066454FD12A4E1036D6F800C04CF4B1
:10186000003CC6F800C0366806F4003605960668E7
:1018700046F001060660006800F0010005900C20AB
:101880008DE8230069464046CDE90323FFF76AF857
:101890001E4E2048C036B8463060C6E90175C6E91C
:1018A00003597561B561F56135624F463046756221
:1018B000FEF7B6FF08B1FEF786FEA663B463164EC8
:1018C0001448C6E903577561B561F5613562183092
:1018D000756286E801053046FEF7A2FF08B1FEF703
:1018E00072FE6663002211462620B463FFF7A6F954
:1018F0002620FFF795F906B0BDE8F08700100140FB
:10190000303802400000024040640240C002002023
:101910000044004088600240E003002090F83E3020
:10192000202B0ED159B152B190F83C30012B08D088
:10193000012380F83C300023036300F0D7BB012073
:1019400070470220704770477047000070B504462A
:1019500090F83D00202836D191B38AB394F83C002A
:10196000012830D0012084F83C002162A284E28466
:1019700000252564212084F83D00636B1348D8635B
:10198000636B13481864636B1248D864606B13462A
:1019900005652668606B321DFEF7ACFF21686FF0AD
:1019A0004000086084F83C502068143050E8001F64
:1019B00041F0800140E80012002AF5D1002070BDFE
:1019C000FFE70120FBE70220F9E700006B1E040897
:1019D000AD1E0408851D040870477047FEE700002F
:1019E000194808B5016841F400110160016801F46B
:1019F00000110091016841F480010160006800223B
:101A000000F48000009011461020FFF717F9102015
:101A1000FFF706F9002211461120FFF70FF91120F8
:101A2000FFF7FEF8002211463A20FFF707F93A20A7
:101A3000FFF7F6F8002211464620FFF7FFF8BDE851
:101A400008404620FFF7ECB8303802402DE9F0415D
:101A500086B014216846FEF78BFC4C4800240168D0
:101A600041F010010160016801F010010591016869
:101A700041F004010160016801F004010591016871
:101A800041F020010160016801F020010591016829
:101A900041F080010160016801F080010591016859
:101AA00041F001010160016801F001010591016847
:101AB00041F002010160016801F002010591016835
:101AC00041F040010160016801F0400105910168A9
:101AD00041F0080101600068DFF8B48000F0080000
:101AE000059000224FF404614046FFF733F84FF6AB
:101AF000FF7603250096CDE9015469462548FEF797
:101B000031FFB010CDE90005694602942248FEF786
:101B100029FF0096CDE9015469462048FEF722FFCF
:101B200049F2B310CDE90005694602944046FEF73C
:101B300019FF01274020CDE90007CDE9027469466D
:101B40004046FEF70FFF0096CDE901546946144860
:101B5000FEF708FF0096CDE9015469461148FEF7EB
:101B600001FF0096CDE9015469460F48FEF7FAFEE1
:101B7000F802CDE900070220CDE90204694640469B
:101B8000FEF7F0FE06B0BDE8F081000030380240FC
:101B90000000024000100240000802400014024011
:101BA0000004024000180240000C02400B4810B52F
:101BB0000949016000217F22C0E90112FF22C0E92A
:101BC000032141618161FFF7A9FB002803D0BDE833
:101BD0001040FEF7F8BC10BD00280040180000209F
:101BE0000C4810B50A4901604FF4E1314160002111
:101BF00081600C22C160C0E904128161C161FFF7FC
:101C00008DFD002803D0BDE81040FEF7DCBC10BD00
:101C100000100140380200200C4810B50A4901604C
:101C20004FF416514160002181600C22C160C0E96F
:101C300004128161C161FFF771FD002803D0BDE886
:101C40001040FEF7C0BC10BD004400407C020020E4
:101C5000FEE7FEE7704700002DE9F041044600680A
:101C60000025C168490618D4C16841F08001C160EF
:101C7000FEF776FF06464FF47A78042707E000BFA8
:101C8000FEF76EFF801B404501D96777012520686C
:101C9000C068400601D4002DF2D02846BDE8F0818E
:101CA00070B5044600680025C16821F08001C1605C
:101CB00020688068800606D42046FFF791FB10B1AB
:101CC000042060770125284670BD7047FEF74EBF9F
:101CD00030B593B030216846FEF74AFB14210CA8BA
:101CE000FEF746FB1D480025016841F08051016068
:101CF000006800F0805011901948016841F480415B
:101D000001600068022400F48040119005200090DA
:101D10004FF480300190012002908005CDE906400B
:101D200008AA0420482182E813000B906846FFF7B8
:101D30003FF908B172B6FEE70F20CDE90C04802010
:101D40000E904001CDE90F0501210CA8FFF746F8E0
:101D5000002801D072B6FEE713B030BD4038024013
:101D6000007000400248016841F470010160704752
:101D700088ED00E010B5806B0021C185C184FFF7BC
:101D800097FB10BD70B5846B2068406994F83D10D6
:101D9000C0F3C0100025212904D118B1E5842046E4
:101DA00000F0B0F82068406994F83E10C0F380104D
:101DB000222904D118B1E585204600F07CF8206C7A
:101DC00040F0100020642046FFF772FB70BD10B594
:101DD0000146806B09680968C9052FD40021C185B7
:101DE00001680C3151E8002F22F4807241E8002391
:101DF000002BF5D10168143151E8002F22F00102C7
:101E000041E80023002BF5D10168143151E8002F7F
:101E100022F0400241E80023002BF5D1202180F878
:101E20003E10016B012909D101680C3151E8002FE6
:101E300022F0100241E80023002BF5D1016B0129AB
:101E400002D0FFF780FD10BD818DFFF7F8FA10BDBD
:101E500010B5806B016B012902D0FFF775FD10BD35
:101E6000818D4908FFF7EBFA10BD10B50146806B74
:101E700009680968C90516D40021C18401681431B4
:101E800051E8002F22F0800241E80023002BF5D119
:101E900001680C3151E8002F42F0400241E8002374
:101EA000002BF5D110BDFFF797FD10BD10B5806B6D
:101EB000FFF793FD10BD01680C3151E8002F22F4AB
:101EC000907241E80023002BF5D10168143151E8EC
:101ED000002F22F0010241E80023002BF5D1016B15
:101EE000012909D101680C3151E8002F22F01002BC
:101EF00041E80023002BF5D1202180F83E1000217D
:101F00000163704701680C3151E8002F22F0C002D4
:101F100041E80023002BF5D1202180F83D107047C7
:101F200008B590F83E10222901D0022008BD826831
:101F30004FF480539A4201D1016921B1816A9A42DA
:101F40001BD04AB10AE00268816A5268C2F30802F3
:101F50000A80816A891C08E0026972B102685268CD
:101F600002F07F020A70816A491C8162C18D491E9C
:101F70000904090CC18503D019E002685268F1E731
:101F80000168CA6822F02002CA600168CA6822F4A7
:101F90008072CA6001684A6922F001024A61202108
:101FA00080F83E10016B012903D0FFF7CCFC002024
:101FB00008BD0021016301680C3151E8002F22F0B7
:101FC000100241E80023002BF5D101680A68D2060F
:101FD00002D50A6849680091818DFFF730FAE6E77B
:101FE00070B5044600680169E26821F4405111436C
:101FF00001612169A068E2690843616911430843EE
:102000002168CA6849F20C639A430243CA60206897
:102010004169A26921F4407111434161314920684D
:10202000884202D03049884202D1FEF781FF01E0A8
:10203000FEF76EFFE2690023192164253226B2F50E
:10204000004F626828D0A0FB0101930F9200FEF7B9
:102050000BF90146B0FBF5F06FF01802504301EBAD
:10206000800006EB0010B0FBF5F000F0F002B1FBD1
:10207000F5F002EB0012B1FBF5F06FF018035843D6
:1020800001EB800006EB0010B0FBF5F000F00F0054
:1020900021681044886070BDA0FB010192185B416B
:1020A000FEF7E2F80146B0FBF5F00201B1FBF5F0F6
:1020B0006FF01803584301EB800006EBC000B0FB43
:1020C000F5F000F0F80002EB4002B1FBF5F05843E8
:1020D00001EB800006EBC000B0FBF5F000F007005C
:1020E000D6E70000001001400014014038B58162BD
:1020F00082850025134604460564222084F83E00AC
:10210000A26B1C48D063A26B1B481064A26B1B48D7
:10211000D064A06B0A4605652168A06B091DFEF717
:10212000E9FB206801684068009084F83C50206911
:1021300048B120680C3050E8001F41F4807140E83D
:102140000012002AF5D12068143050E8001F41F039
:10215000010140E80012002AF5D12068143050E84F
:10216000001F41F0400140E80012002AF5D1002094
:1021700038BD0000CF1D0408511E0408851D040849
:1021800010B500F029F8BDE810400148FFF792B9FA
:102190003802002010B500F051F8BDE810400148A9
:1021A000FFF788B97C020020FEE7000010B5084C5C
:1021B00021780848FEF7E6F9002020706070054994
:1021C000BDE810404FF4807201F50070FFF7A6BB28
:1021D00000000020380000200B4808B500680168A6
:1021E000C1F3001100290ED0016840680090064834
:1021F000FFF726F9044888300068406841420348E8
:1022000001700121417008BD38020020000000204B
:1022100010B5084CA1780848FEF7C4F90020A0705A
:10222000E0700549BDE810404FF4807201F5A270DE
:10223000FFF774BB00000020380100200B4808B5F0
:1022400000680168C1F3001100290DD001684068E1
:1022500000900648FFF7F4F80548006840684142DE
:10226000044881700121C17008BD00007C0200207B
:1022700080030020000000200907090E002804DB6D
:1022800000F1E02080F80014704700F00F0000F12A
:10229000E02080F8141D70477047000003490A6869
:1022A0005206FCD5C2B24A607047000000100140DF
:1022B0001C491B480860FEF761FCFFF709FDFFF7AA
:1022C000C5FBFFF78DFBFFF771FCFFF789FCFFF7FC
:1022D000A3FC15480068C16841F01001C1604FF4CB
:1022E0008074224611491048FFF718FB1048006817
:1022F000C16841F01001C16022460E490C48FFF749
:102300000DFB0DA0FEF728F80D4C0E4D207808B1FE
:10231000FFF74CFF28780028F8D0FFF779FFF5E7A2
:102320000000040808ED00E038020020380000201A
:102330007C020020380100206170700D0A0000004E
:1023400001000020030000204FF04070E1EE100A71
:10235000704700061016000610160000000000006E
:102360000000010203040607080900000000010242
:10237000030400009423040800000020180000005B
:10238000C4010408AC23040818000020880E0000D3
:10239000E00104080000000000000000010000004F
:0C23A00010000000000000000024F40009
:040000050804018961
:00000001FF
